{"contracts/v0.2.0/GrtPool.sol":{"GrtPool":{"abi":[{"anonymous":false,"inputs":[{"indexed":false,"internalType":"uint8","name":"version","type":"uint8"}],"name":"Initialized","type":"event"},{"anonymous":false,"inputs":[{"indexed":true,"internalType":"bytes32","name":"_idRequest","type":"bytes32"},{"indexed":true,"internalType":"bytes32","name":"_idOffer","type":"bytes32"}],"name":"LogAcceptOffer","type":"event"},{"anonymous":false,"inputs":[{"indexed":true,"internalType":"bytes32","name":"_idRequest","type":"bytes32"},{"indexed":true,"internalType":"bytes32","name":"_idOffer","type":"bytes32"}],"name":"LogCreateOffer","type":"event"},{"anonymous":false,"inputs":[{"indexed":true,"internalType":"bytes32","name":"_idRequest","type":"bytes32"},{"indexed":true,"internalType":"address","name":"_token","type":"address"},{"indexed":true,"internalType":"uint256","name":"_amount","type":"uint256"},{"indexed":false,"internalType":"uint256","name":"_chainId","type":"uint256"}],"name":"LogDeposit","type":"event"},{"anonymous":false,"inputs":[{"indexed":true,"internalType":"bytes32","name":"_idRequest","type":"bytes32"},{"indexed":true,"internalType":"bytes32","name":"_idOffer","type":"bytes32"}],"name":"LogOfferPaidCrossChain","type":"event"},{"anonymous":false,"inputs":[{"indexed":true,"internalType":"bytes32","name":"_idRequest","type":"bytes32"},{"indexed":true,"internalType":"bytes32","name":"_idOffer","type":"bytes32"}],"name":"LogOfferPaidOnChain","type":"event"},{"anonymous":false,"inputs":[{"indexed":true,"internalType":"bytes32","name":"_idRequest","type":"bytes32"},{"indexed":true,"internalType":"bytes32","name":"_idOffer","type":"bytes32"}],"name":"LogRejectOffer","type":"event"},{"anonymous":false,"inputs":[{"indexed":true,"internalType":"bytes32","name":"_idRequest","type":"bytes32"},{"indexed":true,"internalType":"address","name":"_token","type":"address"},{"indexed":true,"internalType":"uint256","name":"_amount","type":"uint256"},{"indexed":false,"internalType":"uint256","name":"_chainId","type":"uint256"}],"name":"LogRequest","type":"event"},{"anonymous":false,"inputs":[{"indexed":true,"internalType":"address","name":"_user","type":"address"},{"indexed":true,"internalType":"uint256","name":"_amount","type":"uint256"}],"name":"LogStake","type":"event"},{"anonymous":false,"inputs":[{"indexed":true,"internalType":"address","name":"previousOwner","type":"address"},{"indexed":true,"internalType":"address","name":"newOwner","type":"address"}],"name":"OwnershipTransferred","type":"event"},{"inputs":[{"internalType":"bytes32","name":"idRequest","type":"bytes32"},{"internalType":"bytes32","name":"idOffer","type":"bytes32"}],"name":"claimGRTWithoutDispute","outputs":[{"internalType":"bool","name":"","type":"bool"}],"stateMutability":"nonpayable","type":"function"},{"inputs":[{"internalType":"uint256","name":"amntDepGRT","type":"uint256"},{"internalType":"address","name":"userOffer","type":"address"},{"internalType":"address","name":"tokenOffer","type":"address"},{"internalType":"uint256","name":"amountOffer","type":"uint256"},{"internalType":"uint256","name":"chainIdOffer","type":"uint256"},{"internalType":"bytes32","name":"idOffer","type":"bytes32"},{"internalType":"address","name":"destAddr","type":"address"}],"name":"depositGRTRequestERC20","outputs":[{"internalType":"bool","name":"","type":"bool"}],"stateMutability":"nonpayable","type":"function"},{"inputs":[{"internalType":"uint256","name":"amntDepGRT","type":"uint256"},{"internalType":"address","name":"userOffer","type":"address"},{"internalType":"uint256","name":"amountOffer","type":"uint256"},{"internalType":"uint256","name":"chainIdOffer","type":"uint256"},{"internalType":"bytes32","name":"idOffer","type":"bytes32"},{"internalType":"address","name":"destAddr","type":"address"}],"name":"depositGRTRequestNative","outputs":[{"internalType":"bool","name":"","type":"bool"}],"stateMutability":"nonpayable","type":"function"},{"inputs":[{"internalType":"bytes32","name":"idRequest","type":"bytes32"}],"name":"getDepositAmount","outputs":[{"internalType":"uint256","name":"","type":"uint256"}],"stateMutability":"view","type":"function"},{"inputs":[{"internalType":"bytes32","name":"idRequest","type":"bytes32"}],"name":"getDepositChainId","outputs":[{"internalType":"uint256","name":"","type":"uint256"}],"stateMutability":"view","type":"function"},{"inputs":[{"internalType":"bytes32","name":"idRequest","type":"bytes32"}],"name":"getDepositToken","outputs":[{"internalType":"address","name":"","type":"address"}],"stateMutability":"view","type":"function"},{"inputs":[{"internalType":"address","name":"user","type":"address"}],"name":"getNonce","outputs":[{"internalType":"uint256","name":"","type":"uint256"}],"stateMutability":"view","type":"function"},{"inputs":[{"internalType":"bytes32","name":"idRequest","type":"bytes32"}],"name":"getOfferAmount","outputs":[{"internalType":"uint256","name":"","type":"uint256"}],"stateMutability":"view","type":"function"},{"inputs":[{"internalType":"bytes32","name":"idRequest","type":"bytes32"}],"name":"getOfferChainId","outputs":[{"internalType":"uint256","name":"","type":"uint256"}],"stateMutability":"view","type":"function"},{"inputs":[{"internalType":"bytes32","name":"idRequest","type":"bytes32"}],"name":"getOfferCreator","outputs":[{"internalType":"address","name":"","type":"address"}],"stateMutability":"view","type":"function"},{"inputs":[{"internalType":"bytes32","name":"idRequest","type":"bytes32"}],"name":"getOfferId","outputs":[{"internalType":"bytes32","name":"","type":"bytes32"}],"stateMutability":"view","type":"function"},{"inputs":[{"internalType":"bytes32","name":"idRequest","type":"bytes32"}],"name":"getOfferToken","outputs":[{"internalType":"address","name":"","type":"address"}],"stateMutability":"view","type":"function"},{"inputs":[{"internalType":"bytes32","name":"idRequest","type":"bytes32"}],"name":"getRecipient","outputs":[{"internalType":"address","name":"","type":"address"}],"stateMutability":"view","type":"function"},{"inputs":[{"internalType":"bytes32","name":"idRequest","type":"bytes32"}],"name":"getRequester","outputs":[{"internalType":"address","name":"","type":"address"}],"stateMutability":"view","type":"function"},{"inputs":[],"name":"grtAddress","outputs":[{"internalType":"address","name":"","type":"address"}],"stateMutability":"view","type":"function"},{"inputs":[{"internalType":"address","name":"addrGRT","type":"address"}],"name":"initializePool","outputs":[],"stateMutability":"nonpayable","type":"function"},{"inputs":[{"internalType":"bytes32","name":"idRequest","type":"bytes32"}],"name":"isOfferPaid","outputs":[{"internalType":"bool","name":"","type":"bool"}],"stateMutability":"view","type":"function"},{"inputs":[],"name":"owner","outputs":[{"internalType":"address","name":"","type":"address"}],"stateMutability":"view","type":"function"},{"inputs":[],"name":"renounceOwnership","outputs":[],"stateMutability":"nonpayable","type":"function"},{"inputs":[{"internalType":"address","name":"token","type":"address"}],"name":"setGRTAddr","outputs":[],"stateMutability":"nonpayable","type":"function"},{"inputs":[{"internalType":"uint256","name":"amount","type":"uint256"}],"name":"stakeGRT","outputs":[{"internalType":"bool","name":"","type":"bool"}],"stateMutability":"nonpayable","type":"function"},{"inputs":[{"internalType":"address","name":"account","type":"address"}],"name":"stakeOf","outputs":[{"internalType":"uint256","name":"","type":"uint256"}],"stateMutability":"view","type":"function"},{"inputs":[{"internalType":"address","name":"newOwner","type":"address"}],"name":"transferOwnership","outputs":[],"stateMutability":"nonpayable","type":"function"}],"devdoc":{"kind":"dev","methods":{"owner()":{"details":"Returns the address of the current owner."},"renounceOwnership()":{"details":"Leaves the contract without owner. It will not be possible to call `onlyOwner` functions anymore. Can only be called by the current owner. NOTE: Renouncing ownership will leave the contract without an owner, thereby removing any functionality that is only available to the owner."},"transferOwnership(address)":{"details":"Transfers ownership of the contract to a new account (`newOwner`). Can only be called by the current owner."}},"version":1},"evm":{"bytecode":{"linkReferences":{},"object":"608060405234801561001057600080fd5b50611145806100206000396000f3fe608060405234801561001057600080fd5b506004361061018d5760003560e01c80638da5cb5b116100e3578063c9dfdc441161008c578063d74c9c7411610066578063d74c9c7414610423578063f2fde38b14610446578063fbc6da751461045957600080fd5b8063c9dfdc44146103ca578063cbb35436146103ed578063d4a4429a1461040057600080fd5b8063b4bed2c9116100bd578063b4bed2c91461036a578063bfe5135914610396578063c9ad9f4a146103a757600080fd5b80638da5cb5b1461031a578063a26573151461032b578063ace7c37e1461035757600080fd5b8063412ff8931161014557806358381bbd1161011f57806358381bbd146102d65780635e348b39146102ff578063715018a61461031257600080fd5b8063412ff8931461026d57806342623360146102805780634b990a24146102a957600080fd5b80632d0335ab116101765780632d0335ab1461020c5780633c8e311714610235578063407431f71461025857600080fd5b8063296012b9146101925780632c3daef6146101db575b600080fd5b6101be6101a0366004610f57565b6000908152606760205260409020600701546001600160a01b031690565b6040516001600160a01b0390911681526020015b60405180910390f35b6101fe6101e9366004610f57565b60009081526067602052604090206003015490565b6040519081526020016101d2565b6101fe61021a366004610f8c565b6001600160a01b031660009081526069602052604090205490565b610248610243366004610fae565b610485565b60405190151581526020016101d2565b61026b610266366004610f8c565b610555565b005b61026b61027b366004610f8c565b610696565b6101fe61028e366004610f8c565b6001600160a01b031660009081526068602052604090205490565b6102486102b7366004610f57565b600090815260676020526040902060060154600160a01b900460ff1690565b6101be6102e4366004610f57565b6000908152606760205260409020546001600160a01b031690565b61024861030d366004611006565b6106c0565b61026b610790565b6033546001600160a01b03166101be565b6101be610339366004610f57565b6000908152606760205260409020600601546001600160a01b031690565b610248610365366004610f57565b6107a4565b6101be610378366004610f57565b6000908152606760205260409020600201546001600160a01b031690565b6065546001600160a01b03166101be565b6101fe6103b5366004610f57565b60009081526067602052604090206009015490565b6101fe6103d8366004610f57565b60009081526067602052604090206008015490565b6102486103fb366004611070565b610809565b6101fe61040e366004610f57565b60009081526067602052604090206004015490565b6101fe610431366004610f57565b60009081526067602052604090206005015490565b61026b610454366004610f8c565b610ad4565b6101be610467366004610f57565b6000908152606760205260409020600101546001600160a01b031690565b600061049087610b64565b503360008181526069602090815260408083205481519283015260609390931b6bffffffffffffffffffffffff1916928101929092524660548301529060740160408051808303601f190181529082905280516020918201206065544684529093508a926001600160a01b039091169184917fc50426a58c328dde98bf1e6e781031dc1d928393568d3b55d05eaff42762200a910160405180910390a4610538818685610bf9565b61054781858960008a8a610c9e565b506001979650505050505050565b600054610100900460ff16158080156105755750600054600160ff909116105b8061058f5750303b15801561058f575060005460ff166001145b6106065760405162461bcd60e51b815260206004820152602e60248201527f496e697469616c697a61626c653a20636f6e747261637420697320616c72656160448201527f647920696e697469616c697a656400000000000000000000000000000000000060648201526084015b60405180910390fd5b6000805460ff191660011790558015610629576000805461ff0019166101001790555b610631610d70565b606580546001600160a01b0319166001600160a01b0384161790558015610692576000805461ff0019169055604051600181527f7f26b83ff96e1f2b6a682f133852f6798a09c465da95921460cefb38474024989060200160405180910390a15b5050565b61069e610de3565b606580546001600160a01b0319166001600160a01b0392909216919091179055565b60006106cb88610b64565b503360008181526069602090815260408083205481519283015260609390931b6bffffffffffffffffffffffff1916928101929092524660548301529060740160408051808303601f190181529082905280516020918201206065544684529093508b926001600160a01b039091169184917fc50426a58c328dde98bf1e6e781031dc1d928393568d3b55d05eaff42762200a910160405180910390a4610773818a85610bf9565b61078181858a8a8a8a610c9e565b50600198975050505050505050565b610798610de3565b6107a26000610e3d565b565b60006107af82610b64565b50604051829033907f3dbdcfd4c1f2e08931aae3d544e149a1e643143f5234d166fe3debb78338849590600090a333600090815260686020526040812080548492906107fc9084906110c1565b9091555060019392505050565b6000828152606760205260408120600601546001600160a01b03166108965760405162461bcd60e51b815260206004820152602560248201527f47525420706f6f6c3a20746865207265717565737420646f6573206e6f74206560448201527f786973742100000000000000000000000000000000000000000000000000000060648201526084016105fd565b600083815260676020526040902060060154600160a01b900460ff16156109255760405162461bcd60e51b815260206004820152602a60248201527f47525420706f6f6c3a20746865206f666665722068617320616c72656164792060448201527f6265656e2070616964210000000000000000000000000000000000000000000060648201526084016105fd565b6000838152606760205260409020600601546001600160a01b031633146109b45760405162461bcd60e51b815260206004820152603160248201527f47525420706f6f6c3a20796f7520617265206e6f7420616c6c6f77656420746f60448201527f206d616b65207468697320636c61696d2100000000000000000000000000000060648201526084016105fd565b60655460008481526067602052604090819020600681015460039091015491517fa9059cbb0000000000000000000000000000000000000000000000000000000081526001600160a01b03918216600482015260248101929092529091169063a9059cbb906044016020604051808303816000875af1158015610a3b573d6000803e3d6000fd5b505050506040513d601f19601f82011682018060405250810190610a5f91906110d4565b50604051829084907f873fbc32f9a4996490181c893688add0c5d0555f4683b3334f2e95799e86e13a90600090a350600082815260676020526040902060060180547fffffffffffffffffffffff00ffffffffffffffffffffffffffffffffffffffff16600160a01b17905560015b92915050565b610adc610de3565b6001600160a01b038116610b585760405162461bcd60e51b815260206004820152602660248201527f4f776e61626c653a206e6577206f776e657220697320746865207a65726f206160448201527f646472657373000000000000000000000000000000000000000000000000000060648201526084016105fd565b610b6181610e3d565b50565b6065546040517f23b872dd000000000000000000000000000000000000000000000000000000008152336004820152306024820152604481018390526000916001600160a01b0316906323b872dd906064016020604051808303816000875af1158015610bd5573d6000803e3d6000fd5b505050506040513d601f19601f82011682018060405250810190610ace91906110d4565b600083815260676020526040902080546001600160a01b0319908116331782556001820180546001600160a01b0385811691909316179055606554610c4091168446610e8f565b80516002830180546001600160a01b0319166001600160a01b03909216919091179055602080820151600384015560409182015160048401553360009081526069909152908120805491610c93836110f6565b919050555050505050565b81836001600160a01b0316877f4fc5208f862c96a2a2595f09440919e8bda929d3e9b14a6e5fcac7c4cb8f5f5984604051610cdb91815260200190565b60405180910390a460008681526067602052604090206005810186905560060180546001600160a01b0319166001600160a01b038616179055610d1f838383610e8f565b60009687526067602090815260409788902082516007820180546001600160a01b0319166001600160a01b039092169190911790559082015160088201559601516009909601959095555050505050565b600054610100900460ff16610ddb5760405162461bcd60e51b815260206004820152602b60248201527f496e697469616c697a61626c653a20636f6e7472616374206973206e6f74206960448201526a6e697469616c697a696e6760a81b60648201526084016105fd565b6107a2610ee3565b6033546001600160a01b031633146107a25760405162461bcd60e51b815260206004820181905260248201527f4f776e61626c653a2063616c6c6572206973206e6f7420746865206f776e657260448201526064016105fd565b603380546001600160a01b038381166001600160a01b0319831681179093556040519116919082907f8be0079c531659141344cd1fd0a4f28419497f9722a3daafe3b4186f6b6457e090600090a35050565b610ebc604051806060016040528060006001600160a01b0316815260200160008152602001600081525090565b50604080516060810182526001600160a01b03909416845260208401929092529082015290565b600054610100900460ff16610f4e5760405162461bcd60e51b815260206004820152602b60248201527f496e697469616c697a61626c653a20636f6e7472616374206973206e6f74206960448201526a6e697469616c697a696e6760a81b60648201526084016105fd565b6107a233610e3d565b600060208284031215610f6957600080fd5b5035919050565b80356001600160a01b0381168114610f8757600080fd5b919050565b600060208284031215610f9e57600080fd5b610fa782610f70565b9392505050565b60008060008060008060c08789031215610fc757600080fd5b86359550610fd760208801610f70565b9450604087013593506060870135925060808701359150610ffa60a08801610f70565b90509295509295509295565b600080600080600080600060e0888a03121561102157600080fd5b8735965061103160208901610f70565b955061103f60408901610f70565b9450606088013593506080880135925060a0880135915061106260c08901610f70565b905092959891949750929550565b6000806040838503121561108357600080fd5b50508035926020909101359150565b7f4e487b7100000000000000000000000000000000000000000000000000000000600052601160045260246000fd5b80820180821115610ace57610ace611092565b6000602082840312156110e657600080fd5b81518015158114610fa757600080fd5b60006001820161110857611108611092565b506001019056fea26469706673582212209440f1407649d439906d7e1655d8a7aba194c9d495b5acae5039fa8946cf8c8c64736f6c63430008110033","opcodes":"PUSH1 0x80 PUSH1 0x40 MSTORE CALLVALUE DUP1 ISZERO PUSH2 0x10 JUMPI PUSH1 0x0 DUP1 REVERT JUMPDEST POP PUSH2 0x1145 DUP1 PUSH2 0x20 PUSH1 0x0 CODECOPY PUSH1 0x0 RETURN INVALID PUSH1 0x80 PUSH1 0x40 MSTORE CALLVALUE DUP1 ISZERO PUSH2 0x10 JUMPI PUSH1 0x0 DUP1 REVERT JUMPDEST POP PUSH1 0x4 CALLDATASIZE LT PUSH2 0x18D JUMPI PUSH1 0x0 CALLDATALOAD PUSH1 0xE0 SHR DUP1 PUSH4 0x8DA5CB5B GT PUSH2 0xE3 JUMPI DUP1 PUSH4 0xC9DFDC44 GT PUSH2 0x8C JUMPI DUP1 PUSH4 0xD74C9C74 GT PUSH2 0x66 JUMPI DUP1 PUSH4 0xD74C9C74 EQ PUSH2 0x423 JUMPI DUP1 PUSH4 0xF2FDE38B EQ PUSH2 0x446 JUMPI DUP1 PUSH4 0xFBC6DA75 EQ PUSH2 0x459 JUMPI PUSH1 0x0 DUP1 REVERT JUMPDEST DUP1 PUSH4 0xC9DFDC44 EQ PUSH2 0x3CA JUMPI DUP1 PUSH4 0xCBB35436 EQ PUSH2 0x3ED JUMPI DUP1 PUSH4 0xD4A4429A EQ PUSH2 0x400 JUMPI PUSH1 0x0 DUP1 REVERT JUMPDEST DUP1 PUSH4 0xB4BED2C9 GT PUSH2 0xBD JUMPI DUP1 PUSH4 0xB4BED2C9 EQ PUSH2 0x36A JUMPI DUP1 PUSH4 0xBFE51359 EQ PUSH2 0x396 JUMPI DUP1 PUSH4 0xC9AD9F4A EQ PUSH2 0x3A7 JUMPI PUSH1 0x0 DUP1 REVERT JUMPDEST DUP1 PUSH4 0x8DA5CB5B EQ PUSH2 0x31A JUMPI DUP1 PUSH4 0xA2657315 EQ PUSH2 0x32B JUMPI DUP1 PUSH4 0xACE7C37E EQ PUSH2 0x357 JUMPI PUSH1 0x0 DUP1 REVERT JUMPDEST DUP1 PUSH4 0x412FF893 GT PUSH2 0x145 JUMPI DUP1 PUSH4 0x58381BBD GT PUSH2 0x11F JUMPI DUP1 PUSH4 0x58381BBD EQ PUSH2 0x2D6 JUMPI DUP1 PUSH4 0x5E348B39 EQ PUSH2 0x2FF JUMPI DUP1 PUSH4 0x715018A6 EQ PUSH2 0x312 JUMPI PUSH1 0x0 DUP1 REVERT JUMPDEST DUP1 PUSH4 0x412FF893 EQ PUSH2 0x26D JUMPI DUP1 PUSH4 0x42623360 EQ PUSH2 0x280 JUMPI DUP1 PUSH4 0x4B990A24 EQ PUSH2 0x2A9 JUMPI PUSH1 0x0 DUP1 REVERT JUMPDEST DUP1 PUSH4 0x2D0335AB GT PUSH2 0x176 JUMPI DUP1 PUSH4 0x2D0335AB EQ PUSH2 0x20C JUMPI DUP1 PUSH4 0x3C8E3117 EQ PUSH2 0x235 JUMPI DUP1 PUSH4 0x407431F7 EQ PUSH2 0x258 JUMPI PUSH1 0x0 DUP1 REVERT JUMPDEST DUP1 PUSH4 0x296012B9 EQ PUSH2 0x192 JUMPI DUP1 PUSH4 0x2C3DAEF6 EQ PUSH2 0x1DB JUMPI JUMPDEST PUSH1 0x0 DUP1 REVERT JUMPDEST PUSH2 0x1BE PUSH2 0x1A0 CALLDATASIZE PUSH1 0x4 PUSH2 0xF57 JUMP JUMPDEST PUSH1 0x0 SWAP1 DUP2 MSTORE PUSH1 0x67 PUSH1 0x20 MSTORE PUSH1 0x40 SWAP1 KECCAK256 PUSH1 0x7 ADD SLOAD PUSH1 0x1 PUSH1 0x1 PUSH1 0xA0 SHL SUB AND SWAP1 JUMP JUMPDEST PUSH1 0x40 MLOAD PUSH1 0x1 PUSH1 0x1 PUSH1 0xA0 SHL SUB SWAP1 SWAP2 AND DUP2 MSTORE PUSH1 0x20 ADD JUMPDEST PUSH1 0x40 MLOAD DUP1 SWAP2 SUB SWAP1 RETURN JUMPDEST PUSH2 0x1FE PUSH2 0x1E9 CALLDATASIZE PUSH1 0x4 PUSH2 0xF57 JUMP JUMPDEST PUSH1 0x0 SWAP1 DUP2 MSTORE PUSH1 0x67 PUSH1 0x20 MSTORE PUSH1 0x40 SWAP1 KECCAK256 PUSH1 0x3 ADD SLOAD SWAP1 JUMP JUMPDEST PUSH1 0x40 MLOAD SWAP1 DUP2 MSTORE PUSH1 0x20 ADD PUSH2 0x1D2 JUMP JUMPDEST PUSH2 0x1FE PUSH2 0x21A CALLDATASIZE PUSH1 0x4 PUSH2 0xF8C JUMP JUMPDEST PUSH1 0x1 PUSH1 0x1 PUSH1 0xA0 SHL SUB AND PUSH1 0x0 SWAP1 DUP2 MSTORE PUSH1 0x69 PUSH1 0x20 MSTORE PUSH1 0x40 SWAP1 KECCAK256 SLOAD SWAP1 JUMP JUMPDEST PUSH2 0x248 PUSH2 0x243 CALLDATASIZE PUSH1 0x4 PUSH2 0xFAE JUMP JUMPDEST PUSH2 0x485 JUMP JUMPDEST PUSH1 0x40 MLOAD SWAP1 ISZERO ISZERO DUP2 MSTORE PUSH1 0x20 ADD PUSH2 0x1D2 JUMP JUMPDEST PUSH2 0x26B PUSH2 0x266 CALLDATASIZE PUSH1 0x4 PUSH2 0xF8C JUMP JUMPDEST PUSH2 0x555 JUMP JUMPDEST STOP JUMPDEST PUSH2 0x26B PUSH2 0x27B CALLDATASIZE PUSH1 0x4 PUSH2 0xF8C JUMP JUMPDEST PUSH2 0x696 JUMP JUMPDEST PUSH2 0x1FE PUSH2 0x28E CALLDATASIZE PUSH1 0x4 PUSH2 0xF8C JUMP JUMPDEST PUSH1 0x1 PUSH1 0x1 PUSH1 0xA0 SHL SUB AND PUSH1 0x0 SWAP1 DUP2 MSTORE PUSH1 0x68 PUSH1 0x20 MSTORE PUSH1 0x40 SWAP1 KECCAK256 SLOAD SWAP1 JUMP JUMPDEST PUSH2 0x248 PUSH2 0x2B7 CALLDATASIZE PUSH1 0x4 PUSH2 0xF57 JUMP JUMPDEST PUSH1 0x0 SWAP1 DUP2 MSTORE PUSH1 0x67 PUSH1 0x20 MSTORE PUSH1 0x40 SWAP1 KECCAK256 PUSH1 0x6 ADD SLOAD PUSH1 0x1 PUSH1 0xA0 SHL SWAP1 DIV PUSH1 0xFF AND SWAP1 JUMP JUMPDEST PUSH2 0x1BE PUSH2 0x2E4 CALLDATASIZE PUSH1 0x4 PUSH2 0xF57 JUMP JUMPDEST PUSH1 0x0 SWAP1 DUP2 MSTORE PUSH1 0x67 PUSH1 0x20 MSTORE PUSH1 0x40 SWAP1 KECCAK256 SLOAD PUSH1 0x1 PUSH1 0x1 PUSH1 0xA0 SHL SUB AND SWAP1 JUMP JUMPDEST PUSH2 0x248 PUSH2 0x30D CALLDATASIZE PUSH1 0x4 PUSH2 0x1006 JUMP JUMPDEST PUSH2 0x6C0 JUMP JUMPDEST PUSH2 0x26B PUSH2 0x790 JUMP JUMPDEST PUSH1 0x33 SLOAD PUSH1 0x1 PUSH1 0x1 PUSH1 0xA0 SHL SUB AND PUSH2 0x1BE JUMP JUMPDEST PUSH2 0x1BE PUSH2 0x339 CALLDATASIZE PUSH1 0x4 PUSH2 0xF57 JUMP JUMPDEST PUSH1 0x0 SWAP1 DUP2 MSTORE PUSH1 0x67 PUSH1 0x20 MSTORE PUSH1 0x40 SWAP1 KECCAK256 PUSH1 0x6 ADD SLOAD PUSH1 0x1 PUSH1 0x1 PUSH1 0xA0 SHL SUB AND SWAP1 JUMP JUMPDEST PUSH2 0x248 PUSH2 0x365 CALLDATASIZE PUSH1 0x4 PUSH2 0xF57 JUMP JUMPDEST PUSH2 0x7A4 JUMP JUMPDEST PUSH2 0x1BE PUSH2 0x378 CALLDATASIZE PUSH1 0x4 PUSH2 0xF57 JUMP JUMPDEST PUSH1 0x0 SWAP1 DUP2 MSTORE PUSH1 0x67 PUSH1 0x20 MSTORE PUSH1 0x40 SWAP1 KECCAK256 PUSH1 0x2 ADD SLOAD PUSH1 0x1 PUSH1 0x1 PUSH1 0xA0 SHL SUB AND SWAP1 JUMP JUMPDEST PUSH1 0x65 SLOAD PUSH1 0x1 PUSH1 0x1 PUSH1 0xA0 SHL SUB AND PUSH2 0x1BE JUMP JUMPDEST PUSH2 0x1FE PUSH2 0x3B5 CALLDATASIZE PUSH1 0x4 PUSH2 0xF57 JUMP JUMPDEST PUSH1 0x0 SWAP1 DUP2 MSTORE PUSH1 0x67 PUSH1 0x20 MSTORE PUSH1 0x40 SWAP1 KECCAK256 PUSH1 0x9 ADD SLOAD SWAP1 JUMP JUMPDEST PUSH2 0x1FE PUSH2 0x3D8 CALLDATASIZE PUSH1 0x4 PUSH2 0xF57 JUMP JUMPDEST PUSH1 0x0 SWAP1 DUP2 MSTORE PUSH1 0x67 PUSH1 0x20 MSTORE PUSH1 0x40 SWAP1 KECCAK256 PUSH1 0x8 ADD SLOAD SWAP1 JUMP JUMPDEST PUSH2 0x248 PUSH2 0x3FB CALLDATASIZE PUSH1 0x4 PUSH2 0x1070 JUMP JUMPDEST PUSH2 0x809 JUMP JUMPDEST PUSH2 0x1FE PUSH2 0x40E CALLDATASIZE PUSH1 0x4 PUSH2 0xF57 JUMP JUMPDEST PUSH1 0x0 SWAP1 DUP2 MSTORE PUSH1 0x67 PUSH1 0x20 MSTORE PUSH1 0x40 SWAP1 KECCAK256 PUSH1 0x4 ADD SLOAD SWAP1 JUMP JUMPDEST PUSH2 0x1FE PUSH2 0x431 CALLDATASIZE PUSH1 0x4 PUSH2 0xF57 JUMP JUMPDEST PUSH1 0x0 SWAP1 DUP2 MSTORE PUSH1 0x67 PUSH1 0x20 MSTORE PUSH1 0x40 SWAP1 KECCAK256 PUSH1 0x5 ADD SLOAD SWAP1 JUMP JUMPDEST PUSH2 0x26B PUSH2 0x454 CALLDATASIZE PUSH1 0x4 PUSH2 0xF8C JUMP JUMPDEST PUSH2 0xAD4 JUMP JUMPDEST PUSH2 0x1BE PUSH2 0x467 CALLDATASIZE PUSH1 0x4 PUSH2 0xF57 JUMP JUMPDEST PUSH1 0x0 SWAP1 DUP2 MSTORE PUSH1 0x67 PUSH1 0x20 MSTORE PUSH1 0x40 SWAP1 KECCAK256 PUSH1 0x1 ADD SLOAD PUSH1 0x1 PUSH1 0x1 PUSH1 0xA0 SHL SUB AND SWAP1 JUMP JUMPDEST PUSH1 0x0 PUSH2 0x490 DUP8 PUSH2 0xB64 JUMP JUMPDEST POP CALLER PUSH1 0x0 DUP2 DUP2 MSTORE PUSH1 0x69 PUSH1 0x20 SWAP1 DUP2 MSTORE PUSH1 0x40 DUP1 DUP4 KECCAK256 SLOAD DUP2 MLOAD SWAP3 DUP4 ADD MSTORE PUSH1 0x60 SWAP4 SWAP1 SWAP4 SHL PUSH12 0xFFFFFFFFFFFFFFFFFFFFFFFF NOT AND SWAP3 DUP2 ADD SWAP3 SWAP1 SWAP3 MSTORE CHAINID PUSH1 0x54 DUP4 ADD MSTORE SWAP1 PUSH1 0x74 ADD PUSH1 0x40 DUP1 MLOAD DUP1 DUP4 SUB PUSH1 0x1F NOT ADD DUP2 MSTORE SWAP1 DUP3 SWAP1 MSTORE DUP1 MLOAD PUSH1 0x20 SWAP2 DUP3 ADD KECCAK256 PUSH1 0x65 SLOAD CHAINID DUP5 MSTORE SWAP1 SWAP4 POP DUP11 SWAP3 PUSH1 0x1 PUSH1 0x1 PUSH1 0xA0 SHL SUB SWAP1 SWAP2 AND SWAP2 DUP5 SWAP2 PUSH32 0xC50426A58C328DDE98BF1E6E781031DC1D928393568D3B55D05EAFF42762200A SWAP2 ADD PUSH1 0x40 MLOAD DUP1 SWAP2 SUB SWAP1 LOG4 PUSH2 0x538 DUP2 DUP7 DUP6 PUSH2 0xBF9 JUMP JUMPDEST PUSH2 0x547 DUP2 DUP6 DUP10 PUSH1 0x0 DUP11 DUP11 PUSH2 0xC9E JUMP JUMPDEST POP PUSH1 0x1 SWAP8 SWAP7 POP POP POP POP POP POP POP JUMP JUMPDEST PUSH1 0x0 SLOAD PUSH2 0x100 SWAP1 DIV PUSH1 0xFF AND ISZERO DUP1 DUP1 ISZERO PUSH2 0x575 JUMPI POP PUSH1 0x0 SLOAD PUSH1 0x1 PUSH1 0xFF SWAP1 SWAP2 AND LT JUMPDEST DUP1 PUSH2 0x58F JUMPI POP ADDRESS EXTCODESIZE ISZERO DUP1 ISZERO PUSH2 0x58F JUMPI POP PUSH1 0x0 SLOAD PUSH1 0xFF AND PUSH1 0x1 EQ JUMPDEST PUSH2 0x606 JUMPI PUSH1 0x40 MLOAD PUSH3 0x461BCD PUSH1 0xE5 SHL DUP2 MSTORE PUSH1 0x20 PUSH1 0x4 DUP3 ADD MSTORE PUSH1 0x2E PUSH1 0x24 DUP3 ADD MSTORE PUSH32 0x496E697469616C697A61626C653A20636F6E747261637420697320616C726561 PUSH1 0x44 DUP3 ADD MSTORE PUSH32 0x647920696E697469616C697A6564000000000000000000000000000000000000 PUSH1 0x64 DUP3 ADD MSTORE PUSH1 0x84 ADD JUMPDEST PUSH1 0x40 MLOAD DUP1 SWAP2 SUB SWAP1 REVERT JUMPDEST PUSH1 0x0 DUP1 SLOAD PUSH1 0xFF NOT AND PUSH1 0x1 OR SWAP1 SSTORE DUP1 ISZERO PUSH2 0x629 JUMPI PUSH1 0x0 DUP1 SLOAD PUSH2 0xFF00 NOT AND PUSH2 0x100 OR SWAP1 SSTORE JUMPDEST PUSH2 0x631 PUSH2 0xD70 JUMP JUMPDEST PUSH1 0x65 DUP1 SLOAD PUSH1 0x1 PUSH1 0x1 PUSH1 0xA0 SHL SUB NOT AND PUSH1 0x1 PUSH1 0x1 PUSH1 0xA0 SHL SUB DUP5 AND OR SWAP1 SSTORE DUP1 ISZERO PUSH2 0x692 JUMPI PUSH1 0x0 DUP1 SLOAD PUSH2 0xFF00 NOT AND SWAP1 SSTORE PUSH1 0x40 MLOAD PUSH1 0x1 DUP2 MSTORE PUSH32 0x7F26B83FF96E1F2B6A682F133852F6798A09C465DA95921460CEFB3847402498 SWAP1 PUSH1 0x20 ADD PUSH1 0x40 MLOAD DUP1 SWAP2 SUB SWAP1 LOG1 JUMPDEST POP POP JUMP JUMPDEST PUSH2 0x69E PUSH2 0xDE3 JUMP JUMPDEST PUSH1 0x65 DUP1 SLOAD PUSH1 0x1 PUSH1 0x1 PUSH1 0xA0 SHL SUB NOT AND PUSH1 0x1 PUSH1 0x1 PUSH1 0xA0 SHL SUB SWAP3 SWAP1 SWAP3 AND SWAP2 SWAP1 SWAP2 OR SWAP1 SSTORE JUMP JUMPDEST PUSH1 0x0 PUSH2 0x6CB DUP9 PUSH2 0xB64 JUMP JUMPDEST POP CALLER PUSH1 0x0 DUP2 DUP2 MSTORE PUSH1 0x69 PUSH1 0x20 SWAP1 DUP2 MSTORE PUSH1 0x40 DUP1 DUP4 KECCAK256 SLOAD DUP2 MLOAD SWAP3 DUP4 ADD MSTORE PUSH1 0x60 SWAP4 SWAP1 SWAP4 SHL PUSH12 0xFFFFFFFFFFFFFFFFFFFFFFFF NOT AND SWAP3 DUP2 ADD SWAP3 SWAP1 SWAP3 MSTORE CHAINID PUSH1 0x54 DUP4 ADD MSTORE SWAP1 PUSH1 0x74 ADD PUSH1 0x40 DUP1 MLOAD DUP1 DUP4 SUB PUSH1 0x1F NOT ADD DUP2 MSTORE SWAP1 DUP3 SWAP1 MSTORE DUP1 MLOAD PUSH1 0x20 SWAP2 DUP3 ADD KECCAK256 PUSH1 0x65 SLOAD CHAINID DUP5 MSTORE SWAP1 SWAP4 POP DUP12 SWAP3 PUSH1 0x1 PUSH1 0x1 PUSH1 0xA0 SHL SUB SWAP1 SWAP2 AND SWAP2 DUP5 SWAP2 PUSH32 0xC50426A58C328DDE98BF1E6E781031DC1D928393568D3B55D05EAFF42762200A SWAP2 ADD PUSH1 0x40 MLOAD DUP1 SWAP2 SUB SWAP1 LOG4 PUSH2 0x773 DUP2 DUP11 DUP6 PUSH2 0xBF9 JUMP JUMPDEST PUSH2 0x781 DUP2 DUP6 DUP11 DUP11 DUP11 DUP11 PUSH2 0xC9E JUMP JUMPDEST POP PUSH1 0x1 SWAP9 SWAP8 POP POP POP POP POP POP POP POP JUMP JUMPDEST PUSH2 0x798 PUSH2 0xDE3 JUMP JUMPDEST PUSH2 0x7A2 PUSH1 0x0 PUSH2 0xE3D JUMP JUMPDEST JUMP JUMPDEST PUSH1 0x0 PUSH2 0x7AF DUP3 PUSH2 0xB64 JUMP JUMPDEST POP PUSH1 0x40 MLOAD DUP3 SWAP1 CALLER SWAP1 PUSH32 0x3DBDCFD4C1F2E08931AAE3D544E149A1E643143F5234D166FE3DEBB783388495 SWAP1 PUSH1 0x0 SWAP1 LOG3 CALLER PUSH1 0x0 SWAP1 DUP2 MSTORE PUSH1 0x68 PUSH1 0x20 MSTORE PUSH1 0x40 DUP2 KECCAK256 DUP1 SLOAD DUP5 SWAP3 SWAP1 PUSH2 0x7FC SWAP1 DUP5 SWAP1 PUSH2 0x10C1 JUMP JUMPDEST SWAP1 SWAP2 SSTORE POP PUSH1 0x1 SWAP4 SWAP3 POP POP POP JUMP JUMPDEST PUSH1 0x0 DUP3 DUP2 MSTORE PUSH1 0x67 PUSH1 0x20 MSTORE PUSH1 0x40 DUP2 KECCAK256 PUSH1 0x6 ADD SLOAD PUSH1 0x1 PUSH1 0x1 PUSH1 0xA0 SHL SUB AND PUSH2 0x896 JUMPI PUSH1 0x40 MLOAD PUSH3 0x461BCD PUSH1 0xE5 SHL DUP2 MSTORE PUSH1 0x20 PUSH1 0x4 DUP3 ADD MSTORE PUSH1 0x25 PUSH1 0x24 DUP3 ADD MSTORE PUSH32 0x47525420706F6F6C3A20746865207265717565737420646F6573206E6F742065 PUSH1 0x44 DUP3 ADD MSTORE PUSH32 0x7869737421000000000000000000000000000000000000000000000000000000 PUSH1 0x64 DUP3 ADD MSTORE PUSH1 0x84 ADD PUSH2 0x5FD JUMP JUMPDEST PUSH1 0x0 DUP4 DUP2 MSTORE PUSH1 0x67 PUSH1 0x20 MSTORE PUSH1 0x40 SWAP1 KECCAK256 PUSH1 0x6 ADD SLOAD PUSH1 0x1 PUSH1 0xA0 SHL SWAP1 DIV PUSH1 0xFF AND ISZERO PUSH2 0x925 JUMPI PUSH1 0x40 MLOAD PUSH3 0x461BCD PUSH1 0xE5 SHL DUP2 MSTORE PUSH1 0x20 PUSH1 0x4 DUP3 ADD MSTORE PUSH1 0x2A PUSH1 0x24 DUP3 ADD MSTORE PUSH32 0x47525420706F6F6C3A20746865206F666665722068617320616C726561647920 PUSH1 0x44 DUP3 ADD MSTORE PUSH32 0x6265656E20706169642100000000000000000000000000000000000000000000 PUSH1 0x64 DUP3 ADD MSTORE PUSH1 0x84 ADD PUSH2 0x5FD JUMP JUMPDEST PUSH1 0x0 DUP4 DUP2 MSTORE PUSH1 0x67 PUSH1 0x20 MSTORE PUSH1 0x40 SWAP1 KECCAK256 PUSH1 0x6 ADD SLOAD PUSH1 0x1 PUSH1 0x1 PUSH1 0xA0 SHL SUB AND CALLER EQ PUSH2 0x9B4 JUMPI PUSH1 0x40 MLOAD PUSH3 0x461BCD PUSH1 0xE5 SHL DUP2 MSTORE PUSH1 0x20 PUSH1 0x4 DUP3 ADD MSTORE PUSH1 0x31 PUSH1 0x24 DUP3 ADD MSTORE PUSH32 0x47525420706F6F6C3A20796F7520617265206E6F7420616C6C6F77656420746F PUSH1 0x44 DUP3 ADD MSTORE PUSH32 0x206D616B65207468697320636C61696D21000000000000000000000000000000 PUSH1 0x64 DUP3 ADD MSTORE PUSH1 0x84 ADD PUSH2 0x5FD JUMP JUMPDEST PUSH1 0x65 SLOAD PUSH1 0x0 DUP5 DUP2 MSTORE PUSH1 0x67 PUSH1 0x20 MSTORE PUSH1 0x40 SWAP1 DUP2 SWAP1 KECCAK256 PUSH1 0x6 DUP2 ADD SLOAD PUSH1 0x3 SWAP1 SWAP2 ADD SLOAD SWAP2 MLOAD PUSH32 0xA9059CBB00000000000000000000000000000000000000000000000000000000 DUP2 MSTORE PUSH1 0x1 PUSH1 0x1 PUSH1 0xA0 SHL SUB SWAP2 DUP3 AND PUSH1 0x4 DUP3 ADD MSTORE PUSH1 0x24 DUP2 ADD SWAP3 SWAP1 SWAP3 MSTORE SWAP1 SWAP2 AND SWAP1 PUSH4 0xA9059CBB SWAP1 PUSH1 0x44 ADD PUSH1 0x20 PUSH1 0x40 MLOAD DUP1 DUP4 SUB DUP2 PUSH1 0x0 DUP8 GAS CALL ISZERO DUP1 ISZERO PUSH2 0xA3B JUMPI RETURNDATASIZE PUSH1 0x0 DUP1 RETURNDATACOPY RETURNDATASIZE PUSH1 0x0 REVERT JUMPDEST POP POP POP POP PUSH1 0x40 MLOAD RETURNDATASIZE PUSH1 0x1F NOT PUSH1 0x1F DUP3 ADD AND DUP3 ADD DUP1 PUSH1 0x40 MSTORE POP DUP2 ADD SWAP1 PUSH2 0xA5F SWAP2 SWAP1 PUSH2 0x10D4 JUMP JUMPDEST POP PUSH1 0x40 MLOAD DUP3 SWAP1 DUP5 SWAP1 PUSH32 0x873FBC32F9A4996490181C893688ADD0C5D0555F4683B3334F2E95799E86E13A SWAP1 PUSH1 0x0 SWAP1 LOG3 POP PUSH1 0x0 DUP3 DUP2 MSTORE PUSH1 0x67 PUSH1 0x20 MSTORE PUSH1 0x40 SWAP1 KECCAK256 PUSH1 0x6 ADD DUP1 SLOAD PUSH32 0xFFFFFFFFFFFFFFFFFFFFFF00FFFFFFFFFFFFFFFFFFFFFFFFFFFFFFFFFFFFFFFF AND PUSH1 0x1 PUSH1 0xA0 SHL OR SWAP1 SSTORE PUSH1 0x1 JUMPDEST SWAP3 SWAP2 POP POP JUMP JUMPDEST PUSH2 0xADC PUSH2 0xDE3 JUMP JUMPDEST PUSH1 0x1 PUSH1 0x1 PUSH1 0xA0 SHL SUB DUP2 AND PUSH2 0xB58 JUMPI PUSH1 0x40 MLOAD PUSH3 0x461BCD PUSH1 0xE5 SHL DUP2 MSTORE PUSH1 0x20 PUSH1 0x4 DUP3 ADD MSTORE PUSH1 0x26 PUSH1 0x24 DUP3 ADD MSTORE PUSH32 0x4F776E61626C653A206E6577206F776E657220697320746865207A65726F2061 PUSH1 0x44 DUP3 ADD MSTORE PUSH32 0x6464726573730000000000000000000000000000000000000000000000000000 PUSH1 0x64 DUP3 ADD MSTORE PUSH1 0x84 ADD PUSH2 0x5FD JUMP JUMPDEST PUSH2 0xB61 DUP2 PUSH2 0xE3D JUMP JUMPDEST POP JUMP JUMPDEST PUSH1 0x65 SLOAD PUSH1 0x40 MLOAD PUSH32 0x23B872DD00000000000000000000000000000000000000000000000000000000 DUP2 MSTORE CALLER PUSH1 0x4 DUP3 ADD MSTORE ADDRESS PUSH1 0x24 DUP3 ADD MSTORE PUSH1 0x44 DUP2 ADD DUP4 SWAP1 MSTORE PUSH1 0x0 SWAP2 PUSH1 0x1 PUSH1 0x1 PUSH1 0xA0 SHL SUB AND SWAP1 PUSH4 0x23B872DD SWAP1 PUSH1 0x64 ADD PUSH1 0x20 PUSH1 0x40 MLOAD DUP1 DUP4 SUB DUP2 PUSH1 0x0 DUP8 GAS CALL ISZERO DUP1 ISZERO PUSH2 0xBD5 JUMPI RETURNDATASIZE PUSH1 0x0 DUP1 RETURNDATACOPY RETURNDATASIZE PUSH1 0x0 REVERT JUMPDEST POP POP POP POP PUSH1 0x40 MLOAD RETURNDATASIZE PUSH1 0x1F NOT PUSH1 0x1F DUP3 ADD AND DUP3 ADD DUP1 PUSH1 0x40 MSTORE POP DUP2 ADD SWAP1 PUSH2 0xACE SWAP2 SWAP1 PUSH2 0x10D4 JUMP JUMPDEST PUSH1 0x0 DUP4 DUP2 MSTORE PUSH1 0x67 PUSH1 0x20 MSTORE PUSH1 0x40 SWAP1 KECCAK256 DUP1 SLOAD PUSH1 0x1 PUSH1 0x1 PUSH1 0xA0 SHL SUB NOT SWAP1 DUP2 AND CALLER OR DUP3 SSTORE PUSH1 0x1 DUP3 ADD DUP1 SLOAD PUSH1 0x1 PUSH1 0x1 PUSH1 0xA0 SHL SUB DUP6 DUP2 AND SWAP2 SWAP1 SWAP4 AND OR SWAP1 SSTORE PUSH1 0x65 SLOAD PUSH2 0xC40 SWAP2 AND DUP5 CHAINID PUSH2 0xE8F JUMP JUMPDEST DUP1 MLOAD PUSH1 0x2 DUP4 ADD DUP1 SLOAD PUSH1 0x1 PUSH1 0x1 PUSH1 0xA0 SHL SUB NOT AND PUSH1 0x1 PUSH1 0x1 PUSH1 0xA0 SHL SUB SWAP1 SWAP3 AND SWAP2 SWAP1 SWAP2 OR SWAP1 SSTORE PUSH1 0x20 DUP1 DUP3 ADD MLOAD PUSH1 0x3 DUP5 ADD SSTORE PUSH1 0x40 SWAP2 DUP3 ADD MLOAD PUSH1 0x4 DUP5 ADD SSTORE CALLER PUSH1 0x0 SWAP1 DUP2 MSTORE PUSH1 0x69 SWAP1 SWAP2 MSTORE SWAP1 DUP2 KECCAK256 DUP1 SLOAD SWAP2 PUSH2 0xC93 DUP4 PUSH2 0x10F6 JUMP JUMPDEST SWAP2 SWAP1 POP SSTORE POP POP POP POP POP JUMP JUMPDEST DUP2 DUP4 PUSH1 0x1 PUSH1 0x1 PUSH1 0xA0 SHL SUB AND DUP8 PUSH32 0x4FC5208F862C96A2A2595F09440919E8BDA929D3E9B14A6E5FCAC7C4CB8F5F59 DUP5 PUSH1 0x40 MLOAD PUSH2 0xCDB SWAP2 DUP2 MSTORE PUSH1 0x20 ADD SWAP1 JUMP JUMPDEST PUSH1 0x40 MLOAD DUP1 SWAP2 SUB SWAP1 LOG4 PUSH1 0x0 DUP7 DUP2 MSTORE PUSH1 0x67 PUSH1 0x20 MSTORE PUSH1 0x40 SWAP1 KECCAK256 PUSH1 0x5 DUP2 ADD DUP7 SWAP1 SSTORE PUSH1 0x6 ADD DUP1 SLOAD PUSH1 0x1 PUSH1 0x1 PUSH1 0xA0 SHL SUB NOT AND PUSH1 0x1 PUSH1 0x1 PUSH1 0xA0 SHL SUB DUP7 AND OR SWAP1 SSTORE PUSH2 0xD1F DUP4 DUP4 DUP4 PUSH2 0xE8F JUMP JUMPDEST PUSH1 0x0 SWAP7 DUP8 MSTORE PUSH1 0x67 PUSH1 0x20 SWAP1 DUP2 MSTORE PUSH1 0x40 SWAP8 DUP9 SWAP1 KECCAK256 DUP3 MLOAD PUSH1 0x7 DUP3 ADD DUP1 SLOAD PUSH1 0x1 PUSH1 0x1 PUSH1 0xA0 SHL SUB NOT AND PUSH1 0x1 PUSH1 0x1 PUSH1 0xA0 SHL SUB SWAP1 SWAP3 AND SWAP2 SWAP1 SWAP2 OR SWAP1 SSTORE SWAP1 DUP3 ADD MLOAD PUSH1 0x8 DUP3 ADD SSTORE SWAP7 ADD MLOAD PUSH1 0x9 SWAP1 SWAP7 ADD SWAP6 SWAP1 SWAP6 SSTORE POP POP POP POP POP JUMP JUMPDEST PUSH1 0x0 SLOAD PUSH2 0x100 SWAP1 DIV PUSH1 0xFF AND PUSH2 0xDDB JUMPI PUSH1 0x40 MLOAD PUSH3 0x461BCD PUSH1 0xE5 SHL DUP2 MSTORE PUSH1 0x20 PUSH1 0x4 DUP3 ADD MSTORE PUSH1 0x2B PUSH1 0x24 DUP3 ADD MSTORE PUSH32 0x496E697469616C697A61626C653A20636F6E7472616374206973206E6F742069 PUSH1 0x44 DUP3 ADD MSTORE PUSH11 0x6E697469616C697A696E67 PUSH1 0xA8 SHL PUSH1 0x64 DUP3 ADD MSTORE PUSH1 0x84 ADD PUSH2 0x5FD JUMP JUMPDEST PUSH2 0x7A2 PUSH2 0xEE3 JUMP JUMPDEST PUSH1 0x33 SLOAD PUSH1 0x1 PUSH1 0x1 PUSH1 0xA0 SHL SUB AND CALLER EQ PUSH2 0x7A2 JUMPI PUSH1 0x40 MLOAD PUSH3 0x461BCD PUSH1 0xE5 SHL DUP2 MSTORE PUSH1 0x20 PUSH1 0x4 DUP3 ADD DUP2 SWAP1 MSTORE PUSH1 0x24 DUP3 ADD MSTORE PUSH32 0x4F776E61626C653A2063616C6C6572206973206E6F7420746865206F776E6572 PUSH1 0x44 DUP3 ADD MSTORE PUSH1 0x64 ADD PUSH2 0x5FD JUMP JUMPDEST PUSH1 0x33 DUP1 SLOAD PUSH1 0x1 PUSH1 0x1 PUSH1 0xA0 SHL SUB DUP4 DUP2 AND PUSH1 0x1 PUSH1 0x1 PUSH1 0xA0 SHL SUB NOT DUP4 AND DUP2 OR SWAP1 SWAP4 SSTORE PUSH1 0x40 MLOAD SWAP2 AND SWAP2 SWAP1 DUP3 SWAP1 PUSH32 0x8BE0079C531659141344CD1FD0A4F28419497F9722A3DAAFE3B4186F6B6457E0 SWAP1 PUSH1 0x0 SWAP1 LOG3 POP POP JUMP JUMPDEST PUSH2 0xEBC PUSH1 0x40 MLOAD DUP1 PUSH1 0x60 ADD PUSH1 0x40 MSTORE DUP1 PUSH1 0x0 PUSH1 0x1 PUSH1 0x1 PUSH1 0xA0 SHL SUB AND DUP2 MSTORE PUSH1 0x20 ADD PUSH1 0x0 DUP2 MSTORE PUSH1 0x20 ADD PUSH1 0x0 DUP2 MSTORE POP SWAP1 JUMP JUMPDEST POP PUSH1 0x40 DUP1 MLOAD PUSH1 0x60 DUP2 ADD DUP3 MSTORE PUSH1 0x1 PUSH1 0x1 PUSH1 0xA0 SHL SUB SWAP1 SWAP5 AND DUP5 MSTORE PUSH1 0x20 DUP5 ADD SWAP3 SWAP1 SWAP3 MSTORE SWAP1 DUP3 ADD MSTORE SWAP1 JUMP JUMPDEST PUSH1 0x0 SLOAD PUSH2 0x100 SWAP1 DIV PUSH1 0xFF AND PUSH2 0xF4E JUMPI PUSH1 0x40 MLOAD PUSH3 0x461BCD PUSH1 0xE5 SHL DUP2 MSTORE PUSH1 0x20 PUSH1 0x4 DUP3 ADD MSTORE PUSH1 0x2B PUSH1 0x24 DUP3 ADD MSTORE PUSH32 0x496E697469616C697A61626C653A20636F6E7472616374206973206E6F742069 PUSH1 0x44 DUP3 ADD MSTORE PUSH11 0x6E697469616C697A696E67 PUSH1 0xA8 SHL PUSH1 0x64 DUP3 ADD MSTORE PUSH1 0x84 ADD PUSH2 0x5FD JUMP JUMPDEST PUSH2 0x7A2 CALLER PUSH2 0xE3D JUMP JUMPDEST PUSH1 0x0 PUSH1 0x20 DUP3 DUP5 SUB SLT ISZERO PUSH2 0xF69 JUMPI PUSH1 0x0 DUP1 REVERT JUMPDEST POP CALLDATALOAD SWAP2 SWAP1 POP JUMP JUMPDEST DUP1 CALLDATALOAD PUSH1 0x1 PUSH1 0x1 PUSH1 0xA0 SHL SUB DUP2 AND DUP2 EQ PUSH2 0xF87 JUMPI PUSH1 0x0 DUP1 REVERT JUMPDEST SWAP2 SWAP1 POP JUMP JUMPDEST PUSH1 0x0 PUSH1 0x20 DUP3 DUP5 SUB SLT ISZERO PUSH2 0xF9E JUMPI PUSH1 0x0 DUP1 REVERT JUMPDEST PUSH2 0xFA7 DUP3 PUSH2 0xF70 JUMP JUMPDEST SWAP4 SWAP3 POP POP POP JUMP JUMPDEST PUSH1 0x0 DUP1 PUSH1 0x0 DUP1 PUSH1 0x0 DUP1 PUSH1 0xC0 DUP8 DUP10 SUB SLT ISZERO PUSH2 0xFC7 JUMPI PUSH1 0x0 DUP1 REVERT JUMPDEST DUP7 CALLDATALOAD SWAP6 POP PUSH2 0xFD7 PUSH1 0x20 DUP9 ADD PUSH2 0xF70 JUMP JUMPDEST SWAP5 POP PUSH1 0x40 DUP8 ADD CALLDATALOAD SWAP4 POP PUSH1 0x60 DUP8 ADD CALLDATALOAD SWAP3 POP PUSH1 0x80 DUP8 ADD CALLDATALOAD SWAP2 POP PUSH2 0xFFA PUSH1 0xA0 DUP9 ADD PUSH2 0xF70 JUMP JUMPDEST SWAP1 POP SWAP3 SWAP6 POP SWAP3 SWAP6 POP SWAP3 SWAP6 JUMP JUMPDEST PUSH1 0x0 DUP1 PUSH1 0x0 DUP1 PUSH1 0x0 DUP1 PUSH1 0x0 PUSH1 0xE0 DUP9 DUP11 SUB SLT ISZERO PUSH2 0x1021 JUMPI PUSH1 0x0 DUP1 REVERT JUMPDEST DUP8 CALLDATALOAD SWAP7 POP PUSH2 0x1031 PUSH1 0x20 DUP10 ADD PUSH2 0xF70 JUMP JUMPDEST SWAP6 POP PUSH2 0x103F PUSH1 0x40 DUP10 ADD PUSH2 0xF70 JUMP JUMPDEST SWAP5 POP PUSH1 0x60 DUP9 ADD CALLDATALOAD SWAP4 POP PUSH1 0x80 DUP9 ADD CALLDATALOAD SWAP3 POP PUSH1 0xA0 DUP9 ADD CALLDATALOAD SWAP2 POP PUSH2 0x1062 PUSH1 0xC0 DUP10 ADD PUSH2 0xF70 JUMP JUMPDEST SWAP1 POP SWAP3 SWAP6 SWAP9 SWAP2 SWAP5 SWAP8 POP SWAP3 SWAP6 POP JUMP JUMPDEST PUSH1 0x0 DUP1 PUSH1 0x40 DUP4 DUP6 SUB SLT ISZERO PUSH2 0x1083 JUMPI PUSH1 0x0 DUP1 REVERT JUMPDEST POP POP DUP1 CALLDATALOAD SWAP3 PUSH1 0x20 SWAP1 SWAP2 ADD CALLDATALOAD SWAP2 POP JUMP JUMPDEST PUSH32 0x4E487B7100000000000000000000000000000000000000000000000000000000 PUSH1 0x0 MSTORE PUSH1 0x11 PUSH1 0x4 MSTORE PUSH1 0x24 PUSH1 0x0 REVERT JUMPDEST DUP1 DUP3 ADD DUP1 DUP3 GT ISZERO PUSH2 0xACE JUMPI PUSH2 0xACE PUSH2 0x1092 JUMP JUMPDEST PUSH1 0x0 PUSH1 0x20 DUP3 DUP5 SUB SLT ISZERO PUSH2 0x10E6 JUMPI PUSH1 0x0 DUP1 REVERT JUMPDEST DUP2 MLOAD DUP1 ISZERO ISZERO DUP2 EQ PUSH2 0xFA7 JUMPI PUSH1 0x0 DUP1 REVERT JUMPDEST PUSH1 0x0 PUSH1 0x1 DUP3 ADD PUSH2 0x1108 JUMPI PUSH2 0x1108 PUSH2 0x1092 JUMP JUMPDEST POP PUSH1 0x1 ADD SWAP1 JUMP INVALID LOG2 PUSH5 0x6970667358 0x22 SLT KECCAK256 SWAP5 BLOCKHASH CALL BLOCKHASH PUSH23 0x49D439906D7E1655D8A7ABA194C9D495B5ACAE5039FA89 CHAINID 0xCF DUP13 DUP13 PUSH5 0x736F6C6343 STOP ADDMOD GT STOP CALLER "},"gasEstimates":{"creation":{"codeDepositCost":"884200","executionCost":"922","totalCost":"885122"},"external":{"claimGRTWithoutDispute(bytes32,bytes32)":"infinite","depositGRTRequestERC20(uint256,address,address,uint256,uint256,bytes32,address)":"infinite","depositGRTRequestNative(uint256,address,uint256,uint256,bytes32,address)":"infinite","getDepositAmount(bytes32)":"2513","getDepositChainId(bytes32)":"2533","getDepositToken(bytes32)":"2517","getNonce(address)":"2583","getOfferAmount(bytes32)":"2489","getOfferChainId(bytes32)":"2533","getOfferCreator(bytes32)":"2540","getOfferId(bytes32)":"2488","getOfferToken(bytes32)":"2519","getRecipient(bytes32)":"2560","getRequester(bytes32)":"2511","grtAddress()":"2387","initializePool(address)":"infinite","isOfferPaid(bytes32)":"2563","owner()":"2366","renounceOwnership()":"infinite","setGRTAddr(address)":"26781","stakeGRT(uint256)":"infinite","stakeOf(address)":"2605","transferOwnership(address)":"28402"},"internal":{"addDeposit(bytes32,uint256,address)":"infinite","addOffer(bytes32,bytes32,address,address,uint256,uint256)":"infinite","depositGRT(uint256)":"infinite","setTokenInfo(address,uint256,uint256)":"infinite"}},"methodIdentifiers":{"claimGRTWithoutDispute(bytes32,bytes32)":"cbb35436","depositGRTRequestERC20(uint256,address,address,uint256,uint256,bytes32,address)":"5e348b39","depositGRTRequestNative(uint256,address,uint256,uint256,bytes32,address)":"3c8e3117","getDepositAmount(bytes32)":"2c3daef6","getDepositChainId(bytes32)":"d4a4429a","getDepositToken(bytes32)":"b4bed2c9","getNonce(address)":"2d0335ab","getOfferAmount(bytes32)":"c9dfdc44","getOfferChainId(bytes32)":"c9ad9f4a","getOfferCreator(bytes32)":"a2657315","getOfferId(bytes32)":"d74c9c74","getOfferToken(bytes32)":"296012b9","getRecipient(bytes32)":"fbc6da75","getRequester(bytes32)":"58381bbd","grtAddress()":"bfe51359","initializePool(address)":"407431f7","isOfferPaid(bytes32)":"4b990a24","owner()":"8da5cb5b","renounceOwnership()":"715018a6","setGRTAddr(address)":"412ff893","stakeGRT(uint256)":"ace7c37e","stakeOf(address)":"42623360","transferOwnership(address)":"f2fde38b"}},"storageLayout":{"storage":[{"astId":184,"contract":"contracts/v0.2.0/GrtPool.sol:GrtPool","label":"_initialized","offset":0,"slot":"0","type":"t_uint8"},{"astId":187,"contract":"contracts/v0.2.0/GrtPool.sol:GrtPool","label":"_initializing","offset":1,"slot":"0","type":"t_bool"},{"astId":671,"contract":"contracts/v0.2.0/GrtPool.sol:GrtPool","label":"__gap","offset":0,"slot":"1","type":"t_array(t_uint256)50_storage"},{"astId":56,"contract":"contracts/v0.2.0/GrtPool.sol:GrtPool","label":"_owner","offset":0,"slot":"51","type":"t_address"},{"astId":176,"contract":"contracts/v0.2.0/GrtPool.sol:GrtPool","label":"__gap","offset":0,"slot":"52","type":"t_array(t_uint256)49_storage"},{"astId":1993,"contract":"contracts/v0.2.0/GrtPool.sol:GrtPool","label":"_addrGRT","offset":0,"slot":"101","type":"t_address"},{"astId":1995,"contract":"contracts/v0.2.0/GrtPool.sol:GrtPool","label":"_chainIdGRT","offset":0,"slot":"102","type":"t_uint256"},{"astId":2028,"contract":"contracts/v0.2.0/GrtPool.sol:GrtPool","label":"_requests","offset":0,"slot":"103","type":"t_mapping(t_bytes32,t_struct(Request)2006_storage)"},{"astId":2032,"contract":"contracts/v0.2.0/GrtPool.sol:GrtPool","label":"_stakes","offset":0,"slot":"104","type":"t_mapping(t_address,t_uint256)"},{"astId":2036,"contract":"contracts/v0.2.0/GrtPool.sol:GrtPool","label":"_nonces","offset":0,"slot":"105","type":"t_mapping(t_address,t_uint256)"}],"types":{"t_address":{"encoding":"inplace","label":"address","numberOfBytes":"20"},"t_array(t_uint256)49_storage":{"base":"t_uint256","encoding":"inplace","label":"uint256[49]","numberOfBytes":"1568"},"t_array(t_uint256)50_storage":{"base":"t_uint256","encoding":"inplace","label":"uint256[50]","numberOfBytes":"1600"},"t_bool":{"encoding":"inplace","label":"bool","numberOfBytes":"1"},"t_bytes32":{"encoding":"inplace","label":"bytes32","numberOfBytes":"32"},"t_mapping(t_address,t_uint256)":{"encoding":"mapping","key":"t_address","label":"mapping(address => uint256)","numberOfBytes":"32","value":"t_uint256"},"t_mapping(t_bytes32,t_struct(Request)2006_storage)":{"encoding":"mapping","key":"t_bytes32","label":"mapping(bytes32 => struct GrtPool.Request)","numberOfBytes":"32","value":"t_struct(Request)2006_storage"},"t_struct(Offer)2016_storage":{"encoding":"inplace","label":"struct GrtPool.Offer","members":[{"astId":2008,"contract":"contracts/v0.2.0/GrtPool.sol:GrtPool","label":"idOffer","offset":0,"slot":"0","type":"t_bytes32"},{"astId":2010,"contract":"contracts/v0.2.0/GrtPool.sol:GrtPool","label":"userAddr","offset":0,"slot":"1","type":"t_address"},{"astId":2012,"contract":"contracts/v0.2.0/GrtPool.sol:GrtPool","label":"isPaid","offset":20,"slot":"1","type":"t_bool"},{"astId":2015,"contract":"contracts/v0.2.0/GrtPool.sol:GrtPool","label":"tokenInfo","offset":0,"slot":"2","type":"t_struct(TokenInfo)2023_storage"}],"numberOfBytes":"160"},"t_struct(Request)2006_storage":{"encoding":"inplace","label":"struct GrtPool.Request","members":[{"astId":1997,"contract":"contracts/v0.2.0/GrtPool.sol:GrtPool","label":"userAddr","offset":0,"slot":"0","type":"t_address"},{"astId":1999,"contract":"contracts/v0.2.0/GrtPool.sol:GrtPool","label":"destAddr","offset":0,"slot":"1","type":"t_address"},{"astId":2002,"contract":"contracts/v0.2.0/GrtPool.sol:GrtPool","label":"deposit","offset":0,"slot":"2","type":"t_struct(TokenInfo)2023_storage"},{"astId":2005,"contract":"contracts/v0.2.0/GrtPool.sol:GrtPool","label":"offer","offset":0,"slot":"5","type":"t_struct(Offer)2016_storage"}],"numberOfBytes":"320"},"t_struct(TokenInfo)2023_storage":{"encoding":"inplace","label":"struct GrtPool.TokenInfo","members":[{"astId":2018,"contract":"contracts/v0.2.0/GrtPool.sol:GrtPool","label":"token","offset":0,"slot":"0","type":"t_address"},{"astId":2020,"contract":"contracts/v0.2.0/GrtPool.sol:GrtPool","label":"amount","offset":0,"slot":"1","type":"t_uint256"},{"astId":2022,"contract":"contracts/v0.2.0/GrtPool.sol:GrtPool","label":"chainId","offset":0,"slot":"2","type":"t_uint256"}],"numberOfBytes":"96"},"t_uint256":{"encoding":"inplace","label":"uint256","numberOfBytes":"32"},"t_uint8":{"encoding":"inplace","label":"uint8","numberOfBytes":"1"}}},"userdoc":{"kind":"user","methods":{},"version":1}}}}