{"contracts/v0.2.0/GrtOffer.sol":{"GrtOffer":{"abi":[{"anonymous":false,"inputs":[{"indexed":false,"internalType":"uint8","name":"version","type":"uint8"}],"name":"Initialized","type":"event"},{"anonymous":false,"inputs":[{"indexed":true,"internalType":"bytes32","name":"_idOffer","type":"bytes32"},{"indexed":true,"internalType":"address","name":"_contractAddress","type":"address"},{"indexed":true,"internalType":"address","name":"_token","type":"address"},{"indexed":false,"internalType":"uint256","name":"_chainId","type":"uint256"}],"name":"LogNewOffer","type":"event"},{"anonymous":false,"inputs":[{"indexed":true,"internalType":"address","name":"_user","type":"address"},{"indexed":true,"internalType":"uint256","name":"_amount","type":"uint256"}],"name":"LogStake","type":"event"},{"anonymous":false,"inputs":[{"indexed":true,"internalType":"address","name":"previousOwner","type":"address"},{"indexed":true,"internalType":"address","name":"newOwner","type":"address"}],"name":"OwnershipTransferred","type":"event"},{"inputs":[{"internalType":"bytes32","name":"idOffer","type":"bytes32"}],"name":"getAddressOffer","outputs":[{"internalType":"address","name":"","type":"address"}],"stateMutability":"view","type":"function"},{"inputs":[{"internalType":"bytes32","name":"idOffer","type":"bytes32"}],"name":"getChainIdOffer","outputs":[{"internalType":"uint256","name":"","type":"uint256"}],"stateMutability":"view","type":"function"},{"inputs":[{"internalType":"address","name":"chainlinkContract","type":"address"}],"name":"getLatestPrice","outputs":[{"internalType":"int256","name":"","type":"int256"}],"stateMutability":"view","type":"function"},{"inputs":[{"internalType":"bytes32","name":"idOffer","type":"bytes32"}],"name":"getLowerLimitFnHashOffer","outputs":[{"internalType":"bytes32","name":"","type":"bytes32"}],"stateMutability":"view","type":"function"},{"inputs":[{"internalType":"bytes32","name":"idOffer","type":"bytes32"},{"internalType":"bytes","name":"fn","type":"bytes"}],"name":"getLowerPriceLimitFromContract","outputs":[{"internalType":"uint256","name":"","type":"uint256"}],"stateMutability":"view","type":"function"},{"inputs":[{"internalType":"bytes32","name":"idOffer","type":"bytes32"},{"internalType":"bytes","name":"fn","type":"bytes"}],"name":"getLowerPriceLimitFromGrindery","outputs":[{"internalType":"int256","name":"","type":"int256"}],"stateMutability":"view","type":"function"},{"inputs":[{"internalType":"address","name":"user","type":"address"}],"name":"getNonceUser","outputs":[{"internalType":"uint256","name":"","type":"uint256"}],"stateMutability":"view","type":"function"},{"inputs":[{"internalType":"bytes32","name":"idOffer","type":"bytes32"}],"name":"getTokenOffer","outputs":[{"internalType":"address","name":"","type":"address"}],"stateMutability":"view","type":"function"},{"inputs":[{"internalType":"bytes32","name":"idOffer","type":"bytes32"}],"name":"getUpperLimitFnHashOffer","outputs":[{"internalType":"bytes32","name":"","type":"bytes32"}],"stateMutability":"view","type":"function"},{"inputs":[{"internalType":"bytes32","name":"idOffer","type":"bytes32"},{"internalType":"bytes","name":"fn","type":"bytes"}],"name":"getUpperPriceLimitFromContract","outputs":[{"internalType":"uint256","name":"","type":"uint256"}],"stateMutability":"view","type":"function"},{"inputs":[{"internalType":"bytes32","name":"idOffer","type":"bytes32"},{"internalType":"bytes","name":"fn","type":"bytes"}],"name":"getUpperPriceLimitFromGrindery","outputs":[{"internalType":"int256","name":"","type":"int256"}],"stateMutability":"view","type":"function"},{"inputs":[{"internalType":"address","name":"addrGRT","type":"address"}],"name":"initializeGrtOffer","outputs":[],"stateMutability":"nonpayable","type":"function"},{"inputs":[],"name":"owner","outputs":[{"internalType":"address","name":"","type":"address"}],"stateMutability":"view","type":"function"},{"inputs":[],"name":"renounceOwnership","outputs":[],"stateMutability":"nonpayable","type":"function"},{"inputs":[{"internalType":"address","name":"token","type":"address"},{"internalType":"address","name":"priceAddress","type":"address"},{"internalType":"bytes","name":"upperLimitFn","type":"bytes"},{"internalType":"bytes","name":"lowerLimitFn","type":"bytes"}],"name":"setOfferWithContract","outputs":[{"internalType":"bool","name":"","type":"bool"}],"stateMutability":"nonpayable","type":"function"},{"inputs":[{"internalType":"address","name":"token","type":"address"},{"internalType":"bytes","name":"upperLimitFn","type":"bytes"},{"internalType":"bytes","name":"lowerLimitFn","type":"bytes"}],"name":"setOfferWithGrindery","outputs":[{"internalType":"bool","name":"","type":"bool"}],"stateMutability":"nonpayable","type":"function"},{"inputs":[{"internalType":"uint256","name":"amount","type":"uint256"}],"name":"stakeGRT","outputs":[{"internalType":"bool","name":"","type":"bool"}],"stateMutability":"nonpayable","type":"function"},{"inputs":[{"internalType":"address","name":"newOwner","type":"address"}],"name":"transferOwnership","outputs":[],"stateMutability":"nonpayable","type":"function"}],"devdoc":{"kind":"dev","methods":{"owner()":{"details":"Returns the address of the current owner."},"renounceOwnership()":{"details":"Leaves the contract without owner. It will not be possible to call `onlyOwner` functions anymore. Can only be called by the current owner. NOTE: Renouncing ownership will leave the contract without an owner, thereby removing any functionality that is only available to the owner."},"transferOwnership(address)":{"details":"Transfers ownership of the contract to a new account (`newOwner`). Can only be called by the current owner."}},"version":1},"evm":{"bytecode":{"linkReferences":{},"object":"608060405234801561001057600080fd5b5061152a806100206000396000f3fe608060405234801561001057600080fd5b50600436106101365760003560e01c80637fc6176c116100b25780639ef6302311610081578063ace7c37e11610066578063ace7c37e146102f0578063e956eb8a14610303578063f2fde38b1461032657600080fd5b80639ef63023146102ba578063a1c59cef146102cd57600080fd5b80637fc6176c1461025757806386c2763d146102835780638c02d6ff146102965780638da5cb5b146102a957600080fd5b80635adbe5de11610109578063670d7db7116100ee578063670d7db714610209578063715018a61461022c57806375012c8b1461023457600080fd5b80635adbe5de146101cb57806361fb8b24146101f457600080fd5b80630a0ef56d1461013b57806316345f18146101615780634516010f146101745780635a3f5fdb146101b8575b600080fd5b61014e6101493660046111b5565b610339565b6040519081526020015b60405180910390f35b61014e61016f366004611216565b610552565b6101a0610182366004611233565b6000908152606660205260409020600201546001600160a01b031690565b6040516001600160a01b039091168152602001610158565b61014e6101c63660046111b5565b6105c3565b61014e6101d9366004611216565b6001600160a01b031660009081526067602052604090205490565b610207610202366004611216565b610754565b005b61021c61021736600461124c565b61089d565b6040519015158152602001610158565b610207610a27565b61014e610242366004611233565b60009081526066602052604090206001015490565b6101a0610265366004611233565b6000908152606660205260409020600301546001600160a01b031690565b61021c6102913660046112cf565b610a3b565b61014e6102a43660046111b5565b610bdc565b6033546001600160a01b03166101a0565b61014e6102c83660046111b5565b610d63565b61014e6102db366004611233565b60009081526066602052604090206004015490565b61021c6102fe366004611233565b610e3c565b61014e610311366004611233565b60009081526066602052604090206005015490565b610207610334366004611216565b610ea1565b6000838152606660205260408120600301546001600160a01b03166103f15760405162461bcd60e51b815260206004820152605060248201527f475254206f66666572733a206e6f7420616c6c6f77656420746f206d6f64696660448201527f7920746865207072696365206c696d69742076696120616e2065787465726e6160648201527f6c20736d61727420636f6e747261637400000000000000000000000000000000608482015260a4015b60405180910390fd5b600084815260666020908152604091829020600401549151610417918691869101611364565b60405160208183030381529060405280519060200120146104ae5760405162461bcd60e51b8152602060048201526044602482018190527f475254206f66666572733a207468652066756e6374696f6e20646f6573206e6f908201527f74206d6174636820746865206f6e6520656e746572656420696e20746865206f606482015263333332b960e11b608482015260a4016103e8565b60008481526066602052604080822060030154905182916001600160a01b0316906104dc9087908790611364565b600060405180830381855afa9150503d8060008114610517576040519150601f19603f3d011682016040523d82523d6000602084013e61051c565b606091505b50915091508115610544578080602001905181019061053b9190611374565b9250505061054b565b6000925050505b9392505050565b600080826001600160a01b031663feaf968c6040518163ffffffff1660e01b815260040160a060405180830381865afa158015610593573d6000803e3d6000fd5b505050506040513d601f19601f820116820180604052508101906105b791906113ac565b50919695505050505050565b6000838152606660205260408120600301546001600160a01b0316156106665760405162461bcd60e51b815260206004820152604c60248201527f475254206f66666572733a20746865207072696365206c696d69742073686f7560448201527f6c6420626520757064617465642076696120616e2065787465726e616c20736d60648201526b185c9d0818dbdb9d1c9858dd60a21b608482015260a4016103e8565b60008481526066602090815260409182902060040154915161068c918691869101611364565b60405160208183030381529060405280519060200120146107235760405162461bcd60e51b8152602060048201526044602482018190527f475254206f66666572733a207468652066756e6374696f6e20646f6573206e6f908201527f74206d6174636820746865206f6e6520656e746572656420696e20746865206f606482015263333332b960e11b608482015260a4016103e8565b600080610732848601866113fc565b915091508061074083610552565b61074a9190611457565b9695505050505050565b600054610100900460ff16158080156107745750600054600160ff909116105b8061078e5750303b15801561078e575060005460ff166001145b6108005760405162461bcd60e51b815260206004820152602e60248201527f496e697469616c697a61626c653a20636f6e747261637420697320616c72656160448201527f647920696e697469616c697a656400000000000000000000000000000000000060648201526084016103e8565b6000805460ff191660011790558015610823576000805461ff0019166101001790555b61082b610f31565b6065805473ffffffffffffffffffffffffffffffffffffffff19166001600160a01b0384161790558015610899576000805461ff0019169055604051600181527f7f26b83ff96e1f2b6a682f133852f6798a09c465da95921460cefb38474024989060200160405180910390a15b5050565b33600081815260676020908152604080832054905160609490941b6bffffffffffffffffffffffff191691840191909152603483015246605483015290819060740160408051808303601f1901815282825280516020918201206000818152606683529290922080543373ffffffffffffffffffffffffffffffffffffffff19918216178255466001830155600290910180549091166001600160a01b038c16179055909250610951918691869101611364565b60408051601f198184030181528282528051602091820120600085815260668352929092206005019190915561098b918891889101611364565b60408051601f19818403018152828252805160209182012060008581526066835283902060048101919091556003015446845291516001600160a01b038b81169493169285927f90d1517eab8d1d52082251d5392431a6bf50b65d94217ad0a4bd02b15072445c92918290030190a4336000908152606760205260408120805491610a158361147f565b90915550600198975050505050505050565b610a2f610fa4565b610a396000610ffe565b565b33600081815260676020908152604080832054905160609490941b6bffffffffffffffffffffffff191691840191909152603483015246605483015290819060740160408051808303601f1901815282825280516020918201206000818152606683529290922080543373ffffffffffffffffffffffffffffffffffffffff1991821617825546600183015560028201805482166001600160a01b038f81169190911790915560039092018054909116918c16919091179055909250610b05918691869101611364565b60408051601f1981840301815282825280516020918201206000858152606683529290922060050191909155610b3f918891889101611364565b60408051601f19818403018152828252805160209182012060008581526066835283902060048101919091556003015446845291516001600160a01b038c81169493169285927f90d1517eab8d1d52082251d5392431a6bf50b65d94217ad0a4bd02b15072445c92918290030190a4336000908152606760205260408120805491610bc98361147f565b9091555060019998505050505050505050565b6000838152606660205260408120600301546001600160a01b031615610c7f5760405162461bcd60e51b815260206004820152604c60248201527f475254206f66666572733a20746865207072696365206c696d69742073686f7560448201527f6c6420626520757064617465642076696120616e2065787465726e616c20736d60648201526b185c9d0818dbdb9d1c9858dd60a21b608482015260a4016103e8565b600084815260666020908152604091829020600501549151610ca5918691869101611364565b6040516020818303038152906040528051906020012014610d3c5760405162461bcd60e51b8152602060048201526044602482018190527f475254206f66666572733a207468652066756e6374696f6e20646f6573206e6f908201527f74206d6174636820746865206f6e6520656e746572656420696e20746865206f606482015263333332b960e11b608482015260a4016103e8565b600080610d4b848601866113fc565b9150915080610d5983610552565b61074a9190611498565b6000838152606660205260408120600301546001600160a01b0316610e165760405162461bcd60e51b815260206004820152605060248201527f475254206f66666572733a206e6f7420616c6c6f77656420746f206d6f64696660448201527f7920746865207072696365206c696d69742076696120616e2065787465726e6160648201527f6c20736d61727420636f6e747261637400000000000000000000000000000000608482015260a4016103e8565b600084815260666020908152604091829020600501549151610417918691869101611364565b6000610e478261105d565b50604051829033907f3dbdcfd4c1f2e08931aae3d544e149a1e643143f5234d166fe3debb78338849590600090a33360009081526068602052604081208054849290610e949084906114bf565b9091555060019392505050565b610ea9610fa4565b6001600160a01b038116610f255760405162461bcd60e51b815260206004820152602660248201527f4f776e61626c653a206e6577206f776e657220697320746865207a65726f206160448201527f646472657373000000000000000000000000000000000000000000000000000060648201526084016103e8565b610f2e81610ffe565b50565b600054610100900460ff16610f9c5760405162461bcd60e51b815260206004820152602b60248201527f496e697469616c697a61626c653a20636f6e7472616374206973206e6f74206960448201526a6e697469616c697a696e6760a81b60648201526084016103e8565b610a396110f8565b6033546001600160a01b03163314610a395760405162461bcd60e51b815260206004820181905260248201527f4f776e61626c653a2063616c6c6572206973206e6f7420746865206f776e657260448201526064016103e8565b603380546001600160a01b0383811673ffffffffffffffffffffffffffffffffffffffff19831681179093556040519116919082907f8be0079c531659141344cd1fd0a4f28419497f9722a3daafe3b4186f6b6457e090600090a35050565b6065546040517f23b872dd000000000000000000000000000000000000000000000000000000008152336004820152306024820152604481018390526000916001600160a01b0316906323b872dd906064016020604051808303816000875af11580156110ce573d6000803e3d6000fd5b505050506040513d601f19601f820116820180604052508101906110f291906114d2565b92915050565b600054610100900460ff166111635760405162461bcd60e51b815260206004820152602b60248201527f496e697469616c697a61626c653a20636f6e7472616374206973206e6f74206960448201526a6e697469616c697a696e6760a81b60648201526084016103e8565b610a3933610ffe565b60008083601f84011261117e57600080fd5b50813567ffffffffffffffff81111561119657600080fd5b6020830191508360208285010111156111ae57600080fd5b9250929050565b6000806000604084860312156111ca57600080fd5b83359250602084013567ffffffffffffffff8111156111e857600080fd5b6111f48682870161116c565b9497909650939450505050565b6001600160a01b0381168114610f2e57600080fd5b60006020828403121561122857600080fd5b813561054b81611201565b60006020828403121561124557600080fd5b5035919050565b60008060008060006060868803121561126457600080fd5b853561126f81611201565b9450602086013567ffffffffffffffff8082111561128c57600080fd5b61129889838a0161116c565b909650945060408801359150808211156112b157600080fd5b506112be8882890161116c565b969995985093965092949392505050565b600080600080600080608087890312156112e857600080fd5b86356112f381611201565b9550602087013561130381611201565b9450604087013567ffffffffffffffff8082111561132057600080fd5b61132c8a838b0161116c565b9096509450606089013591508082111561134557600080fd5b5061135289828a0161116c565b979a9699509497509295939492505050565b8183823760009101908152919050565b60006020828403121561138657600080fd5b5051919050565b805169ffffffffffffffffffff811681146113a757600080fd5b919050565b600080600080600060a086880312156113c457600080fd5b6113cd8661138d565b94506020860151935060408601519250606086015191506113f06080870161138d565b90509295509295909350565b6000806040838503121561140f57600080fd5b823561141a81611201565b946020939093013593505050565b7f4e487b7100000000000000000000000000000000000000000000000000000000600052601160045260246000fd5b808201828112600083128015821682158216171561147757611477611428565b505092915050565b60006001820161149157611491611428565b5060010190565b81810360008312801583831316838312821617156114b8576114b8611428565b5092915050565b808201808211156110f2576110f2611428565b6000602082840312156114e457600080fd5b8151801515811461054b57600080fdfea26469706673582212202ff688992b0ad1b3ee60cadc2703af8d803ac043fd027fe62c67e86ce971a67a64736f6c63430008110033","opcodes":"PUSH1 0x80 PUSH1 0x40 MSTORE CALLVALUE DUP1 ISZERO PUSH2 0x10 JUMPI PUSH1 0x0 DUP1 REVERT JUMPDEST POP PUSH2 0x152A DUP1 PUSH2 0x20 PUSH1 0x0 CODECOPY PUSH1 0x0 RETURN INVALID PUSH1 0x80 PUSH1 0x40 MSTORE CALLVALUE DUP1 ISZERO PUSH2 0x10 JUMPI PUSH1 0x0 DUP1 REVERT JUMPDEST POP PUSH1 0x4 CALLDATASIZE LT PUSH2 0x136 JUMPI PUSH1 0x0 CALLDATALOAD PUSH1 0xE0 SHR DUP1 PUSH4 0x7FC6176C GT PUSH2 0xB2 JUMPI DUP1 PUSH4 0x9EF63023 GT PUSH2 0x81 JUMPI DUP1 PUSH4 0xACE7C37E GT PUSH2 0x66 JUMPI DUP1 PUSH4 0xACE7C37E EQ PUSH2 0x2F0 JUMPI DUP1 PUSH4 0xE956EB8A EQ PUSH2 0x303 JUMPI DUP1 PUSH4 0xF2FDE38B EQ PUSH2 0x326 JUMPI PUSH1 0x0 DUP1 REVERT JUMPDEST DUP1 PUSH4 0x9EF63023 EQ PUSH2 0x2BA JUMPI DUP1 PUSH4 0xA1C59CEF EQ PUSH2 0x2CD JUMPI PUSH1 0x0 DUP1 REVERT JUMPDEST DUP1 PUSH4 0x7FC6176C EQ PUSH2 0x257 JUMPI DUP1 PUSH4 0x86C2763D EQ PUSH2 0x283 JUMPI DUP1 PUSH4 0x8C02D6FF EQ PUSH2 0x296 JUMPI DUP1 PUSH4 0x8DA5CB5B EQ PUSH2 0x2A9 JUMPI PUSH1 0x0 DUP1 REVERT JUMPDEST DUP1 PUSH4 0x5ADBE5DE GT PUSH2 0x109 JUMPI DUP1 PUSH4 0x670D7DB7 GT PUSH2 0xEE JUMPI DUP1 PUSH4 0x670D7DB7 EQ PUSH2 0x209 JUMPI DUP1 PUSH4 0x715018A6 EQ PUSH2 0x22C JUMPI DUP1 PUSH4 0x75012C8B EQ PUSH2 0x234 JUMPI PUSH1 0x0 DUP1 REVERT JUMPDEST DUP1 PUSH4 0x5ADBE5DE EQ PUSH2 0x1CB JUMPI DUP1 PUSH4 0x61FB8B24 EQ PUSH2 0x1F4 JUMPI PUSH1 0x0 DUP1 REVERT JUMPDEST DUP1 PUSH4 0xA0EF56D EQ PUSH2 0x13B JUMPI DUP1 PUSH4 0x16345F18 EQ PUSH2 0x161 JUMPI DUP1 PUSH4 0x4516010F EQ PUSH2 0x174 JUMPI DUP1 PUSH4 0x5A3F5FDB EQ PUSH2 0x1B8 JUMPI JUMPDEST PUSH1 0x0 DUP1 REVERT JUMPDEST PUSH2 0x14E PUSH2 0x149 CALLDATASIZE PUSH1 0x4 PUSH2 0x11B5 JUMP JUMPDEST PUSH2 0x339 JUMP JUMPDEST PUSH1 0x40 MLOAD SWAP1 DUP2 MSTORE PUSH1 0x20 ADD JUMPDEST PUSH1 0x40 MLOAD DUP1 SWAP2 SUB SWAP1 RETURN JUMPDEST PUSH2 0x14E PUSH2 0x16F CALLDATASIZE PUSH1 0x4 PUSH2 0x1216 JUMP JUMPDEST PUSH2 0x552 JUMP JUMPDEST PUSH2 0x1A0 PUSH2 0x182 CALLDATASIZE PUSH1 0x4 PUSH2 0x1233 JUMP JUMPDEST PUSH1 0x0 SWAP1 DUP2 MSTORE PUSH1 0x66 PUSH1 0x20 MSTORE PUSH1 0x40 SWAP1 KECCAK256 PUSH1 0x2 ADD SLOAD PUSH1 0x1 PUSH1 0x1 PUSH1 0xA0 SHL SUB AND SWAP1 JUMP JUMPDEST PUSH1 0x40 MLOAD PUSH1 0x1 PUSH1 0x1 PUSH1 0xA0 SHL SUB SWAP1 SWAP2 AND DUP2 MSTORE PUSH1 0x20 ADD PUSH2 0x158 JUMP JUMPDEST PUSH2 0x14E PUSH2 0x1C6 CALLDATASIZE PUSH1 0x4 PUSH2 0x11B5 JUMP JUMPDEST PUSH2 0x5C3 JUMP JUMPDEST PUSH2 0x14E PUSH2 0x1D9 CALLDATASIZE PUSH1 0x4 PUSH2 0x1216 JUMP JUMPDEST PUSH1 0x1 PUSH1 0x1 PUSH1 0xA0 SHL SUB AND PUSH1 0x0 SWAP1 DUP2 MSTORE PUSH1 0x67 PUSH1 0x20 MSTORE PUSH1 0x40 SWAP1 KECCAK256 SLOAD SWAP1 JUMP JUMPDEST PUSH2 0x207 PUSH2 0x202 CALLDATASIZE PUSH1 0x4 PUSH2 0x1216 JUMP JUMPDEST PUSH2 0x754 JUMP JUMPDEST STOP JUMPDEST PUSH2 0x21C PUSH2 0x217 CALLDATASIZE PUSH1 0x4 PUSH2 0x124C JUMP JUMPDEST PUSH2 0x89D JUMP JUMPDEST PUSH1 0x40 MLOAD SWAP1 ISZERO ISZERO DUP2 MSTORE PUSH1 0x20 ADD PUSH2 0x158 JUMP JUMPDEST PUSH2 0x207 PUSH2 0xA27 JUMP JUMPDEST PUSH2 0x14E PUSH2 0x242 CALLDATASIZE PUSH1 0x4 PUSH2 0x1233 JUMP JUMPDEST PUSH1 0x0 SWAP1 DUP2 MSTORE PUSH1 0x66 PUSH1 0x20 MSTORE PUSH1 0x40 SWAP1 KECCAK256 PUSH1 0x1 ADD SLOAD SWAP1 JUMP JUMPDEST PUSH2 0x1A0 PUSH2 0x265 CALLDATASIZE PUSH1 0x4 PUSH2 0x1233 JUMP JUMPDEST PUSH1 0x0 SWAP1 DUP2 MSTORE PUSH1 0x66 PUSH1 0x20 MSTORE PUSH1 0x40 SWAP1 KECCAK256 PUSH1 0x3 ADD SLOAD PUSH1 0x1 PUSH1 0x1 PUSH1 0xA0 SHL SUB AND SWAP1 JUMP JUMPDEST PUSH2 0x21C PUSH2 0x291 CALLDATASIZE PUSH1 0x4 PUSH2 0x12CF JUMP JUMPDEST PUSH2 0xA3B JUMP JUMPDEST PUSH2 0x14E PUSH2 0x2A4 CALLDATASIZE PUSH1 0x4 PUSH2 0x11B5 JUMP JUMPDEST PUSH2 0xBDC JUMP JUMPDEST PUSH1 0x33 SLOAD PUSH1 0x1 PUSH1 0x1 PUSH1 0xA0 SHL SUB AND PUSH2 0x1A0 JUMP JUMPDEST PUSH2 0x14E PUSH2 0x2C8 CALLDATASIZE PUSH1 0x4 PUSH2 0x11B5 JUMP JUMPDEST PUSH2 0xD63 JUMP JUMPDEST PUSH2 0x14E PUSH2 0x2DB CALLDATASIZE PUSH1 0x4 PUSH2 0x1233 JUMP JUMPDEST PUSH1 0x0 SWAP1 DUP2 MSTORE PUSH1 0x66 PUSH1 0x20 MSTORE PUSH1 0x40 SWAP1 KECCAK256 PUSH1 0x4 ADD SLOAD SWAP1 JUMP JUMPDEST PUSH2 0x21C PUSH2 0x2FE CALLDATASIZE PUSH1 0x4 PUSH2 0x1233 JUMP JUMPDEST PUSH2 0xE3C JUMP JUMPDEST PUSH2 0x14E PUSH2 0x311 CALLDATASIZE PUSH1 0x4 PUSH2 0x1233 JUMP JUMPDEST PUSH1 0x0 SWAP1 DUP2 MSTORE PUSH1 0x66 PUSH1 0x20 MSTORE PUSH1 0x40 SWAP1 KECCAK256 PUSH1 0x5 ADD SLOAD SWAP1 JUMP JUMPDEST PUSH2 0x207 PUSH2 0x334 CALLDATASIZE PUSH1 0x4 PUSH2 0x1216 JUMP JUMPDEST PUSH2 0xEA1 JUMP JUMPDEST PUSH1 0x0 DUP4 DUP2 MSTORE PUSH1 0x66 PUSH1 0x20 MSTORE PUSH1 0x40 DUP2 KECCAK256 PUSH1 0x3 ADD SLOAD PUSH1 0x1 PUSH1 0x1 PUSH1 0xA0 SHL SUB AND PUSH2 0x3F1 JUMPI PUSH1 0x40 MLOAD PUSH3 0x461BCD PUSH1 0xE5 SHL DUP2 MSTORE PUSH1 0x20 PUSH1 0x4 DUP3 ADD MSTORE PUSH1 0x50 PUSH1 0x24 DUP3 ADD MSTORE PUSH32 0x475254206F66666572733A206E6F7420616C6C6F77656420746F206D6F646966 PUSH1 0x44 DUP3 ADD MSTORE PUSH32 0x7920746865207072696365206C696D69742076696120616E2065787465726E61 PUSH1 0x64 DUP3 ADD MSTORE PUSH32 0x6C20736D61727420636F6E747261637400000000000000000000000000000000 PUSH1 0x84 DUP3 ADD MSTORE PUSH1 0xA4 ADD JUMPDEST PUSH1 0x40 MLOAD DUP1 SWAP2 SUB SWAP1 REVERT JUMPDEST PUSH1 0x0 DUP5 DUP2 MSTORE PUSH1 0x66 PUSH1 0x20 SWAP1 DUP2 MSTORE PUSH1 0x40 SWAP2 DUP3 SWAP1 KECCAK256 PUSH1 0x4 ADD SLOAD SWAP2 MLOAD PUSH2 0x417 SWAP2 DUP7 SWAP2 DUP7 SWAP2 ADD PUSH2 0x1364 JUMP JUMPDEST PUSH1 0x40 MLOAD PUSH1 0x20 DUP2 DUP4 SUB SUB DUP2 MSTORE SWAP1 PUSH1 0x40 MSTORE DUP1 MLOAD SWAP1 PUSH1 0x20 ADD KECCAK256 EQ PUSH2 0x4AE JUMPI PUSH1 0x40 MLOAD PUSH3 0x461BCD PUSH1 0xE5 SHL DUP2 MSTORE PUSH1 0x20 PUSH1 0x4 DUP3 ADD MSTORE PUSH1 0x44 PUSH1 0x24 DUP3 ADD DUP2 SWAP1 MSTORE PUSH32 0x475254206F66666572733A207468652066756E6374696F6E20646F6573206E6F SWAP1 DUP3 ADD MSTORE PUSH32 0x74206D6174636820746865206F6E6520656E746572656420696E20746865206F PUSH1 0x64 DUP3 ADD MSTORE PUSH4 0x333332B9 PUSH1 0xE1 SHL PUSH1 0x84 DUP3 ADD MSTORE PUSH1 0xA4 ADD PUSH2 0x3E8 JUMP JUMPDEST PUSH1 0x0 DUP5 DUP2 MSTORE PUSH1 0x66 PUSH1 0x20 MSTORE PUSH1 0x40 DUP1 DUP3 KECCAK256 PUSH1 0x3 ADD SLOAD SWAP1 MLOAD DUP3 SWAP2 PUSH1 0x1 PUSH1 0x1 PUSH1 0xA0 SHL SUB AND SWAP1 PUSH2 0x4DC SWAP1 DUP8 SWAP1 DUP8 SWAP1 PUSH2 0x1364 JUMP JUMPDEST PUSH1 0x0 PUSH1 0x40 MLOAD DUP1 DUP4 SUB DUP2 DUP6 GAS STATICCALL SWAP2 POP POP RETURNDATASIZE DUP1 PUSH1 0x0 DUP2 EQ PUSH2 0x517 JUMPI PUSH1 0x40 MLOAD SWAP2 POP PUSH1 0x1F NOT PUSH1 0x3F RETURNDATASIZE ADD AND DUP3 ADD PUSH1 0x40 MSTORE RETURNDATASIZE DUP3 MSTORE RETURNDATASIZE PUSH1 0x0 PUSH1 0x20 DUP5 ADD RETURNDATACOPY PUSH2 0x51C JUMP JUMPDEST PUSH1 0x60 SWAP2 POP JUMPDEST POP SWAP2 POP SWAP2 POP DUP2 ISZERO PUSH2 0x544 JUMPI DUP1 DUP1 PUSH1 0x20 ADD SWAP1 MLOAD DUP2 ADD SWAP1 PUSH2 0x53B SWAP2 SWAP1 PUSH2 0x1374 JUMP JUMPDEST SWAP3 POP POP POP PUSH2 0x54B JUMP JUMPDEST PUSH1 0x0 SWAP3 POP POP POP JUMPDEST SWAP4 SWAP3 POP POP POP JUMP JUMPDEST PUSH1 0x0 DUP1 DUP3 PUSH1 0x1 PUSH1 0x1 PUSH1 0xA0 SHL SUB AND PUSH4 0xFEAF968C PUSH1 0x40 MLOAD DUP2 PUSH4 0xFFFFFFFF AND PUSH1 0xE0 SHL DUP2 MSTORE PUSH1 0x4 ADD PUSH1 0xA0 PUSH1 0x40 MLOAD DUP1 DUP4 SUB DUP2 DUP7 GAS STATICCALL ISZERO DUP1 ISZERO PUSH2 0x593 JUMPI RETURNDATASIZE PUSH1 0x0 DUP1 RETURNDATACOPY RETURNDATASIZE PUSH1 0x0 REVERT JUMPDEST POP POP POP POP PUSH1 0x40 MLOAD RETURNDATASIZE PUSH1 0x1F NOT PUSH1 0x1F DUP3 ADD AND DUP3 ADD DUP1 PUSH1 0x40 MSTORE POP DUP2 ADD SWAP1 PUSH2 0x5B7 SWAP2 SWAP1 PUSH2 0x13AC JUMP JUMPDEST POP SWAP2 SWAP7 SWAP6 POP POP POP POP POP POP JUMP JUMPDEST PUSH1 0x0 DUP4 DUP2 MSTORE PUSH1 0x66 PUSH1 0x20 MSTORE PUSH1 0x40 DUP2 KECCAK256 PUSH1 0x3 ADD SLOAD PUSH1 0x1 PUSH1 0x1 PUSH1 0xA0 SHL SUB AND ISZERO PUSH2 0x666 JUMPI PUSH1 0x40 MLOAD PUSH3 0x461BCD PUSH1 0xE5 SHL DUP2 MSTORE PUSH1 0x20 PUSH1 0x4 DUP3 ADD MSTORE PUSH1 0x4C PUSH1 0x24 DUP3 ADD MSTORE PUSH32 0x475254206F66666572733A20746865207072696365206C696D69742073686F75 PUSH1 0x44 DUP3 ADD MSTORE PUSH32 0x6C6420626520757064617465642076696120616E2065787465726E616C20736D PUSH1 0x64 DUP3 ADD MSTORE PUSH12 0x185C9D0818DBDB9D1C9858DD PUSH1 0xA2 SHL PUSH1 0x84 DUP3 ADD MSTORE PUSH1 0xA4 ADD PUSH2 0x3E8 JUMP JUMPDEST PUSH1 0x0 DUP5 DUP2 MSTORE PUSH1 0x66 PUSH1 0x20 SWAP1 DUP2 MSTORE PUSH1 0x40 SWAP2 DUP3 SWAP1 KECCAK256 PUSH1 0x4 ADD SLOAD SWAP2 MLOAD PUSH2 0x68C SWAP2 DUP7 SWAP2 DUP7 SWAP2 ADD PUSH2 0x1364 JUMP JUMPDEST PUSH1 0x40 MLOAD PUSH1 0x20 DUP2 DUP4 SUB SUB DUP2 MSTORE SWAP1 PUSH1 0x40 MSTORE DUP1 MLOAD SWAP1 PUSH1 0x20 ADD KECCAK256 EQ PUSH2 0x723 JUMPI PUSH1 0x40 MLOAD PUSH3 0x461BCD PUSH1 0xE5 SHL DUP2 MSTORE PUSH1 0x20 PUSH1 0x4 DUP3 ADD MSTORE PUSH1 0x44 PUSH1 0x24 DUP3 ADD DUP2 SWAP1 MSTORE PUSH32 0x475254206F66666572733A207468652066756E6374696F6E20646F6573206E6F SWAP1 DUP3 ADD MSTORE PUSH32 0x74206D6174636820746865206F6E6520656E746572656420696E20746865206F PUSH1 0x64 DUP3 ADD MSTORE PUSH4 0x333332B9 PUSH1 0xE1 SHL PUSH1 0x84 DUP3 ADD MSTORE PUSH1 0xA4 ADD PUSH2 0x3E8 JUMP JUMPDEST PUSH1 0x0 DUP1 PUSH2 0x732 DUP5 DUP7 ADD DUP7 PUSH2 0x13FC JUMP JUMPDEST SWAP2 POP SWAP2 POP DUP1 PUSH2 0x740 DUP4 PUSH2 0x552 JUMP JUMPDEST PUSH2 0x74A SWAP2 SWAP1 PUSH2 0x1457 JUMP JUMPDEST SWAP7 SWAP6 POP POP POP POP POP POP JUMP JUMPDEST PUSH1 0x0 SLOAD PUSH2 0x100 SWAP1 DIV PUSH1 0xFF AND ISZERO DUP1 DUP1 ISZERO PUSH2 0x774 JUMPI POP PUSH1 0x0 SLOAD PUSH1 0x1 PUSH1 0xFF SWAP1 SWAP2 AND LT JUMPDEST DUP1 PUSH2 0x78E JUMPI POP ADDRESS EXTCODESIZE ISZERO DUP1 ISZERO PUSH2 0x78E JUMPI POP PUSH1 0x0 SLOAD PUSH1 0xFF AND PUSH1 0x1 EQ JUMPDEST PUSH2 0x800 JUMPI PUSH1 0x40 MLOAD PUSH3 0x461BCD PUSH1 0xE5 SHL DUP2 MSTORE PUSH1 0x20 PUSH1 0x4 DUP3 ADD MSTORE PUSH1 0x2E PUSH1 0x24 DUP3 ADD MSTORE PUSH32 0x496E697469616C697A61626C653A20636F6E747261637420697320616C726561 PUSH1 0x44 DUP3 ADD MSTORE PUSH32 0x647920696E697469616C697A6564000000000000000000000000000000000000 PUSH1 0x64 DUP3 ADD MSTORE PUSH1 0x84 ADD PUSH2 0x3E8 JUMP JUMPDEST PUSH1 0x0 DUP1 SLOAD PUSH1 0xFF NOT AND PUSH1 0x1 OR SWAP1 SSTORE DUP1 ISZERO PUSH2 0x823 JUMPI PUSH1 0x0 DUP1 SLOAD PUSH2 0xFF00 NOT AND PUSH2 0x100 OR SWAP1 SSTORE JUMPDEST PUSH2 0x82B PUSH2 0xF31 JUMP JUMPDEST PUSH1 0x65 DUP1 SLOAD PUSH20 0xFFFFFFFFFFFFFFFFFFFFFFFFFFFFFFFFFFFFFFFF NOT AND PUSH1 0x1 PUSH1 0x1 PUSH1 0xA0 SHL SUB DUP5 AND OR SWAP1 SSTORE DUP1 ISZERO PUSH2 0x899 JUMPI PUSH1 0x0 DUP1 SLOAD PUSH2 0xFF00 NOT AND SWAP1 SSTORE PUSH1 0x40 MLOAD PUSH1 0x1 DUP2 MSTORE PUSH32 0x7F26B83FF96E1F2B6A682F133852F6798A09C465DA95921460CEFB3847402498 SWAP1 PUSH1 0x20 ADD PUSH1 0x40 MLOAD DUP1 SWAP2 SUB SWAP1 LOG1 JUMPDEST POP POP JUMP JUMPDEST CALLER PUSH1 0x0 DUP2 DUP2 MSTORE PUSH1 0x67 PUSH1 0x20 SWAP1 DUP2 MSTORE PUSH1 0x40 DUP1 DUP4 KECCAK256 SLOAD SWAP1 MLOAD PUSH1 0x60 SWAP5 SWAP1 SWAP5 SHL PUSH12 0xFFFFFFFFFFFFFFFFFFFFFFFF NOT AND SWAP2 DUP5 ADD SWAP2 SWAP1 SWAP2 MSTORE PUSH1 0x34 DUP4 ADD MSTORE CHAINID PUSH1 0x54 DUP4 ADD MSTORE SWAP1 DUP2 SWAP1 PUSH1 0x74 ADD PUSH1 0x40 DUP1 MLOAD DUP1 DUP4 SUB PUSH1 0x1F NOT ADD DUP2 MSTORE DUP3 DUP3 MSTORE DUP1 MLOAD PUSH1 0x20 SWAP2 DUP3 ADD KECCAK256 PUSH1 0x0 DUP2 DUP2 MSTORE PUSH1 0x66 DUP4 MSTORE SWAP3 SWAP1 SWAP3 KECCAK256 DUP1 SLOAD CALLER PUSH20 0xFFFFFFFFFFFFFFFFFFFFFFFFFFFFFFFFFFFFFFFF NOT SWAP2 DUP3 AND OR DUP3 SSTORE CHAINID PUSH1 0x1 DUP4 ADD SSTORE PUSH1 0x2 SWAP1 SWAP2 ADD DUP1 SLOAD SWAP1 SWAP2 AND PUSH1 0x1 PUSH1 0x1 PUSH1 0xA0 SHL SUB DUP13 AND OR SWAP1 SSTORE SWAP1 SWAP3 POP PUSH2 0x951 SWAP2 DUP7 SWAP2 DUP7 SWAP2 ADD PUSH2 0x1364 JUMP JUMPDEST PUSH1 0x40 DUP1 MLOAD PUSH1 0x1F NOT DUP2 DUP5 SUB ADD DUP2 MSTORE DUP3 DUP3 MSTORE DUP1 MLOAD PUSH1 0x20 SWAP2 DUP3 ADD KECCAK256 PUSH1 0x0 DUP6 DUP2 MSTORE PUSH1 0x66 DUP4 MSTORE SWAP3 SWAP1 SWAP3 KECCAK256 PUSH1 0x5 ADD SWAP2 SWAP1 SWAP2 SSTORE PUSH2 0x98B SWAP2 DUP9 SWAP2 DUP9 SWAP2 ADD PUSH2 0x1364 JUMP JUMPDEST PUSH1 0x40 DUP1 MLOAD PUSH1 0x1F NOT DUP2 DUP5 SUB ADD DUP2 MSTORE DUP3 DUP3 MSTORE DUP1 MLOAD PUSH1 0x20 SWAP2 DUP3 ADD KECCAK256 PUSH1 0x0 DUP6 DUP2 MSTORE PUSH1 0x66 DUP4 MSTORE DUP4 SWAP1 KECCAK256 PUSH1 0x4 DUP2 ADD SWAP2 SWAP1 SWAP2 SSTORE PUSH1 0x3 ADD SLOAD CHAINID DUP5 MSTORE SWAP2 MLOAD PUSH1 0x1 PUSH1 0x1 PUSH1 0xA0 SHL SUB DUP12 DUP2 AND SWAP5 SWAP4 AND SWAP3 DUP6 SWAP3 PUSH32 0x90D1517EAB8D1D52082251D5392431A6BF50B65D94217AD0A4BD02B15072445C SWAP3 SWAP2 DUP3 SWAP1 SUB ADD SWAP1 LOG4 CALLER PUSH1 0x0 SWAP1 DUP2 MSTORE PUSH1 0x67 PUSH1 0x20 MSTORE PUSH1 0x40 DUP2 KECCAK256 DUP1 SLOAD SWAP2 PUSH2 0xA15 DUP4 PUSH2 0x147F JUMP JUMPDEST SWAP1 SWAP2 SSTORE POP PUSH1 0x1 SWAP9 SWAP8 POP POP POP POP POP POP POP POP JUMP JUMPDEST PUSH2 0xA2F PUSH2 0xFA4 JUMP JUMPDEST PUSH2 0xA39 PUSH1 0x0 PUSH2 0xFFE JUMP JUMPDEST JUMP JUMPDEST CALLER PUSH1 0x0 DUP2 DUP2 MSTORE PUSH1 0x67 PUSH1 0x20 SWAP1 DUP2 MSTORE PUSH1 0x40 DUP1 DUP4 KECCAK256 SLOAD SWAP1 MLOAD PUSH1 0x60 SWAP5 SWAP1 SWAP5 SHL PUSH12 0xFFFFFFFFFFFFFFFFFFFFFFFF NOT AND SWAP2 DUP5 ADD SWAP2 SWAP1 SWAP2 MSTORE PUSH1 0x34 DUP4 ADD MSTORE CHAINID PUSH1 0x54 DUP4 ADD MSTORE SWAP1 DUP2 SWAP1 PUSH1 0x74 ADD PUSH1 0x40 DUP1 MLOAD DUP1 DUP4 SUB PUSH1 0x1F NOT ADD DUP2 MSTORE DUP3 DUP3 MSTORE DUP1 MLOAD PUSH1 0x20 SWAP2 DUP3 ADD KECCAK256 PUSH1 0x0 DUP2 DUP2 MSTORE PUSH1 0x66 DUP4 MSTORE SWAP3 SWAP1 SWAP3 KECCAK256 DUP1 SLOAD CALLER PUSH20 0xFFFFFFFFFFFFFFFFFFFFFFFFFFFFFFFFFFFFFFFF NOT SWAP2 DUP3 AND OR DUP3 SSTORE CHAINID PUSH1 0x1 DUP4 ADD SSTORE PUSH1 0x2 DUP3 ADD DUP1 SLOAD DUP3 AND PUSH1 0x1 PUSH1 0x1 PUSH1 0xA0 SHL SUB DUP16 DUP2 AND SWAP2 SWAP1 SWAP2 OR SWAP1 SWAP2 SSTORE PUSH1 0x3 SWAP1 SWAP3 ADD DUP1 SLOAD SWAP1 SWAP2 AND SWAP2 DUP13 AND SWAP2 SWAP1 SWAP2 OR SWAP1 SSTORE SWAP1 SWAP3 POP PUSH2 0xB05 SWAP2 DUP7 SWAP2 DUP7 SWAP2 ADD PUSH2 0x1364 JUMP JUMPDEST PUSH1 0x40 DUP1 MLOAD PUSH1 0x1F NOT DUP2 DUP5 SUB ADD DUP2 MSTORE DUP3 DUP3 MSTORE DUP1 MLOAD PUSH1 0x20 SWAP2 DUP3 ADD KECCAK256 PUSH1 0x0 DUP6 DUP2 MSTORE PUSH1 0x66 DUP4 MSTORE SWAP3 SWAP1 SWAP3 KECCAK256 PUSH1 0x5 ADD SWAP2 SWAP1 SWAP2 SSTORE PUSH2 0xB3F SWAP2 DUP9 SWAP2 DUP9 SWAP2 ADD PUSH2 0x1364 JUMP JUMPDEST PUSH1 0x40 DUP1 MLOAD PUSH1 0x1F NOT DUP2 DUP5 SUB ADD DUP2 MSTORE DUP3 DUP3 MSTORE DUP1 MLOAD PUSH1 0x20 SWAP2 DUP3 ADD KECCAK256 PUSH1 0x0 DUP6 DUP2 MSTORE PUSH1 0x66 DUP4 MSTORE DUP4 SWAP1 KECCAK256 PUSH1 0x4 DUP2 ADD SWAP2 SWAP1 SWAP2 SSTORE PUSH1 0x3 ADD SLOAD CHAINID DUP5 MSTORE SWAP2 MLOAD PUSH1 0x1 PUSH1 0x1 PUSH1 0xA0 SHL SUB DUP13 DUP2 AND SWAP5 SWAP4 AND SWAP3 DUP6 SWAP3 PUSH32 0x90D1517EAB8D1D52082251D5392431A6BF50B65D94217AD0A4BD02B15072445C SWAP3 SWAP2 DUP3 SWAP1 SUB ADD SWAP1 LOG4 CALLER PUSH1 0x0 SWAP1 DUP2 MSTORE PUSH1 0x67 PUSH1 0x20 MSTORE PUSH1 0x40 DUP2 KECCAK256 DUP1 SLOAD SWAP2 PUSH2 0xBC9 DUP4 PUSH2 0x147F JUMP JUMPDEST SWAP1 SWAP2 SSTORE POP PUSH1 0x1 SWAP10 SWAP9 POP POP POP POP POP POP POP POP POP JUMP JUMPDEST PUSH1 0x0 DUP4 DUP2 MSTORE PUSH1 0x66 PUSH1 0x20 MSTORE PUSH1 0x40 DUP2 KECCAK256 PUSH1 0x3 ADD SLOAD PUSH1 0x1 PUSH1 0x1 PUSH1 0xA0 SHL SUB AND ISZERO PUSH2 0xC7F JUMPI PUSH1 0x40 MLOAD PUSH3 0x461BCD PUSH1 0xE5 SHL DUP2 MSTORE PUSH1 0x20 PUSH1 0x4 DUP3 ADD MSTORE PUSH1 0x4C PUSH1 0x24 DUP3 ADD MSTORE PUSH32 0x475254206F66666572733A20746865207072696365206C696D69742073686F75 PUSH1 0x44 DUP3 ADD MSTORE PUSH32 0x6C6420626520757064617465642076696120616E2065787465726E616C20736D PUSH1 0x64 DUP3 ADD MSTORE PUSH12 0x185C9D0818DBDB9D1C9858DD PUSH1 0xA2 SHL PUSH1 0x84 DUP3 ADD MSTORE PUSH1 0xA4 ADD PUSH2 0x3E8 JUMP JUMPDEST PUSH1 0x0 DUP5 DUP2 MSTORE PUSH1 0x66 PUSH1 0x20 SWAP1 DUP2 MSTORE PUSH1 0x40 SWAP2 DUP3 SWAP1 KECCAK256 PUSH1 0x5 ADD SLOAD SWAP2 MLOAD PUSH2 0xCA5 SWAP2 DUP7 SWAP2 DUP7 SWAP2 ADD PUSH2 0x1364 JUMP JUMPDEST PUSH1 0x40 MLOAD PUSH1 0x20 DUP2 DUP4 SUB SUB DUP2 MSTORE SWAP1 PUSH1 0x40 MSTORE DUP1 MLOAD SWAP1 PUSH1 0x20 ADD KECCAK256 EQ PUSH2 0xD3C JUMPI PUSH1 0x40 MLOAD PUSH3 0x461BCD PUSH1 0xE5 SHL DUP2 MSTORE PUSH1 0x20 PUSH1 0x4 DUP3 ADD MSTORE PUSH1 0x44 PUSH1 0x24 DUP3 ADD DUP2 SWAP1 MSTORE PUSH32 0x475254206F66666572733A207468652066756E6374696F6E20646F6573206E6F SWAP1 DUP3 ADD MSTORE PUSH32 0x74206D6174636820746865206F6E6520656E746572656420696E20746865206F PUSH1 0x64 DUP3 ADD MSTORE PUSH4 0x333332B9 PUSH1 0xE1 SHL PUSH1 0x84 DUP3 ADD MSTORE PUSH1 0xA4 ADD PUSH2 0x3E8 JUMP JUMPDEST PUSH1 0x0 DUP1 PUSH2 0xD4B DUP5 DUP7 ADD DUP7 PUSH2 0x13FC JUMP JUMPDEST SWAP2 POP SWAP2 POP DUP1 PUSH2 0xD59 DUP4 PUSH2 0x552 JUMP JUMPDEST PUSH2 0x74A SWAP2 SWAP1 PUSH2 0x1498 JUMP JUMPDEST PUSH1 0x0 DUP4 DUP2 MSTORE PUSH1 0x66 PUSH1 0x20 MSTORE PUSH1 0x40 DUP2 KECCAK256 PUSH1 0x3 ADD SLOAD PUSH1 0x1 PUSH1 0x1 PUSH1 0xA0 SHL SUB AND PUSH2 0xE16 JUMPI PUSH1 0x40 MLOAD PUSH3 0x461BCD PUSH1 0xE5 SHL DUP2 MSTORE PUSH1 0x20 PUSH1 0x4 DUP3 ADD MSTORE PUSH1 0x50 PUSH1 0x24 DUP3 ADD MSTORE PUSH32 0x475254206F66666572733A206E6F7420616C6C6F77656420746F206D6F646966 PUSH1 0x44 DUP3 ADD MSTORE PUSH32 0x7920746865207072696365206C696D69742076696120616E2065787465726E61 PUSH1 0x64 DUP3 ADD MSTORE PUSH32 0x6C20736D61727420636F6E747261637400000000000000000000000000000000 PUSH1 0x84 DUP3 ADD MSTORE PUSH1 0xA4 ADD PUSH2 0x3E8 JUMP JUMPDEST PUSH1 0x0 DUP5 DUP2 MSTORE PUSH1 0x66 PUSH1 0x20 SWAP1 DUP2 MSTORE PUSH1 0x40 SWAP2 DUP3 SWAP1 KECCAK256 PUSH1 0x5 ADD SLOAD SWAP2 MLOAD PUSH2 0x417 SWAP2 DUP7 SWAP2 DUP7 SWAP2 ADD PUSH2 0x1364 JUMP JUMPDEST PUSH1 0x0 PUSH2 0xE47 DUP3 PUSH2 0x105D JUMP JUMPDEST POP PUSH1 0x40 MLOAD DUP3 SWAP1 CALLER SWAP1 PUSH32 0x3DBDCFD4C1F2E08931AAE3D544E149A1E643143F5234D166FE3DEBB783388495 SWAP1 PUSH1 0x0 SWAP1 LOG3 CALLER PUSH1 0x0 SWAP1 DUP2 MSTORE PUSH1 0x68 PUSH1 0x20 MSTORE PUSH1 0x40 DUP2 KECCAK256 DUP1 SLOAD DUP5 SWAP3 SWAP1 PUSH2 0xE94 SWAP1 DUP5 SWAP1 PUSH2 0x14BF JUMP JUMPDEST SWAP1 SWAP2 SSTORE POP PUSH1 0x1 SWAP4 SWAP3 POP POP POP JUMP JUMPDEST PUSH2 0xEA9 PUSH2 0xFA4 JUMP JUMPDEST PUSH1 0x1 PUSH1 0x1 PUSH1 0xA0 SHL SUB DUP2 AND PUSH2 0xF25 JUMPI PUSH1 0x40 MLOAD PUSH3 0x461BCD PUSH1 0xE5 SHL DUP2 MSTORE PUSH1 0x20 PUSH1 0x4 DUP3 ADD MSTORE PUSH1 0x26 PUSH1 0x24 DUP3 ADD MSTORE PUSH32 0x4F776E61626C653A206E6577206F776E657220697320746865207A65726F2061 PUSH1 0x44 DUP3 ADD MSTORE PUSH32 0x6464726573730000000000000000000000000000000000000000000000000000 PUSH1 0x64 DUP3 ADD MSTORE PUSH1 0x84 ADD PUSH2 0x3E8 JUMP JUMPDEST PUSH2 0xF2E DUP2 PUSH2 0xFFE JUMP JUMPDEST POP JUMP JUMPDEST PUSH1 0x0 SLOAD PUSH2 0x100 SWAP1 DIV PUSH1 0xFF AND PUSH2 0xF9C JUMPI PUSH1 0x40 MLOAD PUSH3 0x461BCD PUSH1 0xE5 SHL DUP2 MSTORE PUSH1 0x20 PUSH1 0x4 DUP3 ADD MSTORE PUSH1 0x2B PUSH1 0x24 DUP3 ADD MSTORE PUSH32 0x496E697469616C697A61626C653A20636F6E7472616374206973206E6F742069 PUSH1 0x44 DUP3 ADD MSTORE PUSH11 0x6E697469616C697A696E67 PUSH1 0xA8 SHL PUSH1 0x64 DUP3 ADD MSTORE PUSH1 0x84 ADD PUSH2 0x3E8 JUMP JUMPDEST PUSH2 0xA39 PUSH2 0x10F8 JUMP JUMPDEST PUSH1 0x33 SLOAD PUSH1 0x1 PUSH1 0x1 PUSH1 0xA0 SHL SUB AND CALLER EQ PUSH2 0xA39 JUMPI PUSH1 0x40 MLOAD PUSH3 0x461BCD PUSH1 0xE5 SHL DUP2 MSTORE PUSH1 0x20 PUSH1 0x4 DUP3 ADD DUP2 SWAP1 MSTORE PUSH1 0x24 DUP3 ADD MSTORE PUSH32 0x4F776E61626C653A2063616C6C6572206973206E6F7420746865206F776E6572 PUSH1 0x44 DUP3 ADD MSTORE PUSH1 0x64 ADD PUSH2 0x3E8 JUMP JUMPDEST PUSH1 0x33 DUP1 SLOAD PUSH1 0x1 PUSH1 0x1 PUSH1 0xA0 SHL SUB DUP4 DUP2 AND PUSH20 0xFFFFFFFFFFFFFFFFFFFFFFFFFFFFFFFFFFFFFFFF NOT DUP4 AND DUP2 OR SWAP1 SWAP4 SSTORE PUSH1 0x40 MLOAD SWAP2 AND SWAP2 SWAP1 DUP3 SWAP1 PUSH32 0x8BE0079C531659141344CD1FD0A4F28419497F9722A3DAAFE3B4186F6B6457E0 SWAP1 PUSH1 0x0 SWAP1 LOG3 POP POP JUMP JUMPDEST PUSH1 0x65 SLOAD PUSH1 0x40 MLOAD PUSH32 0x23B872DD00000000000000000000000000000000000000000000000000000000 DUP2 MSTORE CALLER PUSH1 0x4 DUP3 ADD MSTORE ADDRESS PUSH1 0x24 DUP3 ADD MSTORE PUSH1 0x44 DUP2 ADD DUP4 SWAP1 MSTORE PUSH1 0x0 SWAP2 PUSH1 0x1 PUSH1 0x1 PUSH1 0xA0 SHL SUB AND SWAP1 PUSH4 0x23B872DD SWAP1 PUSH1 0x64 ADD PUSH1 0x20 PUSH1 0x40 MLOAD DUP1 DUP4 SUB DUP2 PUSH1 0x0 DUP8 GAS CALL ISZERO DUP1 ISZERO PUSH2 0x10CE JUMPI RETURNDATASIZE PUSH1 0x0 DUP1 RETURNDATACOPY RETURNDATASIZE PUSH1 0x0 REVERT JUMPDEST POP POP POP POP PUSH1 0x40 MLOAD RETURNDATASIZE PUSH1 0x1F NOT PUSH1 0x1F DUP3 ADD AND DUP3 ADD DUP1 PUSH1 0x40 MSTORE POP DUP2 ADD SWAP1 PUSH2 0x10F2 SWAP2 SWAP1 PUSH2 0x14D2 JUMP JUMPDEST SWAP3 SWAP2 POP POP JUMP JUMPDEST PUSH1 0x0 SLOAD PUSH2 0x100 SWAP1 DIV PUSH1 0xFF AND PUSH2 0x1163 JUMPI PUSH1 0x40 MLOAD PUSH3 0x461BCD PUSH1 0xE5 SHL DUP2 MSTORE PUSH1 0x20 PUSH1 0x4 DUP3 ADD MSTORE PUSH1 0x2B PUSH1 0x24 DUP3 ADD MSTORE PUSH32 0x496E697469616C697A61626C653A20636F6E7472616374206973206E6F742069 PUSH1 0x44 DUP3 ADD MSTORE PUSH11 0x6E697469616C697A696E67 PUSH1 0xA8 SHL PUSH1 0x64 DUP3 ADD MSTORE PUSH1 0x84 ADD PUSH2 0x3E8 JUMP JUMPDEST PUSH2 0xA39 CALLER PUSH2 0xFFE JUMP JUMPDEST PUSH1 0x0 DUP1 DUP4 PUSH1 0x1F DUP5 ADD SLT PUSH2 0x117E JUMPI PUSH1 0x0 DUP1 REVERT JUMPDEST POP DUP2 CALLDATALOAD PUSH8 0xFFFFFFFFFFFFFFFF DUP2 GT ISZERO PUSH2 0x1196 JUMPI PUSH1 0x0 DUP1 REVERT JUMPDEST PUSH1 0x20 DUP4 ADD SWAP2 POP DUP4 PUSH1 0x20 DUP3 DUP6 ADD ADD GT ISZERO PUSH2 0x11AE JUMPI PUSH1 0x0 DUP1 REVERT JUMPDEST SWAP3 POP SWAP3 SWAP1 POP JUMP JUMPDEST PUSH1 0x0 DUP1 PUSH1 0x0 PUSH1 0x40 DUP5 DUP7 SUB SLT ISZERO PUSH2 0x11CA JUMPI PUSH1 0x0 DUP1 REVERT JUMPDEST DUP4 CALLDATALOAD SWAP3 POP PUSH1 0x20 DUP5 ADD CALLDATALOAD PUSH8 0xFFFFFFFFFFFFFFFF DUP2 GT ISZERO PUSH2 0x11E8 JUMPI PUSH1 0x0 DUP1 REVERT JUMPDEST PUSH2 0x11F4 DUP7 DUP3 DUP8 ADD PUSH2 0x116C JUMP JUMPDEST SWAP5 SWAP8 SWAP1 SWAP7 POP SWAP4 SWAP5 POP POP POP POP JUMP JUMPDEST PUSH1 0x1 PUSH1 0x1 PUSH1 0xA0 SHL SUB DUP2 AND DUP2 EQ PUSH2 0xF2E JUMPI PUSH1 0x0 DUP1 REVERT JUMPDEST PUSH1 0x0 PUSH1 0x20 DUP3 DUP5 SUB SLT ISZERO PUSH2 0x1228 JUMPI PUSH1 0x0 DUP1 REVERT JUMPDEST DUP2 CALLDATALOAD PUSH2 0x54B DUP2 PUSH2 0x1201 JUMP JUMPDEST PUSH1 0x0 PUSH1 0x20 DUP3 DUP5 SUB SLT ISZERO PUSH2 0x1245 JUMPI PUSH1 0x0 DUP1 REVERT JUMPDEST POP CALLDATALOAD SWAP2 SWAP1 POP JUMP JUMPDEST PUSH1 0x0 DUP1 PUSH1 0x0 DUP1 PUSH1 0x0 PUSH1 0x60 DUP7 DUP9 SUB SLT ISZERO PUSH2 0x1264 JUMPI PUSH1 0x0 DUP1 REVERT JUMPDEST DUP6 CALLDATALOAD PUSH2 0x126F DUP2 PUSH2 0x1201 JUMP JUMPDEST SWAP5 POP PUSH1 0x20 DUP7 ADD CALLDATALOAD PUSH8 0xFFFFFFFFFFFFFFFF DUP1 DUP3 GT ISZERO PUSH2 0x128C JUMPI PUSH1 0x0 DUP1 REVERT JUMPDEST PUSH2 0x1298 DUP10 DUP4 DUP11 ADD PUSH2 0x116C JUMP JUMPDEST SWAP1 SWAP7 POP SWAP5 POP PUSH1 0x40 DUP9 ADD CALLDATALOAD SWAP2 POP DUP1 DUP3 GT ISZERO PUSH2 0x12B1 JUMPI PUSH1 0x0 DUP1 REVERT JUMPDEST POP PUSH2 0x12BE DUP9 DUP3 DUP10 ADD PUSH2 0x116C JUMP JUMPDEST SWAP7 SWAP10 SWAP6 SWAP9 POP SWAP4 SWAP7 POP SWAP3 SWAP5 SWAP4 SWAP3 POP POP POP JUMP JUMPDEST PUSH1 0x0 DUP1 PUSH1 0x0 DUP1 PUSH1 0x0 DUP1 PUSH1 0x80 DUP8 DUP10 SUB SLT ISZERO PUSH2 0x12E8 JUMPI PUSH1 0x0 DUP1 REVERT JUMPDEST DUP7 CALLDATALOAD PUSH2 0x12F3 DUP2 PUSH2 0x1201 JUMP JUMPDEST SWAP6 POP PUSH1 0x20 DUP8 ADD CALLDATALOAD PUSH2 0x1303 DUP2 PUSH2 0x1201 JUMP JUMPDEST SWAP5 POP PUSH1 0x40 DUP8 ADD CALLDATALOAD PUSH8 0xFFFFFFFFFFFFFFFF DUP1 DUP3 GT ISZERO PUSH2 0x1320 JUMPI PUSH1 0x0 DUP1 REVERT JUMPDEST PUSH2 0x132C DUP11 DUP4 DUP12 ADD PUSH2 0x116C JUMP JUMPDEST SWAP1 SWAP7 POP SWAP5 POP PUSH1 0x60 DUP10 ADD CALLDATALOAD SWAP2 POP DUP1 DUP3 GT ISZERO PUSH2 0x1345 JUMPI PUSH1 0x0 DUP1 REVERT JUMPDEST POP PUSH2 0x1352 DUP10 DUP3 DUP11 ADD PUSH2 0x116C JUMP JUMPDEST SWAP8 SWAP11 SWAP7 SWAP10 POP SWAP5 SWAP8 POP SWAP3 SWAP6 SWAP4 SWAP5 SWAP3 POP POP POP JUMP JUMPDEST DUP2 DUP4 DUP3 CALLDATACOPY PUSH1 0x0 SWAP2 ADD SWAP1 DUP2 MSTORE SWAP2 SWAP1 POP JUMP JUMPDEST PUSH1 0x0 PUSH1 0x20 DUP3 DUP5 SUB SLT ISZERO PUSH2 0x1386 JUMPI PUSH1 0x0 DUP1 REVERT JUMPDEST POP MLOAD SWAP2 SWAP1 POP JUMP JUMPDEST DUP1 MLOAD PUSH10 0xFFFFFFFFFFFFFFFFFFFF DUP2 AND DUP2 EQ PUSH2 0x13A7 JUMPI PUSH1 0x0 DUP1 REVERT JUMPDEST SWAP2 SWAP1 POP JUMP JUMPDEST PUSH1 0x0 DUP1 PUSH1 0x0 DUP1 PUSH1 0x0 PUSH1 0xA0 DUP7 DUP9 SUB SLT ISZERO PUSH2 0x13C4 JUMPI PUSH1 0x0 DUP1 REVERT JUMPDEST PUSH2 0x13CD DUP7 PUSH2 0x138D JUMP JUMPDEST SWAP5 POP PUSH1 0x20 DUP7 ADD MLOAD SWAP4 POP PUSH1 0x40 DUP7 ADD MLOAD SWAP3 POP PUSH1 0x60 DUP7 ADD MLOAD SWAP2 POP PUSH2 0x13F0 PUSH1 0x80 DUP8 ADD PUSH2 0x138D JUMP JUMPDEST SWAP1 POP SWAP3 SWAP6 POP SWAP3 SWAP6 SWAP1 SWAP4 POP JUMP JUMPDEST PUSH1 0x0 DUP1 PUSH1 0x40 DUP4 DUP6 SUB SLT ISZERO PUSH2 0x140F JUMPI PUSH1 0x0 DUP1 REVERT JUMPDEST DUP3 CALLDATALOAD PUSH2 0x141A DUP2 PUSH2 0x1201 JUMP JUMPDEST SWAP5 PUSH1 0x20 SWAP4 SWAP1 SWAP4 ADD CALLDATALOAD SWAP4 POP POP POP JUMP JUMPDEST PUSH32 0x4E487B7100000000000000000000000000000000000000000000000000000000 PUSH1 0x0 MSTORE PUSH1 0x11 PUSH1 0x4 MSTORE PUSH1 0x24 PUSH1 0x0 REVERT JUMPDEST DUP1 DUP3 ADD DUP3 DUP2 SLT PUSH1 0x0 DUP4 SLT DUP1 ISZERO DUP3 AND DUP3 ISZERO DUP3 AND OR ISZERO PUSH2 0x1477 JUMPI PUSH2 0x1477 PUSH2 0x1428 JUMP JUMPDEST POP POP SWAP3 SWAP2 POP POP JUMP JUMPDEST PUSH1 0x0 PUSH1 0x1 DUP3 ADD PUSH2 0x1491 JUMPI PUSH2 0x1491 PUSH2 0x1428 JUMP JUMPDEST POP PUSH1 0x1 ADD SWAP1 JUMP JUMPDEST DUP2 DUP2 SUB PUSH1 0x0 DUP4 SLT DUP1 ISZERO DUP4 DUP4 SGT AND DUP4 DUP4 SLT DUP3 AND OR ISZERO PUSH2 0x14B8 JUMPI PUSH2 0x14B8 PUSH2 0x1428 JUMP JUMPDEST POP SWAP3 SWAP2 POP POP JUMP JUMPDEST DUP1 DUP3 ADD DUP1 DUP3 GT ISZERO PUSH2 0x10F2 JUMPI PUSH2 0x10F2 PUSH2 0x1428 JUMP JUMPDEST PUSH1 0x0 PUSH1 0x20 DUP3 DUP5 SUB SLT ISZERO PUSH2 0x14E4 JUMPI PUSH1 0x0 DUP1 REVERT JUMPDEST DUP2 MLOAD DUP1 ISZERO ISZERO DUP2 EQ PUSH2 0x54B JUMPI PUSH1 0x0 DUP1 REVERT INVALID LOG2 PUSH5 0x6970667358 0x22 SLT KECCAK256 0x2F 0xF6 DUP9 SWAP10 0x2B EXP 0xD1 0xB3 0xEE PUSH1 0xCA 0xDC 0x27 SUB 0xAF DUP14 DUP1 GASPRICE 0xC0 NUMBER REVERT MUL PUSH32 0xE62C67E86CE971A67A64736F6C63430008110033000000000000000000000000 "},"gasEstimates":{"creation":{"codeDepositCost":"1083600","executionCost":"1127","totalCost":"1084727"},"external":{"getAddressOffer(bytes32)":"2506","getChainIdOffer(bytes32)":"2522","getLatestPrice(address)":"infinite","getLowerLimitFnHashOffer(bytes32)":"2499","getLowerPriceLimitFromContract(bytes32,bytes)":"infinite","getLowerPriceLimitFromGrindery(bytes32,bytes)":"infinite","getNonceUser(address)":"2566","getTokenOffer(bytes32)":"2551","getUpperLimitFnHashOffer(bytes32)":"2500","getUpperPriceLimitFromContract(bytes32,bytes)":"infinite","getUpperPriceLimitFromGrindery(bytes32,bytes)":"infinite","initializeGrtOffer(address)":"infinite","owner()":"2420","renounceOwnership()":"infinite","setOfferWithContract(address,address,bytes,bytes)":"infinite","setOfferWithGrindery(address,bytes,bytes)":"infinite","stakeGRT(uint256)":"infinite","transferOwnership(address)":"infinite"},"internal":{"decodeBytes(bytes memory)":"infinite","decodePrice(bytes memory)":"infinite","depositGRT(uint256)":"infinite"}},"methodIdentifiers":{"getAddressOffer(bytes32)":"7fc6176c","getChainIdOffer(bytes32)":"75012c8b","getLatestPrice(address)":"16345f18","getLowerLimitFnHashOffer(bytes32)":"e956eb8a","getLowerPriceLimitFromContract(bytes32,bytes)":"9ef63023","getLowerPriceLimitFromGrindery(bytes32,bytes)":"8c02d6ff","getNonceUser(address)":"5adbe5de","getTokenOffer(bytes32)":"4516010f","getUpperLimitFnHashOffer(bytes32)":"a1c59cef","getUpperPriceLimitFromContract(bytes32,bytes)":"0a0ef56d","getUpperPriceLimitFromGrindery(bytes32,bytes)":"5a3f5fdb","initializeGrtOffer(address)":"61fb8b24","owner()":"8da5cb5b","renounceOwnership()":"715018a6","setOfferWithContract(address,address,bytes,bytes)":"86c2763d","setOfferWithGrindery(address,bytes,bytes)":"670d7db7","stakeGRT(uint256)":"ace7c37e","transferOwnership(address)":"f2fde38b"}},"storageLayout":{"storage":[{"astId":184,"contract":"contracts/v0.2.0/GrtOffer.sol:GrtOffer","label":"_initialized","offset":0,"slot":"0","type":"t_uint8"},{"astId":187,"contract":"contracts/v0.2.0/GrtOffer.sol:GrtOffer","label":"_initializing","offset":1,"slot":"0","type":"t_bool"},{"astId":671,"contract":"contracts/v0.2.0/GrtOffer.sol:GrtOffer","label":"__gap","offset":0,"slot":"1","type":"t_array(t_uint256)50_storage"},{"astId":56,"contract":"contracts/v0.2.0/GrtOffer.sol:GrtOffer","label":"_owner","offset":0,"slot":"51","type":"t_address"},{"astId":176,"contract":"contracts/v0.2.0/GrtOffer.sol:GrtOffer","label":"__gap","offset":0,"slot":"52","type":"t_array(t_uint256)49_storage"},{"astId":1311,"contract":"contracts/v0.2.0/GrtOffer.sol:GrtOffer","label":"_addrGRT","offset":0,"slot":"101","type":"t_address"},{"astId":1329,"contract":"contracts/v0.2.0/GrtOffer.sol:GrtOffer","label":"_offers","offset":0,"slot":"102","type":"t_mapping(t_bytes32,t_struct(Offer)1324_storage)"},{"astId":1333,"contract":"contracts/v0.2.0/GrtOffer.sol:GrtOffer","label":"_nonces","offset":0,"slot":"103","type":"t_mapping(t_address,t_uint256)"},{"astId":1337,"contract":"contracts/v0.2.0/GrtOffer.sol:GrtOffer","label":"_stakes","offset":0,"slot":"104","type":"t_mapping(t_address,t_uint256)"}],"types":{"t_address":{"encoding":"inplace","label":"address","numberOfBytes":"20"},"t_array(t_uint256)49_storage":{"base":"t_uint256","encoding":"inplace","label":"uint256[49]","numberOfBytes":"1568"},"t_array(t_uint256)50_storage":{"base":"t_uint256","encoding":"inplace","label":"uint256[50]","numberOfBytes":"1600"},"t_bool":{"encoding":"inplace","label":"bool","numberOfBytes":"1"},"t_bytes32":{"encoding":"inplace","label":"bytes32","numberOfBytes":"32"},"t_mapping(t_address,t_uint256)":{"encoding":"mapping","key":"t_address","label":"mapping(address => uint256)","numberOfBytes":"32","value":"t_uint256"},"t_mapping(t_bytes32,t_struct(Offer)1324_storage)":{"encoding":"mapping","key":"t_bytes32","label":"mapping(bytes32 => struct GrtOffer.Offer)","numberOfBytes":"32","value":"t_struct(Offer)1324_storage"},"t_struct(Offer)1324_storage":{"encoding":"inplace","label":"struct GrtOffer.Offer","members":[{"astId":1313,"contract":"contracts/v0.2.0/GrtOffer.sol:GrtOffer","label":"user","offset":0,"slot":"0","type":"t_address"},{"astId":1315,"contract":"contracts/v0.2.0/GrtOffer.sol:GrtOffer","label":"chainId","offset":0,"slot":"1","type":"t_uint256"},{"astId":1317,"contract":"contracts/v0.2.0/GrtOffer.sol:GrtOffer","label":"token","offset":0,"slot":"2","type":"t_address"},{"astId":1319,"contract":"contracts/v0.2.0/GrtOffer.sol:GrtOffer","label":"priceAddress","offset":0,"slot":"3","type":"t_address"},{"astId":1321,"contract":"contracts/v0.2.0/GrtOffer.sol:GrtOffer","label":"upperLimitFn","offset":0,"slot":"4","type":"t_bytes32"},{"astId":1323,"contract":"contracts/v0.2.0/GrtOffer.sol:GrtOffer","label":"lowerLimitFn","offset":0,"slot":"5","type":"t_bytes32"}],"numberOfBytes":"192"},"t_uint256":{"encoding":"inplace","label":"uint256","numberOfBytes":"32"},"t_uint8":{"encoding":"inplace","label":"uint8","numberOfBytes":"1"}}},"userdoc":{"kind":"user","methods":{},"version":1}}}}