{"contracts/GrtPool.sol":{"GrtPool":{"abi":[{"anonymous":false,"inputs":[{"indexed":false,"internalType":"uint8","name":"version","type":"uint8"}],"name":"Initialized","type":"event"},{"anonymous":false,"inputs":[{"indexed":true,"internalType":"bytes32","name":"_idRequest","type":"bytes32"},{"indexed":true,"internalType":"uint256","name":"_idOffer","type":"uint256"}],"name":"LogAcceptOffer","type":"event"},{"anonymous":false,"inputs":[{"indexed":true,"internalType":"bytes32","name":"_idRequest","type":"bytes32"},{"indexed":true,"internalType":"uint256","name":"_idOffer","type":"uint256"}],"name":"LogCreateOffer","type":"event"},{"anonymous":false,"inputs":[{"indexed":true,"internalType":"bytes32","name":"_idRequest","type":"bytes32"},{"indexed":true,"internalType":"address","name":"_token","type":"address"},{"indexed":true,"internalType":"uint256","name":"_amount","type":"uint256"},{"indexed":false,"internalType":"uint256","name":"_chainId","type":"uint256"}],"name":"LogDeposit","type":"event"},{"anonymous":false,"inputs":[{"indexed":true,"internalType":"bytes32","name":"_idRequest","type":"bytes32"},{"indexed":true,"internalType":"uint256","name":"_idOffer","type":"uint256"}],"name":"LogOfferPaidCrossChain","type":"event"},{"anonymous":false,"inputs":[{"indexed":true,"internalType":"bytes32","name":"_idRequest","type":"bytes32"},{"indexed":true,"internalType":"uint256","name":"_idOffer","type":"uint256"}],"name":"LogOfferPaidOnChain","type":"event"},{"anonymous":false,"inputs":[{"indexed":true,"internalType":"uint256","name":"_questionId","type":"uint256"},{"indexed":true,"internalType":"bytes32","name":"_realityQuestionId","type":"bytes32"}],"name":"LogQuestionCreated","type":"event"},{"anonymous":false,"inputs":[{"indexed":true,"internalType":"bytes32","name":"_idRequest","type":"bytes32"},{"indexed":true,"internalType":"uint256","name":"_idOffer","type":"uint256"}],"name":"LogRejectOffer","type":"event"},{"anonymous":false,"inputs":[{"indexed":true,"internalType":"bytes32","name":"_idRequest","type":"bytes32"},{"indexed":true,"internalType":"address","name":"_token","type":"address"},{"indexed":true,"internalType":"uint256","name":"_amount","type":"uint256"},{"indexed":false,"internalType":"uint256","name":"_chainId","type":"uint256"}],"name":"LogRequest","type":"event"},{"anonymous":false,"inputs":[{"indexed":true,"internalType":"address","name":"_user","type":"address"},{"indexed":true,"internalType":"uint256","name":"_amount","type":"uint256"}],"name":"LogStake","type":"event"},{"anonymous":false,"inputs":[{"indexed":true,"internalType":"uint256","name":"_templateId","type":"uint256"}],"name":"LogTemplateCreated","type":"event"},{"anonymous":false,"inputs":[{"indexed":true,"internalType":"address","name":"previousOwner","type":"address"},{"indexed":true,"internalType":"address","name":"newOwner","type":"address"}],"name":"OwnershipTransferred","type":"event"},{"inputs":[{"internalType":"bytes32","name":"idRequest","type":"bytes32"},{"internalType":"uint256","name":"idOffer","type":"uint256"}],"name":"acceptOffer","outputs":[{"internalType":"bool","name":"","type":"bool"}],"stateMutability":"nonpayable","type":"function"},{"inputs":[{"internalType":"bytes32","name":"idRequest","type":"bytes32"},{"internalType":"uint256","name":"idOffer","type":"uint256"},{"internalType":"bytes32","name":"questionId","type":"bytes32"},{"internalType":"bytes32[]","name":"history_hashes","type":"bytes32[]"},{"internalType":"address[]","name":"addrs","type":"address[]"},{"internalType":"uint256[]","name":"bonds","type":"uint256[]"},{"internalType":"bytes32[]","name":"answers","type":"bytes32[]"}],"name":"claimGRTWithDispute","outputs":[{"internalType":"bool","name":"","type":"bool"}],"stateMutability":"nonpayable","type":"function"},{"inputs":[{"internalType":"bytes32","name":"idRequest","type":"bytes32"},{"internalType":"uint256","name":"idOffer","type":"uint256"}],"name":"claimGRTWithoutDispute","outputs":[{"internalType":"bool","name":"","type":"bool"}],"stateMutability":"nonpayable","type":"function"},{"inputs":[{"internalType":"bytes32","name":"idRequest","type":"bytes32"},{"internalType":"uint256","name":"amount","type":"uint256"}],"name":"createOffer","outputs":[{"internalType":"bool","name":"","type":"bool"}],"stateMutability":"nonpayable","type":"function"},{"inputs":[{"internalType":"string","name":"question","type":"string"},{"internalType":"uint256","name":"templateId","type":"uint256"},{"internalType":"bytes32","name":"txHashOffer","type":"bytes32"},{"internalType":"address","name":"fromOffer","type":"address"},{"internalType":"address","name":"toOffer","type":"address"},{"internalType":"address","name":"tokenOffer","type":"address"},{"internalType":"uint256","name":"amountOffer","type":"uint256"},{"internalType":"uint256","name":"chainIdOffer","type":"uint256"}],"name":"createQuestion","outputs":[{"internalType":"bytes32","name":"","type":"bytes32"},{"components":[{"internalType":"bytes32","name":"txHash","type":"bytes32"},{"internalType":"address","name":"from","type":"address"},{"internalType":"address","name":"to","type":"address"},{"internalType":"address","name":"token","type":"address"},{"internalType":"uint256","name":"amount","type":"uint256"},{"internalType":"uint256","name":"chainId","type":"uint256"}],"internalType":"struct GrtDispute.QuestionReality","name":"","type":"tuple"}],"stateMutability":"payable","type":"function"},{"inputs":[{"internalType":"string","name":"templateERC20","type":"string"}],"name":"createRealityTemplate","outputs":[{"internalType":"uint256","name":"","type":"uint256"}],"stateMutability":"nonpayable","type":"function"},{"inputs":[{"internalType":"uint256","name":"nonce","type":"uint256"},{"internalType":"uint256","name":"amntDepGRT","type":"uint256"},{"internalType":"address","name":"tokenRequest","type":"address"},{"internalType":"uint256","name":"amntReq","type":"uint256"},{"internalType":"uint256","name":"chnIdReq","type":"uint256"},{"internalType":"address","name":"destAddr","type":"address"}],"name":"depositGRTRequestERC20","outputs":[{"internalType":"bool","name":"","type":"bool"}],"stateMutability":"nonpayable","type":"function"},{"inputs":[{"internalType":"uint256","name":"nonce","type":"uint256"},{"internalType":"uint256","name":"amntDepGRT","type":"uint256"},{"internalType":"uint256","name":"amntReq","type":"uint256"},{"internalType":"uint256","name":"chnIdReq","type":"uint256"},{"internalType":"address","name":"destAddr","type":"address"}],"name":"depositGRTRequestNative","outputs":[{"internalType":"bool","name":"","type":"bool"}],"stateMutability":"nonpayable","type":"function"},{"inputs":[{"internalType":"bytes32","name":"idRequest","type":"bytes32"}],"name":"getDepositAmount","outputs":[{"internalType":"uint256","name":"","type":"uint256"}],"stateMutability":"view","type":"function"},{"inputs":[{"internalType":"bytes32","name":"idRequest","type":"bytes32"}],"name":"getDepositChainId","outputs":[{"internalType":"uint256","name":"","type":"uint256"}],"stateMutability":"view","type":"function"},{"inputs":[{"internalType":"bytes32","name":"idRequest","type":"bytes32"}],"name":"getDepositToken","outputs":[{"internalType":"address","name":"","type":"address"}],"stateMutability":"view","type":"function"},{"inputs":[{"internalType":"bytes32","name":"question_id","type":"bytes32"}],"name":"getFinalAnswer","outputs":[{"internalType":"bytes32","name":"","type":"bytes32"}],"stateMutability":"view","type":"function"},{"inputs":[{"internalType":"bytes32","name":"question_id","type":"bytes32"}],"name":"getHistoryHash","outputs":[{"internalType":"bytes32","name":"","type":"bytes32"}],"stateMutability":"view","type":"function"},{"inputs":[{"internalType":"address","name":"user","type":"address"}],"name":"getNonce","outputs":[{"internalType":"uint256","name":"","type":"uint256"}],"stateMutability":"view","type":"function"},{"inputs":[{"internalType":"bytes32","name":"idRequest","type":"bytes32"},{"internalType":"uint256","name":"idOffer","type":"uint256"}],"name":"getOfferAmount","outputs":[{"internalType":"uint256","name":"","type":"uint256"}],"stateMutability":"view","type":"function"},{"inputs":[{"internalType":"bytes32","name":"idRequest","type":"bytes32"},{"internalType":"uint256","name":"idOffer","type":"uint256"}],"name":"getOfferCreator","outputs":[{"internalType":"address","name":"","type":"address"}],"stateMutability":"view","type":"function"},{"inputs":[{"internalType":"bytes32","name":"idRequest","type":"bytes32"}],"name":"getRecipient","outputs":[{"internalType":"address","name":"","type":"address"}],"stateMutability":"view","type":"function"},{"inputs":[{"internalType":"bytes32","name":"idRequest","type":"bytes32"}],"name":"getRequestAmount","outputs":[{"internalType":"uint256","name":"","type":"uint256"}],"stateMutability":"view","type":"function"},{"inputs":[{"internalType":"bytes32","name":"idRequest","type":"bytes32"}],"name":"getRequestChainId","outputs":[{"internalType":"uint256","name":"","type":"uint256"}],"stateMutability":"view","type":"function"},{"inputs":[{"internalType":"bytes32","name":"idRequest","type":"bytes32"}],"name":"getRequestToken","outputs":[{"internalType":"address","name":"","type":"address"}],"stateMutability":"view","type":"function"},{"inputs":[{"internalType":"bytes32","name":"idRequest","type":"bytes32"}],"name":"getRequester","outputs":[{"internalType":"address","name":"","type":"address"}],"stateMutability":"view","type":"function"},{"inputs":[],"name":"grtAddress","outputs":[{"internalType":"address","name":"","type":"address"}],"stateMutability":"view","type":"function"},{"inputs":[],"name":"grtChainId","outputs":[{"internalType":"uint256","name":"","type":"uint256"}],"stateMutability":"view","type":"function"},{"inputs":[{"internalType":"address","name":"addrGRT","type":"address"},{"internalType":"uint256","name":"chainIdGRT","type":"uint256"},{"internalType":"address","name":"addrReality","type":"address"}],"name":"initializePool","outputs":[],"stateMutability":"nonpayable","type":"function"},{"inputs":[{"internalType":"bytes32","name":"question_id","type":"bytes32"}],"name":"isFinalized","outputs":[{"internalType":"bool","name":"","type":"bool"}],"stateMutability":"view","type":"function"},{"inputs":[{"internalType":"bytes32","name":"idRequest","type":"bytes32"},{"internalType":"uint256","name":"idOffer","type":"uint256"}],"name":"isOfferAccepted","outputs":[{"internalType":"bool","name":"","type":"bool"}],"stateMutability":"view","type":"function"},{"inputs":[{"internalType":"bytes32","name":"idRequest","type":"bytes32"},{"internalType":"uint256","name":"idOffer","type":"uint256"}],"name":"isOfferPaid","outputs":[{"internalType":"bool","name":"","type":"bool"}],"stateMutability":"view","type":"function"},{"inputs":[{"internalType":"bytes32","name":"idRequest","type":"bytes32"}],"name":"isrequest","outputs":[{"internalType":"bool","name":"","type":"bool"}],"stateMutability":"view","type":"function"},{"inputs":[{"internalType":"bytes32","name":"idRequest","type":"bytes32"}],"name":"nbrOffersRequest","outputs":[{"internalType":"uint256","name":"","type":"uint256"}],"stateMutability":"view","type":"function"},{"inputs":[],"name":"owner","outputs":[{"internalType":"address","name":"","type":"address"}],"stateMutability":"view","type":"function"},{"inputs":[{"internalType":"bytes32","name":"idRequest","type":"bytes32"},{"internalType":"uint256","name":"idOffer","type":"uint256"}],"name":"payOfferOnChainERC20","outputs":[{"internalType":"bool","name":"","type":"bool"}],"stateMutability":"nonpayable","type":"function"},{"inputs":[{"internalType":"bytes32","name":"idRequest","type":"bytes32"},{"internalType":"uint256","name":"idOffer","type":"uint256"}],"name":"payOfferOnChainNative","outputs":[{"internalType":"bool","name":"","type":"bool"}],"stateMutability":"payable","type":"function"},{"inputs":[],"name":"realityAddress","outputs":[{"internalType":"address","name":"","type":"address"}],"stateMutability":"view","type":"function"},{"inputs":[{"internalType":"bytes32","name":"idRequest","type":"bytes32"},{"internalType":"uint256","name":"idOffer","type":"uint256"}],"name":"rejectOffer","outputs":[{"internalType":"bool","name":"","type":"bool"}],"stateMutability":"nonpayable","type":"function"},{"inputs":[],"name":"renounceOwnership","outputs":[],"stateMutability":"nonpayable","type":"function"},{"inputs":[{"internalType":"address","name":"addr","type":"address"}],"name":"setAddrReality","outputs":[],"stateMutability":"nonpayable","type":"function"},{"inputs":[{"internalType":"address","name":"token","type":"address"}],"name":"setGRTAddr","outputs":[],"stateMutability":"nonpayable","type":"function"},{"inputs":[{"internalType":"uint256","name":"chainId","type":"uint256"}],"name":"setGRTChainId","outputs":[],"stateMutability":"nonpayable","type":"function"},{"inputs":[{"internalType":"uint256","name":"amount","type":"uint256"}],"name":"stakeGRT","outputs":[{"internalType":"bool","name":"","type":"bool"}],"stateMutability":"nonpayable","type":"function"},{"inputs":[{"internalType":"address","name":"account","type":"address"}],"name":"stakeOf","outputs":[{"internalType":"uint256","name":"","type":"uint256"}],"stateMutability":"view","type":"function"},{"inputs":[{"internalType":"address","name":"newOwner","type":"address"}],"name":"transferOwnership","outputs":[],"stateMutability":"nonpayable","type":"function"}],"devdoc":{"kind":"dev","methods":{"owner()":{"details":"Returns the address of the current owner."},"renounceOwnership()":{"details":"Leaves the contract without owner. It will not be possible to call `onlyOwner` functions anymore. Can only be called by the current owner. NOTE: Renouncing ownership will leave the contract without an owner, thereby removing any functionality that is only available to the owner."},"transferOwnership(address)":{"details":"Transfers ownership of the contract to a new account (`newOwner`). Can only be called by the current owner."}},"version":1},"evm":{"bytecode":{"linkReferences":{},"object":"608060405234801561001057600080fd5b50613268806100206000396000f3fe6080604052600436106102c65760003560e01c80636bb1b9ea11610179578063b44a468b116100d6578063d79ff4b61161008a578063ef50e1d611610064578063ef50e1d614610951578063f2fde38b14610971578063fbc6da751461099157600080fd5b8063d79ff4b6146108ca578063e9d9769f146108fa578063ec1ad8d31461090f57600080fd5b8063bfe51359116100bb578063bfe513591461085c578063d0d89b521461087a578063d4a4429a1461089a57600080fd5b8063b44a468b14610803578063b4bed2c91461082357600080fd5b80638da5cb5b1161012d5780639f36b244116101125780639f36b244146107a3578063a462fb7b146107c3578063ace7c37e146107e357600080fd5b80638da5cb5b146107655780638f09f9301461078357600080fd5b8063715018a61161015e578063715018a6146107105780637f8d429e1461072557806382ffa9f71461074557600080fd5b80636bb1b9ea146106df5780636c94ab56146106f257600080fd5b80633e4e872f1161022757806358381bbd116101db5780635b7a9341116101c05780635b7a934114610650578063606e3112146106805780636ad5c6e9146106bf57600080fd5b806358381bbd146105d5578063584396bc1461060b57600080fd5b8063426233601161020c578063426233601461051157806350aa25c11461054757806352430b55146105b557600080fd5b80633e4e872f146104a0578063412ff893146104f157600080fd5b80632ab18a501161027e5780632c3daef6116102635780632c3daef61461041a5780632d0335ab1461044a5780633e314b5a1461048057600080fd5b80632ab18a50146103a05780632ab89ca1146103d357600080fd5b806314ddc253116102af57806314ddc2531461032e57806317030add1461035e578063254a2ccc1461038057600080fd5b80630cd2c190146102cb5780631208a32b146102fe575b600080fd5b3480156102d757600080fd5b506102eb6102e6366004612c72565b6109ca565b6040519081526020015b60405180910390f35b34801561030a57600080fd5b5061031e610319366004612caf565b610a97565b60405190151581526020016102f5565b34801561033a57600080fd5b506102eb610349366004612cd1565b6000908152606a602052604090206006015490565b34801561036a57600080fd5b5061037e610379366004612cd1565b610c7f565b005b34801561038c57600080fd5b5061031e61039b366004612caf565b610c8c565b3480156103ac57600080fd5b5061031e6103bb366004612cd1565b6000908152606a602052604090206008015460ff1690565b3480156103df57600080fd5b5061031e6103ee366004612caf565b6000918252606a60209081526040808420928452600a9092019052902060020154610100900460ff1690565b34801561042657600080fd5b506102eb610435366004612cd1565b6000908152606a602052604090206003015490565b34801561045657600080fd5b506102eb610465366004612d01565b6001600160a01b03166000908152606c602052604090205490565b34801561048c57600080fd5b5061031e61049b366004612caf565b610e75565b3480156104ac57600080fd5b506104d96104bb366004612cd1565b6000908152606a60205260409020600501546001600160a01b031690565b6040516001600160a01b0390911681526020016102f5565b3480156104fd57600080fd5b5061037e61050c366004612d01565b6111a6565b34801561051d57600080fd5b506102eb61052c366004612d01565b6001600160a01b03166000908152606b602052604090205490565b61055a610555366004612d1c565b6111d0565b6040805192835281516020808501919091528201516001600160a01b03908116848301529082015181166060808501919091528201511660808084019190915281015160a080840191909152015160c082015260e0016102f5565b3480156105c157600080fd5b5061031e6105d0366004612db2565b611323565b3480156105e157600080fd5b506104d96105f0366004612cd1565b6000908152606a60205260409020546001600160a01b031690565b34801561061757600080fd5b506104d9610626366004612caf565b6000918252606a60209081526040808420928452600a90920190529020546001600160a01b031690565b34801561065c57600080fd5b506102eb61066b366004612cd1565b6000908152606a602052604090206009015490565b34801561068c57600080fd5b506102eb61069b366004612caf565b6000918252606a60209081526040808420928452600a909201905290206001015490565b3480156106cb57600080fd5b5061031e6106da366004612efb565b61148f565b61031e6106ed366004612caf565b611774565b3480156106fe57600080fd5b506065546001600160a01b03166104d9565b34801561071c57600080fd5b5061037e611b7d565b34801561073157600080fd5b5061031e610740366004612cd1565b611b91565b34801561075157600080fd5b506102eb610760366004612cd1565b611c18565b34801561077157600080fd5b506033546001600160a01b03166104d9565b34801561078f57600080fd5b5061031e61079e366004612fc5565b611ca0565b3480156107af57600080fd5b5061031e6107be366004612caf565b611e09565b3480156107cf57600080fd5b506102eb6107de366004612cd1565b6121bc565b3480156107ef57600080fd5b5061031e6107fe366004612cd1565b612207565b34801561080f57600080fd5b5061031e61081e366004612caf565b61226c565b34801561082f57600080fd5b506104d961083e366004612cd1565b6000908152606a60205260409020600201546001600160a01b031690565b34801561086857600080fd5b506068546001600160a01b03166104d9565b34801561088657600080fd5b5061037e610895366004612d01565b612588565b3480156108a657600080fd5b506102eb6108b5366004612cd1565b6000908152606a602052604090206004015490565b3480156108d657600080fd5b506102eb6108e5366004612cd1565b6000908152606a602052604090206007015490565b34801561090657600080fd5b506069546102eb565b34801561091b57600080fd5b5061031e61092a366004612caf565b6000918252606a60209081526040808420928452600a909201905290206002015460ff1690565b34801561095d57600080fd5b5061037e61096c36600461300e565b6125b2565b34801561097d57600080fd5b5061037e61098c366004612d01565b61271e565b34801561099d57600080fd5b506104d96109ac366004612cd1565b6000908152606a60205260409020600101546001600160a01b031690565b60006109d46127ae565b6065546040517f83bf46090000000000000000000000000000000000000000000000000000000081526000916001600160a01b0316906383bf460990610a1e908690600401613090565b6020604051808303816000875af1158015610a3d573d6000803e3d6000fd5b505050506040513d601f19601f82011682018060405250810190610a6191906130a3565b60405190915081907fde1fee73d594c5ee6f6c6b881755c9ae50066f625c46ddb6c999718cd7ff5dbd90600090a290505b919050565b6000828152606a602052604081206008015460ff16610b0b5760405162461bcd60e51b815260206004820152602560248201527f47525420706f6f6c3a20746865207265717565737420646f6573206e6f742065604482015264786973742160d81b60648201526084015b60405180910390fd5b336000908152606b6020526040902054600110610b905760405162461bcd60e51b815260206004820152602e60248201527f47525420706f6f6c3a20796f7572207374616b6520616d6f756e74206973206e60448201527f6f742073756666696369656e74210000000000000000000000000000000000006064820152608401610b02565b6000838152606a60205260408082206009015490519091829186917faed3c68f95c4339dc5dbe18d7eacbd00b479e30a26fecf3597ac76f6d743ecc291a36040805160808101825233815260208082018681526000838501818152606085018281528a8352606a808652878420898552600a81018752978420965187546001600160a01b0319166001600160a01b0390911617875593516001870155905160029095018054915161ffff1990921695151561ff00191695909517610100911515919091021790935587835290526009909101805491610c6e836130d2565b919050555060019150505b92915050565b610c876127ae565b606955565b6000828152606a60209081526040808320848452600a0190915281206002015460ff16610d215760405162461bcd60e51b815260206004820152602860248201527f47525420706f6f6c3a20746865206f66666572206973206e6f7420616363657060448201527f74656420796574210000000000000000000000000000000000000000000000006064820152608401610b02565b6000838152606a60209081526040808320858452600a01909152902060020154610100900460ff1615610da95760405162461bcd60e51b815260206004820152602a60248201527f47525420706f6f6c3a20746865206f666665722068617320616c7265616479206044820152696265656e20706169642160b01b6064820152608401610b02565b6000838152606a60205260409020546001600160a01b03163314610e1b5760405162461bcd60e51b8152602060048201526024808201527f47525420706f6f6c3a20796f7520617265206e6f7420746865207265717565736044820152637465722160e01b6064820152608401610b02565b6000838152606a60209081526040808320858452600a01909152808220600201805460ff1916905551839185917f8eb3c3b0aa4ce8f4ea417700b7cd919af02b24a8b8346dfd2b6bdf08612aa74c9190a350600192915050565b6000828152606a602052604081206008015460ff16610ee45760405162461bcd60e51b815260206004820152602560248201527f47525420706f6f6c3a20746865207265717565737420646f6573206e6f742065604482015264786973742160d81b6064820152608401610b02565b6000838152606a60209081526040808320858452600a019091529020546001600160a01b0316610f7c5760405162461bcd60e51b815260206004820152602360248201527f47525420706f6f6c3a20746865206f6666657220646f6573206e6f742065786960448201527f73742100000000000000000000000000000000000000000000000000000000006064820152608401610b02565b6000838152606a60209081526040808320858452600a0190915290206002015460ff16156110125760405162461bcd60e51b815260206004820152602e60248201527f47525420706f6f6c3a20746865206f666665722068617320616c72656164792060448201527f6265656e206163636570746564210000000000000000000000000000000000006064820152608401610b02565b6000838152606a60205260409020546001600160a01b031633146110845760405162461bcd60e51b8152602060048201526024808201527f47525420706f6f6c3a20796f7520617265206e6f7420746865207265717565736044820152637465722160e01b6064820152608401610b02565b60005b6000848152606a6020526040902060090154811015611148576000848152606a60209081526040808320848452600a0190915290206002015460ff16156111365760405162461bcd60e51b815260206004820152603e60248201527f47525420706f6f6c3a20746865726520697320616c726561647920616e20616360448201527f636570746564206f6666657220666f72207468697320726571756573742100006064820152608401610b02565b80611140816130d2565b915050611087565b506000838152606a60209081526040808320858452600a01909152808220600201805460ff1916600117905551839185917f805ad3493798d2bba49fb177c42928ec4d30e9880662953ca090cdfaac00153c9190a350600192915050565b6111ae6127ae565b606880546001600160a01b0319166001600160a01b0392909216919091179055565b6040805160c081018252600080825260208201819052918101829052606081018290526080810182905260a081018290526000606560009054906101000a90046001600160a01b03166001600160a01b031663762c38fd348c8e30620151806000806040518863ffffffff1660e01b8152600401611253969594939291906130eb565b60206040518083038185885af1158015611271573d6000803e3d6000fd5b50505050506040513d601f19601f8201168201806040525081019061129691906130a3565b606680546000908152606760205260408082208490559154915192935083927f6f7a36c171b57b55db60e78468575f6d1dc1917523429ef3e458caf26ae2ea4d9190a36040805160c081018252998a526001600160a01b0398891660208b0152968816968901969096525050919093166060850152608084019290925260a0830191909152939092509050565b336000908152606c602052604081205487146113a75760405162461bcd60e51b815260206004820152603060248201527f47525420706f6f6c3a2074686973206e6f6e63652068617320616c726561647960448201527f206265656e207375626d697474656421000000000000000000000000000000006064820152608401610b02565b6113b086612808565b50606880546069546040805160208082018d905233606090811b6bffffffffffffffffffffffff199081168486015286821b811660548501529683018d9052608883018590528b811b871660a884015260bc83018b905260dc83018a905288901b90951660fc820152815160f08183030181526101108201808452815191909601209290945251909289926001600160a01b03169184917fc50426a58c328dde98bf1e6e781031dc1d928393568d3b55d05eaff42762200a91908190036101300190a4611481818888888888612860565b506001979650505050505050565b6000878152606a60209081526040808320898452600a01909152812060020154610100900460ff16156115175760405162461bcd60e51b815260206004820152602a60248201527f47525420706f6f6c3a20746865206f666665722068617320616c7265616479206044820152696265656e20706169642160b01b6064820152608401610b02565b6000888152606a602090815260408083208a8452600a019091529020546001600160a01b031633146115fd5760405162461bcd60e51b815260206004820152606e60248201527f47525420706f6f6c3a20796f752068617665206e6f74206d61646520616e206f60448201527f6666657220666f722074686973207265717565737420616e642074686572656660648201527f6f726520796f7520617265206e6f7420656e7469746c656420746f206d616b6560848201527f207468697320726571756573742100000000000000000000000000000000000060a482015260c401610b02565b61160a86868686866129a4565b6040517f7472756500000000000000000000000000000000000000000000000000000000602082015260240160405160208183030381529060405280519060200120611655876121bc565b03611765576068546000898152606a602081815260408084208c8552600a81018352818520548e865293909252600390910154905163a9059cbb60e01b81526001600160a01b03928316600482015260248101919091529192169063a9059cbb906044016020604051808303816000875af11580156116d8573d6000803e3d6000fd5b505050506040513d601f19601f820116820180604052508101906116fc9190613136565b9050801561175e5760405188908a907f2b447358a077dedddad023f2778d84afc7de0e9e65674cbface9e94b74916ff090600090a36000898152606a602090815260408083208b8452600a019091529020600201805461ff0019166101001790555b9050611769565b5060005b979650505050505050565b6000828152606a60209081526040808320848452600a0190915281206002015460ff166117fa5760405162461bcd60e51b815260206004820152602e60248201527f47525420706f6f6c3a20746865206f6666657220686173206e6f74206265656e60448201526d206163636570746564207965742160901b6064820152608401610b02565b6000838152606a60209081526040808320858452600a01909152902060020154610100900460ff16156118825760405162461bcd60e51b815260206004820152602a60248201527f47525420706f6f6c3a20746865206f666665722068617320616c7265616479206044820152696265656e20706169642160b01b6064820152608401610b02565b6000838152606a602052604090206007015446146119085760405162461bcd60e51b815260206004820152603560248201527f47525420706f6f6c3a20746865206f666665722073686f756c64206e6f74206260448201527f652070616964206f6e207468697320636861696e2100000000000000000000006064820152608401610b02565b6000838152606a6020526040902060060154341461198e5760405162461bcd60e51b815260206004820152602e60248201527f47525420706f6f6c3a2074686520616d6f756e7420646f6573206e6f74206d6160448201527f74636820746865206f66666572210000000000000000000000000000000000006064820152608401610b02565b6000838152606a60209081526040808320858452600a019091529020546001600160a01b03163314611a285760405162461bcd60e51b815260206004820152603060248201527f47525420706f6f6c3a20796f7520617265206e6f7420616c6c6f77656420746f60448201527f207061792074686973206f6666657221000000000000000000000000000000006064820152608401610b02565b6000838152606a60205260408082206001015490516001600160a01b039091169034908381818185875af1925050503d8060008114611a83576040519150601f19603f3d011682016040523d82523d6000602084013e611a88565b606091505b505090508015611b76576068546000858152606a60205260409081902060030154905163a9059cbb60e01b815233600482015260248101919091526001600160a01b039091169063a9059cbb906044016020604051808303816000875af1158015611af7573d6000803e3d6000fd5b505050506040513d601f19601f82011682018060405250810190611b1b9190613136565b50604051839085907f691646be7d559e2b121f8ba51f09665c76183fe7abc9918ed643da3c219bde5f90600090a36000848152606a60209081526040808320868452600a019091529020600201805461ff0019166101001790555b9392505050565b611b856127ae565b611b8f6000612a2e565b565b6065546040517f7f8d429e000000000000000000000000000000000000000000000000000000008152600481018390526000916001600160a01b031690637f8d429e90602401602060405180830381865afa158015611bf4573d6000803e3d6000fd5b505050506040513d601f19601f82011682018060405250810190610c799190613136565b6065546040517f82ffa9f7000000000000000000000000000000000000000000000000000000008152600481018390526000916001600160a01b0316906382ffa9f7906024015b602060405180830381865afa158015611c7c573d6000803e3d6000fd5b505050506040513d601f19601f82011682018060405250810190610c7991906130a3565b336000908152606c60205260408120548614611d245760405162461bcd60e51b815260206004820152603060248201527f47525420706f6f6c3a2074686973206e6f6e63652068617320616c726561647960448201527f206265656e207375626d697474656421000000000000000000000000000000006064820152608401610b02565b611d2d85612808565b50606880546069546040805160208082018c90526bffffffffffffffffffffffff1933606090811b82168486015286811b821660548501529683018c905260888301859052600060a884015260bc83018b905260dc83018a90529588901b90951660fc820152815160f08183030181526101108201808452815191909601209290945251909288926001600160a01b03169184917fc50426a58c328dde98bf1e6e781031dc1d928393568d3b55d05eaff42762200a91908190036101300190a4611dfc81876000888888612860565b5060019695505050505050565b6000828152606a60209081526040808320848452600a0190915281206002015460ff16611e8f5760405162461bcd60e51b815260206004820152602e60248201527f47525420706f6f6c3a20746865206f6666657220686173206e6f74206265656e60448201526d206163636570746564207965742160901b6064820152608401610b02565b6000838152606a60209081526040808320858452600a01909152902060020154610100900460ff1615611f175760405162461bcd60e51b815260206004820152602a60248201527f47525420706f6f6c3a20746865206f666665722068617320616c7265616479206044820152696265656e20706169642160b01b6064820152608401610b02565b6000838152606a60205260409020600701544614611f9d5760405162461bcd60e51b815260206004820152603560248201527f47525420706f6f6c3a20746865206f666665722073686f756c64206e6f74206260448201527f652070616964206f6e207468697320636861696e2100000000000000000000006064820152608401610b02565b6000838152606a60209081526040808320858452600a019091529020546001600160a01b031633146120375760405162461bcd60e51b815260206004820152603060248201527f47525420706f6f6c3a20796f7520617265206e6f7420616c6c6f77656420746f60448201527f207061792074686973206f6666657221000000000000000000000000000000006064820152608401610b02565b6000838152606a6020526040908190206005810154600182015460069092015492516323b872dd60e01b81523360048201526001600160a01b039283166024820152604481019390935216906323b872dd906064016020604051808303816000875af11580156120ab573d6000803e3d6000fd5b505050506040513d601f19601f820116820180604052508101906120cf9190613136565b506068546000848152606a60205260409081902060030154905163a9059cbb60e01b815233600482015260248101919091526001600160a01b039091169063a9059cbb906044016020604051808303816000875af1158015612135573d6000803e3d6000fd5b505050506040513d601f19601f820116820180604052508101906121599190613136565b50604051829084907f691646be7d559e2b121f8ba51f09665c76183fe7abc9918ed643da3c219bde5f90600090a3506000828152606a60209081526040808320848452600a019091529020600201805461ff001916610100179055600192915050565b6065546040517fa462fb7b000000000000000000000000000000000000000000000000000000008152600481018390526000916001600160a01b03169063a462fb7b90602401611c5f565b600061221282612808565b50604051829033907f3dbdcfd4c1f2e08931aae3d544e149a1e643143f5234d166fe3debb78338849590600090a3336000908152606b60205260408120805484929061225f908490613158565b9091555060019392505050565b6000828152606a602052604081206008015460ff166122db5760405162461bcd60e51b815260206004820152602560248201527f47525420706f6f6c3a20746865207265717565737420646f6573206e6f742065604482015264786973742160d81b6064820152608401610b02565b6000838152606a60209081526040808320858452600a0190915290206002015460ff166123615760405162461bcd60e51b815260206004820152602e60248201527f47525420706f6f6c3a20746865206f6666657220686173206e6f74206265656e60448201526d206163636570746564207965742160901b6064820152608401610b02565b6000838152606a60209081526040808320858452600a01909152902060020154610100900460ff16156123e95760405162461bcd60e51b815260206004820152602a60248201527f47525420706f6f6c3a20746865206f666665722068617320616c7265616479206044820152696265656e20706169642160b01b6064820152608401610b02565b6000838152606a60209081526040808320858452600a019091529020546001600160a01b031633146124835760405162461bcd60e51b815260206004820152603160248201527f47525420706f6f6c3a20796f7520617265206e6f7420616c6c6f77656420746f60448201527f206d616b65207468697320636c61696d210000000000000000000000000000006064820152608401610b02565b6068546000848152606a60208181526040808420878552600a81018352818520549489905292909152600390910154905163a9059cbb60e01b81526001600160a01b039283166004820152602481019190915291169063a9059cbb906044016020604051808303816000875af1158015612501573d6000803e3d6000fd5b505050506040513d601f19601f820116820180604052508101906125259190613136565b50604051829084907f2b447358a077dedddad023f2778d84afc7de0e9e65674cbface9e94b74916ff090600090a3506000828152606a60209081526040808320848452600a019091529020600201805461ff001916610100179055600192915050565b6125906127ae565b606580546001600160a01b0319166001600160a01b0392909216919091179055565b600054610100900460ff16158080156125d25750600054600160ff909116105b806125ec5750303b1580156125ec575060005460ff166001145b61265e5760405162461bcd60e51b815260206004820152602e60248201527f496e697469616c697a61626c653a20636f6e747261637420697320616c72656160448201527f647920696e697469616c697a65640000000000000000000000000000000000006064820152608401610b02565b6000805460ff191660011790558015612681576000805461ff0019166101001790555b612689612a80565b606880546001600160a01b0386166001600160a01b031990911617905560698390556126d282606580546001600160a01b039092166001600160a01b0319909216919091179055565b8015612718576000805461ff0019169055604051600181527f7f26b83ff96e1f2b6a682f133852f6798a09c465da95921460cefb38474024989060200160405180910390a15b50505050565b6127266127ae565b6001600160a01b0381166127a25760405162461bcd60e51b815260206004820152602660248201527f4f776e61626c653a206e6577206f776e657220697320746865207a65726f206160448201527f64647265737300000000000000000000000000000000000000000000000000006064820152608401610b02565b6127ab81612a2e565b50565b6033546001600160a01b03163314611b8f5760405162461bcd60e51b815260206004820181905260248201527f4f776e61626c653a2063616c6c6572206973206e6f7420746865206f776e65726044820152606401610b02565b6068546040516323b872dd60e01b8152336004820152306024820152604481018390526000916001600160a01b0316906323b872dd906064016020604051808303816000875af1158015611bf4573d6000803e3d6000fd5b82846001600160a01b0316877f4fc5208f862c96a2a2595f09440919e8bda929d3e9b14a6e5fcac7c4cb8f5f598560405161289d91815260200190565b60405180910390a46000868152606a6020526040902080546001600160a01b0319908116331782556001820180546001600160a01b03858116919093161790556068546069546128f39291909116908890612af3565b80516002830180546001600160a01b0319166001600160a01b0390921691909117905560208101516003830155604001516004820155612934858585612af3565b80516005830180546001600160a01b0319166001600160a01b039092169190911790556020808201516006840155604091820151600784015560088301805460ff19166001179055336000908152606c909152908120805491612996836130d2565b919050555050505050505050565b6065546040517f1101a0fd0000000000000000000000000000000000000000000000000000000081526001600160a01b0390911690631101a0fd906129f590889088908890889088906004016131a6565b600060405180830381600087803b158015612a0f57600080fd5b505af1158015612a23573d6000803e3d6000fd5b505050505050505050565b603380546001600160a01b038381166001600160a01b0319831681179093556040519116919082907f8be0079c531659141344cd1fd0a4f28419497f9722a3daafe3b4186f6b6457e090600090a35050565b600054610100900460ff16612aeb5760405162461bcd60e51b815260206004820152602b60248201527f496e697469616c697a61626c653a20636f6e7472616374206973206e6f74206960448201526a6e697469616c697a696e6760a81b6064820152608401610b02565b611b8f612b47565b612b20604051806060016040528060006001600160a01b0316815260200160008152602001600081525090565b50604080516060810182526001600160a01b03909416845260208401929092529082015290565b600054610100900460ff16612bb25760405162461bcd60e51b815260206004820152602b60248201527f496e697469616c697a61626c653a20636f6e7472616374206973206e6f74206960448201526a6e697469616c697a696e6760a81b6064820152608401610b02565b611b8f33612a2e565b634e487b7160e01b600052604160045260246000fd5b604051601f8201601f1916810167ffffffffffffffff81118282101715612bfa57612bfa612bbb565b604052919050565b600082601f830112612c1357600080fd5b813567ffffffffffffffff811115612c2d57612c2d612bbb565b612c40601f8201601f1916602001612bd1565b818152846020838601011115612c5557600080fd5b816020850160208301376000918101602001919091529392505050565b600060208284031215612c8457600080fd5b813567ffffffffffffffff811115612c9b57600080fd5b612ca784828501612c02565b949350505050565b60008060408385031215612cc257600080fd5b50508035926020909101359150565b600060208284031215612ce357600080fd5b5035919050565b80356001600160a01b0381168114610a9257600080fd5b600060208284031215612d1357600080fd5b611b7682612cea565b600080600080600080600080610100898b031215612d3957600080fd5b883567ffffffffffffffff811115612d5057600080fd5b612d5c8b828c01612c02565b9850506020890135965060408901359550612d7960608a01612cea565b9450612d8760808a01612cea565b9350612d9560a08a01612cea565b925060c0890135915060e089013590509295985092959890939650565b60008060008060008060c08789031215612dcb57600080fd5b8635955060208701359450612de260408801612cea565b93506060870135925060808701359150612dfe60a08801612cea565b90509295509295509295565b600067ffffffffffffffff821115612e2457612e24612bbb565b5060051b60200190565b600082601f830112612e3f57600080fd5b81356020612e54612e4f83612e0a565b612bd1565b82815260059290921b84018101918181019086841115612e7357600080fd5b8286015b84811015612e8e5780358352918301918301612e77565b509695505050505050565b600082601f830112612eaa57600080fd5b81356020612eba612e4f83612e0a565b82815260059290921b84018101918181019086841115612ed957600080fd5b8286015b84811015612e8e57612eee81612cea565b8352918301918301612edd565b600080600080600080600060e0888a031215612f1657600080fd5b873596506020880135955060408801359450606088013567ffffffffffffffff80821115612f4357600080fd5b612f4f8b838c01612e2e565b955060808a0135915080821115612f6557600080fd5b612f718b838c01612e99565b945060a08a0135915080821115612f8757600080fd5b612f938b838c01612e2e565b935060c08a0135915080821115612fa957600080fd5b50612fb68a828b01612e2e565b91505092959891949750929550565b600080600080600060a08688031215612fdd57600080fd5b8535945060208601359350604086013592506060860135915061300260808701612cea565b90509295509295909350565b60008060006060848603121561302357600080fd5b61302c84612cea565b92506020840135915061304160408501612cea565b90509250925092565b6000815180845260005b8181101561307057602081850181015186830182015201613054565b506000602082860101526020601f19601f83011685010191505092915050565b602081526000611b76602083018461304a565b6000602082840312156130b557600080fd5b5051919050565b634e487b7160e01b600052601160045260246000fd5b6000600182016130e4576130e46130bc565b5060010190565b86815260c06020820152600061310460c083018861304a565b6001600160a01b039690961660408301525063ffffffff938416606082015291909216608082015260a0015292915050565b60006020828403121561314857600080fd5b81518015158114611b7657600080fd5b80820180821115610c7957610c796130bc565b600081518084526020808501945080840160005b8381101561319b5781518752958201959082019060010161317f565b509495945050505050565b8581526000602060a0818401526131c060a084018861316b565b838103604085015286518082528288019183019060005b818110156131fc5783516001600160a01b0316835292840192918401916001016131d7565b50508481036060860152613210818861316b565b925050508281036080840152613226818561316b565b9897505050505050505056fea26469706673582212203ba55f42f1fe49f574b7d3cb2f8b83b5e885b0662d98061edfa5183dc3f6753164736f6c63430008110033","opcodes":"PUSH1 0x80 PUSH1 0x40 MSTORE CALLVALUE DUP1 ISZERO PUSH2 0x10 JUMPI PUSH1 0x0 DUP1 REVERT JUMPDEST POP PUSH2 0x3268 DUP1 PUSH2 0x20 PUSH1 0x0 CODECOPY PUSH1 0x0 RETURN INVALID PUSH1 0x80 PUSH1 0x40 MSTORE PUSH1 0x4 CALLDATASIZE LT PUSH2 0x2C6 JUMPI PUSH1 0x0 CALLDATALOAD PUSH1 0xE0 SHR DUP1 PUSH4 0x6BB1B9EA GT PUSH2 0x179 JUMPI DUP1 PUSH4 0xB44A468B GT PUSH2 0xD6 JUMPI DUP1 PUSH4 0xD79FF4B6 GT PUSH2 0x8A JUMPI DUP1 PUSH4 0xEF50E1D6 GT PUSH2 0x64 JUMPI DUP1 PUSH4 0xEF50E1D6 EQ PUSH2 0x951 JUMPI DUP1 PUSH4 0xF2FDE38B EQ PUSH2 0x971 JUMPI DUP1 PUSH4 0xFBC6DA75 EQ PUSH2 0x991 JUMPI PUSH1 0x0 DUP1 REVERT JUMPDEST DUP1 PUSH4 0xD79FF4B6 EQ PUSH2 0x8CA JUMPI DUP1 PUSH4 0xE9D9769F EQ PUSH2 0x8FA JUMPI DUP1 PUSH4 0xEC1AD8D3 EQ PUSH2 0x90F JUMPI PUSH1 0x0 DUP1 REVERT JUMPDEST DUP1 PUSH4 0xBFE51359 GT PUSH2 0xBB JUMPI DUP1 PUSH4 0xBFE51359 EQ PUSH2 0x85C JUMPI DUP1 PUSH4 0xD0D89B52 EQ PUSH2 0x87A JUMPI DUP1 PUSH4 0xD4A4429A EQ PUSH2 0x89A JUMPI PUSH1 0x0 DUP1 REVERT JUMPDEST DUP1 PUSH4 0xB44A468B EQ PUSH2 0x803 JUMPI DUP1 PUSH4 0xB4BED2C9 EQ PUSH2 0x823 JUMPI PUSH1 0x0 DUP1 REVERT JUMPDEST DUP1 PUSH4 0x8DA5CB5B GT PUSH2 0x12D JUMPI DUP1 PUSH4 0x9F36B244 GT PUSH2 0x112 JUMPI DUP1 PUSH4 0x9F36B244 EQ PUSH2 0x7A3 JUMPI DUP1 PUSH4 0xA462FB7B EQ PUSH2 0x7C3 JUMPI DUP1 PUSH4 0xACE7C37E EQ PUSH2 0x7E3 JUMPI PUSH1 0x0 DUP1 REVERT JUMPDEST DUP1 PUSH4 0x8DA5CB5B EQ PUSH2 0x765 JUMPI DUP1 PUSH4 0x8F09F930 EQ PUSH2 0x783 JUMPI PUSH1 0x0 DUP1 REVERT JUMPDEST DUP1 PUSH4 0x715018A6 GT PUSH2 0x15E JUMPI DUP1 PUSH4 0x715018A6 EQ PUSH2 0x710 JUMPI DUP1 PUSH4 0x7F8D429E EQ PUSH2 0x725 JUMPI DUP1 PUSH4 0x82FFA9F7 EQ PUSH2 0x745 JUMPI PUSH1 0x0 DUP1 REVERT JUMPDEST DUP1 PUSH4 0x6BB1B9EA EQ PUSH2 0x6DF JUMPI DUP1 PUSH4 0x6C94AB56 EQ PUSH2 0x6F2 JUMPI PUSH1 0x0 DUP1 REVERT JUMPDEST DUP1 PUSH4 0x3E4E872F GT PUSH2 0x227 JUMPI DUP1 PUSH4 0x58381BBD GT PUSH2 0x1DB JUMPI DUP1 PUSH4 0x5B7A9341 GT PUSH2 0x1C0 JUMPI DUP1 PUSH4 0x5B7A9341 EQ PUSH2 0x650 JUMPI DUP1 PUSH4 0x606E3112 EQ PUSH2 0x680 JUMPI DUP1 PUSH4 0x6AD5C6E9 EQ PUSH2 0x6BF JUMPI PUSH1 0x0 DUP1 REVERT JUMPDEST DUP1 PUSH4 0x58381BBD EQ PUSH2 0x5D5 JUMPI DUP1 PUSH4 0x584396BC EQ PUSH2 0x60B JUMPI PUSH1 0x0 DUP1 REVERT JUMPDEST DUP1 PUSH4 0x42623360 GT PUSH2 0x20C JUMPI DUP1 PUSH4 0x42623360 EQ PUSH2 0x511 JUMPI DUP1 PUSH4 0x50AA25C1 EQ PUSH2 0x547 JUMPI DUP1 PUSH4 0x52430B55 EQ PUSH2 0x5B5 JUMPI PUSH1 0x0 DUP1 REVERT JUMPDEST DUP1 PUSH4 0x3E4E872F EQ PUSH2 0x4A0 JUMPI DUP1 PUSH4 0x412FF893 EQ PUSH2 0x4F1 JUMPI PUSH1 0x0 DUP1 REVERT JUMPDEST DUP1 PUSH4 0x2AB18A50 GT PUSH2 0x27E JUMPI DUP1 PUSH4 0x2C3DAEF6 GT PUSH2 0x263 JUMPI DUP1 PUSH4 0x2C3DAEF6 EQ PUSH2 0x41A JUMPI DUP1 PUSH4 0x2D0335AB EQ PUSH2 0x44A JUMPI DUP1 PUSH4 0x3E314B5A EQ PUSH2 0x480 JUMPI PUSH1 0x0 DUP1 REVERT JUMPDEST DUP1 PUSH4 0x2AB18A50 EQ PUSH2 0x3A0 JUMPI DUP1 PUSH4 0x2AB89CA1 EQ PUSH2 0x3D3 JUMPI PUSH1 0x0 DUP1 REVERT JUMPDEST DUP1 PUSH4 0x14DDC253 GT PUSH2 0x2AF JUMPI DUP1 PUSH4 0x14DDC253 EQ PUSH2 0x32E JUMPI DUP1 PUSH4 0x17030ADD EQ PUSH2 0x35E JUMPI DUP1 PUSH4 0x254A2CCC EQ PUSH2 0x380 JUMPI PUSH1 0x0 DUP1 REVERT JUMPDEST DUP1 PUSH4 0xCD2C190 EQ PUSH2 0x2CB JUMPI DUP1 PUSH4 0x1208A32B EQ PUSH2 0x2FE JUMPI JUMPDEST PUSH1 0x0 DUP1 REVERT JUMPDEST CALLVALUE DUP1 ISZERO PUSH2 0x2D7 JUMPI PUSH1 0x0 DUP1 REVERT JUMPDEST POP PUSH2 0x2EB PUSH2 0x2E6 CALLDATASIZE PUSH1 0x4 PUSH2 0x2C72 JUMP JUMPDEST PUSH2 0x9CA JUMP JUMPDEST PUSH1 0x40 MLOAD SWAP1 DUP2 MSTORE PUSH1 0x20 ADD JUMPDEST PUSH1 0x40 MLOAD DUP1 SWAP2 SUB SWAP1 RETURN JUMPDEST CALLVALUE DUP1 ISZERO PUSH2 0x30A JUMPI PUSH1 0x0 DUP1 REVERT JUMPDEST POP PUSH2 0x31E PUSH2 0x319 CALLDATASIZE PUSH1 0x4 PUSH2 0x2CAF JUMP JUMPDEST PUSH2 0xA97 JUMP JUMPDEST PUSH1 0x40 MLOAD SWAP1 ISZERO ISZERO DUP2 MSTORE PUSH1 0x20 ADD PUSH2 0x2F5 JUMP JUMPDEST CALLVALUE DUP1 ISZERO PUSH2 0x33A JUMPI PUSH1 0x0 DUP1 REVERT JUMPDEST POP PUSH2 0x2EB PUSH2 0x349 CALLDATASIZE PUSH1 0x4 PUSH2 0x2CD1 JUMP JUMPDEST PUSH1 0x0 SWAP1 DUP2 MSTORE PUSH1 0x6A PUSH1 0x20 MSTORE PUSH1 0x40 SWAP1 KECCAK256 PUSH1 0x6 ADD SLOAD SWAP1 JUMP JUMPDEST CALLVALUE DUP1 ISZERO PUSH2 0x36A JUMPI PUSH1 0x0 DUP1 REVERT JUMPDEST POP PUSH2 0x37E PUSH2 0x379 CALLDATASIZE PUSH1 0x4 PUSH2 0x2CD1 JUMP JUMPDEST PUSH2 0xC7F JUMP JUMPDEST STOP JUMPDEST CALLVALUE DUP1 ISZERO PUSH2 0x38C JUMPI PUSH1 0x0 DUP1 REVERT JUMPDEST POP PUSH2 0x31E PUSH2 0x39B CALLDATASIZE PUSH1 0x4 PUSH2 0x2CAF JUMP JUMPDEST PUSH2 0xC8C JUMP JUMPDEST CALLVALUE DUP1 ISZERO PUSH2 0x3AC JUMPI PUSH1 0x0 DUP1 REVERT JUMPDEST POP PUSH2 0x31E PUSH2 0x3BB CALLDATASIZE PUSH1 0x4 PUSH2 0x2CD1 JUMP JUMPDEST PUSH1 0x0 SWAP1 DUP2 MSTORE PUSH1 0x6A PUSH1 0x20 MSTORE PUSH1 0x40 SWAP1 KECCAK256 PUSH1 0x8 ADD SLOAD PUSH1 0xFF AND SWAP1 JUMP JUMPDEST CALLVALUE DUP1 ISZERO PUSH2 0x3DF JUMPI PUSH1 0x0 DUP1 REVERT JUMPDEST POP PUSH2 0x31E PUSH2 0x3EE CALLDATASIZE PUSH1 0x4 PUSH2 0x2CAF JUMP JUMPDEST PUSH1 0x0 SWAP2 DUP3 MSTORE PUSH1 0x6A PUSH1 0x20 SWAP1 DUP2 MSTORE PUSH1 0x40 DUP1 DUP5 KECCAK256 SWAP3 DUP5 MSTORE PUSH1 0xA SWAP1 SWAP3 ADD SWAP1 MSTORE SWAP1 KECCAK256 PUSH1 0x2 ADD SLOAD PUSH2 0x100 SWAP1 DIV PUSH1 0xFF AND SWAP1 JUMP JUMPDEST CALLVALUE DUP1 ISZERO PUSH2 0x426 JUMPI PUSH1 0x0 DUP1 REVERT JUMPDEST POP PUSH2 0x2EB PUSH2 0x435 CALLDATASIZE PUSH1 0x4 PUSH2 0x2CD1 JUMP JUMPDEST PUSH1 0x0 SWAP1 DUP2 MSTORE PUSH1 0x6A PUSH1 0x20 MSTORE PUSH1 0x40 SWAP1 KECCAK256 PUSH1 0x3 ADD SLOAD SWAP1 JUMP JUMPDEST CALLVALUE DUP1 ISZERO PUSH2 0x456 JUMPI PUSH1 0x0 DUP1 REVERT JUMPDEST POP PUSH2 0x2EB PUSH2 0x465 CALLDATASIZE PUSH1 0x4 PUSH2 0x2D01 JUMP JUMPDEST PUSH1 0x1 PUSH1 0x1 PUSH1 0xA0 SHL SUB AND PUSH1 0x0 SWAP1 DUP2 MSTORE PUSH1 0x6C PUSH1 0x20 MSTORE PUSH1 0x40 SWAP1 KECCAK256 SLOAD SWAP1 JUMP JUMPDEST CALLVALUE DUP1 ISZERO PUSH2 0x48C JUMPI PUSH1 0x0 DUP1 REVERT JUMPDEST POP PUSH2 0x31E PUSH2 0x49B CALLDATASIZE PUSH1 0x4 PUSH2 0x2CAF JUMP JUMPDEST PUSH2 0xE75 JUMP JUMPDEST CALLVALUE DUP1 ISZERO PUSH2 0x4AC JUMPI PUSH1 0x0 DUP1 REVERT JUMPDEST POP PUSH2 0x4D9 PUSH2 0x4BB CALLDATASIZE PUSH1 0x4 PUSH2 0x2CD1 JUMP JUMPDEST PUSH1 0x0 SWAP1 DUP2 MSTORE PUSH1 0x6A PUSH1 0x20 MSTORE PUSH1 0x40 SWAP1 KECCAK256 PUSH1 0x5 ADD SLOAD PUSH1 0x1 PUSH1 0x1 PUSH1 0xA0 SHL SUB AND SWAP1 JUMP JUMPDEST PUSH1 0x40 MLOAD PUSH1 0x1 PUSH1 0x1 PUSH1 0xA0 SHL SUB SWAP1 SWAP2 AND DUP2 MSTORE PUSH1 0x20 ADD PUSH2 0x2F5 JUMP JUMPDEST CALLVALUE DUP1 ISZERO PUSH2 0x4FD JUMPI PUSH1 0x0 DUP1 REVERT JUMPDEST POP PUSH2 0x37E PUSH2 0x50C CALLDATASIZE PUSH1 0x4 PUSH2 0x2D01 JUMP JUMPDEST PUSH2 0x11A6 JUMP JUMPDEST CALLVALUE DUP1 ISZERO PUSH2 0x51D JUMPI PUSH1 0x0 DUP1 REVERT JUMPDEST POP PUSH2 0x2EB PUSH2 0x52C CALLDATASIZE PUSH1 0x4 PUSH2 0x2D01 JUMP JUMPDEST PUSH1 0x1 PUSH1 0x1 PUSH1 0xA0 SHL SUB AND PUSH1 0x0 SWAP1 DUP2 MSTORE PUSH1 0x6B PUSH1 0x20 MSTORE PUSH1 0x40 SWAP1 KECCAK256 SLOAD SWAP1 JUMP JUMPDEST PUSH2 0x55A PUSH2 0x555 CALLDATASIZE PUSH1 0x4 PUSH2 0x2D1C JUMP JUMPDEST PUSH2 0x11D0 JUMP JUMPDEST PUSH1 0x40 DUP1 MLOAD SWAP3 DUP4 MSTORE DUP2 MLOAD PUSH1 0x20 DUP1 DUP6 ADD SWAP2 SWAP1 SWAP2 MSTORE DUP3 ADD MLOAD PUSH1 0x1 PUSH1 0x1 PUSH1 0xA0 SHL SUB SWAP1 DUP2 AND DUP5 DUP4 ADD MSTORE SWAP1 DUP3 ADD MLOAD DUP2 AND PUSH1 0x60 DUP1 DUP6 ADD SWAP2 SWAP1 SWAP2 MSTORE DUP3 ADD MLOAD AND PUSH1 0x80 DUP1 DUP5 ADD SWAP2 SWAP1 SWAP2 MSTORE DUP2 ADD MLOAD PUSH1 0xA0 DUP1 DUP5 ADD SWAP2 SWAP1 SWAP2 MSTORE ADD MLOAD PUSH1 0xC0 DUP3 ADD MSTORE PUSH1 0xE0 ADD PUSH2 0x2F5 JUMP JUMPDEST CALLVALUE DUP1 ISZERO PUSH2 0x5C1 JUMPI PUSH1 0x0 DUP1 REVERT JUMPDEST POP PUSH2 0x31E PUSH2 0x5D0 CALLDATASIZE PUSH1 0x4 PUSH2 0x2DB2 JUMP JUMPDEST PUSH2 0x1323 JUMP JUMPDEST CALLVALUE DUP1 ISZERO PUSH2 0x5E1 JUMPI PUSH1 0x0 DUP1 REVERT JUMPDEST POP PUSH2 0x4D9 PUSH2 0x5F0 CALLDATASIZE PUSH1 0x4 PUSH2 0x2CD1 JUMP JUMPDEST PUSH1 0x0 SWAP1 DUP2 MSTORE PUSH1 0x6A PUSH1 0x20 MSTORE PUSH1 0x40 SWAP1 KECCAK256 SLOAD PUSH1 0x1 PUSH1 0x1 PUSH1 0xA0 SHL SUB AND SWAP1 JUMP JUMPDEST CALLVALUE DUP1 ISZERO PUSH2 0x617 JUMPI PUSH1 0x0 DUP1 REVERT JUMPDEST POP PUSH2 0x4D9 PUSH2 0x626 CALLDATASIZE PUSH1 0x4 PUSH2 0x2CAF JUMP JUMPDEST PUSH1 0x0 SWAP2 DUP3 MSTORE PUSH1 0x6A PUSH1 0x20 SWAP1 DUP2 MSTORE PUSH1 0x40 DUP1 DUP5 KECCAK256 SWAP3 DUP5 MSTORE PUSH1 0xA SWAP1 SWAP3 ADD SWAP1 MSTORE SWAP1 KECCAK256 SLOAD PUSH1 0x1 PUSH1 0x1 PUSH1 0xA0 SHL SUB AND SWAP1 JUMP JUMPDEST CALLVALUE DUP1 ISZERO PUSH2 0x65C JUMPI PUSH1 0x0 DUP1 REVERT JUMPDEST POP PUSH2 0x2EB PUSH2 0x66B CALLDATASIZE PUSH1 0x4 PUSH2 0x2CD1 JUMP JUMPDEST PUSH1 0x0 SWAP1 DUP2 MSTORE PUSH1 0x6A PUSH1 0x20 MSTORE PUSH1 0x40 SWAP1 KECCAK256 PUSH1 0x9 ADD SLOAD SWAP1 JUMP JUMPDEST CALLVALUE DUP1 ISZERO PUSH2 0x68C JUMPI PUSH1 0x0 DUP1 REVERT JUMPDEST POP PUSH2 0x2EB PUSH2 0x69B CALLDATASIZE PUSH1 0x4 PUSH2 0x2CAF JUMP JUMPDEST PUSH1 0x0 SWAP2 DUP3 MSTORE PUSH1 0x6A PUSH1 0x20 SWAP1 DUP2 MSTORE PUSH1 0x40 DUP1 DUP5 KECCAK256 SWAP3 DUP5 MSTORE PUSH1 0xA SWAP1 SWAP3 ADD SWAP1 MSTORE SWAP1 KECCAK256 PUSH1 0x1 ADD SLOAD SWAP1 JUMP JUMPDEST CALLVALUE DUP1 ISZERO PUSH2 0x6CB JUMPI PUSH1 0x0 DUP1 REVERT JUMPDEST POP PUSH2 0x31E PUSH2 0x6DA CALLDATASIZE PUSH1 0x4 PUSH2 0x2EFB JUMP JUMPDEST PUSH2 0x148F JUMP JUMPDEST PUSH2 0x31E PUSH2 0x6ED CALLDATASIZE PUSH1 0x4 PUSH2 0x2CAF JUMP JUMPDEST PUSH2 0x1774 JUMP JUMPDEST CALLVALUE DUP1 ISZERO PUSH2 0x6FE JUMPI PUSH1 0x0 DUP1 REVERT JUMPDEST POP PUSH1 0x65 SLOAD PUSH1 0x1 PUSH1 0x1 PUSH1 0xA0 SHL SUB AND PUSH2 0x4D9 JUMP JUMPDEST CALLVALUE DUP1 ISZERO PUSH2 0x71C JUMPI PUSH1 0x0 DUP1 REVERT JUMPDEST POP PUSH2 0x37E PUSH2 0x1B7D JUMP JUMPDEST CALLVALUE DUP1 ISZERO PUSH2 0x731 JUMPI PUSH1 0x0 DUP1 REVERT JUMPDEST POP PUSH2 0x31E PUSH2 0x740 CALLDATASIZE PUSH1 0x4 PUSH2 0x2CD1 JUMP JUMPDEST PUSH2 0x1B91 JUMP JUMPDEST CALLVALUE DUP1 ISZERO PUSH2 0x751 JUMPI PUSH1 0x0 DUP1 REVERT JUMPDEST POP PUSH2 0x2EB PUSH2 0x760 CALLDATASIZE PUSH1 0x4 PUSH2 0x2CD1 JUMP JUMPDEST PUSH2 0x1C18 JUMP JUMPDEST CALLVALUE DUP1 ISZERO PUSH2 0x771 JUMPI PUSH1 0x0 DUP1 REVERT JUMPDEST POP PUSH1 0x33 SLOAD PUSH1 0x1 PUSH1 0x1 PUSH1 0xA0 SHL SUB AND PUSH2 0x4D9 JUMP JUMPDEST CALLVALUE DUP1 ISZERO PUSH2 0x78F JUMPI PUSH1 0x0 DUP1 REVERT JUMPDEST POP PUSH2 0x31E PUSH2 0x79E CALLDATASIZE PUSH1 0x4 PUSH2 0x2FC5 JUMP JUMPDEST PUSH2 0x1CA0 JUMP JUMPDEST CALLVALUE DUP1 ISZERO PUSH2 0x7AF JUMPI PUSH1 0x0 DUP1 REVERT JUMPDEST POP PUSH2 0x31E PUSH2 0x7BE CALLDATASIZE PUSH1 0x4 PUSH2 0x2CAF JUMP JUMPDEST PUSH2 0x1E09 JUMP JUMPDEST CALLVALUE DUP1 ISZERO PUSH2 0x7CF JUMPI PUSH1 0x0 DUP1 REVERT JUMPDEST POP PUSH2 0x2EB PUSH2 0x7DE CALLDATASIZE PUSH1 0x4 PUSH2 0x2CD1 JUMP JUMPDEST PUSH2 0x21BC JUMP JUMPDEST CALLVALUE DUP1 ISZERO PUSH2 0x7EF JUMPI PUSH1 0x0 DUP1 REVERT JUMPDEST POP PUSH2 0x31E PUSH2 0x7FE CALLDATASIZE PUSH1 0x4 PUSH2 0x2CD1 JUMP JUMPDEST PUSH2 0x2207 JUMP JUMPDEST CALLVALUE DUP1 ISZERO PUSH2 0x80F JUMPI PUSH1 0x0 DUP1 REVERT JUMPDEST POP PUSH2 0x31E PUSH2 0x81E CALLDATASIZE PUSH1 0x4 PUSH2 0x2CAF JUMP JUMPDEST PUSH2 0x226C JUMP JUMPDEST CALLVALUE DUP1 ISZERO PUSH2 0x82F JUMPI PUSH1 0x0 DUP1 REVERT JUMPDEST POP PUSH2 0x4D9 PUSH2 0x83E CALLDATASIZE PUSH1 0x4 PUSH2 0x2CD1 JUMP JUMPDEST PUSH1 0x0 SWAP1 DUP2 MSTORE PUSH1 0x6A PUSH1 0x20 MSTORE PUSH1 0x40 SWAP1 KECCAK256 PUSH1 0x2 ADD SLOAD PUSH1 0x1 PUSH1 0x1 PUSH1 0xA0 SHL SUB AND SWAP1 JUMP JUMPDEST CALLVALUE DUP1 ISZERO PUSH2 0x868 JUMPI PUSH1 0x0 DUP1 REVERT JUMPDEST POP PUSH1 0x68 SLOAD PUSH1 0x1 PUSH1 0x1 PUSH1 0xA0 SHL SUB AND PUSH2 0x4D9 JUMP JUMPDEST CALLVALUE DUP1 ISZERO PUSH2 0x886 JUMPI PUSH1 0x0 DUP1 REVERT JUMPDEST POP PUSH2 0x37E PUSH2 0x895 CALLDATASIZE PUSH1 0x4 PUSH2 0x2D01 JUMP JUMPDEST PUSH2 0x2588 JUMP JUMPDEST CALLVALUE DUP1 ISZERO PUSH2 0x8A6 JUMPI PUSH1 0x0 DUP1 REVERT JUMPDEST POP PUSH2 0x2EB PUSH2 0x8B5 CALLDATASIZE PUSH1 0x4 PUSH2 0x2CD1 JUMP JUMPDEST PUSH1 0x0 SWAP1 DUP2 MSTORE PUSH1 0x6A PUSH1 0x20 MSTORE PUSH1 0x40 SWAP1 KECCAK256 PUSH1 0x4 ADD SLOAD SWAP1 JUMP JUMPDEST CALLVALUE DUP1 ISZERO PUSH2 0x8D6 JUMPI PUSH1 0x0 DUP1 REVERT JUMPDEST POP PUSH2 0x2EB PUSH2 0x8E5 CALLDATASIZE PUSH1 0x4 PUSH2 0x2CD1 JUMP JUMPDEST PUSH1 0x0 SWAP1 DUP2 MSTORE PUSH1 0x6A PUSH1 0x20 MSTORE PUSH1 0x40 SWAP1 KECCAK256 PUSH1 0x7 ADD SLOAD SWAP1 JUMP JUMPDEST CALLVALUE DUP1 ISZERO PUSH2 0x906 JUMPI PUSH1 0x0 DUP1 REVERT JUMPDEST POP PUSH1 0x69 SLOAD PUSH2 0x2EB JUMP JUMPDEST CALLVALUE DUP1 ISZERO PUSH2 0x91B JUMPI PUSH1 0x0 DUP1 REVERT JUMPDEST POP PUSH2 0x31E PUSH2 0x92A CALLDATASIZE PUSH1 0x4 PUSH2 0x2CAF JUMP JUMPDEST PUSH1 0x0 SWAP2 DUP3 MSTORE PUSH1 0x6A PUSH1 0x20 SWAP1 DUP2 MSTORE PUSH1 0x40 DUP1 DUP5 KECCAK256 SWAP3 DUP5 MSTORE PUSH1 0xA SWAP1 SWAP3 ADD SWAP1 MSTORE SWAP1 KECCAK256 PUSH1 0x2 ADD SLOAD PUSH1 0xFF AND SWAP1 JUMP JUMPDEST CALLVALUE DUP1 ISZERO PUSH2 0x95D JUMPI PUSH1 0x0 DUP1 REVERT JUMPDEST POP PUSH2 0x37E PUSH2 0x96C CALLDATASIZE PUSH1 0x4 PUSH2 0x300E JUMP JUMPDEST PUSH2 0x25B2 JUMP JUMPDEST CALLVALUE DUP1 ISZERO PUSH2 0x97D JUMPI PUSH1 0x0 DUP1 REVERT JUMPDEST POP PUSH2 0x37E PUSH2 0x98C CALLDATASIZE PUSH1 0x4 PUSH2 0x2D01 JUMP JUMPDEST PUSH2 0x271E JUMP JUMPDEST CALLVALUE DUP1 ISZERO PUSH2 0x99D JUMPI PUSH1 0x0 DUP1 REVERT JUMPDEST POP PUSH2 0x4D9 PUSH2 0x9AC CALLDATASIZE PUSH1 0x4 PUSH2 0x2CD1 JUMP JUMPDEST PUSH1 0x0 SWAP1 DUP2 MSTORE PUSH1 0x6A PUSH1 0x20 MSTORE PUSH1 0x40 SWAP1 KECCAK256 PUSH1 0x1 ADD SLOAD PUSH1 0x1 PUSH1 0x1 PUSH1 0xA0 SHL SUB AND SWAP1 JUMP JUMPDEST PUSH1 0x0 PUSH2 0x9D4 PUSH2 0x27AE JUMP JUMPDEST PUSH1 0x65 SLOAD PUSH1 0x40 MLOAD PUSH32 0x83BF460900000000000000000000000000000000000000000000000000000000 DUP2 MSTORE PUSH1 0x0 SWAP2 PUSH1 0x1 PUSH1 0x1 PUSH1 0xA0 SHL SUB AND SWAP1 PUSH4 0x83BF4609 SWAP1 PUSH2 0xA1E SWAP1 DUP7 SWAP1 PUSH1 0x4 ADD PUSH2 0x3090 JUMP JUMPDEST PUSH1 0x20 PUSH1 0x40 MLOAD DUP1 DUP4 SUB DUP2 PUSH1 0x0 DUP8 GAS CALL ISZERO DUP1 ISZERO PUSH2 0xA3D JUMPI RETURNDATASIZE PUSH1 0x0 DUP1 RETURNDATACOPY RETURNDATASIZE PUSH1 0x0 REVERT JUMPDEST POP POP POP POP PUSH1 0x40 MLOAD RETURNDATASIZE PUSH1 0x1F NOT PUSH1 0x1F DUP3 ADD AND DUP3 ADD DUP1 PUSH1 0x40 MSTORE POP DUP2 ADD SWAP1 PUSH2 0xA61 SWAP2 SWAP1 PUSH2 0x30A3 JUMP JUMPDEST PUSH1 0x40 MLOAD SWAP1 SWAP2 POP DUP2 SWAP1 PUSH32 0xDE1FEE73D594C5EE6F6C6B881755C9AE50066F625C46DDB6C999718CD7FF5DBD SWAP1 PUSH1 0x0 SWAP1 LOG2 SWAP1 POP JUMPDEST SWAP2 SWAP1 POP JUMP JUMPDEST PUSH1 0x0 DUP3 DUP2 MSTORE PUSH1 0x6A PUSH1 0x20 MSTORE PUSH1 0x40 DUP2 KECCAK256 PUSH1 0x8 ADD SLOAD PUSH1 0xFF AND PUSH2 0xB0B JUMPI PUSH1 0x40 MLOAD PUSH3 0x461BCD PUSH1 0xE5 SHL DUP2 MSTORE PUSH1 0x20 PUSH1 0x4 DUP3 ADD MSTORE PUSH1 0x25 PUSH1 0x24 DUP3 ADD MSTORE PUSH32 0x47525420706F6F6C3A20746865207265717565737420646F6573206E6F742065 PUSH1 0x44 DUP3 ADD MSTORE PUSH5 0x7869737421 PUSH1 0xD8 SHL PUSH1 0x64 DUP3 ADD MSTORE PUSH1 0x84 ADD JUMPDEST PUSH1 0x40 MLOAD DUP1 SWAP2 SUB SWAP1 REVERT JUMPDEST CALLER PUSH1 0x0 SWAP1 DUP2 MSTORE PUSH1 0x6B PUSH1 0x20 MSTORE PUSH1 0x40 SWAP1 KECCAK256 SLOAD PUSH1 0x1 LT PUSH2 0xB90 JUMPI PUSH1 0x40 MLOAD PUSH3 0x461BCD PUSH1 0xE5 SHL DUP2 MSTORE PUSH1 0x20 PUSH1 0x4 DUP3 ADD MSTORE PUSH1 0x2E PUSH1 0x24 DUP3 ADD MSTORE PUSH32 0x47525420706F6F6C3A20796F7572207374616B6520616D6F756E74206973206E PUSH1 0x44 DUP3 ADD MSTORE PUSH32 0x6F742073756666696369656E7421000000000000000000000000000000000000 PUSH1 0x64 DUP3 ADD MSTORE PUSH1 0x84 ADD PUSH2 0xB02 JUMP JUMPDEST PUSH1 0x0 DUP4 DUP2 MSTORE PUSH1 0x6A PUSH1 0x20 MSTORE PUSH1 0x40 DUP1 DUP3 KECCAK256 PUSH1 0x9 ADD SLOAD SWAP1 MLOAD SWAP1 SWAP2 DUP3 SWAP2 DUP7 SWAP2 PUSH32 0xAED3C68F95C4339DC5DBE18D7EACBD00B479E30A26FECF3597AC76F6D743ECC2 SWAP2 LOG3 PUSH1 0x40 DUP1 MLOAD PUSH1 0x80 DUP2 ADD DUP3 MSTORE CALLER DUP2 MSTORE PUSH1 0x20 DUP1 DUP3 ADD DUP7 DUP2 MSTORE PUSH1 0x0 DUP4 DUP6 ADD DUP2 DUP2 MSTORE PUSH1 0x60 DUP6 ADD DUP3 DUP2 MSTORE DUP11 DUP4 MSTORE PUSH1 0x6A DUP1 DUP7 MSTORE DUP8 DUP5 KECCAK256 DUP10 DUP6 MSTORE PUSH1 0xA DUP2 ADD DUP8 MSTORE SWAP8 DUP5 KECCAK256 SWAP7 MLOAD DUP8 SLOAD PUSH1 0x1 PUSH1 0x1 PUSH1 0xA0 SHL SUB NOT AND PUSH1 0x1 PUSH1 0x1 PUSH1 0xA0 SHL SUB SWAP1 SWAP2 AND OR DUP8 SSTORE SWAP4 MLOAD PUSH1 0x1 DUP8 ADD SSTORE SWAP1 MLOAD PUSH1 0x2 SWAP1 SWAP6 ADD DUP1 SLOAD SWAP2 MLOAD PUSH2 0xFFFF NOT SWAP1 SWAP3 AND SWAP6 ISZERO ISZERO PUSH2 0xFF00 NOT AND SWAP6 SWAP1 SWAP6 OR PUSH2 0x100 SWAP2 ISZERO ISZERO SWAP2 SWAP1 SWAP2 MUL OR SWAP1 SWAP4 SSTORE DUP8 DUP4 MSTORE SWAP1 MSTORE PUSH1 0x9 SWAP1 SWAP2 ADD DUP1 SLOAD SWAP2 PUSH2 0xC6E DUP4 PUSH2 0x30D2 JUMP JUMPDEST SWAP2 SWAP1 POP SSTORE POP PUSH1 0x1 SWAP2 POP POP JUMPDEST SWAP3 SWAP2 POP POP JUMP JUMPDEST PUSH2 0xC87 PUSH2 0x27AE JUMP JUMPDEST PUSH1 0x69 SSTORE JUMP JUMPDEST PUSH1 0x0 DUP3 DUP2 MSTORE PUSH1 0x6A PUSH1 0x20 SWAP1 DUP2 MSTORE PUSH1 0x40 DUP1 DUP4 KECCAK256 DUP5 DUP5 MSTORE PUSH1 0xA ADD SWAP1 SWAP2 MSTORE DUP2 KECCAK256 PUSH1 0x2 ADD SLOAD PUSH1 0xFF AND PUSH2 0xD21 JUMPI PUSH1 0x40 MLOAD PUSH3 0x461BCD PUSH1 0xE5 SHL DUP2 MSTORE PUSH1 0x20 PUSH1 0x4 DUP3 ADD MSTORE PUSH1 0x28 PUSH1 0x24 DUP3 ADD MSTORE PUSH32 0x47525420706F6F6C3A20746865206F66666572206973206E6F74206163636570 PUSH1 0x44 DUP3 ADD MSTORE PUSH32 0x7465642079657421000000000000000000000000000000000000000000000000 PUSH1 0x64 DUP3 ADD MSTORE PUSH1 0x84 ADD PUSH2 0xB02 JUMP JUMPDEST PUSH1 0x0 DUP4 DUP2 MSTORE PUSH1 0x6A PUSH1 0x20 SWAP1 DUP2 MSTORE PUSH1 0x40 DUP1 DUP4 KECCAK256 DUP6 DUP5 MSTORE PUSH1 0xA ADD SWAP1 SWAP2 MSTORE SWAP1 KECCAK256 PUSH1 0x2 ADD SLOAD PUSH2 0x100 SWAP1 DIV PUSH1 0xFF AND ISZERO PUSH2 0xDA9 JUMPI PUSH1 0x40 MLOAD PUSH3 0x461BCD PUSH1 0xE5 SHL DUP2 MSTORE PUSH1 0x20 PUSH1 0x4 DUP3 ADD MSTORE PUSH1 0x2A PUSH1 0x24 DUP3 ADD MSTORE PUSH32 0x47525420706F6F6C3A20746865206F666665722068617320616C726561647920 PUSH1 0x44 DUP3 ADD MSTORE PUSH10 0x6265656E207061696421 PUSH1 0xB0 SHL PUSH1 0x64 DUP3 ADD MSTORE PUSH1 0x84 ADD PUSH2 0xB02 JUMP JUMPDEST PUSH1 0x0 DUP4 DUP2 MSTORE PUSH1 0x6A PUSH1 0x20 MSTORE PUSH1 0x40 SWAP1 KECCAK256 SLOAD PUSH1 0x1 PUSH1 0x1 PUSH1 0xA0 SHL SUB AND CALLER EQ PUSH2 0xE1B JUMPI PUSH1 0x40 MLOAD PUSH3 0x461BCD PUSH1 0xE5 SHL DUP2 MSTORE PUSH1 0x20 PUSH1 0x4 DUP3 ADD MSTORE PUSH1 0x24 DUP1 DUP3 ADD MSTORE PUSH32 0x47525420706F6F6C3A20796F7520617265206E6F742074686520726571756573 PUSH1 0x44 DUP3 ADD MSTORE PUSH4 0x74657221 PUSH1 0xE0 SHL PUSH1 0x64 DUP3 ADD MSTORE PUSH1 0x84 ADD PUSH2 0xB02 JUMP JUMPDEST PUSH1 0x0 DUP4 DUP2 MSTORE PUSH1 0x6A PUSH1 0x20 SWAP1 DUP2 MSTORE PUSH1 0x40 DUP1 DUP4 KECCAK256 DUP6 DUP5 MSTORE PUSH1 0xA ADD SWAP1 SWAP2 MSTORE DUP1 DUP3 KECCAK256 PUSH1 0x2 ADD DUP1 SLOAD PUSH1 0xFF NOT AND SWAP1 SSTORE MLOAD DUP4 SWAP2 DUP6 SWAP2 PUSH32 0x8EB3C3B0AA4CE8F4EA417700B7CD919AF02B24A8B8346DFD2B6BDF08612AA74C SWAP2 SWAP1 LOG3 POP PUSH1 0x1 SWAP3 SWAP2 POP POP JUMP JUMPDEST PUSH1 0x0 DUP3 DUP2 MSTORE PUSH1 0x6A PUSH1 0x20 MSTORE PUSH1 0x40 DUP2 KECCAK256 PUSH1 0x8 ADD SLOAD PUSH1 0xFF AND PUSH2 0xEE4 JUMPI PUSH1 0x40 MLOAD PUSH3 0x461BCD PUSH1 0xE5 SHL DUP2 MSTORE PUSH1 0x20 PUSH1 0x4 DUP3 ADD MSTORE PUSH1 0x25 PUSH1 0x24 DUP3 ADD MSTORE PUSH32 0x47525420706F6F6C3A20746865207265717565737420646F6573206E6F742065 PUSH1 0x44 DUP3 ADD MSTORE PUSH5 0x7869737421 PUSH1 0xD8 SHL PUSH1 0x64 DUP3 ADD MSTORE PUSH1 0x84 ADD PUSH2 0xB02 JUMP JUMPDEST PUSH1 0x0 DUP4 DUP2 MSTORE PUSH1 0x6A PUSH1 0x20 SWAP1 DUP2 MSTORE PUSH1 0x40 DUP1 DUP4 KECCAK256 DUP6 DUP5 MSTORE PUSH1 0xA ADD SWAP1 SWAP2 MSTORE SWAP1 KECCAK256 SLOAD PUSH1 0x1 PUSH1 0x1 PUSH1 0xA0 SHL SUB AND PUSH2 0xF7C JUMPI PUSH1 0x40 MLOAD PUSH3 0x461BCD PUSH1 0xE5 SHL DUP2 MSTORE PUSH1 0x20 PUSH1 0x4 DUP3 ADD MSTORE PUSH1 0x23 PUSH1 0x24 DUP3 ADD MSTORE PUSH32 0x47525420706F6F6C3A20746865206F6666657220646F6573206E6F7420657869 PUSH1 0x44 DUP3 ADD MSTORE PUSH32 0x7374210000000000000000000000000000000000000000000000000000000000 PUSH1 0x64 DUP3 ADD MSTORE PUSH1 0x84 ADD PUSH2 0xB02 JUMP JUMPDEST PUSH1 0x0 DUP4 DUP2 MSTORE PUSH1 0x6A PUSH1 0x20 SWAP1 DUP2 MSTORE PUSH1 0x40 DUP1 DUP4 KECCAK256 DUP6 DUP5 MSTORE PUSH1 0xA ADD SWAP1 SWAP2 MSTORE SWAP1 KECCAK256 PUSH1 0x2 ADD SLOAD PUSH1 0xFF AND ISZERO PUSH2 0x1012 JUMPI PUSH1 0x40 MLOAD PUSH3 0x461BCD PUSH1 0xE5 SHL DUP2 MSTORE PUSH1 0x20 PUSH1 0x4 DUP3 ADD MSTORE PUSH1 0x2E PUSH1 0x24 DUP3 ADD MSTORE PUSH32 0x47525420706F6F6C3A20746865206F666665722068617320616C726561647920 PUSH1 0x44 DUP3 ADD MSTORE PUSH32 0x6265656E20616363657074656421000000000000000000000000000000000000 PUSH1 0x64 DUP3 ADD MSTORE PUSH1 0x84 ADD PUSH2 0xB02 JUMP JUMPDEST PUSH1 0x0 DUP4 DUP2 MSTORE PUSH1 0x6A PUSH1 0x20 MSTORE PUSH1 0x40 SWAP1 KECCAK256 SLOAD PUSH1 0x1 PUSH1 0x1 PUSH1 0xA0 SHL SUB AND CALLER EQ PUSH2 0x1084 JUMPI PUSH1 0x40 MLOAD PUSH3 0x461BCD PUSH1 0xE5 SHL DUP2 MSTORE PUSH1 0x20 PUSH1 0x4 DUP3 ADD MSTORE PUSH1 0x24 DUP1 DUP3 ADD MSTORE PUSH32 0x47525420706F6F6C3A20796F7520617265206E6F742074686520726571756573 PUSH1 0x44 DUP3 ADD MSTORE PUSH4 0x74657221 PUSH1 0xE0 SHL PUSH1 0x64 DUP3 ADD MSTORE PUSH1 0x84 ADD PUSH2 0xB02 JUMP JUMPDEST PUSH1 0x0 JUMPDEST PUSH1 0x0 DUP5 DUP2 MSTORE PUSH1 0x6A PUSH1 0x20 MSTORE PUSH1 0x40 SWAP1 KECCAK256 PUSH1 0x9 ADD SLOAD DUP2 LT ISZERO PUSH2 0x1148 JUMPI PUSH1 0x0 DUP5 DUP2 MSTORE PUSH1 0x6A PUSH1 0x20 SWAP1 DUP2 MSTORE PUSH1 0x40 DUP1 DUP4 KECCAK256 DUP5 DUP5 MSTORE PUSH1 0xA ADD SWAP1 SWAP2 MSTORE SWAP1 KECCAK256 PUSH1 0x2 ADD SLOAD PUSH1 0xFF AND ISZERO PUSH2 0x1136 JUMPI PUSH1 0x40 MLOAD PUSH3 0x461BCD PUSH1 0xE5 SHL DUP2 MSTORE PUSH1 0x20 PUSH1 0x4 DUP3 ADD MSTORE PUSH1 0x3E PUSH1 0x24 DUP3 ADD MSTORE PUSH32 0x47525420706F6F6C3A20746865726520697320616C726561647920616E206163 PUSH1 0x44 DUP3 ADD MSTORE PUSH32 0x636570746564206F6666657220666F7220746869732072657175657374210000 PUSH1 0x64 DUP3 ADD MSTORE PUSH1 0x84 ADD PUSH2 0xB02 JUMP JUMPDEST DUP1 PUSH2 0x1140 DUP2 PUSH2 0x30D2 JUMP JUMPDEST SWAP2 POP POP PUSH2 0x1087 JUMP JUMPDEST POP PUSH1 0x0 DUP4 DUP2 MSTORE PUSH1 0x6A PUSH1 0x20 SWAP1 DUP2 MSTORE PUSH1 0x40 DUP1 DUP4 KECCAK256 DUP6 DUP5 MSTORE PUSH1 0xA ADD SWAP1 SWAP2 MSTORE DUP1 DUP3 KECCAK256 PUSH1 0x2 ADD DUP1 SLOAD PUSH1 0xFF NOT AND PUSH1 0x1 OR SWAP1 SSTORE MLOAD DUP4 SWAP2 DUP6 SWAP2 PUSH32 0x805AD3493798D2BBA49FB177C42928EC4D30E9880662953CA090CDFAAC00153C SWAP2 SWAP1 LOG3 POP PUSH1 0x1 SWAP3 SWAP2 POP POP JUMP JUMPDEST PUSH2 0x11AE PUSH2 0x27AE JUMP JUMPDEST PUSH1 0x68 DUP1 SLOAD PUSH1 0x1 PUSH1 0x1 PUSH1 0xA0 SHL SUB NOT AND PUSH1 0x1 PUSH1 0x1 PUSH1 0xA0 SHL SUB SWAP3 SWAP1 SWAP3 AND SWAP2 SWAP1 SWAP2 OR SWAP1 SSTORE JUMP JUMPDEST PUSH1 0x40 DUP1 MLOAD PUSH1 0xC0 DUP2 ADD DUP3 MSTORE PUSH1 0x0 DUP1 DUP3 MSTORE PUSH1 0x20 DUP3 ADD DUP2 SWAP1 MSTORE SWAP2 DUP2 ADD DUP3 SWAP1 MSTORE PUSH1 0x60 DUP2 ADD DUP3 SWAP1 MSTORE PUSH1 0x80 DUP2 ADD DUP3 SWAP1 MSTORE PUSH1 0xA0 DUP2 ADD DUP3 SWAP1 MSTORE PUSH1 0x0 PUSH1 0x65 PUSH1 0x0 SWAP1 SLOAD SWAP1 PUSH2 0x100 EXP SWAP1 DIV PUSH1 0x1 PUSH1 0x1 PUSH1 0xA0 SHL SUB AND PUSH1 0x1 PUSH1 0x1 PUSH1 0xA0 SHL SUB AND PUSH4 0x762C38FD CALLVALUE DUP13 DUP15 ADDRESS PUSH3 0x15180 PUSH1 0x0 DUP1 PUSH1 0x40 MLOAD DUP9 PUSH4 0xFFFFFFFF AND PUSH1 0xE0 SHL DUP2 MSTORE PUSH1 0x4 ADD PUSH2 0x1253 SWAP7 SWAP6 SWAP5 SWAP4 SWAP3 SWAP2 SWAP1 PUSH2 0x30EB JUMP JUMPDEST PUSH1 0x20 PUSH1 0x40 MLOAD DUP1 DUP4 SUB DUP2 DUP6 DUP9 GAS CALL ISZERO DUP1 ISZERO PUSH2 0x1271 JUMPI RETURNDATASIZE PUSH1 0x0 DUP1 RETURNDATACOPY RETURNDATASIZE PUSH1 0x0 REVERT JUMPDEST POP POP POP POP POP PUSH1 0x40 MLOAD RETURNDATASIZE PUSH1 0x1F NOT PUSH1 0x1F DUP3 ADD AND DUP3 ADD DUP1 PUSH1 0x40 MSTORE POP DUP2 ADD SWAP1 PUSH2 0x1296 SWAP2 SWAP1 PUSH2 0x30A3 JUMP JUMPDEST PUSH1 0x66 DUP1 SLOAD PUSH1 0x0 SWAP1 DUP2 MSTORE PUSH1 0x67 PUSH1 0x20 MSTORE PUSH1 0x40 DUP1 DUP3 KECCAK256 DUP5 SWAP1 SSTORE SWAP2 SLOAD SWAP2 MLOAD SWAP3 SWAP4 POP DUP4 SWAP3 PUSH32 0x6F7A36C171B57B55DB60E78468575F6D1DC1917523429EF3E458CAF26AE2EA4D SWAP2 SWAP1 LOG3 PUSH1 0x40 DUP1 MLOAD PUSH1 0xC0 DUP2 ADD DUP3 MSTORE SWAP10 DUP11 MSTORE PUSH1 0x1 PUSH1 0x1 PUSH1 0xA0 SHL SUB SWAP9 DUP10 AND PUSH1 0x20 DUP12 ADD MSTORE SWAP7 DUP9 AND SWAP7 DUP10 ADD SWAP7 SWAP1 SWAP7 MSTORE POP POP SWAP2 SWAP1 SWAP4 AND PUSH1 0x60 DUP6 ADD MSTORE PUSH1 0x80 DUP5 ADD SWAP3 SWAP1 SWAP3 MSTORE PUSH1 0xA0 DUP4 ADD SWAP2 SWAP1 SWAP2 MSTORE SWAP4 SWAP1 SWAP3 POP SWAP1 POP JUMP JUMPDEST CALLER PUSH1 0x0 SWAP1 DUP2 MSTORE PUSH1 0x6C PUSH1 0x20 MSTORE PUSH1 0x40 DUP2 KECCAK256 SLOAD DUP8 EQ PUSH2 0x13A7 JUMPI PUSH1 0x40 MLOAD PUSH3 0x461BCD PUSH1 0xE5 SHL DUP2 MSTORE PUSH1 0x20 PUSH1 0x4 DUP3 ADD MSTORE PUSH1 0x30 PUSH1 0x24 DUP3 ADD MSTORE PUSH32 0x47525420706F6F6C3A2074686973206E6F6E63652068617320616C7265616479 PUSH1 0x44 DUP3 ADD MSTORE PUSH32 0x206265656E207375626D69747465642100000000000000000000000000000000 PUSH1 0x64 DUP3 ADD MSTORE PUSH1 0x84 ADD PUSH2 0xB02 JUMP JUMPDEST PUSH2 0x13B0 DUP7 PUSH2 0x2808 JUMP JUMPDEST POP PUSH1 0x68 DUP1 SLOAD PUSH1 0x69 SLOAD PUSH1 0x40 DUP1 MLOAD PUSH1 0x20 DUP1 DUP3 ADD DUP14 SWAP1 MSTORE CALLER PUSH1 0x60 SWAP1 DUP2 SHL PUSH12 0xFFFFFFFFFFFFFFFFFFFFFFFF NOT SWAP1 DUP2 AND DUP5 DUP7 ADD MSTORE DUP7 DUP3 SHL DUP2 AND PUSH1 0x54 DUP6 ADD MSTORE SWAP7 DUP4 ADD DUP14 SWAP1 MSTORE PUSH1 0x88 DUP4 ADD DUP6 SWAP1 MSTORE DUP12 DUP2 SHL DUP8 AND PUSH1 0xA8 DUP5 ADD MSTORE PUSH1 0xBC DUP4 ADD DUP12 SWAP1 MSTORE PUSH1 0xDC DUP4 ADD DUP11 SWAP1 MSTORE DUP9 SWAP1 SHL SWAP1 SWAP6 AND PUSH1 0xFC DUP3 ADD MSTORE DUP2 MLOAD PUSH1 0xF0 DUP2 DUP4 SUB ADD DUP2 MSTORE PUSH2 0x110 DUP3 ADD DUP1 DUP5 MSTORE DUP2 MLOAD SWAP2 SWAP1 SWAP7 ADD KECCAK256 SWAP3 SWAP1 SWAP5 MSTORE MLOAD SWAP1 SWAP3 DUP10 SWAP3 PUSH1 0x1 PUSH1 0x1 PUSH1 0xA0 SHL SUB AND SWAP2 DUP5 SWAP2 PUSH32 0xC50426A58C328DDE98BF1E6E781031DC1D928393568D3B55D05EAFF42762200A SWAP2 SWAP1 DUP2 SWAP1 SUB PUSH2 0x130 ADD SWAP1 LOG4 PUSH2 0x1481 DUP2 DUP9 DUP9 DUP9 DUP9 DUP9 PUSH2 0x2860 JUMP JUMPDEST POP PUSH1 0x1 SWAP8 SWAP7 POP POP POP POP POP POP POP JUMP JUMPDEST PUSH1 0x0 DUP8 DUP2 MSTORE PUSH1 0x6A PUSH1 0x20 SWAP1 DUP2 MSTORE PUSH1 0x40 DUP1 DUP4 KECCAK256 DUP10 DUP5 MSTORE PUSH1 0xA ADD SWAP1 SWAP2 MSTORE DUP2 KECCAK256 PUSH1 0x2 ADD SLOAD PUSH2 0x100 SWAP1 DIV PUSH1 0xFF AND ISZERO PUSH2 0x1517 JUMPI PUSH1 0x40 MLOAD PUSH3 0x461BCD PUSH1 0xE5 SHL DUP2 MSTORE PUSH1 0x20 PUSH1 0x4 DUP3 ADD MSTORE PUSH1 0x2A PUSH1 0x24 DUP3 ADD MSTORE PUSH32 0x47525420706F6F6C3A20746865206F666665722068617320616C726561647920 PUSH1 0x44 DUP3 ADD MSTORE PUSH10 0x6265656E207061696421 PUSH1 0xB0 SHL PUSH1 0x64 DUP3 ADD MSTORE PUSH1 0x84 ADD PUSH2 0xB02 JUMP JUMPDEST PUSH1 0x0 DUP9 DUP2 MSTORE PUSH1 0x6A PUSH1 0x20 SWAP1 DUP2 MSTORE PUSH1 0x40 DUP1 DUP4 KECCAK256 DUP11 DUP5 MSTORE PUSH1 0xA ADD SWAP1 SWAP2 MSTORE SWAP1 KECCAK256 SLOAD PUSH1 0x1 PUSH1 0x1 PUSH1 0xA0 SHL SUB AND CALLER EQ PUSH2 0x15FD JUMPI PUSH1 0x40 MLOAD PUSH3 0x461BCD PUSH1 0xE5 SHL DUP2 MSTORE PUSH1 0x20 PUSH1 0x4 DUP3 ADD MSTORE PUSH1 0x6E PUSH1 0x24 DUP3 ADD MSTORE PUSH32 0x47525420706F6F6C3A20796F752068617665206E6F74206D61646520616E206F PUSH1 0x44 DUP3 ADD MSTORE PUSH32 0x6666657220666F722074686973207265717565737420616E6420746865726566 PUSH1 0x64 DUP3 ADD MSTORE PUSH32 0x6F726520796F7520617265206E6F7420656E7469746C656420746F206D616B65 PUSH1 0x84 DUP3 ADD MSTORE PUSH32 0x2074686973207265717565737421000000000000000000000000000000000000 PUSH1 0xA4 DUP3 ADD MSTORE PUSH1 0xC4 ADD PUSH2 0xB02 JUMP JUMPDEST PUSH2 0x160A DUP7 DUP7 DUP7 DUP7 DUP7 PUSH2 0x29A4 JUMP JUMPDEST PUSH1 0x40 MLOAD PUSH32 0x7472756500000000000000000000000000000000000000000000000000000000 PUSH1 0x20 DUP3 ADD MSTORE PUSH1 0x24 ADD PUSH1 0x40 MLOAD PUSH1 0x20 DUP2 DUP4 SUB SUB DUP2 MSTORE SWAP1 PUSH1 0x40 MSTORE DUP1 MLOAD SWAP1 PUSH1 0x20 ADD KECCAK256 PUSH2 0x1655 DUP8 PUSH2 0x21BC JUMP JUMPDEST SUB PUSH2 0x1765 JUMPI PUSH1 0x68 SLOAD PUSH1 0x0 DUP10 DUP2 MSTORE PUSH1 0x6A PUSH1 0x20 DUP2 DUP2 MSTORE PUSH1 0x40 DUP1 DUP5 KECCAK256 DUP13 DUP6 MSTORE PUSH1 0xA DUP2 ADD DUP4 MSTORE DUP2 DUP6 KECCAK256 SLOAD DUP15 DUP7 MSTORE SWAP4 SWAP1 SWAP3 MSTORE PUSH1 0x3 SWAP1 SWAP2 ADD SLOAD SWAP1 MLOAD PUSH4 0xA9059CBB PUSH1 0xE0 SHL DUP2 MSTORE PUSH1 0x1 PUSH1 0x1 PUSH1 0xA0 SHL SUB SWAP3 DUP4 AND PUSH1 0x4 DUP3 ADD MSTORE PUSH1 0x24 DUP2 ADD SWAP2 SWAP1 SWAP2 MSTORE SWAP2 SWAP3 AND SWAP1 PUSH4 0xA9059CBB SWAP1 PUSH1 0x44 ADD PUSH1 0x20 PUSH1 0x40 MLOAD DUP1 DUP4 SUB DUP2 PUSH1 0x0 DUP8 GAS CALL ISZERO DUP1 ISZERO PUSH2 0x16D8 JUMPI RETURNDATASIZE PUSH1 0x0 DUP1 RETURNDATACOPY RETURNDATASIZE PUSH1 0x0 REVERT JUMPDEST POP POP POP POP PUSH1 0x40 MLOAD RETURNDATASIZE PUSH1 0x1F NOT PUSH1 0x1F DUP3 ADD AND DUP3 ADD DUP1 PUSH1 0x40 MSTORE POP DUP2 ADD SWAP1 PUSH2 0x16FC SWAP2 SWAP1 PUSH2 0x3136 JUMP JUMPDEST SWAP1 POP DUP1 ISZERO PUSH2 0x175E JUMPI PUSH1 0x40 MLOAD DUP9 SWAP1 DUP11 SWAP1 PUSH32 0x2B447358A077DEDDDAD023F2778D84AFC7DE0E9E65674CBFACE9E94B74916FF0 SWAP1 PUSH1 0x0 SWAP1 LOG3 PUSH1 0x0 DUP10 DUP2 MSTORE PUSH1 0x6A PUSH1 0x20 SWAP1 DUP2 MSTORE PUSH1 0x40 DUP1 DUP4 KECCAK256 DUP12 DUP5 MSTORE PUSH1 0xA ADD SWAP1 SWAP2 MSTORE SWAP1 KECCAK256 PUSH1 0x2 ADD DUP1 SLOAD PUSH2 0xFF00 NOT AND PUSH2 0x100 OR SWAP1 SSTORE JUMPDEST SWAP1 POP PUSH2 0x1769 JUMP JUMPDEST POP PUSH1 0x0 JUMPDEST SWAP8 SWAP7 POP POP POP POP POP POP POP JUMP JUMPDEST PUSH1 0x0 DUP3 DUP2 MSTORE PUSH1 0x6A PUSH1 0x20 SWAP1 DUP2 MSTORE PUSH1 0x40 DUP1 DUP4 KECCAK256 DUP5 DUP5 MSTORE PUSH1 0xA ADD SWAP1 SWAP2 MSTORE DUP2 KECCAK256 PUSH1 0x2 ADD SLOAD PUSH1 0xFF AND PUSH2 0x17FA JUMPI PUSH1 0x40 MLOAD PUSH3 0x461BCD PUSH1 0xE5 SHL DUP2 MSTORE PUSH1 0x20 PUSH1 0x4 DUP3 ADD MSTORE PUSH1 0x2E PUSH1 0x24 DUP3 ADD MSTORE PUSH32 0x47525420706F6F6C3A20746865206F6666657220686173206E6F74206265656E PUSH1 0x44 DUP3 ADD MSTORE PUSH14 0x2061636365707465642079657421 PUSH1 0x90 SHL PUSH1 0x64 DUP3 ADD MSTORE PUSH1 0x84 ADD PUSH2 0xB02 JUMP JUMPDEST PUSH1 0x0 DUP4 DUP2 MSTORE PUSH1 0x6A PUSH1 0x20 SWAP1 DUP2 MSTORE PUSH1 0x40 DUP1 DUP4 KECCAK256 DUP6 DUP5 MSTORE PUSH1 0xA ADD SWAP1 SWAP2 MSTORE SWAP1 KECCAK256 PUSH1 0x2 ADD SLOAD PUSH2 0x100 SWAP1 DIV PUSH1 0xFF AND ISZERO PUSH2 0x1882 JUMPI PUSH1 0x40 MLOAD PUSH3 0x461BCD PUSH1 0xE5 SHL DUP2 MSTORE PUSH1 0x20 PUSH1 0x4 DUP3 ADD MSTORE PUSH1 0x2A PUSH1 0x24 DUP3 ADD MSTORE PUSH32 0x47525420706F6F6C3A20746865206F666665722068617320616C726561647920 PUSH1 0x44 DUP3 ADD MSTORE PUSH10 0x6265656E207061696421 PUSH1 0xB0 SHL PUSH1 0x64 DUP3 ADD MSTORE PUSH1 0x84 ADD PUSH2 0xB02 JUMP JUMPDEST PUSH1 0x0 DUP4 DUP2 MSTORE PUSH1 0x6A PUSH1 0x20 MSTORE PUSH1 0x40 SWAP1 KECCAK256 PUSH1 0x7 ADD SLOAD CHAINID EQ PUSH2 0x1908 JUMPI PUSH1 0x40 MLOAD PUSH3 0x461BCD PUSH1 0xE5 SHL DUP2 MSTORE PUSH1 0x20 PUSH1 0x4 DUP3 ADD MSTORE PUSH1 0x35 PUSH1 0x24 DUP3 ADD MSTORE PUSH32 0x47525420706F6F6C3A20746865206F666665722073686F756C64206E6F742062 PUSH1 0x44 DUP3 ADD MSTORE PUSH32 0x652070616964206F6E207468697320636861696E210000000000000000000000 PUSH1 0x64 DUP3 ADD MSTORE PUSH1 0x84 ADD PUSH2 0xB02 JUMP JUMPDEST PUSH1 0x0 DUP4 DUP2 MSTORE PUSH1 0x6A PUSH1 0x20 MSTORE PUSH1 0x40 SWAP1 KECCAK256 PUSH1 0x6 ADD SLOAD CALLVALUE EQ PUSH2 0x198E JUMPI PUSH1 0x40 MLOAD PUSH3 0x461BCD PUSH1 0xE5 SHL DUP2 MSTORE PUSH1 0x20 PUSH1 0x4 DUP3 ADD MSTORE PUSH1 0x2E PUSH1 0x24 DUP3 ADD MSTORE PUSH32 0x47525420706F6F6C3A2074686520616D6F756E7420646F6573206E6F74206D61 PUSH1 0x44 DUP3 ADD MSTORE PUSH32 0x74636820746865206F6666657221000000000000000000000000000000000000 PUSH1 0x64 DUP3 ADD MSTORE PUSH1 0x84 ADD PUSH2 0xB02 JUMP JUMPDEST PUSH1 0x0 DUP4 DUP2 MSTORE PUSH1 0x6A PUSH1 0x20 SWAP1 DUP2 MSTORE PUSH1 0x40 DUP1 DUP4 KECCAK256 DUP6 DUP5 MSTORE PUSH1 0xA ADD SWAP1 SWAP2 MSTORE SWAP1 KECCAK256 SLOAD PUSH1 0x1 PUSH1 0x1 PUSH1 0xA0 SHL SUB AND CALLER EQ PUSH2 0x1A28 JUMPI PUSH1 0x40 MLOAD PUSH3 0x461BCD PUSH1 0xE5 SHL DUP2 MSTORE PUSH1 0x20 PUSH1 0x4 DUP3 ADD MSTORE PUSH1 0x30 PUSH1 0x24 DUP3 ADD MSTORE PUSH32 0x47525420706F6F6C3A20796F7520617265206E6F7420616C6C6F77656420746F PUSH1 0x44 DUP3 ADD MSTORE PUSH32 0x207061792074686973206F666665722100000000000000000000000000000000 PUSH1 0x64 DUP3 ADD MSTORE PUSH1 0x84 ADD PUSH2 0xB02 JUMP JUMPDEST PUSH1 0x0 DUP4 DUP2 MSTORE PUSH1 0x6A PUSH1 0x20 MSTORE PUSH1 0x40 DUP1 DUP3 KECCAK256 PUSH1 0x1 ADD SLOAD SWAP1 MLOAD PUSH1 0x1 PUSH1 0x1 PUSH1 0xA0 SHL SUB SWAP1 SWAP2 AND SWAP1 CALLVALUE SWAP1 DUP4 DUP2 DUP2 DUP2 DUP6 DUP8 GAS CALL SWAP3 POP POP POP RETURNDATASIZE DUP1 PUSH1 0x0 DUP2 EQ PUSH2 0x1A83 JUMPI PUSH1 0x40 MLOAD SWAP2 POP PUSH1 0x1F NOT PUSH1 0x3F RETURNDATASIZE ADD AND DUP3 ADD PUSH1 0x40 MSTORE RETURNDATASIZE DUP3 MSTORE RETURNDATASIZE PUSH1 0x0 PUSH1 0x20 DUP5 ADD RETURNDATACOPY PUSH2 0x1A88 JUMP JUMPDEST PUSH1 0x60 SWAP2 POP JUMPDEST POP POP SWAP1 POP DUP1 ISZERO PUSH2 0x1B76 JUMPI PUSH1 0x68 SLOAD PUSH1 0x0 DUP6 DUP2 MSTORE PUSH1 0x6A PUSH1 0x20 MSTORE PUSH1 0x40 SWAP1 DUP2 SWAP1 KECCAK256 PUSH1 0x3 ADD SLOAD SWAP1 MLOAD PUSH4 0xA9059CBB PUSH1 0xE0 SHL DUP2 MSTORE CALLER PUSH1 0x4 DUP3 ADD MSTORE PUSH1 0x24 DUP2 ADD SWAP2 SWAP1 SWAP2 MSTORE PUSH1 0x1 PUSH1 0x1 PUSH1 0xA0 SHL SUB SWAP1 SWAP2 AND SWAP1 PUSH4 0xA9059CBB SWAP1 PUSH1 0x44 ADD PUSH1 0x20 PUSH1 0x40 MLOAD DUP1 DUP4 SUB DUP2 PUSH1 0x0 DUP8 GAS CALL ISZERO DUP1 ISZERO PUSH2 0x1AF7 JUMPI RETURNDATASIZE PUSH1 0x0 DUP1 RETURNDATACOPY RETURNDATASIZE PUSH1 0x0 REVERT JUMPDEST POP POP POP POP PUSH1 0x40 MLOAD RETURNDATASIZE PUSH1 0x1F NOT PUSH1 0x1F DUP3 ADD AND DUP3 ADD DUP1 PUSH1 0x40 MSTORE POP DUP2 ADD SWAP1 PUSH2 0x1B1B SWAP2 SWAP1 PUSH2 0x3136 JUMP JUMPDEST POP PUSH1 0x40 MLOAD DUP4 SWAP1 DUP6 SWAP1 PUSH32 0x691646BE7D559E2B121F8BA51F09665C76183FE7ABC9918ED643DA3C219BDE5F SWAP1 PUSH1 0x0 SWAP1 LOG3 PUSH1 0x0 DUP5 DUP2 MSTORE PUSH1 0x6A PUSH1 0x20 SWAP1 DUP2 MSTORE PUSH1 0x40 DUP1 DUP4 KECCAK256 DUP7 DUP5 MSTORE PUSH1 0xA ADD SWAP1 SWAP2 MSTORE SWAP1 KECCAK256 PUSH1 0x2 ADD DUP1 SLOAD PUSH2 0xFF00 NOT AND PUSH2 0x100 OR SWAP1 SSTORE JUMPDEST SWAP4 SWAP3 POP POP POP JUMP JUMPDEST PUSH2 0x1B85 PUSH2 0x27AE JUMP JUMPDEST PUSH2 0x1B8F PUSH1 0x0 PUSH2 0x2A2E JUMP JUMPDEST JUMP JUMPDEST PUSH1 0x65 SLOAD PUSH1 0x40 MLOAD PUSH32 0x7F8D429E00000000000000000000000000000000000000000000000000000000 DUP2 MSTORE PUSH1 0x4 DUP2 ADD DUP4 SWAP1 MSTORE PUSH1 0x0 SWAP2 PUSH1 0x1 PUSH1 0x1 PUSH1 0xA0 SHL SUB AND SWAP1 PUSH4 0x7F8D429E SWAP1 PUSH1 0x24 ADD PUSH1 0x20 PUSH1 0x40 MLOAD DUP1 DUP4 SUB DUP2 DUP7 GAS STATICCALL ISZERO DUP1 ISZERO PUSH2 0x1BF4 JUMPI RETURNDATASIZE PUSH1 0x0 DUP1 RETURNDATACOPY RETURNDATASIZE PUSH1 0x0 REVERT JUMPDEST POP POP POP POP PUSH1 0x40 MLOAD RETURNDATASIZE PUSH1 0x1F NOT PUSH1 0x1F DUP3 ADD AND DUP3 ADD DUP1 PUSH1 0x40 MSTORE POP DUP2 ADD SWAP1 PUSH2 0xC79 SWAP2 SWAP1 PUSH2 0x3136 JUMP JUMPDEST PUSH1 0x65 SLOAD PUSH1 0x40 MLOAD PUSH32 0x82FFA9F700000000000000000000000000000000000000000000000000000000 DUP2 MSTORE PUSH1 0x4 DUP2 ADD DUP4 SWAP1 MSTORE PUSH1 0x0 SWAP2 PUSH1 0x1 PUSH1 0x1 PUSH1 0xA0 SHL SUB AND SWAP1 PUSH4 0x82FFA9F7 SWAP1 PUSH1 0x24 ADD JUMPDEST PUSH1 0x20 PUSH1 0x40 MLOAD DUP1 DUP4 SUB DUP2 DUP7 GAS STATICCALL ISZERO DUP1 ISZERO PUSH2 0x1C7C JUMPI RETURNDATASIZE PUSH1 0x0 DUP1 RETURNDATACOPY RETURNDATASIZE PUSH1 0x0 REVERT JUMPDEST POP POP POP POP PUSH1 0x40 MLOAD RETURNDATASIZE PUSH1 0x1F NOT PUSH1 0x1F DUP3 ADD AND DUP3 ADD DUP1 PUSH1 0x40 MSTORE POP DUP2 ADD SWAP1 PUSH2 0xC79 SWAP2 SWAP1 PUSH2 0x30A3 JUMP JUMPDEST CALLER PUSH1 0x0 SWAP1 DUP2 MSTORE PUSH1 0x6C PUSH1 0x20 MSTORE PUSH1 0x40 DUP2 KECCAK256 SLOAD DUP7 EQ PUSH2 0x1D24 JUMPI PUSH1 0x40 MLOAD PUSH3 0x461BCD PUSH1 0xE5 SHL DUP2 MSTORE PUSH1 0x20 PUSH1 0x4 DUP3 ADD MSTORE PUSH1 0x30 PUSH1 0x24 DUP3 ADD MSTORE PUSH32 0x47525420706F6F6C3A2074686973206E6F6E63652068617320616C7265616479 PUSH1 0x44 DUP3 ADD MSTORE PUSH32 0x206265656E207375626D69747465642100000000000000000000000000000000 PUSH1 0x64 DUP3 ADD MSTORE PUSH1 0x84 ADD PUSH2 0xB02 JUMP JUMPDEST PUSH2 0x1D2D DUP6 PUSH2 0x2808 JUMP JUMPDEST POP PUSH1 0x68 DUP1 SLOAD PUSH1 0x69 SLOAD PUSH1 0x40 DUP1 MLOAD PUSH1 0x20 DUP1 DUP3 ADD DUP13 SWAP1 MSTORE PUSH12 0xFFFFFFFFFFFFFFFFFFFFFFFF NOT CALLER PUSH1 0x60 SWAP1 DUP2 SHL DUP3 AND DUP5 DUP7 ADD MSTORE DUP7 DUP2 SHL DUP3 AND PUSH1 0x54 DUP6 ADD MSTORE SWAP7 DUP4 ADD DUP13 SWAP1 MSTORE PUSH1 0x88 DUP4 ADD DUP6 SWAP1 MSTORE PUSH1 0x0 PUSH1 0xA8 DUP5 ADD MSTORE PUSH1 0xBC DUP4 ADD DUP12 SWAP1 MSTORE PUSH1 0xDC DUP4 ADD DUP11 SWAP1 MSTORE SWAP6 DUP9 SWAP1 SHL SWAP1 SWAP6 AND PUSH1 0xFC DUP3 ADD MSTORE DUP2 MLOAD PUSH1 0xF0 DUP2 DUP4 SUB ADD DUP2 MSTORE PUSH2 0x110 DUP3 ADD DUP1 DUP5 MSTORE DUP2 MLOAD SWAP2 SWAP1 SWAP7 ADD KECCAK256 SWAP3 SWAP1 SWAP5 MSTORE MLOAD SWAP1 SWAP3 DUP9 SWAP3 PUSH1 0x1 PUSH1 0x1 PUSH1 0xA0 SHL SUB AND SWAP2 DUP5 SWAP2 PUSH32 0xC50426A58C328DDE98BF1E6E781031DC1D928393568D3B55D05EAFF42762200A SWAP2 SWAP1 DUP2 SWAP1 SUB PUSH2 0x130 ADD SWAP1 LOG4 PUSH2 0x1DFC DUP2 DUP8 PUSH1 0x0 DUP9 DUP9 DUP9 PUSH2 0x2860 JUMP JUMPDEST POP PUSH1 0x1 SWAP7 SWAP6 POP POP POP POP POP POP JUMP JUMPDEST PUSH1 0x0 DUP3 DUP2 MSTORE PUSH1 0x6A PUSH1 0x20 SWAP1 DUP2 MSTORE PUSH1 0x40 DUP1 DUP4 KECCAK256 DUP5 DUP5 MSTORE PUSH1 0xA ADD SWAP1 SWAP2 MSTORE DUP2 KECCAK256 PUSH1 0x2 ADD SLOAD PUSH1 0xFF AND PUSH2 0x1E8F JUMPI PUSH1 0x40 MLOAD PUSH3 0x461BCD PUSH1 0xE5 SHL DUP2 MSTORE PUSH1 0x20 PUSH1 0x4 DUP3 ADD MSTORE PUSH1 0x2E PUSH1 0x24 DUP3 ADD MSTORE PUSH32 0x47525420706F6F6C3A20746865206F6666657220686173206E6F74206265656E PUSH1 0x44 DUP3 ADD MSTORE PUSH14 0x2061636365707465642079657421 PUSH1 0x90 SHL PUSH1 0x64 DUP3 ADD MSTORE PUSH1 0x84 ADD PUSH2 0xB02 JUMP JUMPDEST PUSH1 0x0 DUP4 DUP2 MSTORE PUSH1 0x6A PUSH1 0x20 SWAP1 DUP2 MSTORE PUSH1 0x40 DUP1 DUP4 KECCAK256 DUP6 DUP5 MSTORE PUSH1 0xA ADD SWAP1 SWAP2 MSTORE SWAP1 KECCAK256 PUSH1 0x2 ADD SLOAD PUSH2 0x100 SWAP1 DIV PUSH1 0xFF AND ISZERO PUSH2 0x1F17 JUMPI PUSH1 0x40 MLOAD PUSH3 0x461BCD PUSH1 0xE5 SHL DUP2 MSTORE PUSH1 0x20 PUSH1 0x4 DUP3 ADD MSTORE PUSH1 0x2A PUSH1 0x24 DUP3 ADD MSTORE PUSH32 0x47525420706F6F6C3A20746865206F666665722068617320616C726561647920 PUSH1 0x44 DUP3 ADD MSTORE PUSH10 0x6265656E207061696421 PUSH1 0xB0 SHL PUSH1 0x64 DUP3 ADD MSTORE PUSH1 0x84 ADD PUSH2 0xB02 JUMP JUMPDEST PUSH1 0x0 DUP4 DUP2 MSTORE PUSH1 0x6A PUSH1 0x20 MSTORE PUSH1 0x40 SWAP1 KECCAK256 PUSH1 0x7 ADD SLOAD CHAINID EQ PUSH2 0x1F9D JUMPI PUSH1 0x40 MLOAD PUSH3 0x461BCD PUSH1 0xE5 SHL DUP2 MSTORE PUSH1 0x20 PUSH1 0x4 DUP3 ADD MSTORE PUSH1 0x35 PUSH1 0x24 DUP3 ADD MSTORE PUSH32 0x47525420706F6F6C3A20746865206F666665722073686F756C64206E6F742062 PUSH1 0x44 DUP3 ADD MSTORE PUSH32 0x652070616964206F6E207468697320636861696E210000000000000000000000 PUSH1 0x64 DUP3 ADD MSTORE PUSH1 0x84 ADD PUSH2 0xB02 JUMP JUMPDEST PUSH1 0x0 DUP4 DUP2 MSTORE PUSH1 0x6A PUSH1 0x20 SWAP1 DUP2 MSTORE PUSH1 0x40 DUP1 DUP4 KECCAK256 DUP6 DUP5 MSTORE PUSH1 0xA ADD SWAP1 SWAP2 MSTORE SWAP1 KECCAK256 SLOAD PUSH1 0x1 PUSH1 0x1 PUSH1 0xA0 SHL SUB AND CALLER EQ PUSH2 0x2037 JUMPI PUSH1 0x40 MLOAD PUSH3 0x461BCD PUSH1 0xE5 SHL DUP2 MSTORE PUSH1 0x20 PUSH1 0x4 DUP3 ADD MSTORE PUSH1 0x30 PUSH1 0x24 DUP3 ADD MSTORE PUSH32 0x47525420706F6F6C3A20796F7520617265206E6F7420616C6C6F77656420746F PUSH1 0x44 DUP3 ADD MSTORE PUSH32 0x207061792074686973206F666665722100000000000000000000000000000000 PUSH1 0x64 DUP3 ADD MSTORE PUSH1 0x84 ADD PUSH2 0xB02 JUMP JUMPDEST PUSH1 0x0 DUP4 DUP2 MSTORE PUSH1 0x6A PUSH1 0x20 MSTORE PUSH1 0x40 SWAP1 DUP2 SWAP1 KECCAK256 PUSH1 0x5 DUP2 ADD SLOAD PUSH1 0x1 DUP3 ADD SLOAD PUSH1 0x6 SWAP1 SWAP3 ADD SLOAD SWAP3 MLOAD PUSH4 0x23B872DD PUSH1 0xE0 SHL DUP2 MSTORE CALLER PUSH1 0x4 DUP3 ADD MSTORE PUSH1 0x1 PUSH1 0x1 PUSH1 0xA0 SHL SUB SWAP3 DUP4 AND PUSH1 0x24 DUP3 ADD MSTORE PUSH1 0x44 DUP2 ADD SWAP4 SWAP1 SWAP4 MSTORE AND SWAP1 PUSH4 0x23B872DD SWAP1 PUSH1 0x64 ADD PUSH1 0x20 PUSH1 0x40 MLOAD DUP1 DUP4 SUB DUP2 PUSH1 0x0 DUP8 GAS CALL ISZERO DUP1 ISZERO PUSH2 0x20AB JUMPI RETURNDATASIZE PUSH1 0x0 DUP1 RETURNDATACOPY RETURNDATASIZE PUSH1 0x0 REVERT JUMPDEST POP POP POP POP PUSH1 0x40 MLOAD RETURNDATASIZE PUSH1 0x1F NOT PUSH1 0x1F DUP3 ADD AND DUP3 ADD DUP1 PUSH1 0x40 MSTORE POP DUP2 ADD SWAP1 PUSH2 0x20CF SWAP2 SWAP1 PUSH2 0x3136 JUMP JUMPDEST POP PUSH1 0x68 SLOAD PUSH1 0x0 DUP5 DUP2 MSTORE PUSH1 0x6A PUSH1 0x20 MSTORE PUSH1 0x40 SWAP1 DUP2 SWAP1 KECCAK256 PUSH1 0x3 ADD SLOAD SWAP1 MLOAD PUSH4 0xA9059CBB PUSH1 0xE0 SHL DUP2 MSTORE CALLER PUSH1 0x4 DUP3 ADD MSTORE PUSH1 0x24 DUP2 ADD SWAP2 SWAP1 SWAP2 MSTORE PUSH1 0x1 PUSH1 0x1 PUSH1 0xA0 SHL SUB SWAP1 SWAP2 AND SWAP1 PUSH4 0xA9059CBB SWAP1 PUSH1 0x44 ADD PUSH1 0x20 PUSH1 0x40 MLOAD DUP1 DUP4 SUB DUP2 PUSH1 0x0 DUP8 GAS CALL ISZERO DUP1 ISZERO PUSH2 0x2135 JUMPI RETURNDATASIZE PUSH1 0x0 DUP1 RETURNDATACOPY RETURNDATASIZE PUSH1 0x0 REVERT JUMPDEST POP POP POP POP PUSH1 0x40 MLOAD RETURNDATASIZE PUSH1 0x1F NOT PUSH1 0x1F DUP3 ADD AND DUP3 ADD DUP1 PUSH1 0x40 MSTORE POP DUP2 ADD SWAP1 PUSH2 0x2159 SWAP2 SWAP1 PUSH2 0x3136 JUMP JUMPDEST POP PUSH1 0x40 MLOAD DUP3 SWAP1 DUP5 SWAP1 PUSH32 0x691646BE7D559E2B121F8BA51F09665C76183FE7ABC9918ED643DA3C219BDE5F SWAP1 PUSH1 0x0 SWAP1 LOG3 POP PUSH1 0x0 DUP3 DUP2 MSTORE PUSH1 0x6A PUSH1 0x20 SWAP1 DUP2 MSTORE PUSH1 0x40 DUP1 DUP4 KECCAK256 DUP5 DUP5 MSTORE PUSH1 0xA ADD SWAP1 SWAP2 MSTORE SWAP1 KECCAK256 PUSH1 0x2 ADD DUP1 SLOAD PUSH2 0xFF00 NOT AND PUSH2 0x100 OR SWAP1 SSTORE PUSH1 0x1 SWAP3 SWAP2 POP POP JUMP JUMPDEST PUSH1 0x65 SLOAD PUSH1 0x40 MLOAD PUSH32 0xA462FB7B00000000000000000000000000000000000000000000000000000000 DUP2 MSTORE PUSH1 0x4 DUP2 ADD DUP4 SWAP1 MSTORE PUSH1 0x0 SWAP2 PUSH1 0x1 PUSH1 0x1 PUSH1 0xA0 SHL SUB AND SWAP1 PUSH4 0xA462FB7B SWAP1 PUSH1 0x24 ADD PUSH2 0x1C5F JUMP JUMPDEST PUSH1 0x0 PUSH2 0x2212 DUP3 PUSH2 0x2808 JUMP JUMPDEST POP PUSH1 0x40 MLOAD DUP3 SWAP1 CALLER SWAP1 PUSH32 0x3DBDCFD4C1F2E08931AAE3D544E149A1E643143F5234D166FE3DEBB783388495 SWAP1 PUSH1 0x0 SWAP1 LOG3 CALLER PUSH1 0x0 SWAP1 DUP2 MSTORE PUSH1 0x6B PUSH1 0x20 MSTORE PUSH1 0x40 DUP2 KECCAK256 DUP1 SLOAD DUP5 SWAP3 SWAP1 PUSH2 0x225F SWAP1 DUP5 SWAP1 PUSH2 0x3158 JUMP JUMPDEST SWAP1 SWAP2 SSTORE POP PUSH1 0x1 SWAP4 SWAP3 POP POP POP JUMP JUMPDEST PUSH1 0x0 DUP3 DUP2 MSTORE PUSH1 0x6A PUSH1 0x20 MSTORE PUSH1 0x40 DUP2 KECCAK256 PUSH1 0x8 ADD SLOAD PUSH1 0xFF AND PUSH2 0x22DB JUMPI PUSH1 0x40 MLOAD PUSH3 0x461BCD PUSH1 0xE5 SHL DUP2 MSTORE PUSH1 0x20 PUSH1 0x4 DUP3 ADD MSTORE PUSH1 0x25 PUSH1 0x24 DUP3 ADD MSTORE PUSH32 0x47525420706F6F6C3A20746865207265717565737420646F6573206E6F742065 PUSH1 0x44 DUP3 ADD MSTORE PUSH5 0x7869737421 PUSH1 0xD8 SHL PUSH1 0x64 DUP3 ADD MSTORE PUSH1 0x84 ADD PUSH2 0xB02 JUMP JUMPDEST PUSH1 0x0 DUP4 DUP2 MSTORE PUSH1 0x6A PUSH1 0x20 SWAP1 DUP2 MSTORE PUSH1 0x40 DUP1 DUP4 KECCAK256 DUP6 DUP5 MSTORE PUSH1 0xA ADD SWAP1 SWAP2 MSTORE SWAP1 KECCAK256 PUSH1 0x2 ADD SLOAD PUSH1 0xFF AND PUSH2 0x2361 JUMPI PUSH1 0x40 MLOAD PUSH3 0x461BCD PUSH1 0xE5 SHL DUP2 MSTORE PUSH1 0x20 PUSH1 0x4 DUP3 ADD MSTORE PUSH1 0x2E PUSH1 0x24 DUP3 ADD MSTORE PUSH32 0x47525420706F6F6C3A20746865206F6666657220686173206E6F74206265656E PUSH1 0x44 DUP3 ADD MSTORE PUSH14 0x2061636365707465642079657421 PUSH1 0x90 SHL PUSH1 0x64 DUP3 ADD MSTORE PUSH1 0x84 ADD PUSH2 0xB02 JUMP JUMPDEST PUSH1 0x0 DUP4 DUP2 MSTORE PUSH1 0x6A PUSH1 0x20 SWAP1 DUP2 MSTORE PUSH1 0x40 DUP1 DUP4 KECCAK256 DUP6 DUP5 MSTORE PUSH1 0xA ADD SWAP1 SWAP2 MSTORE SWAP1 KECCAK256 PUSH1 0x2 ADD SLOAD PUSH2 0x100 SWAP1 DIV PUSH1 0xFF AND ISZERO PUSH2 0x23E9 JUMPI PUSH1 0x40 MLOAD PUSH3 0x461BCD PUSH1 0xE5 SHL DUP2 MSTORE PUSH1 0x20 PUSH1 0x4 DUP3 ADD MSTORE PUSH1 0x2A PUSH1 0x24 DUP3 ADD MSTORE PUSH32 0x47525420706F6F6C3A20746865206F666665722068617320616C726561647920 PUSH1 0x44 DUP3 ADD MSTORE PUSH10 0x6265656E207061696421 PUSH1 0xB0 SHL PUSH1 0x64 DUP3 ADD MSTORE PUSH1 0x84 ADD PUSH2 0xB02 JUMP JUMPDEST PUSH1 0x0 DUP4 DUP2 MSTORE PUSH1 0x6A PUSH1 0x20 SWAP1 DUP2 MSTORE PUSH1 0x40 DUP1 DUP4 KECCAK256 DUP6 DUP5 MSTORE PUSH1 0xA ADD SWAP1 SWAP2 MSTORE SWAP1 KECCAK256 SLOAD PUSH1 0x1 PUSH1 0x1 PUSH1 0xA0 SHL SUB AND CALLER EQ PUSH2 0x2483 JUMPI PUSH1 0x40 MLOAD PUSH3 0x461BCD PUSH1 0xE5 SHL DUP2 MSTORE PUSH1 0x20 PUSH1 0x4 DUP3 ADD MSTORE PUSH1 0x31 PUSH1 0x24 DUP3 ADD MSTORE PUSH32 0x47525420706F6F6C3A20796F7520617265206E6F7420616C6C6F77656420746F PUSH1 0x44 DUP3 ADD MSTORE PUSH32 0x206D616B65207468697320636C61696D21000000000000000000000000000000 PUSH1 0x64 DUP3 ADD MSTORE PUSH1 0x84 ADD PUSH2 0xB02 JUMP JUMPDEST PUSH1 0x68 SLOAD PUSH1 0x0 DUP5 DUP2 MSTORE PUSH1 0x6A PUSH1 0x20 DUP2 DUP2 MSTORE PUSH1 0x40 DUP1 DUP5 KECCAK256 DUP8 DUP6 MSTORE PUSH1 0xA DUP2 ADD DUP4 MSTORE DUP2 DUP6 KECCAK256 SLOAD SWAP5 DUP10 SWAP1 MSTORE SWAP3 SWAP1 SWAP2 MSTORE PUSH1 0x3 SWAP1 SWAP2 ADD SLOAD SWAP1 MLOAD PUSH4 0xA9059CBB PUSH1 0xE0 SHL DUP2 MSTORE PUSH1 0x1 PUSH1 0x1 PUSH1 0xA0 SHL SUB SWAP3 DUP4 AND PUSH1 0x4 DUP3 ADD MSTORE PUSH1 0x24 DUP2 ADD SWAP2 SWAP1 SWAP2 MSTORE SWAP2 AND SWAP1 PUSH4 0xA9059CBB SWAP1 PUSH1 0x44 ADD PUSH1 0x20 PUSH1 0x40 MLOAD DUP1 DUP4 SUB DUP2 PUSH1 0x0 DUP8 GAS CALL ISZERO DUP1 ISZERO PUSH2 0x2501 JUMPI RETURNDATASIZE PUSH1 0x0 DUP1 RETURNDATACOPY RETURNDATASIZE PUSH1 0x0 REVERT JUMPDEST POP POP POP POP PUSH1 0x40 MLOAD RETURNDATASIZE PUSH1 0x1F NOT PUSH1 0x1F DUP3 ADD AND DUP3 ADD DUP1 PUSH1 0x40 MSTORE POP DUP2 ADD SWAP1 PUSH2 0x2525 SWAP2 SWAP1 PUSH2 0x3136 JUMP JUMPDEST POP PUSH1 0x40 MLOAD DUP3 SWAP1 DUP5 SWAP1 PUSH32 0x2B447358A077DEDDDAD023F2778D84AFC7DE0E9E65674CBFACE9E94B74916FF0 SWAP1 PUSH1 0x0 SWAP1 LOG3 POP PUSH1 0x0 DUP3 DUP2 MSTORE PUSH1 0x6A PUSH1 0x20 SWAP1 DUP2 MSTORE PUSH1 0x40 DUP1 DUP4 KECCAK256 DUP5 DUP5 MSTORE PUSH1 0xA ADD SWAP1 SWAP2 MSTORE SWAP1 KECCAK256 PUSH1 0x2 ADD DUP1 SLOAD PUSH2 0xFF00 NOT AND PUSH2 0x100 OR SWAP1 SSTORE PUSH1 0x1 SWAP3 SWAP2 POP POP JUMP JUMPDEST PUSH2 0x2590 PUSH2 0x27AE JUMP JUMPDEST PUSH1 0x65 DUP1 SLOAD PUSH1 0x1 PUSH1 0x1 PUSH1 0xA0 SHL SUB NOT AND PUSH1 0x1 PUSH1 0x1 PUSH1 0xA0 SHL SUB SWAP3 SWAP1 SWAP3 AND SWAP2 SWAP1 SWAP2 OR SWAP1 SSTORE JUMP JUMPDEST PUSH1 0x0 SLOAD PUSH2 0x100 SWAP1 DIV PUSH1 0xFF AND ISZERO DUP1 DUP1 ISZERO PUSH2 0x25D2 JUMPI POP PUSH1 0x0 SLOAD PUSH1 0x1 PUSH1 0xFF SWAP1 SWAP2 AND LT JUMPDEST DUP1 PUSH2 0x25EC JUMPI POP ADDRESS EXTCODESIZE ISZERO DUP1 ISZERO PUSH2 0x25EC JUMPI POP PUSH1 0x0 SLOAD PUSH1 0xFF AND PUSH1 0x1 EQ JUMPDEST PUSH2 0x265E JUMPI PUSH1 0x40 MLOAD PUSH3 0x461BCD PUSH1 0xE5 SHL DUP2 MSTORE PUSH1 0x20 PUSH1 0x4 DUP3 ADD MSTORE PUSH1 0x2E PUSH1 0x24 DUP3 ADD MSTORE PUSH32 0x496E697469616C697A61626C653A20636F6E747261637420697320616C726561 PUSH1 0x44 DUP3 ADD MSTORE PUSH32 0x647920696E697469616C697A6564000000000000000000000000000000000000 PUSH1 0x64 DUP3 ADD MSTORE PUSH1 0x84 ADD PUSH2 0xB02 JUMP JUMPDEST PUSH1 0x0 DUP1 SLOAD PUSH1 0xFF NOT AND PUSH1 0x1 OR SWAP1 SSTORE DUP1 ISZERO PUSH2 0x2681 JUMPI PUSH1 0x0 DUP1 SLOAD PUSH2 0xFF00 NOT AND PUSH2 0x100 OR SWAP1 SSTORE JUMPDEST PUSH2 0x2689 PUSH2 0x2A80 JUMP JUMPDEST PUSH1 0x68 DUP1 SLOAD PUSH1 0x1 PUSH1 0x1 PUSH1 0xA0 SHL SUB DUP7 AND PUSH1 0x1 PUSH1 0x1 PUSH1 0xA0 SHL SUB NOT SWAP1 SWAP2 AND OR SWAP1 SSTORE PUSH1 0x69 DUP4 SWAP1 SSTORE PUSH2 0x26D2 DUP3 PUSH1 0x65 DUP1 SLOAD PUSH1 0x1 PUSH1 0x1 PUSH1 0xA0 SHL SUB SWAP1 SWAP3 AND PUSH1 0x1 PUSH1 0x1 PUSH1 0xA0 SHL SUB NOT SWAP1 SWAP3 AND SWAP2 SWAP1 SWAP2 OR SWAP1 SSTORE JUMP JUMPDEST DUP1 ISZERO PUSH2 0x2718 JUMPI PUSH1 0x0 DUP1 SLOAD PUSH2 0xFF00 NOT AND SWAP1 SSTORE PUSH1 0x40 MLOAD PUSH1 0x1 DUP2 MSTORE PUSH32 0x7F26B83FF96E1F2B6A682F133852F6798A09C465DA95921460CEFB3847402498 SWAP1 PUSH1 0x20 ADD PUSH1 0x40 MLOAD DUP1 SWAP2 SUB SWAP1 LOG1 JUMPDEST POP POP POP POP JUMP JUMPDEST PUSH2 0x2726 PUSH2 0x27AE JUMP JUMPDEST PUSH1 0x1 PUSH1 0x1 PUSH1 0xA0 SHL SUB DUP2 AND PUSH2 0x27A2 JUMPI PUSH1 0x40 MLOAD PUSH3 0x461BCD PUSH1 0xE5 SHL DUP2 MSTORE PUSH1 0x20 PUSH1 0x4 DUP3 ADD MSTORE PUSH1 0x26 PUSH1 0x24 DUP3 ADD MSTORE PUSH32 0x4F776E61626C653A206E6577206F776E657220697320746865207A65726F2061 PUSH1 0x44 DUP3 ADD MSTORE PUSH32 0x6464726573730000000000000000000000000000000000000000000000000000 PUSH1 0x64 DUP3 ADD MSTORE PUSH1 0x84 ADD PUSH2 0xB02 JUMP JUMPDEST PUSH2 0x27AB DUP2 PUSH2 0x2A2E JUMP JUMPDEST POP JUMP JUMPDEST PUSH1 0x33 SLOAD PUSH1 0x1 PUSH1 0x1 PUSH1 0xA0 SHL SUB AND CALLER EQ PUSH2 0x1B8F JUMPI PUSH1 0x40 MLOAD PUSH3 0x461BCD PUSH1 0xE5 SHL DUP2 MSTORE PUSH1 0x20 PUSH1 0x4 DUP3 ADD DUP2 SWAP1 MSTORE PUSH1 0x24 DUP3 ADD MSTORE PUSH32 0x4F776E61626C653A2063616C6C6572206973206E6F7420746865206F776E6572 PUSH1 0x44 DUP3 ADD MSTORE PUSH1 0x64 ADD PUSH2 0xB02 JUMP JUMPDEST PUSH1 0x68 SLOAD PUSH1 0x40 MLOAD PUSH4 0x23B872DD PUSH1 0xE0 SHL DUP2 MSTORE CALLER PUSH1 0x4 DUP3 ADD MSTORE ADDRESS PUSH1 0x24 DUP3 ADD MSTORE PUSH1 0x44 DUP2 ADD DUP4 SWAP1 MSTORE PUSH1 0x0 SWAP2 PUSH1 0x1 PUSH1 0x1 PUSH1 0xA0 SHL SUB AND SWAP1 PUSH4 0x23B872DD SWAP1 PUSH1 0x64 ADD PUSH1 0x20 PUSH1 0x40 MLOAD DUP1 DUP4 SUB DUP2 PUSH1 0x0 DUP8 GAS CALL ISZERO DUP1 ISZERO PUSH2 0x1BF4 JUMPI RETURNDATASIZE PUSH1 0x0 DUP1 RETURNDATACOPY RETURNDATASIZE PUSH1 0x0 REVERT JUMPDEST DUP3 DUP5 PUSH1 0x1 PUSH1 0x1 PUSH1 0xA0 SHL SUB AND DUP8 PUSH32 0x4FC5208F862C96A2A2595F09440919E8BDA929D3E9B14A6E5FCAC7C4CB8F5F59 DUP6 PUSH1 0x40 MLOAD PUSH2 0x289D SWAP2 DUP2 MSTORE PUSH1 0x20 ADD SWAP1 JUMP JUMPDEST PUSH1 0x40 MLOAD DUP1 SWAP2 SUB SWAP1 LOG4 PUSH1 0x0 DUP7 DUP2 MSTORE PUSH1 0x6A PUSH1 0x20 MSTORE PUSH1 0x40 SWAP1 KECCAK256 DUP1 SLOAD PUSH1 0x1 PUSH1 0x1 PUSH1 0xA0 SHL SUB NOT SWAP1 DUP2 AND CALLER OR DUP3 SSTORE PUSH1 0x1 DUP3 ADD DUP1 SLOAD PUSH1 0x1 PUSH1 0x1 PUSH1 0xA0 SHL SUB DUP6 DUP2 AND SWAP2 SWAP1 SWAP4 AND OR SWAP1 SSTORE PUSH1 0x68 SLOAD PUSH1 0x69 SLOAD PUSH2 0x28F3 SWAP3 SWAP2 SWAP1 SWAP2 AND SWAP1 DUP9 SWAP1 PUSH2 0x2AF3 JUMP JUMPDEST DUP1 MLOAD PUSH1 0x2 DUP4 ADD DUP1 SLOAD PUSH1 0x1 PUSH1 0x1 PUSH1 0xA0 SHL SUB NOT AND PUSH1 0x1 PUSH1 0x1 PUSH1 0xA0 SHL SUB SWAP1 SWAP3 AND SWAP2 SWAP1 SWAP2 OR SWAP1 SSTORE PUSH1 0x20 DUP2 ADD MLOAD PUSH1 0x3 DUP4 ADD SSTORE PUSH1 0x40 ADD MLOAD PUSH1 0x4 DUP3 ADD SSTORE PUSH2 0x2934 DUP6 DUP6 DUP6 PUSH2 0x2AF3 JUMP JUMPDEST DUP1 MLOAD PUSH1 0x5 DUP4 ADD DUP1 SLOAD PUSH1 0x1 PUSH1 0x1 PUSH1 0xA0 SHL SUB NOT AND PUSH1 0x1 PUSH1 0x1 PUSH1 0xA0 SHL SUB SWAP1 SWAP3 AND SWAP2 SWAP1 SWAP2 OR SWAP1 SSTORE PUSH1 0x20 DUP1 DUP3 ADD MLOAD PUSH1 0x6 DUP5 ADD SSTORE PUSH1 0x40 SWAP2 DUP3 ADD MLOAD PUSH1 0x7 DUP5 ADD SSTORE PUSH1 0x8 DUP4 ADD DUP1 SLOAD PUSH1 0xFF NOT AND PUSH1 0x1 OR SWAP1 SSTORE CALLER PUSH1 0x0 SWAP1 DUP2 MSTORE PUSH1 0x6C SWAP1 SWAP2 MSTORE SWAP1 DUP2 KECCAK256 DUP1 SLOAD SWAP2 PUSH2 0x2996 DUP4 PUSH2 0x30D2 JUMP JUMPDEST SWAP2 SWAP1 POP SSTORE POP POP POP POP POP POP POP POP JUMP JUMPDEST PUSH1 0x65 SLOAD PUSH1 0x40 MLOAD PUSH32 0x1101A0FD00000000000000000000000000000000000000000000000000000000 DUP2 MSTORE PUSH1 0x1 PUSH1 0x1 PUSH1 0xA0 SHL SUB SWAP1 SWAP2 AND SWAP1 PUSH4 0x1101A0FD SWAP1 PUSH2 0x29F5 SWAP1 DUP9 SWAP1 DUP9 SWAP1 DUP9 SWAP1 DUP9 SWAP1 DUP9 SWAP1 PUSH1 0x4 ADD PUSH2 0x31A6 JUMP JUMPDEST PUSH1 0x0 PUSH1 0x40 MLOAD DUP1 DUP4 SUB DUP2 PUSH1 0x0 DUP8 DUP1 EXTCODESIZE ISZERO DUP1 ISZERO PUSH2 0x2A0F JUMPI PUSH1 0x0 DUP1 REVERT JUMPDEST POP GAS CALL ISZERO DUP1 ISZERO PUSH2 0x2A23 JUMPI RETURNDATASIZE PUSH1 0x0 DUP1 RETURNDATACOPY RETURNDATASIZE PUSH1 0x0 REVERT JUMPDEST POP POP POP POP POP POP POP POP POP JUMP JUMPDEST PUSH1 0x33 DUP1 SLOAD PUSH1 0x1 PUSH1 0x1 PUSH1 0xA0 SHL SUB DUP4 DUP2 AND PUSH1 0x1 PUSH1 0x1 PUSH1 0xA0 SHL SUB NOT DUP4 AND DUP2 OR SWAP1 SWAP4 SSTORE PUSH1 0x40 MLOAD SWAP2 AND SWAP2 SWAP1 DUP3 SWAP1 PUSH32 0x8BE0079C531659141344CD1FD0A4F28419497F9722A3DAAFE3B4186F6B6457E0 SWAP1 PUSH1 0x0 SWAP1 LOG3 POP POP JUMP JUMPDEST PUSH1 0x0 SLOAD PUSH2 0x100 SWAP1 DIV PUSH1 0xFF AND PUSH2 0x2AEB JUMPI PUSH1 0x40 MLOAD PUSH3 0x461BCD PUSH1 0xE5 SHL DUP2 MSTORE PUSH1 0x20 PUSH1 0x4 DUP3 ADD MSTORE PUSH1 0x2B PUSH1 0x24 DUP3 ADD MSTORE PUSH32 0x496E697469616C697A61626C653A20636F6E7472616374206973206E6F742069 PUSH1 0x44 DUP3 ADD MSTORE PUSH11 0x6E697469616C697A696E67 PUSH1 0xA8 SHL PUSH1 0x64 DUP3 ADD MSTORE PUSH1 0x84 ADD PUSH2 0xB02 JUMP JUMPDEST PUSH2 0x1B8F PUSH2 0x2B47 JUMP JUMPDEST PUSH2 0x2B20 PUSH1 0x40 MLOAD DUP1 PUSH1 0x60 ADD PUSH1 0x40 MSTORE DUP1 PUSH1 0x0 PUSH1 0x1 PUSH1 0x1 PUSH1 0xA0 SHL SUB AND DUP2 MSTORE PUSH1 0x20 ADD PUSH1 0x0 DUP2 MSTORE PUSH1 0x20 ADD PUSH1 0x0 DUP2 MSTORE POP SWAP1 JUMP JUMPDEST POP PUSH1 0x40 DUP1 MLOAD PUSH1 0x60 DUP2 ADD DUP3 MSTORE PUSH1 0x1 PUSH1 0x1 PUSH1 0xA0 SHL SUB SWAP1 SWAP5 AND DUP5 MSTORE PUSH1 0x20 DUP5 ADD SWAP3 SWAP1 SWAP3 MSTORE SWAP1 DUP3 ADD MSTORE SWAP1 JUMP JUMPDEST PUSH1 0x0 SLOAD PUSH2 0x100 SWAP1 DIV PUSH1 0xFF AND PUSH2 0x2BB2 JUMPI PUSH1 0x40 MLOAD PUSH3 0x461BCD PUSH1 0xE5 SHL DUP2 MSTORE PUSH1 0x20 PUSH1 0x4 DUP3 ADD MSTORE PUSH1 0x2B PUSH1 0x24 DUP3 ADD MSTORE PUSH32 0x496E697469616C697A61626C653A20636F6E7472616374206973206E6F742069 PUSH1 0x44 DUP3 ADD MSTORE PUSH11 0x6E697469616C697A696E67 PUSH1 0xA8 SHL PUSH1 0x64 DUP3 ADD MSTORE PUSH1 0x84 ADD PUSH2 0xB02 JUMP JUMPDEST PUSH2 0x1B8F CALLER PUSH2 0x2A2E JUMP JUMPDEST PUSH4 0x4E487B71 PUSH1 0xE0 SHL PUSH1 0x0 MSTORE PUSH1 0x41 PUSH1 0x4 MSTORE PUSH1 0x24 PUSH1 0x0 REVERT JUMPDEST PUSH1 0x40 MLOAD PUSH1 0x1F DUP3 ADD PUSH1 0x1F NOT AND DUP2 ADD PUSH8 0xFFFFFFFFFFFFFFFF DUP2 GT DUP3 DUP3 LT OR ISZERO PUSH2 0x2BFA JUMPI PUSH2 0x2BFA PUSH2 0x2BBB JUMP JUMPDEST PUSH1 0x40 MSTORE SWAP2 SWAP1 POP JUMP JUMPDEST PUSH1 0x0 DUP3 PUSH1 0x1F DUP4 ADD SLT PUSH2 0x2C13 JUMPI PUSH1 0x0 DUP1 REVERT JUMPDEST DUP2 CALLDATALOAD PUSH8 0xFFFFFFFFFFFFFFFF DUP2 GT ISZERO PUSH2 0x2C2D JUMPI PUSH2 0x2C2D PUSH2 0x2BBB JUMP JUMPDEST PUSH2 0x2C40 PUSH1 0x1F DUP3 ADD PUSH1 0x1F NOT AND PUSH1 0x20 ADD PUSH2 0x2BD1 JUMP JUMPDEST DUP2 DUP2 MSTORE DUP5 PUSH1 0x20 DUP4 DUP7 ADD ADD GT ISZERO PUSH2 0x2C55 JUMPI PUSH1 0x0 DUP1 REVERT JUMPDEST DUP2 PUSH1 0x20 DUP6 ADD PUSH1 0x20 DUP4 ADD CALLDATACOPY PUSH1 0x0 SWAP2 DUP2 ADD PUSH1 0x20 ADD SWAP2 SWAP1 SWAP2 MSTORE SWAP4 SWAP3 POP POP POP JUMP JUMPDEST PUSH1 0x0 PUSH1 0x20 DUP3 DUP5 SUB SLT ISZERO PUSH2 0x2C84 JUMPI PUSH1 0x0 DUP1 REVERT JUMPDEST DUP2 CALLDATALOAD PUSH8 0xFFFFFFFFFFFFFFFF DUP2 GT ISZERO PUSH2 0x2C9B JUMPI PUSH1 0x0 DUP1 REVERT JUMPDEST PUSH2 0x2CA7 DUP5 DUP3 DUP6 ADD PUSH2 0x2C02 JUMP JUMPDEST SWAP5 SWAP4 POP POP POP POP JUMP JUMPDEST PUSH1 0x0 DUP1 PUSH1 0x40 DUP4 DUP6 SUB SLT ISZERO PUSH2 0x2CC2 JUMPI PUSH1 0x0 DUP1 REVERT JUMPDEST POP POP DUP1 CALLDATALOAD SWAP3 PUSH1 0x20 SWAP1 SWAP2 ADD CALLDATALOAD SWAP2 POP JUMP JUMPDEST PUSH1 0x0 PUSH1 0x20 DUP3 DUP5 SUB SLT ISZERO PUSH2 0x2CE3 JUMPI PUSH1 0x0 DUP1 REVERT JUMPDEST POP CALLDATALOAD SWAP2 SWAP1 POP JUMP JUMPDEST DUP1 CALLDATALOAD PUSH1 0x1 PUSH1 0x1 PUSH1 0xA0 SHL SUB DUP2 AND DUP2 EQ PUSH2 0xA92 JUMPI PUSH1 0x0 DUP1 REVERT JUMPDEST PUSH1 0x0 PUSH1 0x20 DUP3 DUP5 SUB SLT ISZERO PUSH2 0x2D13 JUMPI PUSH1 0x0 DUP1 REVERT JUMPDEST PUSH2 0x1B76 DUP3 PUSH2 0x2CEA JUMP JUMPDEST PUSH1 0x0 DUP1 PUSH1 0x0 DUP1 PUSH1 0x0 DUP1 PUSH1 0x0 DUP1 PUSH2 0x100 DUP10 DUP12 SUB SLT ISZERO PUSH2 0x2D39 JUMPI PUSH1 0x0 DUP1 REVERT JUMPDEST DUP9 CALLDATALOAD PUSH8 0xFFFFFFFFFFFFFFFF DUP2 GT ISZERO PUSH2 0x2D50 JUMPI PUSH1 0x0 DUP1 REVERT JUMPDEST PUSH2 0x2D5C DUP12 DUP3 DUP13 ADD PUSH2 0x2C02 JUMP JUMPDEST SWAP9 POP POP PUSH1 0x20 DUP10 ADD CALLDATALOAD SWAP7 POP PUSH1 0x40 DUP10 ADD CALLDATALOAD SWAP6 POP PUSH2 0x2D79 PUSH1 0x60 DUP11 ADD PUSH2 0x2CEA JUMP JUMPDEST SWAP5 POP PUSH2 0x2D87 PUSH1 0x80 DUP11 ADD PUSH2 0x2CEA JUMP JUMPDEST SWAP4 POP PUSH2 0x2D95 PUSH1 0xA0 DUP11 ADD PUSH2 0x2CEA JUMP JUMPDEST SWAP3 POP PUSH1 0xC0 DUP10 ADD CALLDATALOAD SWAP2 POP PUSH1 0xE0 DUP10 ADD CALLDATALOAD SWAP1 POP SWAP3 SWAP6 SWAP9 POP SWAP3 SWAP6 SWAP9 SWAP1 SWAP4 SWAP7 POP JUMP JUMPDEST PUSH1 0x0 DUP1 PUSH1 0x0 DUP1 PUSH1 0x0 DUP1 PUSH1 0xC0 DUP8 DUP10 SUB SLT ISZERO PUSH2 0x2DCB JUMPI PUSH1 0x0 DUP1 REVERT JUMPDEST DUP7 CALLDATALOAD SWAP6 POP PUSH1 0x20 DUP8 ADD CALLDATALOAD SWAP5 POP PUSH2 0x2DE2 PUSH1 0x40 DUP9 ADD PUSH2 0x2CEA JUMP JUMPDEST SWAP4 POP PUSH1 0x60 DUP8 ADD CALLDATALOAD SWAP3 POP PUSH1 0x80 DUP8 ADD CALLDATALOAD SWAP2 POP PUSH2 0x2DFE PUSH1 0xA0 DUP9 ADD PUSH2 0x2CEA JUMP JUMPDEST SWAP1 POP SWAP3 SWAP6 POP SWAP3 SWAP6 POP SWAP3 SWAP6 JUMP JUMPDEST PUSH1 0x0 PUSH8 0xFFFFFFFFFFFFFFFF DUP3 GT ISZERO PUSH2 0x2E24 JUMPI PUSH2 0x2E24 PUSH2 0x2BBB JUMP JUMPDEST POP PUSH1 0x5 SHL PUSH1 0x20 ADD SWAP1 JUMP JUMPDEST PUSH1 0x0 DUP3 PUSH1 0x1F DUP4 ADD SLT PUSH2 0x2E3F JUMPI PUSH1 0x0 DUP1 REVERT JUMPDEST DUP2 CALLDATALOAD PUSH1 0x20 PUSH2 0x2E54 PUSH2 0x2E4F DUP4 PUSH2 0x2E0A JUMP JUMPDEST PUSH2 0x2BD1 JUMP JUMPDEST DUP3 DUP2 MSTORE PUSH1 0x5 SWAP3 SWAP1 SWAP3 SHL DUP5 ADD DUP2 ADD SWAP2 DUP2 DUP2 ADD SWAP1 DUP7 DUP5 GT ISZERO PUSH2 0x2E73 JUMPI PUSH1 0x0 DUP1 REVERT JUMPDEST DUP3 DUP7 ADD JUMPDEST DUP5 DUP2 LT ISZERO PUSH2 0x2E8E JUMPI DUP1 CALLDATALOAD DUP4 MSTORE SWAP2 DUP4 ADD SWAP2 DUP4 ADD PUSH2 0x2E77 JUMP JUMPDEST POP SWAP7 SWAP6 POP POP POP POP POP POP JUMP JUMPDEST PUSH1 0x0 DUP3 PUSH1 0x1F DUP4 ADD SLT PUSH2 0x2EAA JUMPI PUSH1 0x0 DUP1 REVERT JUMPDEST DUP2 CALLDATALOAD PUSH1 0x20 PUSH2 0x2EBA PUSH2 0x2E4F DUP4 PUSH2 0x2E0A JUMP JUMPDEST DUP3 DUP2 MSTORE PUSH1 0x5 SWAP3 SWAP1 SWAP3 SHL DUP5 ADD DUP2 ADD SWAP2 DUP2 DUP2 ADD SWAP1 DUP7 DUP5 GT ISZERO PUSH2 0x2ED9 JUMPI PUSH1 0x0 DUP1 REVERT JUMPDEST DUP3 DUP7 ADD JUMPDEST DUP5 DUP2 LT ISZERO PUSH2 0x2E8E JUMPI PUSH2 0x2EEE DUP2 PUSH2 0x2CEA JUMP JUMPDEST DUP4 MSTORE SWAP2 DUP4 ADD SWAP2 DUP4 ADD PUSH2 0x2EDD JUMP JUMPDEST PUSH1 0x0 DUP1 PUSH1 0x0 DUP1 PUSH1 0x0 DUP1 PUSH1 0x0 PUSH1 0xE0 DUP9 DUP11 SUB SLT ISZERO PUSH2 0x2F16 JUMPI PUSH1 0x0 DUP1 REVERT JUMPDEST DUP8 CALLDATALOAD SWAP7 POP PUSH1 0x20 DUP9 ADD CALLDATALOAD SWAP6 POP PUSH1 0x40 DUP9 ADD CALLDATALOAD SWAP5 POP PUSH1 0x60 DUP9 ADD CALLDATALOAD PUSH8 0xFFFFFFFFFFFFFFFF DUP1 DUP3 GT ISZERO PUSH2 0x2F43 JUMPI PUSH1 0x0 DUP1 REVERT JUMPDEST PUSH2 0x2F4F DUP12 DUP4 DUP13 ADD PUSH2 0x2E2E JUMP JUMPDEST SWAP6 POP PUSH1 0x80 DUP11 ADD CALLDATALOAD SWAP2 POP DUP1 DUP3 GT ISZERO PUSH2 0x2F65 JUMPI PUSH1 0x0 DUP1 REVERT JUMPDEST PUSH2 0x2F71 DUP12 DUP4 DUP13 ADD PUSH2 0x2E99 JUMP JUMPDEST SWAP5 POP PUSH1 0xA0 DUP11 ADD CALLDATALOAD SWAP2 POP DUP1 DUP3 GT ISZERO PUSH2 0x2F87 JUMPI PUSH1 0x0 DUP1 REVERT JUMPDEST PUSH2 0x2F93 DUP12 DUP4 DUP13 ADD PUSH2 0x2E2E JUMP JUMPDEST SWAP4 POP PUSH1 0xC0 DUP11 ADD CALLDATALOAD SWAP2 POP DUP1 DUP3 GT ISZERO PUSH2 0x2FA9 JUMPI PUSH1 0x0 DUP1 REVERT JUMPDEST POP PUSH2 0x2FB6 DUP11 DUP3 DUP12 ADD PUSH2 0x2E2E JUMP JUMPDEST SWAP2 POP POP SWAP3 SWAP6 SWAP9 SWAP2 SWAP5 SWAP8 POP SWAP3 SWAP6 POP JUMP JUMPDEST PUSH1 0x0 DUP1 PUSH1 0x0 DUP1 PUSH1 0x0 PUSH1 0xA0 DUP7 DUP9 SUB SLT ISZERO PUSH2 0x2FDD JUMPI PUSH1 0x0 DUP1 REVERT JUMPDEST DUP6 CALLDATALOAD SWAP5 POP PUSH1 0x20 DUP7 ADD CALLDATALOAD SWAP4 POP PUSH1 0x40 DUP7 ADD CALLDATALOAD SWAP3 POP PUSH1 0x60 DUP7 ADD CALLDATALOAD SWAP2 POP PUSH2 0x3002 PUSH1 0x80 DUP8 ADD PUSH2 0x2CEA JUMP JUMPDEST SWAP1 POP SWAP3 SWAP6 POP SWAP3 SWAP6 SWAP1 SWAP4 POP JUMP JUMPDEST PUSH1 0x0 DUP1 PUSH1 0x0 PUSH1 0x60 DUP5 DUP7 SUB SLT ISZERO PUSH2 0x3023 JUMPI PUSH1 0x0 DUP1 REVERT JUMPDEST PUSH2 0x302C DUP5 PUSH2 0x2CEA JUMP JUMPDEST SWAP3 POP PUSH1 0x20 DUP5 ADD CALLDATALOAD SWAP2 POP PUSH2 0x3041 PUSH1 0x40 DUP6 ADD PUSH2 0x2CEA JUMP JUMPDEST SWAP1 POP SWAP3 POP SWAP3 POP SWAP3 JUMP JUMPDEST PUSH1 0x0 DUP2 MLOAD DUP1 DUP5 MSTORE PUSH1 0x0 JUMPDEST DUP2 DUP2 LT ISZERO PUSH2 0x3070 JUMPI PUSH1 0x20 DUP2 DUP6 ADD DUP2 ADD MLOAD DUP7 DUP4 ADD DUP3 ADD MSTORE ADD PUSH2 0x3054 JUMP JUMPDEST POP PUSH1 0x0 PUSH1 0x20 DUP3 DUP7 ADD ADD MSTORE PUSH1 0x20 PUSH1 0x1F NOT PUSH1 0x1F DUP4 ADD AND DUP6 ADD ADD SWAP2 POP POP SWAP3 SWAP2 POP POP JUMP JUMPDEST PUSH1 0x20 DUP2 MSTORE PUSH1 0x0 PUSH2 0x1B76 PUSH1 0x20 DUP4 ADD DUP5 PUSH2 0x304A JUMP JUMPDEST PUSH1 0x0 PUSH1 0x20 DUP3 DUP5 SUB SLT ISZERO PUSH2 0x30B5 JUMPI PUSH1 0x0 DUP1 REVERT JUMPDEST POP MLOAD SWAP2 SWAP1 POP JUMP JUMPDEST PUSH4 0x4E487B71 PUSH1 0xE0 SHL PUSH1 0x0 MSTORE PUSH1 0x11 PUSH1 0x4 MSTORE PUSH1 0x24 PUSH1 0x0 REVERT JUMPDEST PUSH1 0x0 PUSH1 0x1 DUP3 ADD PUSH2 0x30E4 JUMPI PUSH2 0x30E4 PUSH2 0x30BC JUMP JUMPDEST POP PUSH1 0x1 ADD SWAP1 JUMP JUMPDEST DUP7 DUP2 MSTORE PUSH1 0xC0 PUSH1 0x20 DUP3 ADD MSTORE PUSH1 0x0 PUSH2 0x3104 PUSH1 0xC0 DUP4 ADD DUP9 PUSH2 0x304A JUMP JUMPDEST PUSH1 0x1 PUSH1 0x1 PUSH1 0xA0 SHL SUB SWAP7 SWAP1 SWAP7 AND PUSH1 0x40 DUP4 ADD MSTORE POP PUSH4 0xFFFFFFFF SWAP4 DUP5 AND PUSH1 0x60 DUP3 ADD MSTORE SWAP2 SWAP1 SWAP3 AND PUSH1 0x80 DUP3 ADD MSTORE PUSH1 0xA0 ADD MSTORE SWAP3 SWAP2 POP POP JUMP JUMPDEST PUSH1 0x0 PUSH1 0x20 DUP3 DUP5 SUB SLT ISZERO PUSH2 0x3148 JUMPI PUSH1 0x0 DUP1 REVERT JUMPDEST DUP2 MLOAD DUP1 ISZERO ISZERO DUP2 EQ PUSH2 0x1B76 JUMPI PUSH1 0x0 DUP1 REVERT JUMPDEST DUP1 DUP3 ADD DUP1 DUP3 GT ISZERO PUSH2 0xC79 JUMPI PUSH2 0xC79 PUSH2 0x30BC JUMP JUMPDEST PUSH1 0x0 DUP2 MLOAD DUP1 DUP5 MSTORE PUSH1 0x20 DUP1 DUP6 ADD SWAP5 POP DUP1 DUP5 ADD PUSH1 0x0 JUMPDEST DUP4 DUP2 LT ISZERO PUSH2 0x319B JUMPI DUP2 MLOAD DUP8 MSTORE SWAP6 DUP3 ADD SWAP6 SWAP1 DUP3 ADD SWAP1 PUSH1 0x1 ADD PUSH2 0x317F JUMP JUMPDEST POP SWAP5 SWAP6 SWAP5 POP POP POP POP POP JUMP JUMPDEST DUP6 DUP2 MSTORE PUSH1 0x0 PUSH1 0x20 PUSH1 0xA0 DUP2 DUP5 ADD MSTORE PUSH2 0x31C0 PUSH1 0xA0 DUP5 ADD DUP9 PUSH2 0x316B JUMP JUMPDEST DUP4 DUP2 SUB PUSH1 0x40 DUP6 ADD MSTORE DUP7 MLOAD DUP1 DUP3 MSTORE DUP3 DUP9 ADD SWAP2 DUP4 ADD SWAP1 PUSH1 0x0 JUMPDEST DUP2 DUP2 LT ISZERO PUSH2 0x31FC JUMPI DUP4 MLOAD PUSH1 0x1 PUSH1 0x1 PUSH1 0xA0 SHL SUB AND DUP4 MSTORE SWAP3 DUP5 ADD SWAP3 SWAP2 DUP5 ADD SWAP2 PUSH1 0x1 ADD PUSH2 0x31D7 JUMP JUMPDEST POP POP DUP5 DUP2 SUB PUSH1 0x60 DUP7 ADD MSTORE PUSH2 0x3210 DUP2 DUP9 PUSH2 0x316B JUMP JUMPDEST SWAP3 POP POP POP DUP3 DUP2 SUB PUSH1 0x80 DUP5 ADD MSTORE PUSH2 0x3226 DUP2 DUP6 PUSH2 0x316B JUMP JUMPDEST SWAP9 SWAP8 POP POP POP POP POP POP POP POP JUMP INVALID LOG2 PUSH5 0x6970667358 0x22 SLT KECCAK256 EXTCODESIZE 0xA5 0x5F TIMESTAMP CALL INVALID 0x49 CREATE2 PUSH21 0xB7D3CB2F8B83B5E885B0662D98061EDFA5183DC3F6 PUSH22 0x3164736F6C6343000811003300000000000000000000 "},"gasEstimates":{"creation":{"codeDepositCost":"2580800","executionCost":"2793","totalCost":"2583593"},"external":{"acceptOffer(bytes32,uint256)":"infinite","claimGRTWithDispute(bytes32,uint256,bytes32,bytes32[],address[],uint256[],bytes32[])":"infinite","claimGRTWithoutDispute(bytes32,uint256)":"infinite","createOffer(bytes32,uint256)":"103748","createQuestion(string,uint256,bytes32,address,address,address,uint256,uint256)":"infinite","createRealityTemplate(string)":"infinite","depositGRTRequestERC20(uint256,uint256,address,uint256,uint256,address)":"infinite","depositGRTRequestNative(uint256,uint256,uint256,uint256,address)":"infinite","getDepositAmount(bytes32)":"2501","getDepositChainId(bytes32)":"2544","getDepositToken(bytes32)":"2573","getFinalAnswer(bytes32)":"infinite","getHistoryHash(bytes32)":"infinite","getNonce(address)":"2616","getOfferAmount(bytes32,uint256)":"2626","getOfferCreator(bytes32,uint256)":"2671","getRecipient(bytes32)":"2593","getRequestAmount(bytes32)":"2502","getRequestChainId(bytes32)":"2500","getRequestToken(bytes32)":"2552","getRequester(bytes32)":"2545","grtAddress()":"2398","grtChainId()":"2370","initializePool(address,uint256,address)":"infinite","isFinalized(bytes32)":"infinite","isOfferAccepted(bytes32,uint256)":"2671","isOfferPaid(bytes32,uint256)":"2662","isrequest(bytes32)":"2525","nbrOffersRequest(bytes32)":"2500","owner()":"2399","payOfferOnChainERC20(bytes32,uint256)":"infinite","payOfferOnChainNative(bytes32,uint256)":"infinite","realityAddress()":"2422","rejectOffer(bytes32,uint256)":"33096","renounceOwnership()":"infinite","setAddrReality(address)":"26824","setGRTAddr(address)":"26826","setGRTChainId(uint256)":"24579","stakeGRT(uint256)":"infinite","stakeOf(address)":"2594","transferOwnership(address)":"28424"},"internal":{"addRequest(bytes32,uint256,address,uint256,uint256,address)":"infinite","depositGRT(uint256)":"infinite","getOfferId(bytes32)":"infinite","initOffer()":"infinite","setTokenInfo(address,uint256,uint256)":"infinite"}},"methodIdentifiers":{"acceptOffer(bytes32,uint256)":"3e314b5a","claimGRTWithDispute(bytes32,uint256,bytes32,bytes32[],address[],uint256[],bytes32[])":"6ad5c6e9","claimGRTWithoutDispute(bytes32,uint256)":"b44a468b","createOffer(bytes32,uint256)":"1208a32b","createQuestion(string,uint256,bytes32,address,address,address,uint256,uint256)":"50aa25c1","createRealityTemplate(string)":"0cd2c190","depositGRTRequestERC20(uint256,uint256,address,uint256,uint256,address)":"52430b55","depositGRTRequestNative(uint256,uint256,uint256,uint256,address)":"8f09f930","getDepositAmount(bytes32)":"2c3daef6","getDepositChainId(bytes32)":"d4a4429a","getDepositToken(bytes32)":"b4bed2c9","getFinalAnswer(bytes32)":"a462fb7b","getHistoryHash(bytes32)":"82ffa9f7","getNonce(address)":"2d0335ab","getOfferAmount(bytes32,uint256)":"606e3112","getOfferCreator(bytes32,uint256)":"584396bc","getRecipient(bytes32)":"fbc6da75","getRequestAmount(bytes32)":"14ddc253","getRequestChainId(bytes32)":"d79ff4b6","getRequestToken(bytes32)":"3e4e872f","getRequester(bytes32)":"58381bbd","grtAddress()":"bfe51359","grtChainId()":"e9d9769f","initializePool(address,uint256,address)":"ef50e1d6","isFinalized(bytes32)":"7f8d429e","isOfferAccepted(bytes32,uint256)":"ec1ad8d3","isOfferPaid(bytes32,uint256)":"2ab89ca1","isrequest(bytes32)":"2ab18a50","nbrOffersRequest(bytes32)":"5b7a9341","owner()":"8da5cb5b","payOfferOnChainERC20(bytes32,uint256)":"9f36b244","payOfferOnChainNative(bytes32,uint256)":"6bb1b9ea","realityAddress()":"6c94ab56","rejectOffer(bytes32,uint256)":"254a2ccc","renounceOwnership()":"715018a6","setAddrReality(address)":"d0d89b52","setGRTAddr(address)":"412ff893","setGRTChainId(uint256)":"17030add","stakeGRT(uint256)":"ace7c37e","stakeOf(address)":"42623360","transferOwnership(address)":"f2fde38b"}},"storageLayout":{"storage":[{"astId":138,"contract":"contracts/GrtPool.sol:GrtPool","label":"_initialized","offset":0,"slot":"0","type":"t_uint8"},{"astId":141,"contract":"contracts/GrtPool.sol:GrtPool","label":"_initializing","offset":1,"slot":"0","type":"t_bool"},{"astId":625,"contract":"contracts/GrtPool.sol:GrtPool","label":"__gap","offset":0,"slot":"1","type":"t_array(t_uint256)50_storage"},{"astId":10,"contract":"contracts/GrtPool.sol:GrtPool","label":"_owner","offset":0,"slot":"51","type":"t_address"},{"astId":130,"contract":"contracts/GrtPool.sol:GrtPool","label":"__gap","offset":0,"slot":"52","type":"t_array(t_uint256)49_storage"},{"astId":712,"contract":"contracts/GrtPool.sol:GrtPool","label":"_addrReality","offset":0,"slot":"101","type":"t_address"},{"astId":714,"contract":"contracts/GrtPool.sol:GrtPool","label":"_countQuestion","offset":0,"slot":"102","type":"t_uint256"},{"astId":731,"contract":"contracts/GrtPool.sol:GrtPool","label":"_questions","offset":0,"slot":"103","type":"t_mapping(t_uint256,t_bytes32)"},{"astId":952,"contract":"contracts/GrtPool.sol:GrtPool","label":"_addrGRT","offset":0,"slot":"104","type":"t_address"},{"astId":954,"contract":"contracts/GrtPool.sol:GrtPool","label":"_chainIdGRT","offset":0,"slot":"105","type":"t_uint256"},{"astId":995,"contract":"contracts/GrtPool.sol:GrtPool","label":"_requests","offset":0,"slot":"106","type":"t_mapping(t_bytes32,t_struct(Request)974_storage)"},{"astId":999,"contract":"contracts/GrtPool.sol:GrtPool","label":"_stakes","offset":0,"slot":"107","type":"t_mapping(t_address,t_uint256)"},{"astId":1003,"contract":"contracts/GrtPool.sol:GrtPool","label":"_nonces","offset":0,"slot":"108","type":"t_mapping(t_address,t_uint256)"}],"types":{"t_address":{"encoding":"inplace","label":"address","numberOfBytes":"20"},"t_array(t_uint256)49_storage":{"base":"t_uint256","encoding":"inplace","label":"uint256[49]","numberOfBytes":"1568"},"t_array(t_uint256)50_storage":{"base":"t_uint256","encoding":"inplace","label":"uint256[50]","numberOfBytes":"1600"},"t_bool":{"encoding":"inplace","label":"bool","numberOfBytes":"1"},"t_bytes32":{"encoding":"inplace","label":"bytes32","numberOfBytes":"32"},"t_mapping(t_address,t_uint256)":{"encoding":"mapping","key":"t_address","label":"mapping(address => uint256)","numberOfBytes":"32","value":"t_uint256"},"t_mapping(t_bytes32,t_struct(Request)974_storage)":{"encoding":"mapping","key":"t_bytes32","label":"mapping(bytes32 => struct GrtPool.Request)","numberOfBytes":"32","value":"t_struct(Request)974_storage"},"t_mapping(t_uint256,t_bytes32)":{"encoding":"mapping","key":"t_uint256","label":"mapping(uint256 => bytes32)","numberOfBytes":"32","value":"t_bytes32"},"t_mapping(t_uint256,t_struct(Offer)983_storage)":{"encoding":"mapping","key":"t_uint256","label":"mapping(uint256 => struct GrtPool.Offer)","numberOfBytes":"32","value":"t_struct(Offer)983_storage"},"t_struct(Offer)983_storage":{"encoding":"inplace","label":"struct GrtPool.Offer","members":[{"astId":976,"contract":"contracts/GrtPool.sol:GrtPool","label":"userAddr","offset":0,"slot":"0","type":"t_address"},{"astId":978,"contract":"contracts/GrtPool.sol:GrtPool","label":"amount","offset":0,"slot":"1","type":"t_uint256"},{"astId":980,"contract":"contracts/GrtPool.sol:GrtPool","label":"isAccept","offset":0,"slot":"2","type":"t_bool"},{"astId":982,"contract":"contracts/GrtPool.sol:GrtPool","label":"isPaid","offset":1,"slot":"2","type":"t_bool"}],"numberOfBytes":"96"},"t_struct(Request)974_storage":{"encoding":"inplace","label":"struct GrtPool.Request","members":[{"astId":956,"contract":"contracts/GrtPool.sol:GrtPool","label":"userAddr","offset":0,"slot":"0","type":"t_address"},{"astId":958,"contract":"contracts/GrtPool.sol:GrtPool","label":"destAddr","offset":0,"slot":"1","type":"t_address"},{"astId":961,"contract":"contracts/GrtPool.sol:GrtPool","label":"deposit","offset":0,"slot":"2","type":"t_struct(TokenInfo)990_storage"},{"astId":964,"contract":"contracts/GrtPool.sol:GrtPool","label":"request","offset":0,"slot":"5","type":"t_struct(TokenInfo)990_storage"},{"astId":966,"contract":"contracts/GrtPool.sol:GrtPool","label":"isRequest","offset":0,"slot":"8","type":"t_bool"},{"astId":968,"contract":"contracts/GrtPool.sol:GrtPool","label":"nonceOffers","offset":0,"slot":"9","type":"t_uint256"},{"astId":973,"contract":"contracts/GrtPool.sol:GrtPool","label":"offers","offset":0,"slot":"10","type":"t_mapping(t_uint256,t_struct(Offer)983_storage)"}],"numberOfBytes":"352"},"t_struct(TokenInfo)990_storage":{"encoding":"inplace","label":"struct GrtPool.TokenInfo","members":[{"astId":985,"contract":"contracts/GrtPool.sol:GrtPool","label":"token","offset":0,"slot":"0","type":"t_address"},{"astId":987,"contract":"contracts/GrtPool.sol:GrtPool","label":"amount","offset":0,"slot":"1","type":"t_uint256"},{"astId":989,"contract":"contracts/GrtPool.sol:GrtPool","label":"chainId","offset":0,"slot":"2","type":"t_uint256"}],"numberOfBytes":"96"},"t_uint256":{"encoding":"inplace","label":"uint256","numberOfBytes":"32"},"t_uint8":{"encoding":"inplace","label":"uint8","numberOfBytes":"1"}}},"userdoc":{"kind":"user","methods":{},"version":1}}}}