{"contracts/v0.2.0/GrtOffer.sol":{"GrtOffer":{"abi":[{"anonymous":false,"inputs":[{"indexed":false,"internalType":"uint8","name":"version","type":"uint8"}],"name":"Initialized","type":"event"},{"anonymous":false,"inputs":[{"indexed":true,"internalType":"bytes32","name":"_idOffer","type":"bytes32"},{"indexed":true,"internalType":"address","name":"_contractAddress","type":"address"},{"indexed":true,"internalType":"address","name":"_token","type":"address"},{"indexed":false,"internalType":"uint256","name":"_chainId","type":"uint256"}],"name":"LogNewOffer","type":"event"},{"anonymous":false,"inputs":[{"indexed":true,"internalType":"address","name":"previousOwner","type":"address"},{"indexed":true,"internalType":"address","name":"newOwner","type":"address"}],"name":"OwnershipTransferred","type":"event"},{"inputs":[{"internalType":"bytes32","name":"idOffer","type":"bytes32"}],"name":"getAddressOffer","outputs":[{"internalType":"address","name":"","type":"address"}],"stateMutability":"view","type":"function"},{"inputs":[{"internalType":"bytes32","name":"idOffer","type":"bytes32"}],"name":"getChainIdOffer","outputs":[{"internalType":"uint256","name":"","type":"uint256"}],"stateMutability":"view","type":"function"},{"inputs":[{"internalType":"address","name":"chainlinkContract","type":"address"}],"name":"getLatestPrice","outputs":[{"internalType":"int256","name":"","type":"int256"}],"stateMutability":"view","type":"function"},{"inputs":[{"internalType":"bytes32","name":"idOffer","type":"bytes32"}],"name":"getLowerLimitFnHashOffer","outputs":[{"internalType":"bytes32","name":"","type":"bytes32"}],"stateMutability":"view","type":"function"},{"inputs":[{"internalType":"bytes32","name":"idOffer","type":"bytes32"},{"internalType":"bytes","name":"fn","type":"bytes"}],"name":"getLowerPriceLimitFromContract","outputs":[{"internalType":"uint256","name":"","type":"uint256"}],"stateMutability":"view","type":"function"},{"inputs":[{"internalType":"bytes32","name":"idOffer","type":"bytes32"},{"internalType":"bytes","name":"fn","type":"bytes"}],"name":"getLowerPriceLimitFromGrindery","outputs":[{"internalType":"int256","name":"","type":"int256"}],"stateMutability":"view","type":"function"},{"inputs":[{"internalType":"address","name":"user","type":"address"}],"name":"getNonceUser","outputs":[{"internalType":"uint256","name":"","type":"uint256"}],"stateMutability":"view","type":"function"},{"inputs":[{"internalType":"bytes32","name":"idOffer","type":"bytes32"}],"name":"getTokenOffer","outputs":[{"internalType":"address","name":"","type":"address"}],"stateMutability":"view","type":"function"},{"inputs":[{"internalType":"bytes32","name":"idOffer","type":"bytes32"}],"name":"getUpperLimitFnHashOffer","outputs":[{"internalType":"bytes32","name":"","type":"bytes32"}],"stateMutability":"view","type":"function"},{"inputs":[{"internalType":"bytes32","name":"idOffer","type":"bytes32"},{"internalType":"bytes","name":"fn","type":"bytes"}],"name":"getUpperPriceLimitFromContract","outputs":[{"internalType":"uint256","name":"","type":"uint256"}],"stateMutability":"view","type":"function"},{"inputs":[{"internalType":"bytes32","name":"idOffer","type":"bytes32"},{"internalType":"bytes","name":"fn","type":"bytes"}],"name":"getUpperPriceLimitFromGrindery","outputs":[{"internalType":"int256","name":"","type":"int256"}],"stateMutability":"view","type":"function"},{"inputs":[],"name":"initializeGrtOffer","outputs":[],"stateMutability":"nonpayable","type":"function"},{"inputs":[],"name":"owner","outputs":[{"internalType":"address","name":"","type":"address"}],"stateMutability":"view","type":"function"},{"inputs":[],"name":"renounceOwnership","outputs":[],"stateMutability":"nonpayable","type":"function"},{"inputs":[{"internalType":"address","name":"token","type":"address"},{"internalType":"address","name":"priceAddress","type":"address"},{"internalType":"bytes","name":"upperLimitFn","type":"bytes"},{"internalType":"bytes","name":"lowerLimitFn","type":"bytes"}],"name":"setOfferWithContract","outputs":[{"internalType":"bool","name":"","type":"bool"}],"stateMutability":"nonpayable","type":"function"},{"inputs":[{"internalType":"address","name":"token","type":"address"},{"internalType":"bytes","name":"upperLimitFn","type":"bytes"},{"internalType":"bytes","name":"lowerLimitFn","type":"bytes"}],"name":"setOfferWithGrindery","outputs":[{"internalType":"bool","name":"","type":"bool"}],"stateMutability":"nonpayable","type":"function"},{"inputs":[{"internalType":"address","name":"newOwner","type":"address"}],"name":"transferOwnership","outputs":[],"stateMutability":"nonpayable","type":"function"}],"devdoc":{"kind":"dev","methods":{"owner()":{"details":"Returns the address of the current owner."},"renounceOwnership()":{"details":"Leaves the contract without owner. It will not be possible to call `onlyOwner` functions anymore. Can only be called by the current owner. NOTE: Renouncing ownership will leave the contract without an owner, thereby removing any functionality that is only available to the owner."},"transferOwnership(address)":{"details":"Transfers ownership of the contract to a new account (`newOwner`). Can only be called by the current owner."}},"version":1},"evm":{"bytecode":{"linkReferences":{},"object":"608060405234801561001057600080fd5b50611368806100206000396000f3fe608060405234801561001057600080fd5b506004361061011b5760003560e01c80637fc6176c116100b25780639ef6302311610081578063bc61494e11610066578063bc61494e146102bf578063e956eb8a146102c7578063f2fde38b146102ea57600080fd5b80639ef6302314610289578063a1c59cef1461029c57600080fd5b80637fc6176c1461022657806386c2763d146102525780638c02d6ff146102655780638da5cb5b1461027857600080fd5b80635adbe5de116100ee5780635adbe5de146101b0578063670d7db7146101d9578063715018a6146101fc57806375012c8b1461020657600080fd5b80630a0ef56d1461012057806316345f18146101465780634516010f146101595780635a3f5fdb1461019d575b600080fd5b61013361012e366004611028565b6102fd565b6040519081526020015b60405180910390f35b610133610154366004611089565b610516565b6101856101673660046110a6565b6000908152606560205260409020600101546001600160a01b031690565b6040516001600160a01b03909116815260200161013d565b6101336101ab366004611028565b610587565b6101336101be366004611089565b6001600160a01b031660009081526066602052604090205490565b6101ec6101e73660046110bf565b610718565b604051901515815260200161013d565b610204610892565b005b6101336102143660046110a6565b60009081526065602052604090205490565b6101856102343660046110a6565b6000908152606560205260409020600201546001600160a01b031690565b6101ec610260366004611142565b6108a6565b610133610273366004611028565b610a37565b6033546001600160a01b0316610185565b610133610297366004611028565b610bbe565b6101336102aa3660046110a6565b60009081526065602052604090206003015490565b610204610c97565b6101336102d53660046110a6565b60009081526065602052604090206004015490565b6102046102f8366004611089565b610db7565b6000838152606560205260408120600201546001600160a01b03166103b55760405162461bcd60e51b815260206004820152605060248201527f475254206f66666572733a206e6f7420616c6c6f77656420746f206d6f64696660448201527f7920746865207072696365206c696d69742076696120616e2065787465726e6160648201527f6c20736d61727420636f6e747261637400000000000000000000000000000000608482015260a4015b60405180910390fd5b6000848152606560209081526040918290206003015491516103db9186918691016111d7565b60405160208183030381529060405280519060200120146104725760405162461bcd60e51b8152602060048201526044602482018190527f475254206f66666572733a207468652066756e6374696f6e20646f6573206e6f908201527f74206d6174636820746865206f6e6520656e746572656420696e20746865206f606482015263333332b960e11b608482015260a4016103ac565b60008481526065602052604080822060020154905182916001600160a01b0316906104a090879087906111d7565b600060405180830381855afa9150503d80600081146104db576040519150601f19603f3d011682016040523d82523d6000602084013e6104e0565b606091505b5091509150811561050857808060200190518101906104ff91906111e7565b9250505061050f565b6000925050505b9392505050565b600080826001600160a01b031663feaf968c6040518163ffffffff1660e01b815260040160a060405180830381865afa158015610557573d6000803e3d6000fd5b505050506040513d601f19601f8201168201806040525081019061057b919061121f565b50919695505050505050565b6000838152606560205260408120600201546001600160a01b03161561062a5760405162461bcd60e51b815260206004820152604c60248201527f475254206f66666572733a20746865207072696365206c696d69742073686f7560448201527f6c6420626520757064617465642076696120616e2065787465726e616c20736d60648201526b185c9d0818dbdb9d1c9858dd60a21b608482015260a4016103ac565b6000848152606560209081526040918290206003015491516106509186918691016111d7565b60405160208183030381529060405280519060200120146106e75760405162461bcd60e51b8152602060048201526044602482018190527f475254206f66666572733a207468652066756e6374696f6e20646f6573206e6f908201527f74206d6174636820746865206f6e6520656e746572656420696e20746865206f606482015263333332b960e11b608482015260a4016103ac565b6000806106f68486018661126f565b915091508061070483610516565b61070e91906112ca565b9695505050505050565b33600081815260666020908152604080832054905160609490941b6bffffffffffffffffffffffff191691840191909152603483015246605483015290819060740160408051808303601f19018152828252805160209182012060008181526065835292909220468155600101805473ffffffffffffffffffffffffffffffffffffffff19166001600160a01b038c161790559092506107bc9186918691016111d7565b60408051601f19818403018152828252805160209182012060008581526065835292909220600401919091556107f69188918891016111d7565b60408051601f19818403018152828252805160209182012060008581526065835283902060038101919091556002015446845291516001600160a01b038b81169493169285927f90d1517eab8d1d52082251d5392431a6bf50b65d94217ad0a4bd02b15072445c92918290030190a4336000908152606660205260408120805491610880836112f2565b90915550600198975050505050505050565b61089a610e44565b6108a46000610e9e565b565b33600081815260666020908152604080832054905160609490941b6bffffffffffffffffffffffff191691840191909152603483015246605483015290819060740160408051601f198184030181528282528051602091820120600081815260658352929092204681556001810180546001600160a01b03808f1673ffffffffffffffffffffffffffffffffffffffff199283161790925560029092018054918d16919092161790559092506109609186918691016111d7565b60408051601f198184030181528282528051602091820120600085815260658352929092206004019190915561099a9188918891016111d7565b60408051601f19818403018152828252805160209182012060008581526065835283902060038101919091556002015446845291516001600160a01b038c81169493169285927f90d1517eab8d1d52082251d5392431a6bf50b65d94217ad0a4bd02b15072445c92918290030190a4336000908152606660205260408120805491610a24836112f2565b9091555060019998505050505050505050565b6000838152606560205260408120600201546001600160a01b031615610ada5760405162461bcd60e51b815260206004820152604c60248201527f475254206f66666572733a20746865207072696365206c696d69742073686f7560448201527f6c6420626520757064617465642076696120616e2065787465726e616c20736d60648201526b185c9d0818dbdb9d1c9858dd60a21b608482015260a4016103ac565b600084815260656020908152604091829020600401549151610b009186918691016111d7565b6040516020818303038152906040528051906020012014610b975760405162461bcd60e51b8152602060048201526044602482018190527f475254206f66666572733a207468652066756e6374696f6e20646f6573206e6f908201527f74206d6174636820746865206f6e6520656e746572656420696e20746865206f606482015263333332b960e11b608482015260a4016103ac565b600080610ba68486018661126f565b9150915080610bb483610516565b61070e919061130b565b6000838152606560205260408120600201546001600160a01b0316610c715760405162461bcd60e51b815260206004820152605060248201527f475254206f66666572733a206e6f7420616c6c6f77656420746f206d6f64696660448201527f7920746865207072696365206c696d69742076696120616e2065787465726e6160648201527f6c20736d61727420636f6e747261637400000000000000000000000000000000608482015260a4016103ac565b6000848152606560209081526040918290206004015491516103db9186918691016111d7565b600054610100900460ff1615808015610cb75750600054600160ff909116105b80610cd15750303b158015610cd1575060005460ff166001145b610d435760405162461bcd60e51b815260206004820152602e60248201527f496e697469616c697a61626c653a20636f6e747261637420697320616c72656160448201527f647920696e697469616c697a656400000000000000000000000000000000000060648201526084016103ac565b6000805460ff191660011790558015610d66576000805461ff0019166101001790555b610d6e610efd565b8015610db4576000805461ff0019169055604051600181527f7f26b83ff96e1f2b6a682f133852f6798a09c465da95921460cefb38474024989060200160405180910390a15b50565b610dbf610e44565b6001600160a01b038116610e3b5760405162461bcd60e51b815260206004820152602660248201527f4f776e61626c653a206e6577206f776e657220697320746865207a65726f206160448201527f646472657373000000000000000000000000000000000000000000000000000060648201526084016103ac565b610db481610e9e565b6033546001600160a01b031633146108a45760405162461bcd60e51b815260206004820181905260248201527f4f776e61626c653a2063616c6c6572206973206e6f7420746865206f776e657260448201526064016103ac565b603380546001600160a01b0383811673ffffffffffffffffffffffffffffffffffffffff19831681179093556040519116919082907f8be0079c531659141344cd1fd0a4f28419497f9722a3daafe3b4186f6b6457e090600090a35050565b600054610100900460ff16610f685760405162461bcd60e51b815260206004820152602b60248201527f496e697469616c697a61626c653a20636f6e7472616374206973206e6f74206960448201526a6e697469616c697a696e6760a81b60648201526084016103ac565b6108a4600054610100900460ff16610fd65760405162461bcd60e51b815260206004820152602b60248201527f496e697469616c697a61626c653a20636f6e7472616374206973206e6f74206960448201526a6e697469616c697a696e6760a81b60648201526084016103ac565b6108a433610e9e565b60008083601f840112610ff157600080fd5b50813567ffffffffffffffff81111561100957600080fd5b60208301915083602082850101111561102157600080fd5b9250929050565b60008060006040848603121561103d57600080fd5b83359250602084013567ffffffffffffffff81111561105b57600080fd5b61106786828701610fdf565b9497909650939450505050565b6001600160a01b0381168114610db457600080fd5b60006020828403121561109b57600080fd5b813561050f81611074565b6000602082840312156110b857600080fd5b5035919050565b6000806000806000606086880312156110d757600080fd5b85356110e281611074565b9450602086013567ffffffffffffffff808211156110ff57600080fd5b61110b89838a01610fdf565b9096509450604088013591508082111561112457600080fd5b5061113188828901610fdf565b969995985093965092949392505050565b6000806000806000806080878903121561115b57600080fd5b863561116681611074565b9550602087013561117681611074565b9450604087013567ffffffffffffffff8082111561119357600080fd5b61119f8a838b01610fdf565b909650945060608901359150808211156111b857600080fd5b506111c589828a01610fdf565b979a9699509497509295939492505050565b8183823760009101908152919050565b6000602082840312156111f957600080fd5b5051919050565b805169ffffffffffffffffffff8116811461121a57600080fd5b919050565b600080600080600060a0868803121561123757600080fd5b61124086611200565b945060208601519350604086015192506060860151915061126360808701611200565b90509295509295909350565b6000806040838503121561128257600080fd5b823561128d81611074565b946020939093013593505050565b7f4e487b7100000000000000000000000000000000000000000000000000000000600052601160045260246000fd5b80820182811260008312801582168215821617156112ea576112ea61129b565b505092915050565b6000600182016113045761130461129b565b5060010190565b818103600083128015838313168383128216171561132b5761132b61129b565b509291505056fea2646970667358221220f2d6f7baf8c7056d04318ff99e8c15143f69c4f66259b55e12513f8cd00e6af964736f6c63430008110033","opcodes":"PUSH1 0x80 PUSH1 0x40 MSTORE CALLVALUE DUP1 ISZERO PUSH2 0x10 JUMPI PUSH1 0x0 DUP1 REVERT JUMPDEST POP PUSH2 0x1368 DUP1 PUSH2 0x20 PUSH1 0x0 CODECOPY PUSH1 0x0 RETURN INVALID PUSH1 0x80 PUSH1 0x40 MSTORE CALLVALUE DUP1 ISZERO PUSH2 0x10 JUMPI PUSH1 0x0 DUP1 REVERT JUMPDEST POP PUSH1 0x4 CALLDATASIZE LT PUSH2 0x11B JUMPI PUSH1 0x0 CALLDATALOAD PUSH1 0xE0 SHR DUP1 PUSH4 0x7FC6176C GT PUSH2 0xB2 JUMPI DUP1 PUSH4 0x9EF63023 GT PUSH2 0x81 JUMPI DUP1 PUSH4 0xBC61494E GT PUSH2 0x66 JUMPI DUP1 PUSH4 0xBC61494E EQ PUSH2 0x2BF JUMPI DUP1 PUSH4 0xE956EB8A EQ PUSH2 0x2C7 JUMPI DUP1 PUSH4 0xF2FDE38B EQ PUSH2 0x2EA JUMPI PUSH1 0x0 DUP1 REVERT JUMPDEST DUP1 PUSH4 0x9EF63023 EQ PUSH2 0x289 JUMPI DUP1 PUSH4 0xA1C59CEF EQ PUSH2 0x29C JUMPI PUSH1 0x0 DUP1 REVERT JUMPDEST DUP1 PUSH4 0x7FC6176C EQ PUSH2 0x226 JUMPI DUP1 PUSH4 0x86C2763D EQ PUSH2 0x252 JUMPI DUP1 PUSH4 0x8C02D6FF EQ PUSH2 0x265 JUMPI DUP1 PUSH4 0x8DA5CB5B EQ PUSH2 0x278 JUMPI PUSH1 0x0 DUP1 REVERT JUMPDEST DUP1 PUSH4 0x5ADBE5DE GT PUSH2 0xEE JUMPI DUP1 PUSH4 0x5ADBE5DE EQ PUSH2 0x1B0 JUMPI DUP1 PUSH4 0x670D7DB7 EQ PUSH2 0x1D9 JUMPI DUP1 PUSH4 0x715018A6 EQ PUSH2 0x1FC JUMPI DUP1 PUSH4 0x75012C8B EQ PUSH2 0x206 JUMPI PUSH1 0x0 DUP1 REVERT JUMPDEST DUP1 PUSH4 0xA0EF56D EQ PUSH2 0x120 JUMPI DUP1 PUSH4 0x16345F18 EQ PUSH2 0x146 JUMPI DUP1 PUSH4 0x4516010F EQ PUSH2 0x159 JUMPI DUP1 PUSH4 0x5A3F5FDB EQ PUSH2 0x19D JUMPI JUMPDEST PUSH1 0x0 DUP1 REVERT JUMPDEST PUSH2 0x133 PUSH2 0x12E CALLDATASIZE PUSH1 0x4 PUSH2 0x1028 JUMP JUMPDEST PUSH2 0x2FD JUMP JUMPDEST PUSH1 0x40 MLOAD SWAP1 DUP2 MSTORE PUSH1 0x20 ADD JUMPDEST PUSH1 0x40 MLOAD DUP1 SWAP2 SUB SWAP1 RETURN JUMPDEST PUSH2 0x133 PUSH2 0x154 CALLDATASIZE PUSH1 0x4 PUSH2 0x1089 JUMP JUMPDEST PUSH2 0x516 JUMP JUMPDEST PUSH2 0x185 PUSH2 0x167 CALLDATASIZE PUSH1 0x4 PUSH2 0x10A6 JUMP JUMPDEST PUSH1 0x0 SWAP1 DUP2 MSTORE PUSH1 0x65 PUSH1 0x20 MSTORE PUSH1 0x40 SWAP1 KECCAK256 PUSH1 0x1 ADD SLOAD PUSH1 0x1 PUSH1 0x1 PUSH1 0xA0 SHL SUB AND SWAP1 JUMP JUMPDEST PUSH1 0x40 MLOAD PUSH1 0x1 PUSH1 0x1 PUSH1 0xA0 SHL SUB SWAP1 SWAP2 AND DUP2 MSTORE PUSH1 0x20 ADD PUSH2 0x13D JUMP JUMPDEST PUSH2 0x133 PUSH2 0x1AB CALLDATASIZE PUSH1 0x4 PUSH2 0x1028 JUMP JUMPDEST PUSH2 0x587 JUMP JUMPDEST PUSH2 0x133 PUSH2 0x1BE CALLDATASIZE PUSH1 0x4 PUSH2 0x1089 JUMP JUMPDEST PUSH1 0x1 PUSH1 0x1 PUSH1 0xA0 SHL SUB AND PUSH1 0x0 SWAP1 DUP2 MSTORE PUSH1 0x66 PUSH1 0x20 MSTORE PUSH1 0x40 SWAP1 KECCAK256 SLOAD SWAP1 JUMP JUMPDEST PUSH2 0x1EC PUSH2 0x1E7 CALLDATASIZE PUSH1 0x4 PUSH2 0x10BF JUMP JUMPDEST PUSH2 0x718 JUMP JUMPDEST PUSH1 0x40 MLOAD SWAP1 ISZERO ISZERO DUP2 MSTORE PUSH1 0x20 ADD PUSH2 0x13D JUMP JUMPDEST PUSH2 0x204 PUSH2 0x892 JUMP JUMPDEST STOP JUMPDEST PUSH2 0x133 PUSH2 0x214 CALLDATASIZE PUSH1 0x4 PUSH2 0x10A6 JUMP JUMPDEST PUSH1 0x0 SWAP1 DUP2 MSTORE PUSH1 0x65 PUSH1 0x20 MSTORE PUSH1 0x40 SWAP1 KECCAK256 SLOAD SWAP1 JUMP JUMPDEST PUSH2 0x185 PUSH2 0x234 CALLDATASIZE PUSH1 0x4 PUSH2 0x10A6 JUMP JUMPDEST PUSH1 0x0 SWAP1 DUP2 MSTORE PUSH1 0x65 PUSH1 0x20 MSTORE PUSH1 0x40 SWAP1 KECCAK256 PUSH1 0x2 ADD SLOAD PUSH1 0x1 PUSH1 0x1 PUSH1 0xA0 SHL SUB AND SWAP1 JUMP JUMPDEST PUSH2 0x1EC PUSH2 0x260 CALLDATASIZE PUSH1 0x4 PUSH2 0x1142 JUMP JUMPDEST PUSH2 0x8A6 JUMP JUMPDEST PUSH2 0x133 PUSH2 0x273 CALLDATASIZE PUSH1 0x4 PUSH2 0x1028 JUMP JUMPDEST PUSH2 0xA37 JUMP JUMPDEST PUSH1 0x33 SLOAD PUSH1 0x1 PUSH1 0x1 PUSH1 0xA0 SHL SUB AND PUSH2 0x185 JUMP JUMPDEST PUSH2 0x133 PUSH2 0x297 CALLDATASIZE PUSH1 0x4 PUSH2 0x1028 JUMP JUMPDEST PUSH2 0xBBE JUMP JUMPDEST PUSH2 0x133 PUSH2 0x2AA CALLDATASIZE PUSH1 0x4 PUSH2 0x10A6 JUMP JUMPDEST PUSH1 0x0 SWAP1 DUP2 MSTORE PUSH1 0x65 PUSH1 0x20 MSTORE PUSH1 0x40 SWAP1 KECCAK256 PUSH1 0x3 ADD SLOAD SWAP1 JUMP JUMPDEST PUSH2 0x204 PUSH2 0xC97 JUMP JUMPDEST PUSH2 0x133 PUSH2 0x2D5 CALLDATASIZE PUSH1 0x4 PUSH2 0x10A6 JUMP JUMPDEST PUSH1 0x0 SWAP1 DUP2 MSTORE PUSH1 0x65 PUSH1 0x20 MSTORE PUSH1 0x40 SWAP1 KECCAK256 PUSH1 0x4 ADD SLOAD SWAP1 JUMP JUMPDEST PUSH2 0x204 PUSH2 0x2F8 CALLDATASIZE PUSH1 0x4 PUSH2 0x1089 JUMP JUMPDEST PUSH2 0xDB7 JUMP JUMPDEST PUSH1 0x0 DUP4 DUP2 MSTORE PUSH1 0x65 PUSH1 0x20 MSTORE PUSH1 0x40 DUP2 KECCAK256 PUSH1 0x2 ADD SLOAD PUSH1 0x1 PUSH1 0x1 PUSH1 0xA0 SHL SUB AND PUSH2 0x3B5 JUMPI PUSH1 0x40 MLOAD PUSH3 0x461BCD PUSH1 0xE5 SHL DUP2 MSTORE PUSH1 0x20 PUSH1 0x4 DUP3 ADD MSTORE PUSH1 0x50 PUSH1 0x24 DUP3 ADD MSTORE PUSH32 0x475254206F66666572733A206E6F7420616C6C6F77656420746F206D6F646966 PUSH1 0x44 DUP3 ADD MSTORE PUSH32 0x7920746865207072696365206C696D69742076696120616E2065787465726E61 PUSH1 0x64 DUP3 ADD MSTORE PUSH32 0x6C20736D61727420636F6E747261637400000000000000000000000000000000 PUSH1 0x84 DUP3 ADD MSTORE PUSH1 0xA4 ADD JUMPDEST PUSH1 0x40 MLOAD DUP1 SWAP2 SUB SWAP1 REVERT JUMPDEST PUSH1 0x0 DUP5 DUP2 MSTORE PUSH1 0x65 PUSH1 0x20 SWAP1 DUP2 MSTORE PUSH1 0x40 SWAP2 DUP3 SWAP1 KECCAK256 PUSH1 0x3 ADD SLOAD SWAP2 MLOAD PUSH2 0x3DB SWAP2 DUP7 SWAP2 DUP7 SWAP2 ADD PUSH2 0x11D7 JUMP JUMPDEST PUSH1 0x40 MLOAD PUSH1 0x20 DUP2 DUP4 SUB SUB DUP2 MSTORE SWAP1 PUSH1 0x40 MSTORE DUP1 MLOAD SWAP1 PUSH1 0x20 ADD KECCAK256 EQ PUSH2 0x472 JUMPI PUSH1 0x40 MLOAD PUSH3 0x461BCD PUSH1 0xE5 SHL DUP2 MSTORE PUSH1 0x20 PUSH1 0x4 DUP3 ADD MSTORE PUSH1 0x44 PUSH1 0x24 DUP3 ADD DUP2 SWAP1 MSTORE PUSH32 0x475254206F66666572733A207468652066756E6374696F6E20646F6573206E6F SWAP1 DUP3 ADD MSTORE PUSH32 0x74206D6174636820746865206F6E6520656E746572656420696E20746865206F PUSH1 0x64 DUP3 ADD MSTORE PUSH4 0x333332B9 PUSH1 0xE1 SHL PUSH1 0x84 DUP3 ADD MSTORE PUSH1 0xA4 ADD PUSH2 0x3AC JUMP JUMPDEST PUSH1 0x0 DUP5 DUP2 MSTORE PUSH1 0x65 PUSH1 0x20 MSTORE PUSH1 0x40 DUP1 DUP3 KECCAK256 PUSH1 0x2 ADD SLOAD SWAP1 MLOAD DUP3 SWAP2 PUSH1 0x1 PUSH1 0x1 PUSH1 0xA0 SHL SUB AND SWAP1 PUSH2 0x4A0 SWAP1 DUP8 SWAP1 DUP8 SWAP1 PUSH2 0x11D7 JUMP JUMPDEST PUSH1 0x0 PUSH1 0x40 MLOAD DUP1 DUP4 SUB DUP2 DUP6 GAS STATICCALL SWAP2 POP POP RETURNDATASIZE DUP1 PUSH1 0x0 DUP2 EQ PUSH2 0x4DB JUMPI PUSH1 0x40 MLOAD SWAP2 POP PUSH1 0x1F NOT PUSH1 0x3F RETURNDATASIZE ADD AND DUP3 ADD PUSH1 0x40 MSTORE RETURNDATASIZE DUP3 MSTORE RETURNDATASIZE PUSH1 0x0 PUSH1 0x20 DUP5 ADD RETURNDATACOPY PUSH2 0x4E0 JUMP JUMPDEST PUSH1 0x60 SWAP2 POP JUMPDEST POP SWAP2 POP SWAP2 POP DUP2 ISZERO PUSH2 0x508 JUMPI DUP1 DUP1 PUSH1 0x20 ADD SWAP1 MLOAD DUP2 ADD SWAP1 PUSH2 0x4FF SWAP2 SWAP1 PUSH2 0x11E7 JUMP JUMPDEST SWAP3 POP POP POP PUSH2 0x50F JUMP JUMPDEST PUSH1 0x0 SWAP3 POP POP POP JUMPDEST SWAP4 SWAP3 POP POP POP JUMP JUMPDEST PUSH1 0x0 DUP1 DUP3 PUSH1 0x1 PUSH1 0x1 PUSH1 0xA0 SHL SUB AND PUSH4 0xFEAF968C PUSH1 0x40 MLOAD DUP2 PUSH4 0xFFFFFFFF AND PUSH1 0xE0 SHL DUP2 MSTORE PUSH1 0x4 ADD PUSH1 0xA0 PUSH1 0x40 MLOAD DUP1 DUP4 SUB DUP2 DUP7 GAS STATICCALL ISZERO DUP1 ISZERO PUSH2 0x557 JUMPI RETURNDATASIZE PUSH1 0x0 DUP1 RETURNDATACOPY RETURNDATASIZE PUSH1 0x0 REVERT JUMPDEST POP POP POP POP PUSH1 0x40 MLOAD RETURNDATASIZE PUSH1 0x1F NOT PUSH1 0x1F DUP3 ADD AND DUP3 ADD DUP1 PUSH1 0x40 MSTORE POP DUP2 ADD SWAP1 PUSH2 0x57B SWAP2 SWAP1 PUSH2 0x121F JUMP JUMPDEST POP SWAP2 SWAP7 SWAP6 POP POP POP POP POP POP JUMP JUMPDEST PUSH1 0x0 DUP4 DUP2 MSTORE PUSH1 0x65 PUSH1 0x20 MSTORE PUSH1 0x40 DUP2 KECCAK256 PUSH1 0x2 ADD SLOAD PUSH1 0x1 PUSH1 0x1 PUSH1 0xA0 SHL SUB AND ISZERO PUSH2 0x62A JUMPI PUSH1 0x40 MLOAD PUSH3 0x461BCD PUSH1 0xE5 SHL DUP2 MSTORE PUSH1 0x20 PUSH1 0x4 DUP3 ADD MSTORE PUSH1 0x4C PUSH1 0x24 DUP3 ADD MSTORE PUSH32 0x475254206F66666572733A20746865207072696365206C696D69742073686F75 PUSH1 0x44 DUP3 ADD MSTORE PUSH32 0x6C6420626520757064617465642076696120616E2065787465726E616C20736D PUSH1 0x64 DUP3 ADD MSTORE PUSH12 0x185C9D0818DBDB9D1C9858DD PUSH1 0xA2 SHL PUSH1 0x84 DUP3 ADD MSTORE PUSH1 0xA4 ADD PUSH2 0x3AC JUMP JUMPDEST PUSH1 0x0 DUP5 DUP2 MSTORE PUSH1 0x65 PUSH1 0x20 SWAP1 DUP2 MSTORE PUSH1 0x40 SWAP2 DUP3 SWAP1 KECCAK256 PUSH1 0x3 ADD SLOAD SWAP2 MLOAD PUSH2 0x650 SWAP2 DUP7 SWAP2 DUP7 SWAP2 ADD PUSH2 0x11D7 JUMP JUMPDEST PUSH1 0x40 MLOAD PUSH1 0x20 DUP2 DUP4 SUB SUB DUP2 MSTORE SWAP1 PUSH1 0x40 MSTORE DUP1 MLOAD SWAP1 PUSH1 0x20 ADD KECCAK256 EQ PUSH2 0x6E7 JUMPI PUSH1 0x40 MLOAD PUSH3 0x461BCD PUSH1 0xE5 SHL DUP2 MSTORE PUSH1 0x20 PUSH1 0x4 DUP3 ADD MSTORE PUSH1 0x44 PUSH1 0x24 DUP3 ADD DUP2 SWAP1 MSTORE PUSH32 0x475254206F66666572733A207468652066756E6374696F6E20646F6573206E6F SWAP1 DUP3 ADD MSTORE PUSH32 0x74206D6174636820746865206F6E6520656E746572656420696E20746865206F PUSH1 0x64 DUP3 ADD MSTORE PUSH4 0x333332B9 PUSH1 0xE1 SHL PUSH1 0x84 DUP3 ADD MSTORE PUSH1 0xA4 ADD PUSH2 0x3AC JUMP JUMPDEST PUSH1 0x0 DUP1 PUSH2 0x6F6 DUP5 DUP7 ADD DUP7 PUSH2 0x126F JUMP JUMPDEST SWAP2 POP SWAP2 POP DUP1 PUSH2 0x704 DUP4 PUSH2 0x516 JUMP JUMPDEST PUSH2 0x70E SWAP2 SWAP1 PUSH2 0x12CA JUMP JUMPDEST SWAP7 SWAP6 POP POP POP POP POP POP JUMP JUMPDEST CALLER PUSH1 0x0 DUP2 DUP2 MSTORE PUSH1 0x66 PUSH1 0x20 SWAP1 DUP2 MSTORE PUSH1 0x40 DUP1 DUP4 KECCAK256 SLOAD SWAP1 MLOAD PUSH1 0x60 SWAP5 SWAP1 SWAP5 SHL PUSH12 0xFFFFFFFFFFFFFFFFFFFFFFFF NOT AND SWAP2 DUP5 ADD SWAP2 SWAP1 SWAP2 MSTORE PUSH1 0x34 DUP4 ADD MSTORE CHAINID PUSH1 0x54 DUP4 ADD MSTORE SWAP1 DUP2 SWAP1 PUSH1 0x74 ADD PUSH1 0x40 DUP1 MLOAD DUP1 DUP4 SUB PUSH1 0x1F NOT ADD DUP2 MSTORE DUP3 DUP3 MSTORE DUP1 MLOAD PUSH1 0x20 SWAP2 DUP3 ADD KECCAK256 PUSH1 0x0 DUP2 DUP2 MSTORE PUSH1 0x65 DUP4 MSTORE SWAP3 SWAP1 SWAP3 KECCAK256 CHAINID DUP2 SSTORE PUSH1 0x1 ADD DUP1 SLOAD PUSH20 0xFFFFFFFFFFFFFFFFFFFFFFFFFFFFFFFFFFFFFFFF NOT AND PUSH1 0x1 PUSH1 0x1 PUSH1 0xA0 SHL SUB DUP13 AND OR SWAP1 SSTORE SWAP1 SWAP3 POP PUSH2 0x7BC SWAP2 DUP7 SWAP2 DUP7 SWAP2 ADD PUSH2 0x11D7 JUMP JUMPDEST PUSH1 0x40 DUP1 MLOAD PUSH1 0x1F NOT DUP2 DUP5 SUB ADD DUP2 MSTORE DUP3 DUP3 MSTORE DUP1 MLOAD PUSH1 0x20 SWAP2 DUP3 ADD KECCAK256 PUSH1 0x0 DUP6 DUP2 MSTORE PUSH1 0x65 DUP4 MSTORE SWAP3 SWAP1 SWAP3 KECCAK256 PUSH1 0x4 ADD SWAP2 SWAP1 SWAP2 SSTORE PUSH2 0x7F6 SWAP2 DUP9 SWAP2 DUP9 SWAP2 ADD PUSH2 0x11D7 JUMP JUMPDEST PUSH1 0x40 DUP1 MLOAD PUSH1 0x1F NOT DUP2 DUP5 SUB ADD DUP2 MSTORE DUP3 DUP3 MSTORE DUP1 MLOAD PUSH1 0x20 SWAP2 DUP3 ADD KECCAK256 PUSH1 0x0 DUP6 DUP2 MSTORE PUSH1 0x65 DUP4 MSTORE DUP4 SWAP1 KECCAK256 PUSH1 0x3 DUP2 ADD SWAP2 SWAP1 SWAP2 SSTORE PUSH1 0x2 ADD SLOAD CHAINID DUP5 MSTORE SWAP2 MLOAD PUSH1 0x1 PUSH1 0x1 PUSH1 0xA0 SHL SUB DUP12 DUP2 AND SWAP5 SWAP4 AND SWAP3 DUP6 SWAP3 PUSH32 0x90D1517EAB8D1D52082251D5392431A6BF50B65D94217AD0A4BD02B15072445C SWAP3 SWAP2 DUP3 SWAP1 SUB ADD SWAP1 LOG4 CALLER PUSH1 0x0 SWAP1 DUP2 MSTORE PUSH1 0x66 PUSH1 0x20 MSTORE PUSH1 0x40 DUP2 KECCAK256 DUP1 SLOAD SWAP2 PUSH2 0x880 DUP4 PUSH2 0x12F2 JUMP JUMPDEST SWAP1 SWAP2 SSTORE POP PUSH1 0x1 SWAP9 SWAP8 POP POP POP POP POP POP POP POP JUMP JUMPDEST PUSH2 0x89A PUSH2 0xE44 JUMP JUMPDEST PUSH2 0x8A4 PUSH1 0x0 PUSH2 0xE9E JUMP JUMPDEST JUMP JUMPDEST CALLER PUSH1 0x0 DUP2 DUP2 MSTORE PUSH1 0x66 PUSH1 0x20 SWAP1 DUP2 MSTORE PUSH1 0x40 DUP1 DUP4 KECCAK256 SLOAD SWAP1 MLOAD PUSH1 0x60 SWAP5 SWAP1 SWAP5 SHL PUSH12 0xFFFFFFFFFFFFFFFFFFFFFFFF NOT AND SWAP2 DUP5 ADD SWAP2 SWAP1 SWAP2 MSTORE PUSH1 0x34 DUP4 ADD MSTORE CHAINID PUSH1 0x54 DUP4 ADD MSTORE SWAP1 DUP2 SWAP1 PUSH1 0x74 ADD PUSH1 0x40 DUP1 MLOAD PUSH1 0x1F NOT DUP2 DUP5 SUB ADD DUP2 MSTORE DUP3 DUP3 MSTORE DUP1 MLOAD PUSH1 0x20 SWAP2 DUP3 ADD KECCAK256 PUSH1 0x0 DUP2 DUP2 MSTORE PUSH1 0x65 DUP4 MSTORE SWAP3 SWAP1 SWAP3 KECCAK256 CHAINID DUP2 SSTORE PUSH1 0x1 DUP2 ADD DUP1 SLOAD PUSH1 0x1 PUSH1 0x1 PUSH1 0xA0 SHL SUB DUP1 DUP16 AND PUSH20 0xFFFFFFFFFFFFFFFFFFFFFFFFFFFFFFFFFFFFFFFF NOT SWAP3 DUP4 AND OR SWAP1 SWAP3 SSTORE PUSH1 0x2 SWAP1 SWAP3 ADD DUP1 SLOAD SWAP2 DUP14 AND SWAP2 SWAP1 SWAP3 AND OR SWAP1 SSTORE SWAP1 SWAP3 POP PUSH2 0x960 SWAP2 DUP7 SWAP2 DUP7 SWAP2 ADD PUSH2 0x11D7 JUMP JUMPDEST PUSH1 0x40 DUP1 MLOAD PUSH1 0x1F NOT DUP2 DUP5 SUB ADD DUP2 MSTORE DUP3 DUP3 MSTORE DUP1 MLOAD PUSH1 0x20 SWAP2 DUP3 ADD KECCAK256 PUSH1 0x0 DUP6 DUP2 MSTORE PUSH1 0x65 DUP4 MSTORE SWAP3 SWAP1 SWAP3 KECCAK256 PUSH1 0x4 ADD SWAP2 SWAP1 SWAP2 SSTORE PUSH2 0x99A SWAP2 DUP9 SWAP2 DUP9 SWAP2 ADD PUSH2 0x11D7 JUMP JUMPDEST PUSH1 0x40 DUP1 MLOAD PUSH1 0x1F NOT DUP2 DUP5 SUB ADD DUP2 MSTORE DUP3 DUP3 MSTORE DUP1 MLOAD PUSH1 0x20 SWAP2 DUP3 ADD KECCAK256 PUSH1 0x0 DUP6 DUP2 MSTORE PUSH1 0x65 DUP4 MSTORE DUP4 SWAP1 KECCAK256 PUSH1 0x3 DUP2 ADD SWAP2 SWAP1 SWAP2 SSTORE PUSH1 0x2 ADD SLOAD CHAINID DUP5 MSTORE SWAP2 MLOAD PUSH1 0x1 PUSH1 0x1 PUSH1 0xA0 SHL SUB DUP13 DUP2 AND SWAP5 SWAP4 AND SWAP3 DUP6 SWAP3 PUSH32 0x90D1517EAB8D1D52082251D5392431A6BF50B65D94217AD0A4BD02B15072445C SWAP3 SWAP2 DUP3 SWAP1 SUB ADD SWAP1 LOG4 CALLER PUSH1 0x0 SWAP1 DUP2 MSTORE PUSH1 0x66 PUSH1 0x20 MSTORE PUSH1 0x40 DUP2 KECCAK256 DUP1 SLOAD SWAP2 PUSH2 0xA24 DUP4 PUSH2 0x12F2 JUMP JUMPDEST SWAP1 SWAP2 SSTORE POP PUSH1 0x1 SWAP10 SWAP9 POP POP POP POP POP POP POP POP POP JUMP JUMPDEST PUSH1 0x0 DUP4 DUP2 MSTORE PUSH1 0x65 PUSH1 0x20 MSTORE PUSH1 0x40 DUP2 KECCAK256 PUSH1 0x2 ADD SLOAD PUSH1 0x1 PUSH1 0x1 PUSH1 0xA0 SHL SUB AND ISZERO PUSH2 0xADA JUMPI PUSH1 0x40 MLOAD PUSH3 0x461BCD PUSH1 0xE5 SHL DUP2 MSTORE PUSH1 0x20 PUSH1 0x4 DUP3 ADD MSTORE PUSH1 0x4C PUSH1 0x24 DUP3 ADD MSTORE PUSH32 0x475254206F66666572733A20746865207072696365206C696D69742073686F75 PUSH1 0x44 DUP3 ADD MSTORE PUSH32 0x6C6420626520757064617465642076696120616E2065787465726E616C20736D PUSH1 0x64 DUP3 ADD MSTORE PUSH12 0x185C9D0818DBDB9D1C9858DD PUSH1 0xA2 SHL PUSH1 0x84 DUP3 ADD MSTORE PUSH1 0xA4 ADD PUSH2 0x3AC JUMP JUMPDEST PUSH1 0x0 DUP5 DUP2 MSTORE PUSH1 0x65 PUSH1 0x20 SWAP1 DUP2 MSTORE PUSH1 0x40 SWAP2 DUP3 SWAP1 KECCAK256 PUSH1 0x4 ADD SLOAD SWAP2 MLOAD PUSH2 0xB00 SWAP2 DUP7 SWAP2 DUP7 SWAP2 ADD PUSH2 0x11D7 JUMP JUMPDEST PUSH1 0x40 MLOAD PUSH1 0x20 DUP2 DUP4 SUB SUB DUP2 MSTORE SWAP1 PUSH1 0x40 MSTORE DUP1 MLOAD SWAP1 PUSH1 0x20 ADD KECCAK256 EQ PUSH2 0xB97 JUMPI PUSH1 0x40 MLOAD PUSH3 0x461BCD PUSH1 0xE5 SHL DUP2 MSTORE PUSH1 0x20 PUSH1 0x4 DUP3 ADD MSTORE PUSH1 0x44 PUSH1 0x24 DUP3 ADD DUP2 SWAP1 MSTORE PUSH32 0x475254206F66666572733A207468652066756E6374696F6E20646F6573206E6F SWAP1 DUP3 ADD MSTORE PUSH32 0x74206D6174636820746865206F6E6520656E746572656420696E20746865206F PUSH1 0x64 DUP3 ADD MSTORE PUSH4 0x333332B9 PUSH1 0xE1 SHL PUSH1 0x84 DUP3 ADD MSTORE PUSH1 0xA4 ADD PUSH2 0x3AC JUMP JUMPDEST PUSH1 0x0 DUP1 PUSH2 0xBA6 DUP5 DUP7 ADD DUP7 PUSH2 0x126F JUMP JUMPDEST SWAP2 POP SWAP2 POP DUP1 PUSH2 0xBB4 DUP4 PUSH2 0x516 JUMP JUMPDEST PUSH2 0x70E SWAP2 SWAP1 PUSH2 0x130B JUMP JUMPDEST PUSH1 0x0 DUP4 DUP2 MSTORE PUSH1 0x65 PUSH1 0x20 MSTORE PUSH1 0x40 DUP2 KECCAK256 PUSH1 0x2 ADD SLOAD PUSH1 0x1 PUSH1 0x1 PUSH1 0xA0 SHL SUB AND PUSH2 0xC71 JUMPI PUSH1 0x40 MLOAD PUSH3 0x461BCD PUSH1 0xE5 SHL DUP2 MSTORE PUSH1 0x20 PUSH1 0x4 DUP3 ADD MSTORE PUSH1 0x50 PUSH1 0x24 DUP3 ADD MSTORE PUSH32 0x475254206F66666572733A206E6F7420616C6C6F77656420746F206D6F646966 PUSH1 0x44 DUP3 ADD MSTORE PUSH32 0x7920746865207072696365206C696D69742076696120616E2065787465726E61 PUSH1 0x64 DUP3 ADD MSTORE PUSH32 0x6C20736D61727420636F6E747261637400000000000000000000000000000000 PUSH1 0x84 DUP3 ADD MSTORE PUSH1 0xA4 ADD PUSH2 0x3AC JUMP JUMPDEST PUSH1 0x0 DUP5 DUP2 MSTORE PUSH1 0x65 PUSH1 0x20 SWAP1 DUP2 MSTORE PUSH1 0x40 SWAP2 DUP3 SWAP1 KECCAK256 PUSH1 0x4 ADD SLOAD SWAP2 MLOAD PUSH2 0x3DB SWAP2 DUP7 SWAP2 DUP7 SWAP2 ADD PUSH2 0x11D7 JUMP JUMPDEST PUSH1 0x0 SLOAD PUSH2 0x100 SWAP1 DIV PUSH1 0xFF AND ISZERO DUP1 DUP1 ISZERO PUSH2 0xCB7 JUMPI POP PUSH1 0x0 SLOAD PUSH1 0x1 PUSH1 0xFF SWAP1 SWAP2 AND LT JUMPDEST DUP1 PUSH2 0xCD1 JUMPI POP ADDRESS EXTCODESIZE ISZERO DUP1 ISZERO PUSH2 0xCD1 JUMPI POP PUSH1 0x0 SLOAD PUSH1 0xFF AND PUSH1 0x1 EQ JUMPDEST PUSH2 0xD43 JUMPI PUSH1 0x40 MLOAD PUSH3 0x461BCD PUSH1 0xE5 SHL DUP2 MSTORE PUSH1 0x20 PUSH1 0x4 DUP3 ADD MSTORE PUSH1 0x2E PUSH1 0x24 DUP3 ADD MSTORE PUSH32 0x496E697469616C697A61626C653A20636F6E747261637420697320616C726561 PUSH1 0x44 DUP3 ADD MSTORE PUSH32 0x647920696E697469616C697A6564000000000000000000000000000000000000 PUSH1 0x64 DUP3 ADD MSTORE PUSH1 0x84 ADD PUSH2 0x3AC JUMP JUMPDEST PUSH1 0x0 DUP1 SLOAD PUSH1 0xFF NOT AND PUSH1 0x1 OR SWAP1 SSTORE DUP1 ISZERO PUSH2 0xD66 JUMPI PUSH1 0x0 DUP1 SLOAD PUSH2 0xFF00 NOT AND PUSH2 0x100 OR SWAP1 SSTORE JUMPDEST PUSH2 0xD6E PUSH2 0xEFD JUMP JUMPDEST DUP1 ISZERO PUSH2 0xDB4 JUMPI PUSH1 0x0 DUP1 SLOAD PUSH2 0xFF00 NOT AND SWAP1 SSTORE PUSH1 0x40 MLOAD PUSH1 0x1 DUP2 MSTORE PUSH32 0x7F26B83FF96E1F2B6A682F133852F6798A09C465DA95921460CEFB3847402498 SWAP1 PUSH1 0x20 ADD PUSH1 0x40 MLOAD DUP1 SWAP2 SUB SWAP1 LOG1 JUMPDEST POP JUMP JUMPDEST PUSH2 0xDBF PUSH2 0xE44 JUMP JUMPDEST PUSH1 0x1 PUSH1 0x1 PUSH1 0xA0 SHL SUB DUP2 AND PUSH2 0xE3B JUMPI PUSH1 0x40 MLOAD PUSH3 0x461BCD PUSH1 0xE5 SHL DUP2 MSTORE PUSH1 0x20 PUSH1 0x4 DUP3 ADD MSTORE PUSH1 0x26 PUSH1 0x24 DUP3 ADD MSTORE PUSH32 0x4F776E61626C653A206E6577206F776E657220697320746865207A65726F2061 PUSH1 0x44 DUP3 ADD MSTORE PUSH32 0x6464726573730000000000000000000000000000000000000000000000000000 PUSH1 0x64 DUP3 ADD MSTORE PUSH1 0x84 ADD PUSH2 0x3AC JUMP JUMPDEST PUSH2 0xDB4 DUP2 PUSH2 0xE9E JUMP JUMPDEST PUSH1 0x33 SLOAD PUSH1 0x1 PUSH1 0x1 PUSH1 0xA0 SHL SUB AND CALLER EQ PUSH2 0x8A4 JUMPI PUSH1 0x40 MLOAD PUSH3 0x461BCD PUSH1 0xE5 SHL DUP2 MSTORE PUSH1 0x20 PUSH1 0x4 DUP3 ADD DUP2 SWAP1 MSTORE PUSH1 0x24 DUP3 ADD MSTORE PUSH32 0x4F776E61626C653A2063616C6C6572206973206E6F7420746865206F776E6572 PUSH1 0x44 DUP3 ADD MSTORE PUSH1 0x64 ADD PUSH2 0x3AC JUMP JUMPDEST PUSH1 0x33 DUP1 SLOAD PUSH1 0x1 PUSH1 0x1 PUSH1 0xA0 SHL SUB DUP4 DUP2 AND PUSH20 0xFFFFFFFFFFFFFFFFFFFFFFFFFFFFFFFFFFFFFFFF NOT DUP4 AND DUP2 OR SWAP1 SWAP4 SSTORE PUSH1 0x40 MLOAD SWAP2 AND SWAP2 SWAP1 DUP3 SWAP1 PUSH32 0x8BE0079C531659141344CD1FD0A4F28419497F9722A3DAAFE3B4186F6B6457E0 SWAP1 PUSH1 0x0 SWAP1 LOG3 POP POP JUMP JUMPDEST PUSH1 0x0 SLOAD PUSH2 0x100 SWAP1 DIV PUSH1 0xFF AND PUSH2 0xF68 JUMPI PUSH1 0x40 MLOAD PUSH3 0x461BCD PUSH1 0xE5 SHL DUP2 MSTORE PUSH1 0x20 PUSH1 0x4 DUP3 ADD MSTORE PUSH1 0x2B PUSH1 0x24 DUP3 ADD MSTORE PUSH32 0x496E697469616C697A61626C653A20636F6E7472616374206973206E6F742069 PUSH1 0x44 DUP3 ADD MSTORE PUSH11 0x6E697469616C697A696E67 PUSH1 0xA8 SHL PUSH1 0x64 DUP3 ADD MSTORE PUSH1 0x84 ADD PUSH2 0x3AC JUMP JUMPDEST PUSH2 0x8A4 PUSH1 0x0 SLOAD PUSH2 0x100 SWAP1 DIV PUSH1 0xFF AND PUSH2 0xFD6 JUMPI PUSH1 0x40 MLOAD PUSH3 0x461BCD PUSH1 0xE5 SHL DUP2 MSTORE PUSH1 0x20 PUSH1 0x4 DUP3 ADD MSTORE PUSH1 0x2B PUSH1 0x24 DUP3 ADD MSTORE PUSH32 0x496E697469616C697A61626C653A20636F6E7472616374206973206E6F742069 PUSH1 0x44 DUP3 ADD MSTORE PUSH11 0x6E697469616C697A696E67 PUSH1 0xA8 SHL PUSH1 0x64 DUP3 ADD MSTORE PUSH1 0x84 ADD PUSH2 0x3AC JUMP JUMPDEST PUSH2 0x8A4 CALLER PUSH2 0xE9E JUMP JUMPDEST PUSH1 0x0 DUP1 DUP4 PUSH1 0x1F DUP5 ADD SLT PUSH2 0xFF1 JUMPI PUSH1 0x0 DUP1 REVERT JUMPDEST POP DUP2 CALLDATALOAD PUSH8 0xFFFFFFFFFFFFFFFF DUP2 GT ISZERO PUSH2 0x1009 JUMPI PUSH1 0x0 DUP1 REVERT JUMPDEST PUSH1 0x20 DUP4 ADD SWAP2 POP DUP4 PUSH1 0x20 DUP3 DUP6 ADD ADD GT ISZERO PUSH2 0x1021 JUMPI PUSH1 0x0 DUP1 REVERT JUMPDEST SWAP3 POP SWAP3 SWAP1 POP JUMP JUMPDEST PUSH1 0x0 DUP1 PUSH1 0x0 PUSH1 0x40 DUP5 DUP7 SUB SLT ISZERO PUSH2 0x103D JUMPI PUSH1 0x0 DUP1 REVERT JUMPDEST DUP4 CALLDATALOAD SWAP3 POP PUSH1 0x20 DUP5 ADD CALLDATALOAD PUSH8 0xFFFFFFFFFFFFFFFF DUP2 GT ISZERO PUSH2 0x105B JUMPI PUSH1 0x0 DUP1 REVERT JUMPDEST PUSH2 0x1067 DUP7 DUP3 DUP8 ADD PUSH2 0xFDF JUMP JUMPDEST SWAP5 SWAP8 SWAP1 SWAP7 POP SWAP4 SWAP5 POP POP POP POP JUMP JUMPDEST PUSH1 0x1 PUSH1 0x1 PUSH1 0xA0 SHL SUB DUP2 AND DUP2 EQ PUSH2 0xDB4 JUMPI PUSH1 0x0 DUP1 REVERT JUMPDEST PUSH1 0x0 PUSH1 0x20 DUP3 DUP5 SUB SLT ISZERO PUSH2 0x109B JUMPI PUSH1 0x0 DUP1 REVERT JUMPDEST DUP2 CALLDATALOAD PUSH2 0x50F DUP2 PUSH2 0x1074 JUMP JUMPDEST PUSH1 0x0 PUSH1 0x20 DUP3 DUP5 SUB SLT ISZERO PUSH2 0x10B8 JUMPI PUSH1 0x0 DUP1 REVERT JUMPDEST POP CALLDATALOAD SWAP2 SWAP1 POP JUMP JUMPDEST PUSH1 0x0 DUP1 PUSH1 0x0 DUP1 PUSH1 0x0 PUSH1 0x60 DUP7 DUP9 SUB SLT ISZERO PUSH2 0x10D7 JUMPI PUSH1 0x0 DUP1 REVERT JUMPDEST DUP6 CALLDATALOAD PUSH2 0x10E2 DUP2 PUSH2 0x1074 JUMP JUMPDEST SWAP5 POP PUSH1 0x20 DUP7 ADD CALLDATALOAD PUSH8 0xFFFFFFFFFFFFFFFF DUP1 DUP3 GT ISZERO PUSH2 0x10FF JUMPI PUSH1 0x0 DUP1 REVERT JUMPDEST PUSH2 0x110B DUP10 DUP4 DUP11 ADD PUSH2 0xFDF JUMP JUMPDEST SWAP1 SWAP7 POP SWAP5 POP PUSH1 0x40 DUP9 ADD CALLDATALOAD SWAP2 POP DUP1 DUP3 GT ISZERO PUSH2 0x1124 JUMPI PUSH1 0x0 DUP1 REVERT JUMPDEST POP PUSH2 0x1131 DUP9 DUP3 DUP10 ADD PUSH2 0xFDF JUMP JUMPDEST SWAP7 SWAP10 SWAP6 SWAP9 POP SWAP4 SWAP7 POP SWAP3 SWAP5 SWAP4 SWAP3 POP POP POP JUMP JUMPDEST PUSH1 0x0 DUP1 PUSH1 0x0 DUP1 PUSH1 0x0 DUP1 PUSH1 0x80 DUP8 DUP10 SUB SLT ISZERO PUSH2 0x115B JUMPI PUSH1 0x0 DUP1 REVERT JUMPDEST DUP7 CALLDATALOAD PUSH2 0x1166 DUP2 PUSH2 0x1074 JUMP JUMPDEST SWAP6 POP PUSH1 0x20 DUP8 ADD CALLDATALOAD PUSH2 0x1176 DUP2 PUSH2 0x1074 JUMP JUMPDEST SWAP5 POP PUSH1 0x40 DUP8 ADD CALLDATALOAD PUSH8 0xFFFFFFFFFFFFFFFF DUP1 DUP3 GT ISZERO PUSH2 0x1193 JUMPI PUSH1 0x0 DUP1 REVERT JUMPDEST PUSH2 0x119F DUP11 DUP4 DUP12 ADD PUSH2 0xFDF JUMP JUMPDEST SWAP1 SWAP7 POP SWAP5 POP PUSH1 0x60 DUP10 ADD CALLDATALOAD SWAP2 POP DUP1 DUP3 GT ISZERO PUSH2 0x11B8 JUMPI PUSH1 0x0 DUP1 REVERT JUMPDEST POP PUSH2 0x11C5 DUP10 DUP3 DUP11 ADD PUSH2 0xFDF JUMP JUMPDEST SWAP8 SWAP11 SWAP7 SWAP10 POP SWAP5 SWAP8 POP SWAP3 SWAP6 SWAP4 SWAP5 SWAP3 POP POP POP JUMP JUMPDEST DUP2 DUP4 DUP3 CALLDATACOPY PUSH1 0x0 SWAP2 ADD SWAP1 DUP2 MSTORE SWAP2 SWAP1 POP JUMP JUMPDEST PUSH1 0x0 PUSH1 0x20 DUP3 DUP5 SUB SLT ISZERO PUSH2 0x11F9 JUMPI PUSH1 0x0 DUP1 REVERT JUMPDEST POP MLOAD SWAP2 SWAP1 POP JUMP JUMPDEST DUP1 MLOAD PUSH10 0xFFFFFFFFFFFFFFFFFFFF DUP2 AND DUP2 EQ PUSH2 0x121A JUMPI PUSH1 0x0 DUP1 REVERT JUMPDEST SWAP2 SWAP1 POP JUMP JUMPDEST PUSH1 0x0 DUP1 PUSH1 0x0 DUP1 PUSH1 0x0 PUSH1 0xA0 DUP7 DUP9 SUB SLT ISZERO PUSH2 0x1237 JUMPI PUSH1 0x0 DUP1 REVERT JUMPDEST PUSH2 0x1240 DUP7 PUSH2 0x1200 JUMP JUMPDEST SWAP5 POP PUSH1 0x20 DUP7 ADD MLOAD SWAP4 POP PUSH1 0x40 DUP7 ADD MLOAD SWAP3 POP PUSH1 0x60 DUP7 ADD MLOAD SWAP2 POP PUSH2 0x1263 PUSH1 0x80 DUP8 ADD PUSH2 0x1200 JUMP JUMPDEST SWAP1 POP SWAP3 SWAP6 POP SWAP3 SWAP6 SWAP1 SWAP4 POP JUMP JUMPDEST PUSH1 0x0 DUP1 PUSH1 0x40 DUP4 DUP6 SUB SLT ISZERO PUSH2 0x1282 JUMPI PUSH1 0x0 DUP1 REVERT JUMPDEST DUP3 CALLDATALOAD PUSH2 0x128D DUP2 PUSH2 0x1074 JUMP JUMPDEST SWAP5 PUSH1 0x20 SWAP4 SWAP1 SWAP4 ADD CALLDATALOAD SWAP4 POP POP POP JUMP JUMPDEST PUSH32 0x4E487B7100000000000000000000000000000000000000000000000000000000 PUSH1 0x0 MSTORE PUSH1 0x11 PUSH1 0x4 MSTORE PUSH1 0x24 PUSH1 0x0 REVERT JUMPDEST DUP1 DUP3 ADD DUP3 DUP2 SLT PUSH1 0x0 DUP4 SLT DUP1 ISZERO DUP3 AND DUP3 ISZERO DUP3 AND OR ISZERO PUSH2 0x12EA JUMPI PUSH2 0x12EA PUSH2 0x129B JUMP JUMPDEST POP POP SWAP3 SWAP2 POP POP JUMP JUMPDEST PUSH1 0x0 PUSH1 0x1 DUP3 ADD PUSH2 0x1304 JUMPI PUSH2 0x1304 PUSH2 0x129B JUMP JUMPDEST POP PUSH1 0x1 ADD SWAP1 JUMP JUMPDEST DUP2 DUP2 SUB PUSH1 0x0 DUP4 SLT DUP1 ISZERO DUP4 DUP4 SGT AND DUP4 DUP4 SLT DUP3 AND OR ISZERO PUSH2 0x132B JUMPI PUSH2 0x132B PUSH2 0x129B JUMP JUMPDEST POP SWAP3 SWAP2 POP POP JUMP INVALID LOG2 PUSH5 0x6970667358 0x22 SLT KECCAK256 CALLCODE 0xD6 0xF7 0xBA 0xF8 0xC7 SDIV PUSH14 0x4318FF99E8C15143F69C4F66259 0xB5 0x5E SLT MLOAD EXTCODEHASH DUP13 0xD0 0xE PUSH11 0xF964736F6C634300081100 CALLER "},"gasEstimates":{"creation":{"codeDepositCost":"993600","executionCost":"1034","totalCost":"994634"},"external":{"getAddressOffer(bytes32)":"2506","getChainIdOffer(bytes32)":"2516","getLatestPrice(address)":"infinite","getLowerLimitFnHashOffer(bytes32)":"2499","getLowerPriceLimitFromContract(bytes32,bytes)":"infinite","getLowerPriceLimitFromGrindery(bytes32,bytes)":"infinite","getNonceUser(address)":"2543","getTokenOffer(bytes32)":"2551","getUpperLimitFnHashOffer(bytes32)":"2500","getUpperPriceLimitFromContract(bytes32,bytes)":"infinite","getUpperPriceLimitFromGrindery(bytes32,bytes)":"infinite","initializeGrtOffer()":"infinite","owner()":"2420","renounceOwnership()":"infinite","setOfferWithContract(address,address,bytes,bytes)":"infinite","setOfferWithGrindery(address,bytes,bytes)":"infinite","transferOwnership(address)":"infinite"},"internal":{"decodeBytes(bytes memory)":"infinite","decodePrice(bytes memory)":"infinite"}},"methodIdentifiers":{"getAddressOffer(bytes32)":"7fc6176c","getChainIdOffer(bytes32)":"75012c8b","getLatestPrice(address)":"16345f18","getLowerLimitFnHashOffer(bytes32)":"e956eb8a","getLowerPriceLimitFromContract(bytes32,bytes)":"9ef63023","getLowerPriceLimitFromGrindery(bytes32,bytes)":"8c02d6ff","getNonceUser(address)":"5adbe5de","getTokenOffer(bytes32)":"4516010f","getUpperLimitFnHashOffer(bytes32)":"a1c59cef","getUpperPriceLimitFromContract(bytes32,bytes)":"0a0ef56d","getUpperPriceLimitFromGrindery(bytes32,bytes)":"5a3f5fdb","initializeGrtOffer()":"bc61494e","owner()":"8da5cb5b","renounceOwnership()":"715018a6","setOfferWithContract(address,address,bytes,bytes)":"86c2763d","setOfferWithGrindery(address,bytes,bytes)":"670d7db7","transferOwnership(address)":"f2fde38b"}},"storageLayout":{"storage":[{"astId":184,"contract":"contracts/v0.2.0/GrtOffer.sol:GrtOffer","label":"_initialized","offset":0,"slot":"0","type":"t_uint8"},{"astId":187,"contract":"contracts/v0.2.0/GrtOffer.sol:GrtOffer","label":"_initializing","offset":1,"slot":"0","type":"t_bool"},{"astId":671,"contract":"contracts/v0.2.0/GrtOffer.sol:GrtOffer","label":"__gap","offset":0,"slot":"1","type":"t_array(t_uint256)50_storage"},{"astId":56,"contract":"contracts/v0.2.0/GrtOffer.sol:GrtOffer","label":"_owner","offset":0,"slot":"51","type":"t_address"},{"astId":176,"contract":"contracts/v0.2.0/GrtOffer.sol:GrtOffer","label":"__gap","offset":0,"slot":"52","type":"t_array(t_uint256)49_storage"},{"astId":1339,"contract":"contracts/v0.2.0/GrtOffer.sol:GrtOffer","label":"_offers","offset":0,"slot":"101","type":"t_mapping(t_bytes32,t_struct(Offer)1334_storage)"},{"astId":1343,"contract":"contracts/v0.2.0/GrtOffer.sol:GrtOffer","label":"_nonces","offset":0,"slot":"102","type":"t_mapping(t_address,t_uint256)"}],"types":{"t_address":{"encoding":"inplace","label":"address","numberOfBytes":"20"},"t_array(t_uint256)49_storage":{"base":"t_uint256","encoding":"inplace","label":"uint256[49]","numberOfBytes":"1568"},"t_array(t_uint256)50_storage":{"base":"t_uint256","encoding":"inplace","label":"uint256[50]","numberOfBytes":"1600"},"t_bool":{"encoding":"inplace","label":"bool","numberOfBytes":"1"},"t_bytes32":{"encoding":"inplace","label":"bytes32","numberOfBytes":"32"},"t_mapping(t_address,t_uint256)":{"encoding":"mapping","key":"t_address","label":"mapping(address => uint256)","numberOfBytes":"32","value":"t_uint256"},"t_mapping(t_bytes32,t_struct(Offer)1334_storage)":{"encoding":"mapping","key":"t_bytes32","label":"mapping(bytes32 => struct GrtOffer.Offer)","numberOfBytes":"32","value":"t_struct(Offer)1334_storage"},"t_struct(Offer)1334_storage":{"encoding":"inplace","label":"struct GrtOffer.Offer","members":[{"astId":1325,"contract":"contracts/v0.2.0/GrtOffer.sol:GrtOffer","label":"chainId","offset":0,"slot":"0","type":"t_uint256"},{"astId":1327,"contract":"contracts/v0.2.0/GrtOffer.sol:GrtOffer","label":"token","offset":0,"slot":"1","type":"t_address"},{"astId":1329,"contract":"contracts/v0.2.0/GrtOffer.sol:GrtOffer","label":"priceAddress","offset":0,"slot":"2","type":"t_address"},{"astId":1331,"contract":"contracts/v0.2.0/GrtOffer.sol:GrtOffer","label":"upperLimitFn","offset":0,"slot":"3","type":"t_bytes32"},{"astId":1333,"contract":"contracts/v0.2.0/GrtOffer.sol:GrtOffer","label":"lowerLimitFn","offset":0,"slot":"4","type":"t_bytes32"}],"numberOfBytes":"160"},"t_uint256":{"encoding":"inplace","label":"uint256","numberOfBytes":"32"},"t_uint8":{"encoding":"inplace","label":"uint8","numberOfBytes":"1"}}},"userdoc":{"kind":"user","methods":{},"version":1}}}}