{"contracts/v0.2.0/GrtPool.sol":{"GrtPool":{"abi":[{"anonymous":false,"inputs":[{"indexed":false,"internalType":"uint8","name":"version","type":"uint8"}],"name":"Initialized","type":"event"},{"anonymous":false,"inputs":[{"indexed":true,"internalType":"bytes32","name":"_idRequest","type":"bytes32"},{"indexed":true,"internalType":"uint256","name":"_idOffer","type":"uint256"}],"name":"LogAcceptOffer","type":"event"},{"anonymous":false,"inputs":[{"indexed":true,"internalType":"bytes32","name":"_idRequest","type":"bytes32"},{"indexed":true,"internalType":"uint256","name":"_idOffer","type":"uint256"}],"name":"LogCreateOffer","type":"event"},{"anonymous":false,"inputs":[{"indexed":true,"internalType":"bytes32","name":"_idRequest","type":"bytes32"},{"indexed":true,"internalType":"address","name":"_token","type":"address"},{"indexed":true,"internalType":"uint256","name":"_amount","type":"uint256"},{"indexed":false,"internalType":"uint256","name":"_chainId","type":"uint256"}],"name":"LogDeposit","type":"event"},{"anonymous":false,"inputs":[{"indexed":true,"internalType":"bytes32","name":"_idRequest","type":"bytes32"},{"indexed":true,"internalType":"uint256","name":"_idOffer","type":"uint256"}],"name":"LogOfferPaidCrossChain","type":"event"},{"anonymous":false,"inputs":[{"indexed":true,"internalType":"bytes32","name":"_idRequest","type":"bytes32"},{"indexed":true,"internalType":"uint256","name":"_idOffer","type":"uint256"}],"name":"LogOfferPaidOnChain","type":"event"},{"anonymous":false,"inputs":[{"indexed":true,"internalType":"bytes32","name":"_idRequest","type":"bytes32"},{"indexed":true,"internalType":"uint256","name":"_idOffer","type":"uint256"}],"name":"LogRejectOffer","type":"event"},{"anonymous":false,"inputs":[{"indexed":true,"internalType":"bytes32","name":"_idRequest","type":"bytes32"},{"indexed":true,"internalType":"address","name":"_token","type":"address"},{"indexed":true,"internalType":"uint256","name":"_amount","type":"uint256"},{"indexed":false,"internalType":"uint256","name":"_chainId","type":"uint256"}],"name":"LogRequest","type":"event"},{"anonymous":false,"inputs":[{"indexed":true,"internalType":"address","name":"_user","type":"address"},{"indexed":true,"internalType":"uint256","name":"_amount","type":"uint256"}],"name":"LogStake","type":"event"},{"anonymous":false,"inputs":[{"indexed":true,"internalType":"address","name":"previousOwner","type":"address"},{"indexed":true,"internalType":"address","name":"newOwner","type":"address"}],"name":"OwnershipTransferred","type":"event"},{"inputs":[{"internalType":"bytes32","name":"idRequest","type":"bytes32"},{"internalType":"uint256","name":"idOffer","type":"uint256"}],"name":"acceptOffer","outputs":[{"internalType":"bool","name":"","type":"bool"}],"stateMutability":"nonpayable","type":"function"},{"inputs":[{"internalType":"bytes32","name":"idRequest","type":"bytes32"},{"internalType":"uint256","name":"idOffer","type":"uint256"}],"name":"claimGRTWithoutDispute","outputs":[{"internalType":"bool","name":"","type":"bool"}],"stateMutability":"nonpayable","type":"function"},{"inputs":[{"internalType":"bytes32","name":"idRequest","type":"bytes32"},{"internalType":"uint256","name":"amount","type":"uint256"}],"name":"createOffer","outputs":[{"internalType":"bool","name":"","type":"bool"}],"stateMutability":"nonpayable","type":"function"},{"inputs":[{"internalType":"uint256","name":"nonce","type":"uint256"},{"internalType":"uint256","name":"amntDepGRT","type":"uint256"},{"internalType":"address","name":"tokenRequest","type":"address"},{"internalType":"uint256","name":"amntReq","type":"uint256"},{"internalType":"uint256","name":"chnIdReq","type":"uint256"},{"internalType":"address","name":"destAddr","type":"address"}],"name":"depositGRTRequestERC20","outputs":[{"internalType":"bool","name":"","type":"bool"}],"stateMutability":"nonpayable","type":"function"},{"inputs":[{"internalType":"uint256","name":"nonce","type":"uint256"},{"internalType":"uint256","name":"amntDepGRT","type":"uint256"},{"internalType":"uint256","name":"amntReq","type":"uint256"},{"internalType":"uint256","name":"chnIdReq","type":"uint256"},{"internalType":"address","name":"destAddr","type":"address"}],"name":"depositGRTRequestNative","outputs":[{"internalType":"bool","name":"","type":"bool"}],"stateMutability":"nonpayable","type":"function"},{"inputs":[{"internalType":"bytes32","name":"idRequest","type":"bytes32"}],"name":"getDepositAmount","outputs":[{"internalType":"uint256","name":"","type":"uint256"}],"stateMutability":"view","type":"function"},{"inputs":[{"internalType":"bytes32","name":"idRequest","type":"bytes32"}],"name":"getDepositChainId","outputs":[{"internalType":"uint256","name":"","type":"uint256"}],"stateMutability":"view","type":"function"},{"inputs":[{"internalType":"bytes32","name":"idRequest","type":"bytes32"}],"name":"getDepositToken","outputs":[{"internalType":"address","name":"","type":"address"}],"stateMutability":"view","type":"function"},{"inputs":[{"internalType":"address","name":"user","type":"address"}],"name":"getNonce","outputs":[{"internalType":"uint256","name":"","type":"uint256"}],"stateMutability":"view","type":"function"},{"inputs":[{"internalType":"bytes32","name":"idRequest","type":"bytes32"},{"internalType":"uint256","name":"idOffer","type":"uint256"}],"name":"getOfferAmount","outputs":[{"internalType":"uint256","name":"","type":"uint256"}],"stateMutability":"view","type":"function"},{"inputs":[{"internalType":"bytes32","name":"idRequest","type":"bytes32"},{"internalType":"uint256","name":"idOffer","type":"uint256"}],"name":"getOfferCreator","outputs":[{"internalType":"address","name":"","type":"address"}],"stateMutability":"view","type":"function"},{"inputs":[{"internalType":"bytes32","name":"idRequest","type":"bytes32"}],"name":"getRecipient","outputs":[{"internalType":"address","name":"","type":"address"}],"stateMutability":"view","type":"function"},{"inputs":[{"internalType":"bytes32","name":"idRequest","type":"bytes32"}],"name":"getRequestAmount","outputs":[{"internalType":"uint256","name":"","type":"uint256"}],"stateMutability":"view","type":"function"},{"inputs":[{"internalType":"bytes32","name":"idRequest","type":"bytes32"}],"name":"getRequestChainId","outputs":[{"internalType":"uint256","name":"","type":"uint256"}],"stateMutability":"view","type":"function"},{"inputs":[{"internalType":"bytes32","name":"idRequest","type":"bytes32"}],"name":"getRequestToken","outputs":[{"internalType":"address","name":"","type":"address"}],"stateMutability":"view","type":"function"},{"inputs":[{"internalType":"bytes32","name":"idRequest","type":"bytes32"}],"name":"getRequester","outputs":[{"internalType":"address","name":"","type":"address"}],"stateMutability":"view","type":"function"},{"inputs":[],"name":"grtAddress","outputs":[{"internalType":"address","name":"","type":"address"}],"stateMutability":"view","type":"function"},{"inputs":[],"name":"grtChainId","outputs":[{"internalType":"uint256","name":"","type":"uint256"}],"stateMutability":"view","type":"function"},{"inputs":[{"internalType":"address","name":"addrGRT","type":"address"},{"internalType":"uint256","name":"chainIdGRT","type":"uint256"},{"internalType":"address","name":"addrReality","type":"address"}],"name":"initializePool","outputs":[],"stateMutability":"nonpayable","type":"function"},{"inputs":[{"internalType":"bytes32","name":"idRequest","type":"bytes32"},{"internalType":"uint256","name":"idOffer","type":"uint256"}],"name":"isOfferAccepted","outputs":[{"internalType":"bool","name":"","type":"bool"}],"stateMutability":"view","type":"function"},{"inputs":[{"internalType":"bytes32","name":"idRequest","type":"bytes32"},{"internalType":"uint256","name":"idOffer","type":"uint256"}],"name":"isOfferPaid","outputs":[{"internalType":"bool","name":"","type":"bool"}],"stateMutability":"view","type":"function"},{"inputs":[{"internalType":"bytes32","name":"idRequest","type":"bytes32"}],"name":"isrequest","outputs":[{"internalType":"bool","name":"","type":"bool"}],"stateMutability":"view","type":"function"},{"inputs":[{"internalType":"bytes32","name":"idRequest","type":"bytes32"}],"name":"nbrOffersRequest","outputs":[{"internalType":"uint256","name":"","type":"uint256"}],"stateMutability":"view","type":"function"},{"inputs":[],"name":"owner","outputs":[{"internalType":"address","name":"","type":"address"}],"stateMutability":"view","type":"function"},{"inputs":[{"internalType":"bytes32","name":"idRequest","type":"bytes32"},{"internalType":"uint256","name":"idOffer","type":"uint256"}],"name":"payOfferOnChainERC20","outputs":[{"internalType":"bool","name":"","type":"bool"}],"stateMutability":"nonpayable","type":"function"},{"inputs":[{"internalType":"bytes32","name":"idRequest","type":"bytes32"},{"internalType":"uint256","name":"idOffer","type":"uint256"}],"name":"payOfferOnChainNative","outputs":[{"internalType":"bool","name":"","type":"bool"}],"stateMutability":"payable","type":"function"},{"inputs":[{"internalType":"bytes32","name":"idRequest","type":"bytes32"},{"internalType":"uint256","name":"idOffer","type":"uint256"}],"name":"rejectOffer","outputs":[{"internalType":"bool","name":"","type":"bool"}],"stateMutability":"nonpayable","type":"function"},{"inputs":[],"name":"renounceOwnership","outputs":[],"stateMutability":"nonpayable","type":"function"},{"inputs":[{"internalType":"address","name":"token","type":"address"}],"name":"setGRTAddr","outputs":[],"stateMutability":"nonpayable","type":"function"},{"inputs":[{"internalType":"uint256","name":"chainId","type":"uint256"}],"name":"setGRTChainId","outputs":[],"stateMutability":"nonpayable","type":"function"},{"inputs":[{"internalType":"uint256","name":"amount","type":"uint256"}],"name":"stakeGRT","outputs":[{"internalType":"bool","name":"","type":"bool"}],"stateMutability":"nonpayable","type":"function"},{"inputs":[{"internalType":"address","name":"account","type":"address"}],"name":"stakeOf","outputs":[{"internalType":"uint256","name":"","type":"uint256"}],"stateMutability":"view","type":"function"},{"inputs":[{"internalType":"address","name":"newOwner","type":"address"}],"name":"transferOwnership","outputs":[],"stateMutability":"nonpayable","type":"function"}],"devdoc":{"kind":"dev","methods":{"owner()":{"details":"Returns the address of the current owner."},"renounceOwnership()":{"details":"Leaves the contract without owner. It will not be possible to call `onlyOwner` functions anymore. Can only be called by the current owner. NOTE: Renouncing ownership will leave the contract without an owner, thereby removing any functionality that is only available to the owner."},"transferOwnership(address)":{"details":"Transfers ownership of the contract to a new account (`newOwner`). Can only be called by the current owner."}},"version":1},"evm":{"bytecode":{"linkReferences":{},"object":"608060405234801561001057600080fd5b5061248e806100206000396000f3fe6080604052600436106101fe5760003560e01c8063606e31121161011d578063b4bed2c9116100b0578063e9d9769f1161007f578063ef50e1d611610064578063ef50e1d61461073d578063f2fde38b1461075d578063fbc6da751461077d57600080fd5b8063e9d9769f146106e6578063ec1ad8d3146106fb57600080fd5b8063b4bed2c91461062f578063bfe5135914610668578063d4a4429a14610686578063d79ff4b6146106b657600080fd5b80638f09f930116100ec5780638f09f930146105af5780639f36b244146105cf578063ace7c37e146105ef578063b44a468b1461060f57600080fd5b8063606e31121461052a5780636bb1b9ea14610569578063715018a61461057c5780638da5cb5b1461059157600080fd5b80633e314b5a1161019557806352430b551161016457806352430b551461045f57806358381bbd1461047f578063584396bc146104b55780635b7a9341146104fa57600080fd5b80633e314b5a146103985780633e4e872f146103b8578063412ff89314610409578063426233601461042957600080fd5b80632ab18a50116101d15780632ab18a50146102b85780632ab89ca1146102eb5780632c3daef6146103325780632d0335ab1461036257600080fd5b80631208a32b1461020357806314ddc2531461023857806317030add14610276578063254a2ccc14610298575b600080fd5b34801561020f57600080fd5b5061022361021e36600461228c565b6107b6565b60405190151581526020015b60405180910390f35b34801561024457600080fd5b506102686102533660046122ae565b60009081526067602052604090206006015490565b60405190815260200161022f565b34801561028257600080fd5b506102966102913660046122ae565b61099e565b005b3480156102a457600080fd5b506102236102b336600461228c565b6109ab565b3480156102c457600080fd5b506102236102d33660046122ae565b60009081526067602052604090206008015460ff1690565b3480156102f757600080fd5b5061022361030636600461228c565b6000918252606760209081526040808420928452600a9092019052902060020154610100900460ff1690565b34801561033e57600080fd5b5061026861034d3660046122ae565b60009081526067602052604090206003015490565b34801561036e57600080fd5b5061026861037d3660046122e3565b6001600160a01b031660009081526069602052604090205490565b3480156103a457600080fd5b506102236103b336600461228c565b610b94565b3480156103c457600080fd5b506103f16103d33660046122ae565b6000908152606760205260409020600501546001600160a01b031690565b6040516001600160a01b03909116815260200161022f565b34801561041557600080fd5b506102966104243660046122e3565b610ec5565b34801561043557600080fd5b506102686104443660046122e3565b6001600160a01b031660009081526068602052604090205490565b34801561046b57600080fd5b5061022361047a3660046122fe565b610eef565b34801561048b57600080fd5b506103f161049a3660046122ae565b6000908152606760205260409020546001600160a01b031690565b3480156104c157600080fd5b506103f16104d036600461228c565b6000918252606760209081526040808420928452600a90920190529020546001600160a01b031690565b34801561050657600080fd5b506102686105153660046122ae565b60009081526067602052604090206009015490565b34801561053657600080fd5b5061026861054536600461228c565b6000918252606760209081526040808420928452600a909201905290206001015490565b61022361057736600461228c565b61105a565b34801561058857600080fd5b50610296611463565b34801561059d57600080fd5b506033546001600160a01b03166103f1565b3480156105bb57600080fd5b506102236105ca366004612356565b611477565b3480156105db57600080fd5b506102236105ea36600461228c565b6115de565b3480156105fb57600080fd5b5061022361060a3660046122ae565b611991565b34801561061b57600080fd5b5061022361062a36600461228c565b6119f6565b34801561063b57600080fd5b506103f161064a3660046122ae565b6000908152606760205260409020600201546001600160a01b031690565b34801561067457600080fd5b506065546001600160a01b03166103f1565b34801561069257600080fd5b506102686106a13660046122ae565b60009081526067602052604090206004015490565b3480156106c257600080fd5b506102686106d13660046122ae565b60009081526067602052604090206007015490565b3480156106f257600080fd5b50606654610268565b34801561070757600080fd5b5061022361071636600461228c565b6000918252606760209081526040808420928452600a909201905290206002015460ff1690565b34801561074957600080fd5b5061029661075836600461239f565b611d12565b34801561076957600080fd5b506102966107783660046122e3565b611e55565b34801561078957600080fd5b506103f16107983660046122ae565b6000908152606760205260409020600101546001600160a01b031690565b60008281526067602052604081206008015460ff1661082a5760405162461bcd60e51b815260206004820152602560248201527f47525420706f6f6c3a20746865207265717565737420646f6573206e6f742065604482015264786973742160d81b60648201526084015b60405180910390fd5b336000908152606860205260409020546001106108af5760405162461bcd60e51b815260206004820152602e60248201527f47525420706f6f6c3a20796f7572207374616b6520616d6f756e74206973206e60448201527f6f742073756666696369656e74210000000000000000000000000000000000006064820152608401610821565b6000838152606760205260408082206009015490519091829186917faed3c68f95c4339dc5dbe18d7eacbd00b479e30a26fecf3597ac76f6d743ecc291a36040805160808101825233815260208082018681526000838501818152606085018281528a83526067808652878420898552600a81018752978420965187546001600160a01b0319166001600160a01b0390911617875593516001870155905160029095018054915161ffff1990921695151561ff0019169590951761010091151591909102179093558783529052600990910180549161098d8361240a565b919050555060019150505b92915050565b6109a6611ee5565b606655565b6000828152606760209081526040808320848452600a0190915281206002015460ff16610a405760405162461bcd60e51b815260206004820152602860248201527f47525420706f6f6c3a20746865206f66666572206973206e6f7420616363657060448201527f74656420796574210000000000000000000000000000000000000000000000006064820152608401610821565b6000838152606760209081526040808320858452600a01909152902060020154610100900460ff1615610ac85760405162461bcd60e51b815260206004820152602a60248201527f47525420706f6f6c3a20746865206f666665722068617320616c7265616479206044820152696265656e20706169642160b01b6064820152608401610821565b6000838152606760205260409020546001600160a01b03163314610b3a5760405162461bcd60e51b8152602060048201526024808201527f47525420706f6f6c3a20796f7520617265206e6f7420746865207265717565736044820152637465722160e01b6064820152608401610821565b6000838152606760209081526040808320858452600a01909152808220600201805460ff1916905551839185917f8eb3c3b0aa4ce8f4ea417700b7cd919af02b24a8b8346dfd2b6bdf08612aa74c9190a350600192915050565b60008281526067602052604081206008015460ff16610c035760405162461bcd60e51b815260206004820152602560248201527f47525420706f6f6c3a20746865207265717565737420646f6573206e6f742065604482015264786973742160d81b6064820152608401610821565b6000838152606760209081526040808320858452600a019091529020546001600160a01b0316610c9b5760405162461bcd60e51b815260206004820152602360248201527f47525420706f6f6c3a20746865206f6666657220646f6573206e6f742065786960448201527f73742100000000000000000000000000000000000000000000000000000000006064820152608401610821565b6000838152606760209081526040808320858452600a0190915290206002015460ff1615610d315760405162461bcd60e51b815260206004820152602e60248201527f47525420706f6f6c3a20746865206f666665722068617320616c72656164792060448201527f6265656e206163636570746564210000000000000000000000000000000000006064820152608401610821565b6000838152606760205260409020546001600160a01b03163314610da35760405162461bcd60e51b8152602060048201526024808201527f47525420706f6f6c3a20796f7520617265206e6f7420746865207265717565736044820152637465722160e01b6064820152608401610821565b60005b600084815260676020526040902060090154811015610e67576000848152606760209081526040808320848452600a0190915290206002015460ff1615610e555760405162461bcd60e51b815260206004820152603e60248201527f47525420706f6f6c3a20746865726520697320616c726561647920616e20616360448201527f636570746564206f6666657220666f72207468697320726571756573742100006064820152608401610821565b80610e5f8161240a565b915050610da6565b506000838152606760209081526040808320858452600a01909152808220600201805460ff1916600117905551839185917f805ad3493798d2bba49fb177c42928ec4d30e9880662953ca090cdfaac00153c9190a350600192915050565b610ecd611ee5565b606580546001600160a01b0319166001600160a01b0392909216919091179055565b336000908152606960205260408120548714610f735760405162461bcd60e51b815260206004820152603060248201527f47525420706f6f6c3a2074686973206e6f6e63652068617320616c726561647960448201527f206265656e207375626d697474656421000000000000000000000000000000006064820152608401610821565b610f7c86611f3f565b506065546066546040805160208082018c90526bffffffffffffffffffffffff1933606090811b82168486015286811b82166054850152606884018d9052608884018690528b811b821660a885015260bc84018b905260dc84018a905288901b1660fc830152825180830360f00181526101108301808552815191909201209390529051919289926001600160a01b039091169184917fc50426a58c328dde98bf1e6e781031dc1d928393568d3b55d05eaff42762200a91610130908290030190a461104c818888888888611fbb565b506001979650505050505050565b6000828152606760209081526040808320848452600a0190915281206002015460ff166110e05760405162461bcd60e51b815260206004820152602e60248201527f47525420706f6f6c3a20746865206f6666657220686173206e6f74206265656e60448201526d206163636570746564207965742160901b6064820152608401610821565b6000838152606760209081526040808320858452600a01909152902060020154610100900460ff16156111685760405162461bcd60e51b815260206004820152602a60248201527f47525420706f6f6c3a20746865206f666665722068617320616c7265616479206044820152696265656e20706169642160b01b6064820152608401610821565b60008381526067602052604090206007015446146111ee5760405162461bcd60e51b815260206004820152603560248201527f47525420706f6f6c3a20746865206f666665722073686f756c64206e6f74206260448201527f652070616964206f6e207468697320636861696e2100000000000000000000006064820152608401610821565b60008381526067602052604090206006015434146112745760405162461bcd60e51b815260206004820152602e60248201527f47525420706f6f6c3a2074686520616d6f756e7420646f6573206e6f74206d6160448201527f74636820746865206f66666572210000000000000000000000000000000000006064820152608401610821565b6000838152606760209081526040808320858452600a019091529020546001600160a01b0316331461130e5760405162461bcd60e51b815260206004820152603060248201527f47525420706f6f6c3a20796f7520617265206e6f7420616c6c6f77656420746f60448201527f207061792074686973206f6666657221000000000000000000000000000000006064820152608401610821565b6000838152606760205260408082206001015490516001600160a01b039091169034908381818185875af1925050503d8060008114611369576040519150601f19603f3d011682016040523d82523d6000602084013e61136e565b606091505b50509050801561145c576065546000858152606760205260409081902060030154905163a9059cbb60e01b815233600482015260248101919091526001600160a01b039091169063a9059cbb906044016020604051808303816000875af11580156113dd573d6000803e3d6000fd5b505050506040513d601f19601f820116820180604052508101906114019190612423565b50604051839085907f691646be7d559e2b121f8ba51f09665c76183fe7abc9918ed643da3c219bde5f90600090a36000848152606760209081526040808320868452600a019091529020600201805461ff0019166101001790555b9392505050565b61146b611ee5565b61147560006120ff565b565b3360009081526069602052604081205486146114fb5760405162461bcd60e51b815260206004820152603060248201527f47525420706f6f6c3a2074686973206e6f6e63652068617320616c726561647960448201527f206265656e207375626d697474656421000000000000000000000000000000006064820152608401610821565b61150485611f3f565b506065546066546040805160208082018b90526bffffffffffffffffffffffff1933606090811b82168486015286811b82166054850152606884018c905260888401869052600060a885015260bc84018b905260dc84018a905288901b1660fc830152825160f08184030181526101108301808552815191909201209390529051919288926001600160a01b039091169184917fc50426a58c328dde98bf1e6e781031dc1d928393568d3b55d05eaff42762200a918190036101300190a46115d181876000888888611fbb565b5060019695505050505050565b6000828152606760209081526040808320848452600a0190915281206002015460ff166116645760405162461bcd60e51b815260206004820152602e60248201527f47525420706f6f6c3a20746865206f6666657220686173206e6f74206265656e60448201526d206163636570746564207965742160901b6064820152608401610821565b6000838152606760209081526040808320858452600a01909152902060020154610100900460ff16156116ec5760405162461bcd60e51b815260206004820152602a60248201527f47525420706f6f6c3a20746865206f666665722068617320616c7265616479206044820152696265656e20706169642160b01b6064820152608401610821565b60008381526067602052604090206007015446146117725760405162461bcd60e51b815260206004820152603560248201527f47525420706f6f6c3a20746865206f666665722073686f756c64206e6f74206260448201527f652070616964206f6e207468697320636861696e2100000000000000000000006064820152608401610821565b6000838152606760209081526040808320858452600a019091529020546001600160a01b0316331461180c5760405162461bcd60e51b815260206004820152603060248201527f47525420706f6f6c3a20796f7520617265206e6f7420616c6c6f77656420746f60448201527f207061792074686973206f6666657221000000000000000000000000000000006064820152608401610821565b600083815260676020526040908190206005810154600182015460069092015492516323b872dd60e01b81523360048201526001600160a01b039283166024820152604481019390935216906323b872dd906064016020604051808303816000875af1158015611880573d6000803e3d6000fd5b505050506040513d601f19601f820116820180604052508101906118a49190612423565b506065546000848152606760205260409081902060030154905163a9059cbb60e01b815233600482015260248101919091526001600160a01b039091169063a9059cbb906044016020604051808303816000875af115801561190a573d6000803e3d6000fd5b505050506040513d601f19601f8201168201806040525081019061192e9190612423565b50604051829084907f691646be7d559e2b121f8ba51f09665c76183fe7abc9918ed643da3c219bde5f90600090a3506000828152606760209081526040808320848452600a019091529020600201805461ff001916610100179055600192915050565b600061199c82611f3f565b50604051829033907f3dbdcfd4c1f2e08931aae3d544e149a1e643143f5234d166fe3debb78338849590600090a333600090815260686020526040812080548492906119e9908490612445565b9091555060019392505050565b60008281526067602052604081206008015460ff16611a655760405162461bcd60e51b815260206004820152602560248201527f47525420706f6f6c3a20746865207265717565737420646f6573206e6f742065604482015264786973742160d81b6064820152608401610821565b6000838152606760209081526040808320858452600a0190915290206002015460ff16611aeb5760405162461bcd60e51b815260206004820152602e60248201527f47525420706f6f6c3a20746865206f6666657220686173206e6f74206265656e60448201526d206163636570746564207965742160901b6064820152608401610821565b6000838152606760209081526040808320858452600a01909152902060020154610100900460ff1615611b735760405162461bcd60e51b815260206004820152602a60248201527f47525420706f6f6c3a20746865206f666665722068617320616c7265616479206044820152696265656e20706169642160b01b6064820152608401610821565b6000838152606760209081526040808320858452600a019091529020546001600160a01b03163314611c0d5760405162461bcd60e51b815260206004820152603160248201527f47525420706f6f6c3a20796f7520617265206e6f7420616c6c6f77656420746f60448201527f206d616b65207468697320636c61696d210000000000000000000000000000006064820152608401610821565b6065546000848152606760208181526040808420878552600a81018352818520549489905292909152600390910154905163a9059cbb60e01b81526001600160a01b039283166004820152602481019190915291169063a9059cbb906044016020604051808303816000875af1158015611c8b573d6000803e3d6000fd5b505050506040513d601f19601f82011682018060405250810190611caf9190612423565b50604051829084907f2b447358a077dedddad023f2778d84afc7de0e9e65674cbface9e94b74916ff090600090a3506000828152606760209081526040808320848452600a019091529020600201805461ff001916610100179055600192915050565b600054610100900460ff1615808015611d325750600054600160ff909116105b80611d4c5750303b158015611d4c575060005460ff166001145b611dbe5760405162461bcd60e51b815260206004820152602e60248201527f496e697469616c697a61626c653a20636f6e747261637420697320616c72656160448201527f647920696e697469616c697a65640000000000000000000000000000000000006064820152608401610821565b6000805460ff191660011790558015611de1576000805461ff0019166101001790555b611de9612151565b606580546001600160a01b0319166001600160a01b03861617905560668390558015611e4f576000805461ff0019169055604051600181527f7f26b83ff96e1f2b6a682f133852f6798a09c465da95921460cefb38474024989060200160405180910390a15b50505050565b611e5d611ee5565b6001600160a01b038116611ed95760405162461bcd60e51b815260206004820152602660248201527f4f776e61626c653a206e6577206f776e657220697320746865207a65726f206160448201527f64647265737300000000000000000000000000000000000000000000000000006064820152608401610821565b611ee2816120ff565b50565b6033546001600160a01b031633146114755760405162461bcd60e51b815260206004820181905260248201527f4f776e61626c653a2063616c6c6572206973206e6f7420746865206f776e65726044820152606401610821565b6065546040516323b872dd60e01b8152336004820152306024820152604481018390526000916001600160a01b0316906323b872dd906064016020604051808303816000875af1158015611f97573d6000803e3d6000fd5b505050506040513d601f19601f820116820180604052508101906109989190612423565b82846001600160a01b0316877f4fc5208f862c96a2a2595f09440919e8bda929d3e9b14a6e5fcac7c4cb8f5f5985604051611ff891815260200190565b60405180910390a4600086815260676020526040902080546001600160a01b0319908116331782556001820180546001600160a01b038581169190931617905560655460665461204e92919091169088906121c4565b80516002830180546001600160a01b0319166001600160a01b039092169190911790556020810151600383015560400151600482015561208f8585856121c4565b80516005830180546001600160a01b0319166001600160a01b039092169190911790556020808201516006840155604091820151600784015560088301805460ff1916600117905533600090815260699091529081208054916120f18361240a565b919050555050505050505050565b603380546001600160a01b038381166001600160a01b0319831681179093556040519116919082907f8be0079c531659141344cd1fd0a4f28419497f9722a3daafe3b4186f6b6457e090600090a35050565b600054610100900460ff166121bc5760405162461bcd60e51b815260206004820152602b60248201527f496e697469616c697a61626c653a20636f6e7472616374206973206e6f74206960448201526a6e697469616c697a696e6760a81b6064820152608401610821565b611475612218565b6121f1604051806060016040528060006001600160a01b0316815260200160008152602001600081525090565b50604080516060810182526001600160a01b03909416845260208401929092529082015290565b600054610100900460ff166122835760405162461bcd60e51b815260206004820152602b60248201527f496e697469616c697a61626c653a20636f6e7472616374206973206e6f74206960448201526a6e697469616c697a696e6760a81b6064820152608401610821565b611475336120ff565b6000806040838503121561229f57600080fd5b50508035926020909101359150565b6000602082840312156122c057600080fd5b5035919050565b80356001600160a01b03811681146122de57600080fd5b919050565b6000602082840312156122f557600080fd5b61145c826122c7565b60008060008060008060c0878903121561231757600080fd5b863595506020870135945061232e604088016122c7565b9350606087013592506080870135915061234a60a088016122c7565b90509295509295509295565b600080600080600060a0868803121561236e57600080fd5b85359450602086013593506040860135925060608601359150612393608087016122c7565b90509295509295909350565b6000806000606084860312156123b457600080fd5b6123bd846122c7565b9250602084013591506123d2604085016122c7565b90509250925092565b7f4e487b7100000000000000000000000000000000000000000000000000000000600052601160045260246000fd5b60006001820161241c5761241c6123db565b5060010190565b60006020828403121561243557600080fd5b8151801515811461145c57600080fd5b80820180821115610998576109986123db56fea26469706673582212207dd92c0e1838c8960545b20d8f8797721ea6df68ec5855531ffe706d5b76cc0664736f6c63430008110033","opcodes":"PUSH1 0x80 PUSH1 0x40 MSTORE CALLVALUE DUP1 ISZERO PUSH2 0x10 JUMPI PUSH1 0x0 DUP1 REVERT JUMPDEST POP PUSH2 0x248E DUP1 PUSH2 0x20 PUSH1 0x0 CODECOPY PUSH1 0x0 RETURN INVALID PUSH1 0x80 PUSH1 0x40 MSTORE PUSH1 0x4 CALLDATASIZE LT PUSH2 0x1FE JUMPI PUSH1 0x0 CALLDATALOAD PUSH1 0xE0 SHR DUP1 PUSH4 0x606E3112 GT PUSH2 0x11D JUMPI DUP1 PUSH4 0xB4BED2C9 GT PUSH2 0xB0 JUMPI DUP1 PUSH4 0xE9D9769F GT PUSH2 0x7F JUMPI DUP1 PUSH4 0xEF50E1D6 GT PUSH2 0x64 JUMPI DUP1 PUSH4 0xEF50E1D6 EQ PUSH2 0x73D JUMPI DUP1 PUSH4 0xF2FDE38B EQ PUSH2 0x75D JUMPI DUP1 PUSH4 0xFBC6DA75 EQ PUSH2 0x77D JUMPI PUSH1 0x0 DUP1 REVERT JUMPDEST DUP1 PUSH4 0xE9D9769F EQ PUSH2 0x6E6 JUMPI DUP1 PUSH4 0xEC1AD8D3 EQ PUSH2 0x6FB JUMPI PUSH1 0x0 DUP1 REVERT JUMPDEST DUP1 PUSH4 0xB4BED2C9 EQ PUSH2 0x62F JUMPI DUP1 PUSH4 0xBFE51359 EQ PUSH2 0x668 JUMPI DUP1 PUSH4 0xD4A4429A EQ PUSH2 0x686 JUMPI DUP1 PUSH4 0xD79FF4B6 EQ PUSH2 0x6B6 JUMPI PUSH1 0x0 DUP1 REVERT JUMPDEST DUP1 PUSH4 0x8F09F930 GT PUSH2 0xEC JUMPI DUP1 PUSH4 0x8F09F930 EQ PUSH2 0x5AF JUMPI DUP1 PUSH4 0x9F36B244 EQ PUSH2 0x5CF JUMPI DUP1 PUSH4 0xACE7C37E EQ PUSH2 0x5EF JUMPI DUP1 PUSH4 0xB44A468B EQ PUSH2 0x60F JUMPI PUSH1 0x0 DUP1 REVERT JUMPDEST DUP1 PUSH4 0x606E3112 EQ PUSH2 0x52A JUMPI DUP1 PUSH4 0x6BB1B9EA EQ PUSH2 0x569 JUMPI DUP1 PUSH4 0x715018A6 EQ PUSH2 0x57C JUMPI DUP1 PUSH4 0x8DA5CB5B EQ PUSH2 0x591 JUMPI PUSH1 0x0 DUP1 REVERT JUMPDEST DUP1 PUSH4 0x3E314B5A GT PUSH2 0x195 JUMPI DUP1 PUSH4 0x52430B55 GT PUSH2 0x164 JUMPI DUP1 PUSH4 0x52430B55 EQ PUSH2 0x45F JUMPI DUP1 PUSH4 0x58381BBD EQ PUSH2 0x47F JUMPI DUP1 PUSH4 0x584396BC EQ PUSH2 0x4B5 JUMPI DUP1 PUSH4 0x5B7A9341 EQ PUSH2 0x4FA JUMPI PUSH1 0x0 DUP1 REVERT JUMPDEST DUP1 PUSH4 0x3E314B5A EQ PUSH2 0x398 JUMPI DUP1 PUSH4 0x3E4E872F EQ PUSH2 0x3B8 JUMPI DUP1 PUSH4 0x412FF893 EQ PUSH2 0x409 JUMPI DUP1 PUSH4 0x42623360 EQ PUSH2 0x429 JUMPI PUSH1 0x0 DUP1 REVERT JUMPDEST DUP1 PUSH4 0x2AB18A50 GT PUSH2 0x1D1 JUMPI DUP1 PUSH4 0x2AB18A50 EQ PUSH2 0x2B8 JUMPI DUP1 PUSH4 0x2AB89CA1 EQ PUSH2 0x2EB JUMPI DUP1 PUSH4 0x2C3DAEF6 EQ PUSH2 0x332 JUMPI DUP1 PUSH4 0x2D0335AB EQ PUSH2 0x362 JUMPI PUSH1 0x0 DUP1 REVERT JUMPDEST DUP1 PUSH4 0x1208A32B EQ PUSH2 0x203 JUMPI DUP1 PUSH4 0x14DDC253 EQ PUSH2 0x238 JUMPI DUP1 PUSH4 0x17030ADD EQ PUSH2 0x276 JUMPI DUP1 PUSH4 0x254A2CCC EQ PUSH2 0x298 JUMPI JUMPDEST PUSH1 0x0 DUP1 REVERT JUMPDEST CALLVALUE DUP1 ISZERO PUSH2 0x20F JUMPI PUSH1 0x0 DUP1 REVERT JUMPDEST POP PUSH2 0x223 PUSH2 0x21E CALLDATASIZE PUSH1 0x4 PUSH2 0x228C JUMP JUMPDEST PUSH2 0x7B6 JUMP JUMPDEST PUSH1 0x40 MLOAD SWAP1 ISZERO ISZERO DUP2 MSTORE PUSH1 0x20 ADD JUMPDEST PUSH1 0x40 MLOAD DUP1 SWAP2 SUB SWAP1 RETURN JUMPDEST CALLVALUE DUP1 ISZERO PUSH2 0x244 JUMPI PUSH1 0x0 DUP1 REVERT JUMPDEST POP PUSH2 0x268 PUSH2 0x253 CALLDATASIZE PUSH1 0x4 PUSH2 0x22AE JUMP JUMPDEST PUSH1 0x0 SWAP1 DUP2 MSTORE PUSH1 0x67 PUSH1 0x20 MSTORE PUSH1 0x40 SWAP1 KECCAK256 PUSH1 0x6 ADD SLOAD SWAP1 JUMP JUMPDEST PUSH1 0x40 MLOAD SWAP1 DUP2 MSTORE PUSH1 0x20 ADD PUSH2 0x22F JUMP JUMPDEST CALLVALUE DUP1 ISZERO PUSH2 0x282 JUMPI PUSH1 0x0 DUP1 REVERT JUMPDEST POP PUSH2 0x296 PUSH2 0x291 CALLDATASIZE PUSH1 0x4 PUSH2 0x22AE JUMP JUMPDEST PUSH2 0x99E JUMP JUMPDEST STOP JUMPDEST CALLVALUE DUP1 ISZERO PUSH2 0x2A4 JUMPI PUSH1 0x0 DUP1 REVERT JUMPDEST POP PUSH2 0x223 PUSH2 0x2B3 CALLDATASIZE PUSH1 0x4 PUSH2 0x228C JUMP JUMPDEST PUSH2 0x9AB JUMP JUMPDEST CALLVALUE DUP1 ISZERO PUSH2 0x2C4 JUMPI PUSH1 0x0 DUP1 REVERT JUMPDEST POP PUSH2 0x223 PUSH2 0x2D3 CALLDATASIZE PUSH1 0x4 PUSH2 0x22AE JUMP JUMPDEST PUSH1 0x0 SWAP1 DUP2 MSTORE PUSH1 0x67 PUSH1 0x20 MSTORE PUSH1 0x40 SWAP1 KECCAK256 PUSH1 0x8 ADD SLOAD PUSH1 0xFF AND SWAP1 JUMP JUMPDEST CALLVALUE DUP1 ISZERO PUSH2 0x2F7 JUMPI PUSH1 0x0 DUP1 REVERT JUMPDEST POP PUSH2 0x223 PUSH2 0x306 CALLDATASIZE PUSH1 0x4 PUSH2 0x228C JUMP JUMPDEST PUSH1 0x0 SWAP2 DUP3 MSTORE PUSH1 0x67 PUSH1 0x20 SWAP1 DUP2 MSTORE PUSH1 0x40 DUP1 DUP5 KECCAK256 SWAP3 DUP5 MSTORE PUSH1 0xA SWAP1 SWAP3 ADD SWAP1 MSTORE SWAP1 KECCAK256 PUSH1 0x2 ADD SLOAD PUSH2 0x100 SWAP1 DIV PUSH1 0xFF AND SWAP1 JUMP JUMPDEST CALLVALUE DUP1 ISZERO PUSH2 0x33E JUMPI PUSH1 0x0 DUP1 REVERT JUMPDEST POP PUSH2 0x268 PUSH2 0x34D CALLDATASIZE PUSH1 0x4 PUSH2 0x22AE JUMP JUMPDEST PUSH1 0x0 SWAP1 DUP2 MSTORE PUSH1 0x67 PUSH1 0x20 MSTORE PUSH1 0x40 SWAP1 KECCAK256 PUSH1 0x3 ADD SLOAD SWAP1 JUMP JUMPDEST CALLVALUE DUP1 ISZERO PUSH2 0x36E JUMPI PUSH1 0x0 DUP1 REVERT JUMPDEST POP PUSH2 0x268 PUSH2 0x37D CALLDATASIZE PUSH1 0x4 PUSH2 0x22E3 JUMP JUMPDEST PUSH1 0x1 PUSH1 0x1 PUSH1 0xA0 SHL SUB AND PUSH1 0x0 SWAP1 DUP2 MSTORE PUSH1 0x69 PUSH1 0x20 MSTORE PUSH1 0x40 SWAP1 KECCAK256 SLOAD SWAP1 JUMP JUMPDEST CALLVALUE DUP1 ISZERO PUSH2 0x3A4 JUMPI PUSH1 0x0 DUP1 REVERT JUMPDEST POP PUSH2 0x223 PUSH2 0x3B3 CALLDATASIZE PUSH1 0x4 PUSH2 0x228C JUMP JUMPDEST PUSH2 0xB94 JUMP JUMPDEST CALLVALUE DUP1 ISZERO PUSH2 0x3C4 JUMPI PUSH1 0x0 DUP1 REVERT JUMPDEST POP PUSH2 0x3F1 PUSH2 0x3D3 CALLDATASIZE PUSH1 0x4 PUSH2 0x22AE JUMP JUMPDEST PUSH1 0x0 SWAP1 DUP2 MSTORE PUSH1 0x67 PUSH1 0x20 MSTORE PUSH1 0x40 SWAP1 KECCAK256 PUSH1 0x5 ADD SLOAD PUSH1 0x1 PUSH1 0x1 PUSH1 0xA0 SHL SUB AND SWAP1 JUMP JUMPDEST PUSH1 0x40 MLOAD PUSH1 0x1 PUSH1 0x1 PUSH1 0xA0 SHL SUB SWAP1 SWAP2 AND DUP2 MSTORE PUSH1 0x20 ADD PUSH2 0x22F JUMP JUMPDEST CALLVALUE DUP1 ISZERO PUSH2 0x415 JUMPI PUSH1 0x0 DUP1 REVERT JUMPDEST POP PUSH2 0x296 PUSH2 0x424 CALLDATASIZE PUSH1 0x4 PUSH2 0x22E3 JUMP JUMPDEST PUSH2 0xEC5 JUMP JUMPDEST CALLVALUE DUP1 ISZERO PUSH2 0x435 JUMPI PUSH1 0x0 DUP1 REVERT JUMPDEST POP PUSH2 0x268 PUSH2 0x444 CALLDATASIZE PUSH1 0x4 PUSH2 0x22E3 JUMP JUMPDEST PUSH1 0x1 PUSH1 0x1 PUSH1 0xA0 SHL SUB AND PUSH1 0x0 SWAP1 DUP2 MSTORE PUSH1 0x68 PUSH1 0x20 MSTORE PUSH1 0x40 SWAP1 KECCAK256 SLOAD SWAP1 JUMP JUMPDEST CALLVALUE DUP1 ISZERO PUSH2 0x46B JUMPI PUSH1 0x0 DUP1 REVERT JUMPDEST POP PUSH2 0x223 PUSH2 0x47A CALLDATASIZE PUSH1 0x4 PUSH2 0x22FE JUMP JUMPDEST PUSH2 0xEEF JUMP JUMPDEST CALLVALUE DUP1 ISZERO PUSH2 0x48B JUMPI PUSH1 0x0 DUP1 REVERT JUMPDEST POP PUSH2 0x3F1 PUSH2 0x49A CALLDATASIZE PUSH1 0x4 PUSH2 0x22AE JUMP JUMPDEST PUSH1 0x0 SWAP1 DUP2 MSTORE PUSH1 0x67 PUSH1 0x20 MSTORE PUSH1 0x40 SWAP1 KECCAK256 SLOAD PUSH1 0x1 PUSH1 0x1 PUSH1 0xA0 SHL SUB AND SWAP1 JUMP JUMPDEST CALLVALUE DUP1 ISZERO PUSH2 0x4C1 JUMPI PUSH1 0x0 DUP1 REVERT JUMPDEST POP PUSH2 0x3F1 PUSH2 0x4D0 CALLDATASIZE PUSH1 0x4 PUSH2 0x228C JUMP JUMPDEST PUSH1 0x0 SWAP2 DUP3 MSTORE PUSH1 0x67 PUSH1 0x20 SWAP1 DUP2 MSTORE PUSH1 0x40 DUP1 DUP5 KECCAK256 SWAP3 DUP5 MSTORE PUSH1 0xA SWAP1 SWAP3 ADD SWAP1 MSTORE SWAP1 KECCAK256 SLOAD PUSH1 0x1 PUSH1 0x1 PUSH1 0xA0 SHL SUB AND SWAP1 JUMP JUMPDEST CALLVALUE DUP1 ISZERO PUSH2 0x506 JUMPI PUSH1 0x0 DUP1 REVERT JUMPDEST POP PUSH2 0x268 PUSH2 0x515 CALLDATASIZE PUSH1 0x4 PUSH2 0x22AE JUMP JUMPDEST PUSH1 0x0 SWAP1 DUP2 MSTORE PUSH1 0x67 PUSH1 0x20 MSTORE PUSH1 0x40 SWAP1 KECCAK256 PUSH1 0x9 ADD SLOAD SWAP1 JUMP JUMPDEST CALLVALUE DUP1 ISZERO PUSH2 0x536 JUMPI PUSH1 0x0 DUP1 REVERT JUMPDEST POP PUSH2 0x268 PUSH2 0x545 CALLDATASIZE PUSH1 0x4 PUSH2 0x228C JUMP JUMPDEST PUSH1 0x0 SWAP2 DUP3 MSTORE PUSH1 0x67 PUSH1 0x20 SWAP1 DUP2 MSTORE PUSH1 0x40 DUP1 DUP5 KECCAK256 SWAP3 DUP5 MSTORE PUSH1 0xA SWAP1 SWAP3 ADD SWAP1 MSTORE SWAP1 KECCAK256 PUSH1 0x1 ADD SLOAD SWAP1 JUMP JUMPDEST PUSH2 0x223 PUSH2 0x577 CALLDATASIZE PUSH1 0x4 PUSH2 0x228C JUMP JUMPDEST PUSH2 0x105A JUMP JUMPDEST CALLVALUE DUP1 ISZERO PUSH2 0x588 JUMPI PUSH1 0x0 DUP1 REVERT JUMPDEST POP PUSH2 0x296 PUSH2 0x1463 JUMP JUMPDEST CALLVALUE DUP1 ISZERO PUSH2 0x59D JUMPI PUSH1 0x0 DUP1 REVERT JUMPDEST POP PUSH1 0x33 SLOAD PUSH1 0x1 PUSH1 0x1 PUSH1 0xA0 SHL SUB AND PUSH2 0x3F1 JUMP JUMPDEST CALLVALUE DUP1 ISZERO PUSH2 0x5BB JUMPI PUSH1 0x0 DUP1 REVERT JUMPDEST POP PUSH2 0x223 PUSH2 0x5CA CALLDATASIZE PUSH1 0x4 PUSH2 0x2356 JUMP JUMPDEST PUSH2 0x1477 JUMP JUMPDEST CALLVALUE DUP1 ISZERO PUSH2 0x5DB JUMPI PUSH1 0x0 DUP1 REVERT JUMPDEST POP PUSH2 0x223 PUSH2 0x5EA CALLDATASIZE PUSH1 0x4 PUSH2 0x228C JUMP JUMPDEST PUSH2 0x15DE JUMP JUMPDEST CALLVALUE DUP1 ISZERO PUSH2 0x5FB JUMPI PUSH1 0x0 DUP1 REVERT JUMPDEST POP PUSH2 0x223 PUSH2 0x60A CALLDATASIZE PUSH1 0x4 PUSH2 0x22AE JUMP JUMPDEST PUSH2 0x1991 JUMP JUMPDEST CALLVALUE DUP1 ISZERO PUSH2 0x61B JUMPI PUSH1 0x0 DUP1 REVERT JUMPDEST POP PUSH2 0x223 PUSH2 0x62A CALLDATASIZE PUSH1 0x4 PUSH2 0x228C JUMP JUMPDEST PUSH2 0x19F6 JUMP JUMPDEST CALLVALUE DUP1 ISZERO PUSH2 0x63B JUMPI PUSH1 0x0 DUP1 REVERT JUMPDEST POP PUSH2 0x3F1 PUSH2 0x64A CALLDATASIZE PUSH1 0x4 PUSH2 0x22AE JUMP JUMPDEST PUSH1 0x0 SWAP1 DUP2 MSTORE PUSH1 0x67 PUSH1 0x20 MSTORE PUSH1 0x40 SWAP1 KECCAK256 PUSH1 0x2 ADD SLOAD PUSH1 0x1 PUSH1 0x1 PUSH1 0xA0 SHL SUB AND SWAP1 JUMP JUMPDEST CALLVALUE DUP1 ISZERO PUSH2 0x674 JUMPI PUSH1 0x0 DUP1 REVERT JUMPDEST POP PUSH1 0x65 SLOAD PUSH1 0x1 PUSH1 0x1 PUSH1 0xA0 SHL SUB AND PUSH2 0x3F1 JUMP JUMPDEST CALLVALUE DUP1 ISZERO PUSH2 0x692 JUMPI PUSH1 0x0 DUP1 REVERT JUMPDEST POP PUSH2 0x268 PUSH2 0x6A1 CALLDATASIZE PUSH1 0x4 PUSH2 0x22AE JUMP JUMPDEST PUSH1 0x0 SWAP1 DUP2 MSTORE PUSH1 0x67 PUSH1 0x20 MSTORE PUSH1 0x40 SWAP1 KECCAK256 PUSH1 0x4 ADD SLOAD SWAP1 JUMP JUMPDEST CALLVALUE DUP1 ISZERO PUSH2 0x6C2 JUMPI PUSH1 0x0 DUP1 REVERT JUMPDEST POP PUSH2 0x268 PUSH2 0x6D1 CALLDATASIZE PUSH1 0x4 PUSH2 0x22AE JUMP JUMPDEST PUSH1 0x0 SWAP1 DUP2 MSTORE PUSH1 0x67 PUSH1 0x20 MSTORE PUSH1 0x40 SWAP1 KECCAK256 PUSH1 0x7 ADD SLOAD SWAP1 JUMP JUMPDEST CALLVALUE DUP1 ISZERO PUSH2 0x6F2 JUMPI PUSH1 0x0 DUP1 REVERT JUMPDEST POP PUSH1 0x66 SLOAD PUSH2 0x268 JUMP JUMPDEST CALLVALUE DUP1 ISZERO PUSH2 0x707 JUMPI PUSH1 0x0 DUP1 REVERT JUMPDEST POP PUSH2 0x223 PUSH2 0x716 CALLDATASIZE PUSH1 0x4 PUSH2 0x228C JUMP JUMPDEST PUSH1 0x0 SWAP2 DUP3 MSTORE PUSH1 0x67 PUSH1 0x20 SWAP1 DUP2 MSTORE PUSH1 0x40 DUP1 DUP5 KECCAK256 SWAP3 DUP5 MSTORE PUSH1 0xA SWAP1 SWAP3 ADD SWAP1 MSTORE SWAP1 KECCAK256 PUSH1 0x2 ADD SLOAD PUSH1 0xFF AND SWAP1 JUMP JUMPDEST CALLVALUE DUP1 ISZERO PUSH2 0x749 JUMPI PUSH1 0x0 DUP1 REVERT JUMPDEST POP PUSH2 0x296 PUSH2 0x758 CALLDATASIZE PUSH1 0x4 PUSH2 0x239F JUMP JUMPDEST PUSH2 0x1D12 JUMP JUMPDEST CALLVALUE DUP1 ISZERO PUSH2 0x769 JUMPI PUSH1 0x0 DUP1 REVERT JUMPDEST POP PUSH2 0x296 PUSH2 0x778 CALLDATASIZE PUSH1 0x4 PUSH2 0x22E3 JUMP JUMPDEST PUSH2 0x1E55 JUMP JUMPDEST CALLVALUE DUP1 ISZERO PUSH2 0x789 JUMPI PUSH1 0x0 DUP1 REVERT JUMPDEST POP PUSH2 0x3F1 PUSH2 0x798 CALLDATASIZE PUSH1 0x4 PUSH2 0x22AE JUMP JUMPDEST PUSH1 0x0 SWAP1 DUP2 MSTORE PUSH1 0x67 PUSH1 0x20 MSTORE PUSH1 0x40 SWAP1 KECCAK256 PUSH1 0x1 ADD SLOAD PUSH1 0x1 PUSH1 0x1 PUSH1 0xA0 SHL SUB AND SWAP1 JUMP JUMPDEST PUSH1 0x0 DUP3 DUP2 MSTORE PUSH1 0x67 PUSH1 0x20 MSTORE PUSH1 0x40 DUP2 KECCAK256 PUSH1 0x8 ADD SLOAD PUSH1 0xFF AND PUSH2 0x82A JUMPI PUSH1 0x40 MLOAD PUSH3 0x461BCD PUSH1 0xE5 SHL DUP2 MSTORE PUSH1 0x20 PUSH1 0x4 DUP3 ADD MSTORE PUSH1 0x25 PUSH1 0x24 DUP3 ADD MSTORE PUSH32 0x47525420706F6F6C3A20746865207265717565737420646F6573206E6F742065 PUSH1 0x44 DUP3 ADD MSTORE PUSH5 0x7869737421 PUSH1 0xD8 SHL PUSH1 0x64 DUP3 ADD MSTORE PUSH1 0x84 ADD JUMPDEST PUSH1 0x40 MLOAD DUP1 SWAP2 SUB SWAP1 REVERT JUMPDEST CALLER PUSH1 0x0 SWAP1 DUP2 MSTORE PUSH1 0x68 PUSH1 0x20 MSTORE PUSH1 0x40 SWAP1 KECCAK256 SLOAD PUSH1 0x1 LT PUSH2 0x8AF JUMPI PUSH1 0x40 MLOAD PUSH3 0x461BCD PUSH1 0xE5 SHL DUP2 MSTORE PUSH1 0x20 PUSH1 0x4 DUP3 ADD MSTORE PUSH1 0x2E PUSH1 0x24 DUP3 ADD MSTORE PUSH32 0x47525420706F6F6C3A20796F7572207374616B6520616D6F756E74206973206E PUSH1 0x44 DUP3 ADD MSTORE PUSH32 0x6F742073756666696369656E7421000000000000000000000000000000000000 PUSH1 0x64 DUP3 ADD MSTORE PUSH1 0x84 ADD PUSH2 0x821 JUMP JUMPDEST PUSH1 0x0 DUP4 DUP2 MSTORE PUSH1 0x67 PUSH1 0x20 MSTORE PUSH1 0x40 DUP1 DUP3 KECCAK256 PUSH1 0x9 ADD SLOAD SWAP1 MLOAD SWAP1 SWAP2 DUP3 SWAP2 DUP7 SWAP2 PUSH32 0xAED3C68F95C4339DC5DBE18D7EACBD00B479E30A26FECF3597AC76F6D743ECC2 SWAP2 LOG3 PUSH1 0x40 DUP1 MLOAD PUSH1 0x80 DUP2 ADD DUP3 MSTORE CALLER DUP2 MSTORE PUSH1 0x20 DUP1 DUP3 ADD DUP7 DUP2 MSTORE PUSH1 0x0 DUP4 DUP6 ADD DUP2 DUP2 MSTORE PUSH1 0x60 DUP6 ADD DUP3 DUP2 MSTORE DUP11 DUP4 MSTORE PUSH1 0x67 DUP1 DUP7 MSTORE DUP8 DUP5 KECCAK256 DUP10 DUP6 MSTORE PUSH1 0xA DUP2 ADD DUP8 MSTORE SWAP8 DUP5 KECCAK256 SWAP7 MLOAD DUP8 SLOAD PUSH1 0x1 PUSH1 0x1 PUSH1 0xA0 SHL SUB NOT AND PUSH1 0x1 PUSH1 0x1 PUSH1 0xA0 SHL SUB SWAP1 SWAP2 AND OR DUP8 SSTORE SWAP4 MLOAD PUSH1 0x1 DUP8 ADD SSTORE SWAP1 MLOAD PUSH1 0x2 SWAP1 SWAP6 ADD DUP1 SLOAD SWAP2 MLOAD PUSH2 0xFFFF NOT SWAP1 SWAP3 AND SWAP6 ISZERO ISZERO PUSH2 0xFF00 NOT AND SWAP6 SWAP1 SWAP6 OR PUSH2 0x100 SWAP2 ISZERO ISZERO SWAP2 SWAP1 SWAP2 MUL OR SWAP1 SWAP4 SSTORE DUP8 DUP4 MSTORE SWAP1 MSTORE PUSH1 0x9 SWAP1 SWAP2 ADD DUP1 SLOAD SWAP2 PUSH2 0x98D DUP4 PUSH2 0x240A JUMP JUMPDEST SWAP2 SWAP1 POP SSTORE POP PUSH1 0x1 SWAP2 POP POP JUMPDEST SWAP3 SWAP2 POP POP JUMP JUMPDEST PUSH2 0x9A6 PUSH2 0x1EE5 JUMP JUMPDEST PUSH1 0x66 SSTORE JUMP JUMPDEST PUSH1 0x0 DUP3 DUP2 MSTORE PUSH1 0x67 PUSH1 0x20 SWAP1 DUP2 MSTORE PUSH1 0x40 DUP1 DUP4 KECCAK256 DUP5 DUP5 MSTORE PUSH1 0xA ADD SWAP1 SWAP2 MSTORE DUP2 KECCAK256 PUSH1 0x2 ADD SLOAD PUSH1 0xFF AND PUSH2 0xA40 JUMPI PUSH1 0x40 MLOAD PUSH3 0x461BCD PUSH1 0xE5 SHL DUP2 MSTORE PUSH1 0x20 PUSH1 0x4 DUP3 ADD MSTORE PUSH1 0x28 PUSH1 0x24 DUP3 ADD MSTORE PUSH32 0x47525420706F6F6C3A20746865206F66666572206973206E6F74206163636570 PUSH1 0x44 DUP3 ADD MSTORE PUSH32 0x7465642079657421000000000000000000000000000000000000000000000000 PUSH1 0x64 DUP3 ADD MSTORE PUSH1 0x84 ADD PUSH2 0x821 JUMP JUMPDEST PUSH1 0x0 DUP4 DUP2 MSTORE PUSH1 0x67 PUSH1 0x20 SWAP1 DUP2 MSTORE PUSH1 0x40 DUP1 DUP4 KECCAK256 DUP6 DUP5 MSTORE PUSH1 0xA ADD SWAP1 SWAP2 MSTORE SWAP1 KECCAK256 PUSH1 0x2 ADD SLOAD PUSH2 0x100 SWAP1 DIV PUSH1 0xFF AND ISZERO PUSH2 0xAC8 JUMPI PUSH1 0x40 MLOAD PUSH3 0x461BCD PUSH1 0xE5 SHL DUP2 MSTORE PUSH1 0x20 PUSH1 0x4 DUP3 ADD MSTORE PUSH1 0x2A PUSH1 0x24 DUP3 ADD MSTORE PUSH32 0x47525420706F6F6C3A20746865206F666665722068617320616C726561647920 PUSH1 0x44 DUP3 ADD MSTORE PUSH10 0x6265656E207061696421 PUSH1 0xB0 SHL PUSH1 0x64 DUP3 ADD MSTORE PUSH1 0x84 ADD PUSH2 0x821 JUMP JUMPDEST PUSH1 0x0 DUP4 DUP2 MSTORE PUSH1 0x67 PUSH1 0x20 MSTORE PUSH1 0x40 SWAP1 KECCAK256 SLOAD PUSH1 0x1 PUSH1 0x1 PUSH1 0xA0 SHL SUB AND CALLER EQ PUSH2 0xB3A JUMPI PUSH1 0x40 MLOAD PUSH3 0x461BCD PUSH1 0xE5 SHL DUP2 MSTORE PUSH1 0x20 PUSH1 0x4 DUP3 ADD MSTORE PUSH1 0x24 DUP1 DUP3 ADD MSTORE PUSH32 0x47525420706F6F6C3A20796F7520617265206E6F742074686520726571756573 PUSH1 0x44 DUP3 ADD MSTORE PUSH4 0x74657221 PUSH1 0xE0 SHL PUSH1 0x64 DUP3 ADD MSTORE PUSH1 0x84 ADD PUSH2 0x821 JUMP JUMPDEST PUSH1 0x0 DUP4 DUP2 MSTORE PUSH1 0x67 PUSH1 0x20 SWAP1 DUP2 MSTORE PUSH1 0x40 DUP1 DUP4 KECCAK256 DUP6 DUP5 MSTORE PUSH1 0xA ADD SWAP1 SWAP2 MSTORE DUP1 DUP3 KECCAK256 PUSH1 0x2 ADD DUP1 SLOAD PUSH1 0xFF NOT AND SWAP1 SSTORE MLOAD DUP4 SWAP2 DUP6 SWAP2 PUSH32 0x8EB3C3B0AA4CE8F4EA417700B7CD919AF02B24A8B8346DFD2B6BDF08612AA74C SWAP2 SWAP1 LOG3 POP PUSH1 0x1 SWAP3 SWAP2 POP POP JUMP JUMPDEST PUSH1 0x0 DUP3 DUP2 MSTORE PUSH1 0x67 PUSH1 0x20 MSTORE PUSH1 0x40 DUP2 KECCAK256 PUSH1 0x8 ADD SLOAD PUSH1 0xFF AND PUSH2 0xC03 JUMPI PUSH1 0x40 MLOAD PUSH3 0x461BCD PUSH1 0xE5 SHL DUP2 MSTORE PUSH1 0x20 PUSH1 0x4 DUP3 ADD MSTORE PUSH1 0x25 PUSH1 0x24 DUP3 ADD MSTORE PUSH32 0x47525420706F6F6C3A20746865207265717565737420646F6573206E6F742065 PUSH1 0x44 DUP3 ADD MSTORE PUSH5 0x7869737421 PUSH1 0xD8 SHL PUSH1 0x64 DUP3 ADD MSTORE PUSH1 0x84 ADD PUSH2 0x821 JUMP JUMPDEST PUSH1 0x0 DUP4 DUP2 MSTORE PUSH1 0x67 PUSH1 0x20 SWAP1 DUP2 MSTORE PUSH1 0x40 DUP1 DUP4 KECCAK256 DUP6 DUP5 MSTORE PUSH1 0xA ADD SWAP1 SWAP2 MSTORE SWAP1 KECCAK256 SLOAD PUSH1 0x1 PUSH1 0x1 PUSH1 0xA0 SHL SUB AND PUSH2 0xC9B JUMPI PUSH1 0x40 MLOAD PUSH3 0x461BCD PUSH1 0xE5 SHL DUP2 MSTORE PUSH1 0x20 PUSH1 0x4 DUP3 ADD MSTORE PUSH1 0x23 PUSH1 0x24 DUP3 ADD MSTORE PUSH32 0x47525420706F6F6C3A20746865206F6666657220646F6573206E6F7420657869 PUSH1 0x44 DUP3 ADD MSTORE PUSH32 0x7374210000000000000000000000000000000000000000000000000000000000 PUSH1 0x64 DUP3 ADD MSTORE PUSH1 0x84 ADD PUSH2 0x821 JUMP JUMPDEST PUSH1 0x0 DUP4 DUP2 MSTORE PUSH1 0x67 PUSH1 0x20 SWAP1 DUP2 MSTORE PUSH1 0x40 DUP1 DUP4 KECCAK256 DUP6 DUP5 MSTORE PUSH1 0xA ADD SWAP1 SWAP2 MSTORE SWAP1 KECCAK256 PUSH1 0x2 ADD SLOAD PUSH1 0xFF AND ISZERO PUSH2 0xD31 JUMPI PUSH1 0x40 MLOAD PUSH3 0x461BCD PUSH1 0xE5 SHL DUP2 MSTORE PUSH1 0x20 PUSH1 0x4 DUP3 ADD MSTORE PUSH1 0x2E PUSH1 0x24 DUP3 ADD MSTORE PUSH32 0x47525420706F6F6C3A20746865206F666665722068617320616C726561647920 PUSH1 0x44 DUP3 ADD MSTORE PUSH32 0x6265656E20616363657074656421000000000000000000000000000000000000 PUSH1 0x64 DUP3 ADD MSTORE PUSH1 0x84 ADD PUSH2 0x821 JUMP JUMPDEST PUSH1 0x0 DUP4 DUP2 MSTORE PUSH1 0x67 PUSH1 0x20 MSTORE PUSH1 0x40 SWAP1 KECCAK256 SLOAD PUSH1 0x1 PUSH1 0x1 PUSH1 0xA0 SHL SUB AND CALLER EQ PUSH2 0xDA3 JUMPI PUSH1 0x40 MLOAD PUSH3 0x461BCD PUSH1 0xE5 SHL DUP2 MSTORE PUSH1 0x20 PUSH1 0x4 DUP3 ADD MSTORE PUSH1 0x24 DUP1 DUP3 ADD MSTORE PUSH32 0x47525420706F6F6C3A20796F7520617265206E6F742074686520726571756573 PUSH1 0x44 DUP3 ADD MSTORE PUSH4 0x74657221 PUSH1 0xE0 SHL PUSH1 0x64 DUP3 ADD MSTORE PUSH1 0x84 ADD PUSH2 0x821 JUMP JUMPDEST PUSH1 0x0 JUMPDEST PUSH1 0x0 DUP5 DUP2 MSTORE PUSH1 0x67 PUSH1 0x20 MSTORE PUSH1 0x40 SWAP1 KECCAK256 PUSH1 0x9 ADD SLOAD DUP2 LT ISZERO PUSH2 0xE67 JUMPI PUSH1 0x0 DUP5 DUP2 MSTORE PUSH1 0x67 PUSH1 0x20 SWAP1 DUP2 MSTORE PUSH1 0x40 DUP1 DUP4 KECCAK256 DUP5 DUP5 MSTORE PUSH1 0xA ADD SWAP1 SWAP2 MSTORE SWAP1 KECCAK256 PUSH1 0x2 ADD SLOAD PUSH1 0xFF AND ISZERO PUSH2 0xE55 JUMPI PUSH1 0x40 MLOAD PUSH3 0x461BCD PUSH1 0xE5 SHL DUP2 MSTORE PUSH1 0x20 PUSH1 0x4 DUP3 ADD MSTORE PUSH1 0x3E PUSH1 0x24 DUP3 ADD MSTORE PUSH32 0x47525420706F6F6C3A20746865726520697320616C726561647920616E206163 PUSH1 0x44 DUP3 ADD MSTORE PUSH32 0x636570746564206F6666657220666F7220746869732072657175657374210000 PUSH1 0x64 DUP3 ADD MSTORE PUSH1 0x84 ADD PUSH2 0x821 JUMP JUMPDEST DUP1 PUSH2 0xE5F DUP2 PUSH2 0x240A JUMP JUMPDEST SWAP2 POP POP PUSH2 0xDA6 JUMP JUMPDEST POP PUSH1 0x0 DUP4 DUP2 MSTORE PUSH1 0x67 PUSH1 0x20 SWAP1 DUP2 MSTORE PUSH1 0x40 DUP1 DUP4 KECCAK256 DUP6 DUP5 MSTORE PUSH1 0xA ADD SWAP1 SWAP2 MSTORE DUP1 DUP3 KECCAK256 PUSH1 0x2 ADD DUP1 SLOAD PUSH1 0xFF NOT AND PUSH1 0x1 OR SWAP1 SSTORE MLOAD DUP4 SWAP2 DUP6 SWAP2 PUSH32 0x805AD3493798D2BBA49FB177C42928EC4D30E9880662953CA090CDFAAC00153C SWAP2 SWAP1 LOG3 POP PUSH1 0x1 SWAP3 SWAP2 POP POP JUMP JUMPDEST PUSH2 0xECD PUSH2 0x1EE5 JUMP JUMPDEST PUSH1 0x65 DUP1 SLOAD PUSH1 0x1 PUSH1 0x1 PUSH1 0xA0 SHL SUB NOT AND PUSH1 0x1 PUSH1 0x1 PUSH1 0xA0 SHL SUB SWAP3 SWAP1 SWAP3 AND SWAP2 SWAP1 SWAP2 OR SWAP1 SSTORE JUMP JUMPDEST CALLER PUSH1 0x0 SWAP1 DUP2 MSTORE PUSH1 0x69 PUSH1 0x20 MSTORE PUSH1 0x40 DUP2 KECCAK256 SLOAD DUP8 EQ PUSH2 0xF73 JUMPI PUSH1 0x40 MLOAD PUSH3 0x461BCD PUSH1 0xE5 SHL DUP2 MSTORE PUSH1 0x20 PUSH1 0x4 DUP3 ADD MSTORE PUSH1 0x30 PUSH1 0x24 DUP3 ADD MSTORE PUSH32 0x47525420706F6F6C3A2074686973206E6F6E63652068617320616C7265616479 PUSH1 0x44 DUP3 ADD MSTORE PUSH32 0x206265656E207375626D69747465642100000000000000000000000000000000 PUSH1 0x64 DUP3 ADD MSTORE PUSH1 0x84 ADD PUSH2 0x821 JUMP JUMPDEST PUSH2 0xF7C DUP7 PUSH2 0x1F3F JUMP JUMPDEST POP PUSH1 0x65 SLOAD PUSH1 0x66 SLOAD PUSH1 0x40 DUP1 MLOAD PUSH1 0x20 DUP1 DUP3 ADD DUP13 SWAP1 MSTORE PUSH12 0xFFFFFFFFFFFFFFFFFFFFFFFF NOT CALLER PUSH1 0x60 SWAP1 DUP2 SHL DUP3 AND DUP5 DUP7 ADD MSTORE DUP7 DUP2 SHL DUP3 AND PUSH1 0x54 DUP6 ADD MSTORE PUSH1 0x68 DUP5 ADD DUP14 SWAP1 MSTORE PUSH1 0x88 DUP5 ADD DUP7 SWAP1 MSTORE DUP12 DUP2 SHL DUP3 AND PUSH1 0xA8 DUP6 ADD MSTORE PUSH1 0xBC DUP5 ADD DUP12 SWAP1 MSTORE PUSH1 0xDC DUP5 ADD DUP11 SWAP1 MSTORE DUP9 SWAP1 SHL AND PUSH1 0xFC DUP4 ADD MSTORE DUP3 MLOAD DUP1 DUP4 SUB PUSH1 0xF0 ADD DUP2 MSTORE PUSH2 0x110 DUP4 ADD DUP1 DUP6 MSTORE DUP2 MLOAD SWAP2 SWAP1 SWAP3 ADD KECCAK256 SWAP4 SWAP1 MSTORE SWAP1 MLOAD SWAP2 SWAP3 DUP10 SWAP3 PUSH1 0x1 PUSH1 0x1 PUSH1 0xA0 SHL SUB SWAP1 SWAP2 AND SWAP2 DUP5 SWAP2 PUSH32 0xC50426A58C328DDE98BF1E6E781031DC1D928393568D3B55D05EAFF42762200A SWAP2 PUSH2 0x130 SWAP1 DUP3 SWAP1 SUB ADD SWAP1 LOG4 PUSH2 0x104C DUP2 DUP9 DUP9 DUP9 DUP9 DUP9 PUSH2 0x1FBB JUMP JUMPDEST POP PUSH1 0x1 SWAP8 SWAP7 POP POP POP POP POP POP POP JUMP JUMPDEST PUSH1 0x0 DUP3 DUP2 MSTORE PUSH1 0x67 PUSH1 0x20 SWAP1 DUP2 MSTORE PUSH1 0x40 DUP1 DUP4 KECCAK256 DUP5 DUP5 MSTORE PUSH1 0xA ADD SWAP1 SWAP2 MSTORE DUP2 KECCAK256 PUSH1 0x2 ADD SLOAD PUSH1 0xFF AND PUSH2 0x10E0 JUMPI PUSH1 0x40 MLOAD PUSH3 0x461BCD PUSH1 0xE5 SHL DUP2 MSTORE PUSH1 0x20 PUSH1 0x4 DUP3 ADD MSTORE PUSH1 0x2E PUSH1 0x24 DUP3 ADD MSTORE PUSH32 0x47525420706F6F6C3A20746865206F6666657220686173206E6F74206265656E PUSH1 0x44 DUP3 ADD MSTORE PUSH14 0x2061636365707465642079657421 PUSH1 0x90 SHL PUSH1 0x64 DUP3 ADD MSTORE PUSH1 0x84 ADD PUSH2 0x821 JUMP JUMPDEST PUSH1 0x0 DUP4 DUP2 MSTORE PUSH1 0x67 PUSH1 0x20 SWAP1 DUP2 MSTORE PUSH1 0x40 DUP1 DUP4 KECCAK256 DUP6 DUP5 MSTORE PUSH1 0xA ADD SWAP1 SWAP2 MSTORE SWAP1 KECCAK256 PUSH1 0x2 ADD SLOAD PUSH2 0x100 SWAP1 DIV PUSH1 0xFF AND ISZERO PUSH2 0x1168 JUMPI PUSH1 0x40 MLOAD PUSH3 0x461BCD PUSH1 0xE5 SHL DUP2 MSTORE PUSH1 0x20 PUSH1 0x4 DUP3 ADD MSTORE PUSH1 0x2A PUSH1 0x24 DUP3 ADD MSTORE PUSH32 0x47525420706F6F6C3A20746865206F666665722068617320616C726561647920 PUSH1 0x44 DUP3 ADD MSTORE PUSH10 0x6265656E207061696421 PUSH1 0xB0 SHL PUSH1 0x64 DUP3 ADD MSTORE PUSH1 0x84 ADD PUSH2 0x821 JUMP JUMPDEST PUSH1 0x0 DUP4 DUP2 MSTORE PUSH1 0x67 PUSH1 0x20 MSTORE PUSH1 0x40 SWAP1 KECCAK256 PUSH1 0x7 ADD SLOAD CHAINID EQ PUSH2 0x11EE JUMPI PUSH1 0x40 MLOAD PUSH3 0x461BCD PUSH1 0xE5 SHL DUP2 MSTORE PUSH1 0x20 PUSH1 0x4 DUP3 ADD MSTORE PUSH1 0x35 PUSH1 0x24 DUP3 ADD MSTORE PUSH32 0x47525420706F6F6C3A20746865206F666665722073686F756C64206E6F742062 PUSH1 0x44 DUP3 ADD MSTORE PUSH32 0x652070616964206F6E207468697320636861696E210000000000000000000000 PUSH1 0x64 DUP3 ADD MSTORE PUSH1 0x84 ADD PUSH2 0x821 JUMP JUMPDEST PUSH1 0x0 DUP4 DUP2 MSTORE PUSH1 0x67 PUSH1 0x20 MSTORE PUSH1 0x40 SWAP1 KECCAK256 PUSH1 0x6 ADD SLOAD CALLVALUE EQ PUSH2 0x1274 JUMPI PUSH1 0x40 MLOAD PUSH3 0x461BCD PUSH1 0xE5 SHL DUP2 MSTORE PUSH1 0x20 PUSH1 0x4 DUP3 ADD MSTORE PUSH1 0x2E PUSH1 0x24 DUP3 ADD MSTORE PUSH32 0x47525420706F6F6C3A2074686520616D6F756E7420646F6573206E6F74206D61 PUSH1 0x44 DUP3 ADD MSTORE PUSH32 0x74636820746865206F6666657221000000000000000000000000000000000000 PUSH1 0x64 DUP3 ADD MSTORE PUSH1 0x84 ADD PUSH2 0x821 JUMP JUMPDEST PUSH1 0x0 DUP4 DUP2 MSTORE PUSH1 0x67 PUSH1 0x20 SWAP1 DUP2 MSTORE PUSH1 0x40 DUP1 DUP4 KECCAK256 DUP6 DUP5 MSTORE PUSH1 0xA ADD SWAP1 SWAP2 MSTORE SWAP1 KECCAK256 SLOAD PUSH1 0x1 PUSH1 0x1 PUSH1 0xA0 SHL SUB AND CALLER EQ PUSH2 0x130E JUMPI PUSH1 0x40 MLOAD PUSH3 0x461BCD PUSH1 0xE5 SHL DUP2 MSTORE PUSH1 0x20 PUSH1 0x4 DUP3 ADD MSTORE PUSH1 0x30 PUSH1 0x24 DUP3 ADD MSTORE PUSH32 0x47525420706F6F6C3A20796F7520617265206E6F7420616C6C6F77656420746F PUSH1 0x44 DUP3 ADD MSTORE PUSH32 0x207061792074686973206F666665722100000000000000000000000000000000 PUSH1 0x64 DUP3 ADD MSTORE PUSH1 0x84 ADD PUSH2 0x821 JUMP JUMPDEST PUSH1 0x0 DUP4 DUP2 MSTORE PUSH1 0x67 PUSH1 0x20 MSTORE PUSH1 0x40 DUP1 DUP3 KECCAK256 PUSH1 0x1 ADD SLOAD SWAP1 MLOAD PUSH1 0x1 PUSH1 0x1 PUSH1 0xA0 SHL SUB SWAP1 SWAP2 AND SWAP1 CALLVALUE SWAP1 DUP4 DUP2 DUP2 DUP2 DUP6 DUP8 GAS CALL SWAP3 POP POP POP RETURNDATASIZE DUP1 PUSH1 0x0 DUP2 EQ PUSH2 0x1369 JUMPI PUSH1 0x40 MLOAD SWAP2 POP PUSH1 0x1F NOT PUSH1 0x3F RETURNDATASIZE ADD AND DUP3 ADD PUSH1 0x40 MSTORE RETURNDATASIZE DUP3 MSTORE RETURNDATASIZE PUSH1 0x0 PUSH1 0x20 DUP5 ADD RETURNDATACOPY PUSH2 0x136E JUMP JUMPDEST PUSH1 0x60 SWAP2 POP JUMPDEST POP POP SWAP1 POP DUP1 ISZERO PUSH2 0x145C JUMPI PUSH1 0x65 SLOAD PUSH1 0x0 DUP6 DUP2 MSTORE PUSH1 0x67 PUSH1 0x20 MSTORE PUSH1 0x40 SWAP1 DUP2 SWAP1 KECCAK256 PUSH1 0x3 ADD SLOAD SWAP1 MLOAD PUSH4 0xA9059CBB PUSH1 0xE0 SHL DUP2 MSTORE CALLER PUSH1 0x4 DUP3 ADD MSTORE PUSH1 0x24 DUP2 ADD SWAP2 SWAP1 SWAP2 MSTORE PUSH1 0x1 PUSH1 0x1 PUSH1 0xA0 SHL SUB SWAP1 SWAP2 AND SWAP1 PUSH4 0xA9059CBB SWAP1 PUSH1 0x44 ADD PUSH1 0x20 PUSH1 0x40 MLOAD DUP1 DUP4 SUB DUP2 PUSH1 0x0 DUP8 GAS CALL ISZERO DUP1 ISZERO PUSH2 0x13DD JUMPI RETURNDATASIZE PUSH1 0x0 DUP1 RETURNDATACOPY RETURNDATASIZE PUSH1 0x0 REVERT JUMPDEST POP POP POP POP PUSH1 0x40 MLOAD RETURNDATASIZE PUSH1 0x1F NOT PUSH1 0x1F DUP3 ADD AND DUP3 ADD DUP1 PUSH1 0x40 MSTORE POP DUP2 ADD SWAP1 PUSH2 0x1401 SWAP2 SWAP1 PUSH2 0x2423 JUMP JUMPDEST POP PUSH1 0x40 MLOAD DUP4 SWAP1 DUP6 SWAP1 PUSH32 0x691646BE7D559E2B121F8BA51F09665C76183FE7ABC9918ED643DA3C219BDE5F SWAP1 PUSH1 0x0 SWAP1 LOG3 PUSH1 0x0 DUP5 DUP2 MSTORE PUSH1 0x67 PUSH1 0x20 SWAP1 DUP2 MSTORE PUSH1 0x40 DUP1 DUP4 KECCAK256 DUP7 DUP5 MSTORE PUSH1 0xA ADD SWAP1 SWAP2 MSTORE SWAP1 KECCAK256 PUSH1 0x2 ADD DUP1 SLOAD PUSH2 0xFF00 NOT AND PUSH2 0x100 OR SWAP1 SSTORE JUMPDEST SWAP4 SWAP3 POP POP POP JUMP JUMPDEST PUSH2 0x146B PUSH2 0x1EE5 JUMP JUMPDEST PUSH2 0x1475 PUSH1 0x0 PUSH2 0x20FF JUMP JUMPDEST JUMP JUMPDEST CALLER PUSH1 0x0 SWAP1 DUP2 MSTORE PUSH1 0x69 PUSH1 0x20 MSTORE PUSH1 0x40 DUP2 KECCAK256 SLOAD DUP7 EQ PUSH2 0x14FB JUMPI PUSH1 0x40 MLOAD PUSH3 0x461BCD PUSH1 0xE5 SHL DUP2 MSTORE PUSH1 0x20 PUSH1 0x4 DUP3 ADD MSTORE PUSH1 0x30 PUSH1 0x24 DUP3 ADD MSTORE PUSH32 0x47525420706F6F6C3A2074686973206E6F6E63652068617320616C7265616479 PUSH1 0x44 DUP3 ADD MSTORE PUSH32 0x206265656E207375626D69747465642100000000000000000000000000000000 PUSH1 0x64 DUP3 ADD MSTORE PUSH1 0x84 ADD PUSH2 0x821 JUMP JUMPDEST PUSH2 0x1504 DUP6 PUSH2 0x1F3F JUMP JUMPDEST POP PUSH1 0x65 SLOAD PUSH1 0x66 SLOAD PUSH1 0x40 DUP1 MLOAD PUSH1 0x20 DUP1 DUP3 ADD DUP12 SWAP1 MSTORE PUSH12 0xFFFFFFFFFFFFFFFFFFFFFFFF NOT CALLER PUSH1 0x60 SWAP1 DUP2 SHL DUP3 AND DUP5 DUP7 ADD MSTORE DUP7 DUP2 SHL DUP3 AND PUSH1 0x54 DUP6 ADD MSTORE PUSH1 0x68 DUP5 ADD DUP13 SWAP1 MSTORE PUSH1 0x88 DUP5 ADD DUP7 SWAP1 MSTORE PUSH1 0x0 PUSH1 0xA8 DUP6 ADD MSTORE PUSH1 0xBC DUP5 ADD DUP12 SWAP1 MSTORE PUSH1 0xDC DUP5 ADD DUP11 SWAP1 MSTORE DUP9 SWAP1 SHL AND PUSH1 0xFC DUP4 ADD MSTORE DUP3 MLOAD PUSH1 0xF0 DUP2 DUP5 SUB ADD DUP2 MSTORE PUSH2 0x110 DUP4 ADD DUP1 DUP6 MSTORE DUP2 MLOAD SWAP2 SWAP1 SWAP3 ADD KECCAK256 SWAP4 SWAP1 MSTORE SWAP1 MLOAD SWAP2 SWAP3 DUP9 SWAP3 PUSH1 0x1 PUSH1 0x1 PUSH1 0xA0 SHL SUB SWAP1 SWAP2 AND SWAP2 DUP5 SWAP2 PUSH32 0xC50426A58C328DDE98BF1E6E781031DC1D928393568D3B55D05EAFF42762200A SWAP2 DUP2 SWAP1 SUB PUSH2 0x130 ADD SWAP1 LOG4 PUSH2 0x15D1 DUP2 DUP8 PUSH1 0x0 DUP9 DUP9 DUP9 PUSH2 0x1FBB JUMP JUMPDEST POP PUSH1 0x1 SWAP7 SWAP6 POP POP POP POP POP POP JUMP JUMPDEST PUSH1 0x0 DUP3 DUP2 MSTORE PUSH1 0x67 PUSH1 0x20 SWAP1 DUP2 MSTORE PUSH1 0x40 DUP1 DUP4 KECCAK256 DUP5 DUP5 MSTORE PUSH1 0xA ADD SWAP1 SWAP2 MSTORE DUP2 KECCAK256 PUSH1 0x2 ADD SLOAD PUSH1 0xFF AND PUSH2 0x1664 JUMPI PUSH1 0x40 MLOAD PUSH3 0x461BCD PUSH1 0xE5 SHL DUP2 MSTORE PUSH1 0x20 PUSH1 0x4 DUP3 ADD MSTORE PUSH1 0x2E PUSH1 0x24 DUP3 ADD MSTORE PUSH32 0x47525420706F6F6C3A20746865206F6666657220686173206E6F74206265656E PUSH1 0x44 DUP3 ADD MSTORE PUSH14 0x2061636365707465642079657421 PUSH1 0x90 SHL PUSH1 0x64 DUP3 ADD MSTORE PUSH1 0x84 ADD PUSH2 0x821 JUMP JUMPDEST PUSH1 0x0 DUP4 DUP2 MSTORE PUSH1 0x67 PUSH1 0x20 SWAP1 DUP2 MSTORE PUSH1 0x40 DUP1 DUP4 KECCAK256 DUP6 DUP5 MSTORE PUSH1 0xA ADD SWAP1 SWAP2 MSTORE SWAP1 KECCAK256 PUSH1 0x2 ADD SLOAD PUSH2 0x100 SWAP1 DIV PUSH1 0xFF AND ISZERO PUSH2 0x16EC JUMPI PUSH1 0x40 MLOAD PUSH3 0x461BCD PUSH1 0xE5 SHL DUP2 MSTORE PUSH1 0x20 PUSH1 0x4 DUP3 ADD MSTORE PUSH1 0x2A PUSH1 0x24 DUP3 ADD MSTORE PUSH32 0x47525420706F6F6C3A20746865206F666665722068617320616C726561647920 PUSH1 0x44 DUP3 ADD MSTORE PUSH10 0x6265656E207061696421 PUSH1 0xB0 SHL PUSH1 0x64 DUP3 ADD MSTORE PUSH1 0x84 ADD PUSH2 0x821 JUMP JUMPDEST PUSH1 0x0 DUP4 DUP2 MSTORE PUSH1 0x67 PUSH1 0x20 MSTORE PUSH1 0x40 SWAP1 KECCAK256 PUSH1 0x7 ADD SLOAD CHAINID EQ PUSH2 0x1772 JUMPI PUSH1 0x40 MLOAD PUSH3 0x461BCD PUSH1 0xE5 SHL DUP2 MSTORE PUSH1 0x20 PUSH1 0x4 DUP3 ADD MSTORE PUSH1 0x35 PUSH1 0x24 DUP3 ADD MSTORE PUSH32 0x47525420706F6F6C3A20746865206F666665722073686F756C64206E6F742062 PUSH1 0x44 DUP3 ADD MSTORE PUSH32 0x652070616964206F6E207468697320636861696E210000000000000000000000 PUSH1 0x64 DUP3 ADD MSTORE PUSH1 0x84 ADD PUSH2 0x821 JUMP JUMPDEST PUSH1 0x0 DUP4 DUP2 MSTORE PUSH1 0x67 PUSH1 0x20 SWAP1 DUP2 MSTORE PUSH1 0x40 DUP1 DUP4 KECCAK256 DUP6 DUP5 MSTORE PUSH1 0xA ADD SWAP1 SWAP2 MSTORE SWAP1 KECCAK256 SLOAD PUSH1 0x1 PUSH1 0x1 PUSH1 0xA0 SHL SUB AND CALLER EQ PUSH2 0x180C JUMPI PUSH1 0x40 MLOAD PUSH3 0x461BCD PUSH1 0xE5 SHL DUP2 MSTORE PUSH1 0x20 PUSH1 0x4 DUP3 ADD MSTORE PUSH1 0x30 PUSH1 0x24 DUP3 ADD MSTORE PUSH32 0x47525420706F6F6C3A20796F7520617265206E6F7420616C6C6F77656420746F PUSH1 0x44 DUP3 ADD MSTORE PUSH32 0x207061792074686973206F666665722100000000000000000000000000000000 PUSH1 0x64 DUP3 ADD MSTORE PUSH1 0x84 ADD PUSH2 0x821 JUMP JUMPDEST PUSH1 0x0 DUP4 DUP2 MSTORE PUSH1 0x67 PUSH1 0x20 MSTORE PUSH1 0x40 SWAP1 DUP2 SWAP1 KECCAK256 PUSH1 0x5 DUP2 ADD SLOAD PUSH1 0x1 DUP3 ADD SLOAD PUSH1 0x6 SWAP1 SWAP3 ADD SLOAD SWAP3 MLOAD PUSH4 0x23B872DD PUSH1 0xE0 SHL DUP2 MSTORE CALLER PUSH1 0x4 DUP3 ADD MSTORE PUSH1 0x1 PUSH1 0x1 PUSH1 0xA0 SHL SUB SWAP3 DUP4 AND PUSH1 0x24 DUP3 ADD MSTORE PUSH1 0x44 DUP2 ADD SWAP4 SWAP1 SWAP4 MSTORE AND SWAP1 PUSH4 0x23B872DD SWAP1 PUSH1 0x64 ADD PUSH1 0x20 PUSH1 0x40 MLOAD DUP1 DUP4 SUB DUP2 PUSH1 0x0 DUP8 GAS CALL ISZERO DUP1 ISZERO PUSH2 0x1880 JUMPI RETURNDATASIZE PUSH1 0x0 DUP1 RETURNDATACOPY RETURNDATASIZE PUSH1 0x0 REVERT JUMPDEST POP POP POP POP PUSH1 0x40 MLOAD RETURNDATASIZE PUSH1 0x1F NOT PUSH1 0x1F DUP3 ADD AND DUP3 ADD DUP1 PUSH1 0x40 MSTORE POP DUP2 ADD SWAP1 PUSH2 0x18A4 SWAP2 SWAP1 PUSH2 0x2423 JUMP JUMPDEST POP PUSH1 0x65 SLOAD PUSH1 0x0 DUP5 DUP2 MSTORE PUSH1 0x67 PUSH1 0x20 MSTORE PUSH1 0x40 SWAP1 DUP2 SWAP1 KECCAK256 PUSH1 0x3 ADD SLOAD SWAP1 MLOAD PUSH4 0xA9059CBB PUSH1 0xE0 SHL DUP2 MSTORE CALLER PUSH1 0x4 DUP3 ADD MSTORE PUSH1 0x24 DUP2 ADD SWAP2 SWAP1 SWAP2 MSTORE PUSH1 0x1 PUSH1 0x1 PUSH1 0xA0 SHL SUB SWAP1 SWAP2 AND SWAP1 PUSH4 0xA9059CBB SWAP1 PUSH1 0x44 ADD PUSH1 0x20 PUSH1 0x40 MLOAD DUP1 DUP4 SUB DUP2 PUSH1 0x0 DUP8 GAS CALL ISZERO DUP1 ISZERO PUSH2 0x190A JUMPI RETURNDATASIZE PUSH1 0x0 DUP1 RETURNDATACOPY RETURNDATASIZE PUSH1 0x0 REVERT JUMPDEST POP POP POP POP PUSH1 0x40 MLOAD RETURNDATASIZE PUSH1 0x1F NOT PUSH1 0x1F DUP3 ADD AND DUP3 ADD DUP1 PUSH1 0x40 MSTORE POP DUP2 ADD SWAP1 PUSH2 0x192E SWAP2 SWAP1 PUSH2 0x2423 JUMP JUMPDEST POP PUSH1 0x40 MLOAD DUP3 SWAP1 DUP5 SWAP1 PUSH32 0x691646BE7D559E2B121F8BA51F09665C76183FE7ABC9918ED643DA3C219BDE5F SWAP1 PUSH1 0x0 SWAP1 LOG3 POP PUSH1 0x0 DUP3 DUP2 MSTORE PUSH1 0x67 PUSH1 0x20 SWAP1 DUP2 MSTORE PUSH1 0x40 DUP1 DUP4 KECCAK256 DUP5 DUP5 MSTORE PUSH1 0xA ADD SWAP1 SWAP2 MSTORE SWAP1 KECCAK256 PUSH1 0x2 ADD DUP1 SLOAD PUSH2 0xFF00 NOT AND PUSH2 0x100 OR SWAP1 SSTORE PUSH1 0x1 SWAP3 SWAP2 POP POP JUMP JUMPDEST PUSH1 0x0 PUSH2 0x199C DUP3 PUSH2 0x1F3F JUMP JUMPDEST POP PUSH1 0x40 MLOAD DUP3 SWAP1 CALLER SWAP1 PUSH32 0x3DBDCFD4C1F2E08931AAE3D544E149A1E643143F5234D166FE3DEBB783388495 SWAP1 PUSH1 0x0 SWAP1 LOG3 CALLER PUSH1 0x0 SWAP1 DUP2 MSTORE PUSH1 0x68 PUSH1 0x20 MSTORE PUSH1 0x40 DUP2 KECCAK256 DUP1 SLOAD DUP5 SWAP3 SWAP1 PUSH2 0x19E9 SWAP1 DUP5 SWAP1 PUSH2 0x2445 JUMP JUMPDEST SWAP1 SWAP2 SSTORE POP PUSH1 0x1 SWAP4 SWAP3 POP POP POP JUMP JUMPDEST PUSH1 0x0 DUP3 DUP2 MSTORE PUSH1 0x67 PUSH1 0x20 MSTORE PUSH1 0x40 DUP2 KECCAK256 PUSH1 0x8 ADD SLOAD PUSH1 0xFF AND PUSH2 0x1A65 JUMPI PUSH1 0x40 MLOAD PUSH3 0x461BCD PUSH1 0xE5 SHL DUP2 MSTORE PUSH1 0x20 PUSH1 0x4 DUP3 ADD MSTORE PUSH1 0x25 PUSH1 0x24 DUP3 ADD MSTORE PUSH32 0x47525420706F6F6C3A20746865207265717565737420646F6573206E6F742065 PUSH1 0x44 DUP3 ADD MSTORE PUSH5 0x7869737421 PUSH1 0xD8 SHL PUSH1 0x64 DUP3 ADD MSTORE PUSH1 0x84 ADD PUSH2 0x821 JUMP JUMPDEST PUSH1 0x0 DUP4 DUP2 MSTORE PUSH1 0x67 PUSH1 0x20 SWAP1 DUP2 MSTORE PUSH1 0x40 DUP1 DUP4 KECCAK256 DUP6 DUP5 MSTORE PUSH1 0xA ADD SWAP1 SWAP2 MSTORE SWAP1 KECCAK256 PUSH1 0x2 ADD SLOAD PUSH1 0xFF AND PUSH2 0x1AEB JUMPI PUSH1 0x40 MLOAD PUSH3 0x461BCD PUSH1 0xE5 SHL DUP2 MSTORE PUSH1 0x20 PUSH1 0x4 DUP3 ADD MSTORE PUSH1 0x2E PUSH1 0x24 DUP3 ADD MSTORE PUSH32 0x47525420706F6F6C3A20746865206F6666657220686173206E6F74206265656E PUSH1 0x44 DUP3 ADD MSTORE PUSH14 0x2061636365707465642079657421 PUSH1 0x90 SHL PUSH1 0x64 DUP3 ADD MSTORE PUSH1 0x84 ADD PUSH2 0x821 JUMP JUMPDEST PUSH1 0x0 DUP4 DUP2 MSTORE PUSH1 0x67 PUSH1 0x20 SWAP1 DUP2 MSTORE PUSH1 0x40 DUP1 DUP4 KECCAK256 DUP6 DUP5 MSTORE PUSH1 0xA ADD SWAP1 SWAP2 MSTORE SWAP1 KECCAK256 PUSH1 0x2 ADD SLOAD PUSH2 0x100 SWAP1 DIV PUSH1 0xFF AND ISZERO PUSH2 0x1B73 JUMPI PUSH1 0x40 MLOAD PUSH3 0x461BCD PUSH1 0xE5 SHL DUP2 MSTORE PUSH1 0x20 PUSH1 0x4 DUP3 ADD MSTORE PUSH1 0x2A PUSH1 0x24 DUP3 ADD MSTORE PUSH32 0x47525420706F6F6C3A20746865206F666665722068617320616C726561647920 PUSH1 0x44 DUP3 ADD MSTORE PUSH10 0x6265656E207061696421 PUSH1 0xB0 SHL PUSH1 0x64 DUP3 ADD MSTORE PUSH1 0x84 ADD PUSH2 0x821 JUMP JUMPDEST PUSH1 0x0 DUP4 DUP2 MSTORE PUSH1 0x67 PUSH1 0x20 SWAP1 DUP2 MSTORE PUSH1 0x40 DUP1 DUP4 KECCAK256 DUP6 DUP5 MSTORE PUSH1 0xA ADD SWAP1 SWAP2 MSTORE SWAP1 KECCAK256 SLOAD PUSH1 0x1 PUSH1 0x1 PUSH1 0xA0 SHL SUB AND CALLER EQ PUSH2 0x1C0D JUMPI PUSH1 0x40 MLOAD PUSH3 0x461BCD PUSH1 0xE5 SHL DUP2 MSTORE PUSH1 0x20 PUSH1 0x4 DUP3 ADD MSTORE PUSH1 0x31 PUSH1 0x24 DUP3 ADD MSTORE PUSH32 0x47525420706F6F6C3A20796F7520617265206E6F7420616C6C6F77656420746F PUSH1 0x44 DUP3 ADD MSTORE PUSH32 0x206D616B65207468697320636C61696D21000000000000000000000000000000 PUSH1 0x64 DUP3 ADD MSTORE PUSH1 0x84 ADD PUSH2 0x821 JUMP JUMPDEST PUSH1 0x65 SLOAD PUSH1 0x0 DUP5 DUP2 MSTORE PUSH1 0x67 PUSH1 0x20 DUP2 DUP2 MSTORE PUSH1 0x40 DUP1 DUP5 KECCAK256 DUP8 DUP6 MSTORE PUSH1 0xA DUP2 ADD DUP4 MSTORE DUP2 DUP6 KECCAK256 SLOAD SWAP5 DUP10 SWAP1 MSTORE SWAP3 SWAP1 SWAP2 MSTORE PUSH1 0x3 SWAP1 SWAP2 ADD SLOAD SWAP1 MLOAD PUSH4 0xA9059CBB PUSH1 0xE0 SHL DUP2 MSTORE PUSH1 0x1 PUSH1 0x1 PUSH1 0xA0 SHL SUB SWAP3 DUP4 AND PUSH1 0x4 DUP3 ADD MSTORE PUSH1 0x24 DUP2 ADD SWAP2 SWAP1 SWAP2 MSTORE SWAP2 AND SWAP1 PUSH4 0xA9059CBB SWAP1 PUSH1 0x44 ADD PUSH1 0x20 PUSH1 0x40 MLOAD DUP1 DUP4 SUB DUP2 PUSH1 0x0 DUP8 GAS CALL ISZERO DUP1 ISZERO PUSH2 0x1C8B JUMPI RETURNDATASIZE PUSH1 0x0 DUP1 RETURNDATACOPY RETURNDATASIZE PUSH1 0x0 REVERT JUMPDEST POP POP POP POP PUSH1 0x40 MLOAD RETURNDATASIZE PUSH1 0x1F NOT PUSH1 0x1F DUP3 ADD AND DUP3 ADD DUP1 PUSH1 0x40 MSTORE POP DUP2 ADD SWAP1 PUSH2 0x1CAF SWAP2 SWAP1 PUSH2 0x2423 JUMP JUMPDEST POP PUSH1 0x40 MLOAD DUP3 SWAP1 DUP5 SWAP1 PUSH32 0x2B447358A077DEDDDAD023F2778D84AFC7DE0E9E65674CBFACE9E94B74916FF0 SWAP1 PUSH1 0x0 SWAP1 LOG3 POP PUSH1 0x0 DUP3 DUP2 MSTORE PUSH1 0x67 PUSH1 0x20 SWAP1 DUP2 MSTORE PUSH1 0x40 DUP1 DUP4 KECCAK256 DUP5 DUP5 MSTORE PUSH1 0xA ADD SWAP1 SWAP2 MSTORE SWAP1 KECCAK256 PUSH1 0x2 ADD DUP1 SLOAD PUSH2 0xFF00 NOT AND PUSH2 0x100 OR SWAP1 SSTORE PUSH1 0x1 SWAP3 SWAP2 POP POP JUMP JUMPDEST PUSH1 0x0 SLOAD PUSH2 0x100 SWAP1 DIV PUSH1 0xFF AND ISZERO DUP1 DUP1 ISZERO PUSH2 0x1D32 JUMPI POP PUSH1 0x0 SLOAD PUSH1 0x1 PUSH1 0xFF SWAP1 SWAP2 AND LT JUMPDEST DUP1 PUSH2 0x1D4C JUMPI POP ADDRESS EXTCODESIZE ISZERO DUP1 ISZERO PUSH2 0x1D4C JUMPI POP PUSH1 0x0 SLOAD PUSH1 0xFF AND PUSH1 0x1 EQ JUMPDEST PUSH2 0x1DBE JUMPI PUSH1 0x40 MLOAD PUSH3 0x461BCD PUSH1 0xE5 SHL DUP2 MSTORE PUSH1 0x20 PUSH1 0x4 DUP3 ADD MSTORE PUSH1 0x2E PUSH1 0x24 DUP3 ADD MSTORE PUSH32 0x496E697469616C697A61626C653A20636F6E747261637420697320616C726561 PUSH1 0x44 DUP3 ADD MSTORE PUSH32 0x647920696E697469616C697A6564000000000000000000000000000000000000 PUSH1 0x64 DUP3 ADD MSTORE PUSH1 0x84 ADD PUSH2 0x821 JUMP JUMPDEST PUSH1 0x0 DUP1 SLOAD PUSH1 0xFF NOT AND PUSH1 0x1 OR SWAP1 SSTORE DUP1 ISZERO PUSH2 0x1DE1 JUMPI PUSH1 0x0 DUP1 SLOAD PUSH2 0xFF00 NOT AND PUSH2 0x100 OR SWAP1 SSTORE JUMPDEST PUSH2 0x1DE9 PUSH2 0x2151 JUMP JUMPDEST PUSH1 0x65 DUP1 SLOAD PUSH1 0x1 PUSH1 0x1 PUSH1 0xA0 SHL SUB NOT AND PUSH1 0x1 PUSH1 0x1 PUSH1 0xA0 SHL SUB DUP7 AND OR SWAP1 SSTORE PUSH1 0x66 DUP4 SWAP1 SSTORE DUP1 ISZERO PUSH2 0x1E4F JUMPI PUSH1 0x0 DUP1 SLOAD PUSH2 0xFF00 NOT AND SWAP1 SSTORE PUSH1 0x40 MLOAD PUSH1 0x1 DUP2 MSTORE PUSH32 0x7F26B83FF96E1F2B6A682F133852F6798A09C465DA95921460CEFB3847402498 SWAP1 PUSH1 0x20 ADD PUSH1 0x40 MLOAD DUP1 SWAP2 SUB SWAP1 LOG1 JUMPDEST POP POP POP POP JUMP JUMPDEST PUSH2 0x1E5D PUSH2 0x1EE5 JUMP JUMPDEST PUSH1 0x1 PUSH1 0x1 PUSH1 0xA0 SHL SUB DUP2 AND PUSH2 0x1ED9 JUMPI PUSH1 0x40 MLOAD PUSH3 0x461BCD PUSH1 0xE5 SHL DUP2 MSTORE PUSH1 0x20 PUSH1 0x4 DUP3 ADD MSTORE PUSH1 0x26 PUSH1 0x24 DUP3 ADD MSTORE PUSH32 0x4F776E61626C653A206E6577206F776E657220697320746865207A65726F2061 PUSH1 0x44 DUP3 ADD MSTORE PUSH32 0x6464726573730000000000000000000000000000000000000000000000000000 PUSH1 0x64 DUP3 ADD MSTORE PUSH1 0x84 ADD PUSH2 0x821 JUMP JUMPDEST PUSH2 0x1EE2 DUP2 PUSH2 0x20FF JUMP JUMPDEST POP JUMP JUMPDEST PUSH1 0x33 SLOAD PUSH1 0x1 PUSH1 0x1 PUSH1 0xA0 SHL SUB AND CALLER EQ PUSH2 0x1475 JUMPI PUSH1 0x40 MLOAD PUSH3 0x461BCD PUSH1 0xE5 SHL DUP2 MSTORE PUSH1 0x20 PUSH1 0x4 DUP3 ADD DUP2 SWAP1 MSTORE PUSH1 0x24 DUP3 ADD MSTORE PUSH32 0x4F776E61626C653A2063616C6C6572206973206E6F7420746865206F776E6572 PUSH1 0x44 DUP3 ADD MSTORE PUSH1 0x64 ADD PUSH2 0x821 JUMP JUMPDEST PUSH1 0x65 SLOAD PUSH1 0x40 MLOAD PUSH4 0x23B872DD PUSH1 0xE0 SHL DUP2 MSTORE CALLER PUSH1 0x4 DUP3 ADD MSTORE ADDRESS PUSH1 0x24 DUP3 ADD MSTORE PUSH1 0x44 DUP2 ADD DUP4 SWAP1 MSTORE PUSH1 0x0 SWAP2 PUSH1 0x1 PUSH1 0x1 PUSH1 0xA0 SHL SUB AND SWAP1 PUSH4 0x23B872DD SWAP1 PUSH1 0x64 ADD PUSH1 0x20 PUSH1 0x40 MLOAD DUP1 DUP4 SUB DUP2 PUSH1 0x0 DUP8 GAS CALL ISZERO DUP1 ISZERO PUSH2 0x1F97 JUMPI RETURNDATASIZE PUSH1 0x0 DUP1 RETURNDATACOPY RETURNDATASIZE PUSH1 0x0 REVERT JUMPDEST POP POP POP POP PUSH1 0x40 MLOAD RETURNDATASIZE PUSH1 0x1F NOT PUSH1 0x1F DUP3 ADD AND DUP3 ADD DUP1 PUSH1 0x40 MSTORE POP DUP2 ADD SWAP1 PUSH2 0x998 SWAP2 SWAP1 PUSH2 0x2423 JUMP JUMPDEST DUP3 DUP5 PUSH1 0x1 PUSH1 0x1 PUSH1 0xA0 SHL SUB AND DUP8 PUSH32 0x4FC5208F862C96A2A2595F09440919E8BDA929D3E9B14A6E5FCAC7C4CB8F5F59 DUP6 PUSH1 0x40 MLOAD PUSH2 0x1FF8 SWAP2 DUP2 MSTORE PUSH1 0x20 ADD SWAP1 JUMP JUMPDEST PUSH1 0x40 MLOAD DUP1 SWAP2 SUB SWAP1 LOG4 PUSH1 0x0 DUP7 DUP2 MSTORE PUSH1 0x67 PUSH1 0x20 MSTORE PUSH1 0x40 SWAP1 KECCAK256 DUP1 SLOAD PUSH1 0x1 PUSH1 0x1 PUSH1 0xA0 SHL SUB NOT SWAP1 DUP2 AND CALLER OR DUP3 SSTORE PUSH1 0x1 DUP3 ADD DUP1 SLOAD PUSH1 0x1 PUSH1 0x1 PUSH1 0xA0 SHL SUB DUP6 DUP2 AND SWAP2 SWAP1 SWAP4 AND OR SWAP1 SSTORE PUSH1 0x65 SLOAD PUSH1 0x66 SLOAD PUSH2 0x204E SWAP3 SWAP2 SWAP1 SWAP2 AND SWAP1 DUP9 SWAP1 PUSH2 0x21C4 JUMP JUMPDEST DUP1 MLOAD PUSH1 0x2 DUP4 ADD DUP1 SLOAD PUSH1 0x1 PUSH1 0x1 PUSH1 0xA0 SHL SUB NOT AND PUSH1 0x1 PUSH1 0x1 PUSH1 0xA0 SHL SUB SWAP1 SWAP3 AND SWAP2 SWAP1 SWAP2 OR SWAP1 SSTORE PUSH1 0x20 DUP2 ADD MLOAD PUSH1 0x3 DUP4 ADD SSTORE PUSH1 0x40 ADD MLOAD PUSH1 0x4 DUP3 ADD SSTORE PUSH2 0x208F DUP6 DUP6 DUP6 PUSH2 0x21C4 JUMP JUMPDEST DUP1 MLOAD PUSH1 0x5 DUP4 ADD DUP1 SLOAD PUSH1 0x1 PUSH1 0x1 PUSH1 0xA0 SHL SUB NOT AND PUSH1 0x1 PUSH1 0x1 PUSH1 0xA0 SHL SUB SWAP1 SWAP3 AND SWAP2 SWAP1 SWAP2 OR SWAP1 SSTORE PUSH1 0x20 DUP1 DUP3 ADD MLOAD PUSH1 0x6 DUP5 ADD SSTORE PUSH1 0x40 SWAP2 DUP3 ADD MLOAD PUSH1 0x7 DUP5 ADD SSTORE PUSH1 0x8 DUP4 ADD DUP1 SLOAD PUSH1 0xFF NOT AND PUSH1 0x1 OR SWAP1 SSTORE CALLER PUSH1 0x0 SWAP1 DUP2 MSTORE PUSH1 0x69 SWAP1 SWAP2 MSTORE SWAP1 DUP2 KECCAK256 DUP1 SLOAD SWAP2 PUSH2 0x20F1 DUP4 PUSH2 0x240A JUMP JUMPDEST SWAP2 SWAP1 POP SSTORE POP POP POP POP POP POP POP POP JUMP JUMPDEST PUSH1 0x33 DUP1 SLOAD PUSH1 0x1 PUSH1 0x1 PUSH1 0xA0 SHL SUB DUP4 DUP2 AND PUSH1 0x1 PUSH1 0x1 PUSH1 0xA0 SHL SUB NOT DUP4 AND DUP2 OR SWAP1 SWAP4 SSTORE PUSH1 0x40 MLOAD SWAP2 AND SWAP2 SWAP1 DUP3 SWAP1 PUSH32 0x8BE0079C531659141344CD1FD0A4F28419497F9722A3DAAFE3B4186F6B6457E0 SWAP1 PUSH1 0x0 SWAP1 LOG3 POP POP JUMP JUMPDEST PUSH1 0x0 SLOAD PUSH2 0x100 SWAP1 DIV PUSH1 0xFF AND PUSH2 0x21BC JUMPI PUSH1 0x40 MLOAD PUSH3 0x461BCD PUSH1 0xE5 SHL DUP2 MSTORE PUSH1 0x20 PUSH1 0x4 DUP3 ADD MSTORE PUSH1 0x2B PUSH1 0x24 DUP3 ADD MSTORE PUSH32 0x496E697469616C697A61626C653A20636F6E7472616374206973206E6F742069 PUSH1 0x44 DUP3 ADD MSTORE PUSH11 0x6E697469616C697A696E67 PUSH1 0xA8 SHL PUSH1 0x64 DUP3 ADD MSTORE PUSH1 0x84 ADD PUSH2 0x821 JUMP JUMPDEST PUSH2 0x1475 PUSH2 0x2218 JUMP JUMPDEST PUSH2 0x21F1 PUSH1 0x40 MLOAD DUP1 PUSH1 0x60 ADD PUSH1 0x40 MSTORE DUP1 PUSH1 0x0 PUSH1 0x1 PUSH1 0x1 PUSH1 0xA0 SHL SUB AND DUP2 MSTORE PUSH1 0x20 ADD PUSH1 0x0 DUP2 MSTORE PUSH1 0x20 ADD PUSH1 0x0 DUP2 MSTORE POP SWAP1 JUMP JUMPDEST POP PUSH1 0x40 DUP1 MLOAD PUSH1 0x60 DUP2 ADD DUP3 MSTORE PUSH1 0x1 PUSH1 0x1 PUSH1 0xA0 SHL SUB SWAP1 SWAP5 AND DUP5 MSTORE PUSH1 0x20 DUP5 ADD SWAP3 SWAP1 SWAP3 MSTORE SWAP1 DUP3 ADD MSTORE SWAP1 JUMP JUMPDEST PUSH1 0x0 SLOAD PUSH2 0x100 SWAP1 DIV PUSH1 0xFF AND PUSH2 0x2283 JUMPI PUSH1 0x40 MLOAD PUSH3 0x461BCD PUSH1 0xE5 SHL DUP2 MSTORE PUSH1 0x20 PUSH1 0x4 DUP3 ADD MSTORE PUSH1 0x2B PUSH1 0x24 DUP3 ADD MSTORE PUSH32 0x496E697469616C697A61626C653A20636F6E7472616374206973206E6F742069 PUSH1 0x44 DUP3 ADD MSTORE PUSH11 0x6E697469616C697A696E67 PUSH1 0xA8 SHL PUSH1 0x64 DUP3 ADD MSTORE PUSH1 0x84 ADD PUSH2 0x821 JUMP JUMPDEST PUSH2 0x1475 CALLER PUSH2 0x20FF JUMP JUMPDEST PUSH1 0x0 DUP1 PUSH1 0x40 DUP4 DUP6 SUB SLT ISZERO PUSH2 0x229F JUMPI PUSH1 0x0 DUP1 REVERT JUMPDEST POP POP DUP1 CALLDATALOAD SWAP3 PUSH1 0x20 SWAP1 SWAP2 ADD CALLDATALOAD SWAP2 POP JUMP JUMPDEST PUSH1 0x0 PUSH1 0x20 DUP3 DUP5 SUB SLT ISZERO PUSH2 0x22C0 JUMPI PUSH1 0x0 DUP1 REVERT JUMPDEST POP CALLDATALOAD SWAP2 SWAP1 POP JUMP JUMPDEST DUP1 CALLDATALOAD PUSH1 0x1 PUSH1 0x1 PUSH1 0xA0 SHL SUB DUP2 AND DUP2 EQ PUSH2 0x22DE JUMPI PUSH1 0x0 DUP1 REVERT JUMPDEST SWAP2 SWAP1 POP JUMP JUMPDEST PUSH1 0x0 PUSH1 0x20 DUP3 DUP5 SUB SLT ISZERO PUSH2 0x22F5 JUMPI PUSH1 0x0 DUP1 REVERT JUMPDEST PUSH2 0x145C DUP3 PUSH2 0x22C7 JUMP JUMPDEST PUSH1 0x0 DUP1 PUSH1 0x0 DUP1 PUSH1 0x0 DUP1 PUSH1 0xC0 DUP8 DUP10 SUB SLT ISZERO PUSH2 0x2317 JUMPI PUSH1 0x0 DUP1 REVERT JUMPDEST DUP7 CALLDATALOAD SWAP6 POP PUSH1 0x20 DUP8 ADD CALLDATALOAD SWAP5 POP PUSH2 0x232E PUSH1 0x40 DUP9 ADD PUSH2 0x22C7 JUMP JUMPDEST SWAP4 POP PUSH1 0x60 DUP8 ADD CALLDATALOAD SWAP3 POP PUSH1 0x80 DUP8 ADD CALLDATALOAD SWAP2 POP PUSH2 0x234A PUSH1 0xA0 DUP9 ADD PUSH2 0x22C7 JUMP JUMPDEST SWAP1 POP SWAP3 SWAP6 POP SWAP3 SWAP6 POP SWAP3 SWAP6 JUMP JUMPDEST PUSH1 0x0 DUP1 PUSH1 0x0 DUP1 PUSH1 0x0 PUSH1 0xA0 DUP7 DUP9 SUB SLT ISZERO PUSH2 0x236E JUMPI PUSH1 0x0 DUP1 REVERT JUMPDEST DUP6 CALLDATALOAD SWAP5 POP PUSH1 0x20 DUP7 ADD CALLDATALOAD SWAP4 POP PUSH1 0x40 DUP7 ADD CALLDATALOAD SWAP3 POP PUSH1 0x60 DUP7 ADD CALLDATALOAD SWAP2 POP PUSH2 0x2393 PUSH1 0x80 DUP8 ADD PUSH2 0x22C7 JUMP JUMPDEST SWAP1 POP SWAP3 SWAP6 POP SWAP3 SWAP6 SWAP1 SWAP4 POP JUMP JUMPDEST PUSH1 0x0 DUP1 PUSH1 0x0 PUSH1 0x60 DUP5 DUP7 SUB SLT ISZERO PUSH2 0x23B4 JUMPI PUSH1 0x0 DUP1 REVERT JUMPDEST PUSH2 0x23BD DUP5 PUSH2 0x22C7 JUMP JUMPDEST SWAP3 POP PUSH1 0x20 DUP5 ADD CALLDATALOAD SWAP2 POP PUSH2 0x23D2 PUSH1 0x40 DUP6 ADD PUSH2 0x22C7 JUMP JUMPDEST SWAP1 POP SWAP3 POP SWAP3 POP SWAP3 JUMP JUMPDEST PUSH32 0x4E487B7100000000000000000000000000000000000000000000000000000000 PUSH1 0x0 MSTORE PUSH1 0x11 PUSH1 0x4 MSTORE PUSH1 0x24 PUSH1 0x0 REVERT JUMPDEST PUSH1 0x0 PUSH1 0x1 DUP3 ADD PUSH2 0x241C JUMPI PUSH2 0x241C PUSH2 0x23DB JUMP JUMPDEST POP PUSH1 0x1 ADD SWAP1 JUMP JUMPDEST PUSH1 0x0 PUSH1 0x20 DUP3 DUP5 SUB SLT ISZERO PUSH2 0x2435 JUMPI PUSH1 0x0 DUP1 REVERT JUMPDEST DUP2 MLOAD DUP1 ISZERO ISZERO DUP2 EQ PUSH2 0x145C JUMPI PUSH1 0x0 DUP1 REVERT JUMPDEST DUP1 DUP3 ADD DUP1 DUP3 GT ISZERO PUSH2 0x998 JUMPI PUSH2 0x998 PUSH2 0x23DB JUMP INVALID LOG2 PUSH5 0x6970667358 0x22 SLT KECCAK256 PUSH30 0xD92C0E1838C8960545B20D8F8797721EA6DF68EC5855531FFE706D5B76CC MOD PUSH5 0x736F6C6343 STOP ADDMOD GT STOP CALLER "},"gasEstimates":{"creation":{"codeDepositCost":"1871600","executionCost":"1976","totalCost":"1873576"},"external":{"acceptOffer(bytes32,uint256)":"infinite","claimGRTWithoutDispute(bytes32,uint256)":"infinite","createOffer(bytes32,uint256)":"103692","depositGRTRequestERC20(uint256,uint256,address,uint256,uint256,address)":"infinite","depositGRTRequestNative(uint256,uint256,uint256,uint256,address)":"infinite","getDepositAmount(bytes32)":"2534","getDepositChainId(bytes32)":"2533","getDepositToken(bytes32)":"2528","getNonce(address)":"2649","getOfferAmount(bytes32,uint256)":"2594","getOfferCreator(bytes32,uint256)":"2670","getRecipient(bytes32)":"2593","getRequestAmount(bytes32)":"2513","getRequestChainId(bytes32)":"2555","getRequestToken(bytes32)":"2551","getRequester(bytes32)":"2544","grtAddress()":"2398","grtChainId()":"2359","initializePool(address,uint256,address)":"infinite","isOfferAccepted(bytes32,uint256)":"2638","isOfferPaid(bytes32,uint256)":"2628","isrequest(bytes32)":"2491","nbrOffersRequest(bytes32)":"2555","owner()":"2443","payOfferOnChainERC20(bytes32,uint256)":"infinite","payOfferOnChainNative(bytes32,uint256)":"infinite","rejectOffer(bytes32,uint256)":"33085","renounceOwnership()":"infinite","setGRTAddr(address)":"26825","setGRTChainId(uint256)":"24579","stakeGRT(uint256)":"infinite","stakeOf(address)":"2649","transferOwnership(address)":"28424"},"internal":{"addRequest(bytes32,uint256,address,uint256,uint256,address)":"infinite","depositGRT(uint256)":"infinite","getOfferId(bytes32)":"infinite","initOffer()":"infinite","setTokenInfo(address,uint256,uint256)":"infinite"}},"methodIdentifiers":{"acceptOffer(bytes32,uint256)":"3e314b5a","claimGRTWithoutDispute(bytes32,uint256)":"b44a468b","createOffer(bytes32,uint256)":"1208a32b","depositGRTRequestERC20(uint256,uint256,address,uint256,uint256,address)":"52430b55","depositGRTRequestNative(uint256,uint256,uint256,uint256,address)":"8f09f930","getDepositAmount(bytes32)":"2c3daef6","getDepositChainId(bytes32)":"d4a4429a","getDepositToken(bytes32)":"b4bed2c9","getNonce(address)":"2d0335ab","getOfferAmount(bytes32,uint256)":"606e3112","getOfferCreator(bytes32,uint256)":"584396bc","getRecipient(bytes32)":"fbc6da75","getRequestAmount(bytes32)":"14ddc253","getRequestChainId(bytes32)":"d79ff4b6","getRequestToken(bytes32)":"3e4e872f","getRequester(bytes32)":"58381bbd","grtAddress()":"bfe51359","grtChainId()":"e9d9769f","initializePool(address,uint256,address)":"ef50e1d6","isOfferAccepted(bytes32,uint256)":"ec1ad8d3","isOfferPaid(bytes32,uint256)":"2ab89ca1","isrequest(bytes32)":"2ab18a50","nbrOffersRequest(bytes32)":"5b7a9341","owner()":"8da5cb5b","payOfferOnChainERC20(bytes32,uint256)":"9f36b244","payOfferOnChainNative(bytes32,uint256)":"6bb1b9ea","rejectOffer(bytes32,uint256)":"254a2ccc","renounceOwnership()":"715018a6","setGRTAddr(address)":"412ff893","setGRTChainId(uint256)":"17030add","stakeGRT(uint256)":"ace7c37e","stakeOf(address)":"42623360","transferOwnership(address)":"f2fde38b"}},"storageLayout":{"storage":[{"astId":184,"contract":"contracts/v0.2.0/GrtPool.sol:GrtPool","label":"_initialized","offset":0,"slot":"0","type":"t_uint8"},{"astId":187,"contract":"contracts/v0.2.0/GrtPool.sol:GrtPool","label":"_initializing","offset":1,"slot":"0","type":"t_bool"},{"astId":671,"contract":"contracts/v0.2.0/GrtPool.sol:GrtPool","label":"__gap","offset":0,"slot":"1","type":"t_array(t_uint256)50_storage"},{"astId":56,"contract":"contracts/v0.2.0/GrtPool.sol:GrtPool","label":"_owner","offset":0,"slot":"51","type":"t_address"},{"astId":176,"contract":"contracts/v0.2.0/GrtPool.sol:GrtPool","label":"__gap","offset":0,"slot":"52","type":"t_array(t_uint256)49_storage"},{"astId":1923,"contract":"contracts/v0.2.0/GrtPool.sol:GrtPool","label":"_addrGRT","offset":0,"slot":"101","type":"t_address"},{"astId":1925,"contract":"contracts/v0.2.0/GrtPool.sol:GrtPool","label":"_chainIdGRT","offset":0,"slot":"102","type":"t_uint256"},{"astId":1966,"contract":"contracts/v0.2.0/GrtPool.sol:GrtPool","label":"_requests","offset":0,"slot":"103","type":"t_mapping(t_bytes32,t_struct(Request)1945_storage)"},{"astId":1970,"contract":"contracts/v0.2.0/GrtPool.sol:GrtPool","label":"_stakes","offset":0,"slot":"104","type":"t_mapping(t_address,t_uint256)"},{"astId":1974,"contract":"contracts/v0.2.0/GrtPool.sol:GrtPool","label":"_nonces","offset":0,"slot":"105","type":"t_mapping(t_address,t_uint256)"}],"types":{"t_address":{"encoding":"inplace","label":"address","numberOfBytes":"20"},"t_array(t_uint256)49_storage":{"base":"t_uint256","encoding":"inplace","label":"uint256[49]","numberOfBytes":"1568"},"t_array(t_uint256)50_storage":{"base":"t_uint256","encoding":"inplace","label":"uint256[50]","numberOfBytes":"1600"},"t_bool":{"encoding":"inplace","label":"bool","numberOfBytes":"1"},"t_bytes32":{"encoding":"inplace","label":"bytes32","numberOfBytes":"32"},"t_mapping(t_address,t_uint256)":{"encoding":"mapping","key":"t_address","label":"mapping(address => uint256)","numberOfBytes":"32","value":"t_uint256"},"t_mapping(t_bytes32,t_struct(Request)1945_storage)":{"encoding":"mapping","key":"t_bytes32","label":"mapping(bytes32 => struct GrtPool.Request)","numberOfBytes":"32","value":"t_struct(Request)1945_storage"},"t_mapping(t_uint256,t_struct(Offer)1954_storage)":{"encoding":"mapping","key":"t_uint256","label":"mapping(uint256 => struct GrtPool.Offer)","numberOfBytes":"32","value":"t_struct(Offer)1954_storage"},"t_struct(Offer)1954_storage":{"encoding":"inplace","label":"struct GrtPool.Offer","members":[{"astId":1947,"contract":"contracts/v0.2.0/GrtPool.sol:GrtPool","label":"userAddr","offset":0,"slot":"0","type":"t_address"},{"astId":1949,"contract":"contracts/v0.2.0/GrtPool.sol:GrtPool","label":"amount","offset":0,"slot":"1","type":"t_uint256"},{"astId":1951,"contract":"contracts/v0.2.0/GrtPool.sol:GrtPool","label":"isAccept","offset":0,"slot":"2","type":"t_bool"},{"astId":1953,"contract":"contracts/v0.2.0/GrtPool.sol:GrtPool","label":"isPaid","offset":1,"slot":"2","type":"t_bool"}],"numberOfBytes":"96"},"t_struct(Request)1945_storage":{"encoding":"inplace","label":"struct GrtPool.Request","members":[{"astId":1927,"contract":"contracts/v0.2.0/GrtPool.sol:GrtPool","label":"userAddr","offset":0,"slot":"0","type":"t_address"},{"astId":1929,"contract":"contracts/v0.2.0/GrtPool.sol:GrtPool","label":"destAddr","offset":0,"slot":"1","type":"t_address"},{"astId":1932,"contract":"contracts/v0.2.0/GrtPool.sol:GrtPool","label":"deposit","offset":0,"slot":"2","type":"t_struct(TokenInfo)1961_storage"},{"astId":1935,"contract":"contracts/v0.2.0/GrtPool.sol:GrtPool","label":"request","offset":0,"slot":"5","type":"t_struct(TokenInfo)1961_storage"},{"astId":1937,"contract":"contracts/v0.2.0/GrtPool.sol:GrtPool","label":"isRequest","offset":0,"slot":"8","type":"t_bool"},{"astId":1939,"contract":"contracts/v0.2.0/GrtPool.sol:GrtPool","label":"nonceOffers","offset":0,"slot":"9","type":"t_uint256"},{"astId":1944,"contract":"contracts/v0.2.0/GrtPool.sol:GrtPool","label":"offers","offset":0,"slot":"10","type":"t_mapping(t_uint256,t_struct(Offer)1954_storage)"}],"numberOfBytes":"352"},"t_struct(TokenInfo)1961_storage":{"encoding":"inplace","label":"struct GrtPool.TokenInfo","members":[{"astId":1956,"contract":"contracts/v0.2.0/GrtPool.sol:GrtPool","label":"token","offset":0,"slot":"0","type":"t_address"},{"astId":1958,"contract":"contracts/v0.2.0/GrtPool.sol:GrtPool","label":"amount","offset":0,"slot":"1","type":"t_uint256"},{"astId":1960,"contract":"contracts/v0.2.0/GrtPool.sol:GrtPool","label":"chainId","offset":0,"slot":"2","type":"t_uint256"}],"numberOfBytes":"96"},"t_uint256":{"encoding":"inplace","label":"uint256","numberOfBytes":"32"},"t_uint8":{"encoding":"inplace","label":"uint8","numberOfBytes":"1"}}},"userdoc":{"kind":"user","methods":{},"version":1}}}}