{"contracts/v0.2.0/GrtDeployAASC.sol":{"GrtDeployAASC":{"abi":[{"inputs":[],"name":"deployAASC","outputs":[{"internalType":"bool","name":"","type":"bool"}],"stateMutability":"nonpayable","type":"function"}],"devdoc":{"kind":"dev","methods":{},"version":1},"evm":{"bytecode":{"linkReferences":{},"object":"6080604052348015600f57600080fd5b50607780601d6000396000f3fe6080604052348015600f57600080fd5b506004361060285760003560e01c80631f765f4214602d575b600080fd5b604080516001815290519081900360200190f3fea2646970667358221220cc52ad6faac23cac3c3b944ed8bb5d92d64efe6d8f4cf386b8d64fe77aec0a9664736f6c63430008110033","opcodes":"PUSH1 0x80 PUSH1 0x40 MSTORE CALLVALUE DUP1 ISZERO PUSH1 0xF JUMPI PUSH1 0x0 DUP1 REVERT JUMPDEST POP PUSH1 0x77 DUP1 PUSH1 0x1D PUSH1 0x0 CODECOPY PUSH1 0x0 RETURN INVALID PUSH1 0x80 PUSH1 0x40 MSTORE CALLVALUE DUP1 ISZERO PUSH1 0xF JUMPI PUSH1 0x0 DUP1 REVERT JUMPDEST POP PUSH1 0x4 CALLDATASIZE LT PUSH1 0x28 JUMPI PUSH1 0x0 CALLDATALOAD PUSH1 0xE0 SHR DUP1 PUSH4 0x1F765F42 EQ PUSH1 0x2D JUMPI JUMPDEST PUSH1 0x0 DUP1 REVERT JUMPDEST PUSH1 0x40 DUP1 MLOAD PUSH1 0x1 DUP2 MSTORE SWAP1 MLOAD SWAP1 DUP2 SWAP1 SUB PUSH1 0x20 ADD SWAP1 RETURN INVALID LOG2 PUSH5 0x6970667358 0x22 SLT KECCAK256 0xCC MSTORE 0xAD PUSH16 0xAAC23CAC3C3B944ED8BB5D92D64EFE6D DUP16 0x4C RETURN DUP7 0xB8 0xD6 0x4F 0xE7 PUSH27 0xEC0A9664736F6C6343000811003300000000000000000000000000 "},"gasEstimates":{"creation":{"codeDepositCost":"23800","executionCost":"75","totalCost":"23875"},"external":{"deployAASC()":"149"}},"methodIdentifiers":{"deployAASC()":"1f765f42"}},"storageLayout":{"storage":[{"astId":1307,"contract":"contracts/v0.2.0/GrtDeployAASC.sol:GrtDeployAASC","label":"_contractsAASC","offset":0,"slot":"0","type":"t_mapping(t_address,t_address)"}],"types":{"t_address":{"encoding":"inplace","label":"address","numberOfBytes":"20"},"t_mapping(t_address,t_address)":{"encoding":"mapping","key":"t_address","label":"mapping(address => address)","numberOfBytes":"32","value":"t_address"}}},"userdoc":{"kind":"user","methods":{},"version":1}}}}