{"contracts/v0.2.0/GrtOffer.sol":{"GrtOffer":{"abi":[{"anonymous":false,"inputs":[{"indexed":false,"internalType":"uint8","name":"version","type":"uint8"}],"name":"Initialized","type":"event"},{"anonymous":false,"inputs":[{"indexed":true,"internalType":"bytes32","name":"_idOffer","type":"bytes32"},{"indexed":true,"internalType":"address","name":"_contractAddress","type":"address"},{"indexed":true,"internalType":"address","name":"_token","type":"address"},{"indexed":false,"internalType":"uint256","name":"_chainId","type":"uint256"}],"name":"LogNewOffer","type":"event"},{"anonymous":false,"inputs":[{"indexed":true,"internalType":"address","name":"previousOwner","type":"address"},{"indexed":true,"internalType":"address","name":"newOwner","type":"address"}],"name":"OwnershipTransferred","type":"event"},{"inputs":[{"internalType":"bytes32","name":"idOffer","type":"bytes32"}],"name":"getAddressOffer","outputs":[{"internalType":"address","name":"","type":"address"}],"stateMutability":"view","type":"function"},{"inputs":[{"internalType":"bytes32","name":"idOffer","type":"bytes32"}],"name":"getChainIdOffer","outputs":[{"internalType":"uint256","name":"","type":"uint256"}],"stateMutability":"view","type":"function"},{"inputs":[{"internalType":"address","name":"chainlinkContract","type":"address"}],"name":"getLatestPrice","outputs":[{"internalType":"int256","name":"","type":"int256"}],"stateMutability":"view","type":"function"},{"inputs":[{"internalType":"bytes32","name":"idOffer","type":"bytes32"}],"name":"getLowerLimitFnHashOffer","outputs":[{"internalType":"bytes32","name":"","type":"bytes32"}],"stateMutability":"view","type":"function"},{"inputs":[{"internalType":"bytes32","name":"idOffer","type":"bytes32"},{"internalType":"bytes","name":"fn","type":"bytes"}],"name":"getLowerPriceLimitFromContract","outputs":[{"internalType":"uint256","name":"","type":"uint256"}],"stateMutability":"view","type":"function"},{"inputs":[{"internalType":"bytes32","name":"idOffer","type":"bytes32"},{"internalType":"bytes","name":"fn","type":"bytes"}],"name":"getLowerPriceLimitFromGrindery","outputs":[{"internalType":"int256","name":"","type":"int256"}],"stateMutability":"view","type":"function"},{"inputs":[{"internalType":"address","name":"user","type":"address"}],"name":"getNonceUser","outputs":[{"internalType":"uint256","name":"","type":"uint256"}],"stateMutability":"view","type":"function"},{"inputs":[{"internalType":"bytes32","name":"idOffer","type":"bytes32"}],"name":"getTokenOffer","outputs":[{"internalType":"address","name":"","type":"address"}],"stateMutability":"view","type":"function"},{"inputs":[{"internalType":"bytes32","name":"idOffer","type":"bytes32"}],"name":"getUpperLimitFnHashOffer","outputs":[{"internalType":"bytes32","name":"","type":"bytes32"}],"stateMutability":"view","type":"function"},{"inputs":[{"internalType":"bytes32","name":"idOffer","type":"bytes32"},{"internalType":"bytes","name":"fn","type":"bytes"}],"name":"getUpperPriceLimitFromContract","outputs":[{"internalType":"uint256","name":"","type":"uint256"}],"stateMutability":"view","type":"function"},{"inputs":[{"internalType":"bytes32","name":"idOffer","type":"bytes32"},{"internalType":"bytes","name":"fn","type":"bytes"}],"name":"getUpperPriceLimitFromGrindery","outputs":[{"internalType":"int256","name":"","type":"int256"}],"stateMutability":"view","type":"function"},{"inputs":[],"name":"initializeGrtOffer","outputs":[],"stateMutability":"nonpayable","type":"function"},{"inputs":[],"name":"owner","outputs":[{"internalType":"address","name":"","type":"address"}],"stateMutability":"view","type":"function"},{"inputs":[],"name":"renounceOwnership","outputs":[],"stateMutability":"nonpayable","type":"function"},{"inputs":[{"internalType":"uint256","name":"chainId","type":"uint256"},{"internalType":"address","name":"token","type":"address"},{"internalType":"address","name":"priceAddress","type":"address"},{"internalType":"bytes","name":"upperLimitFn","type":"bytes"},{"internalType":"bytes","name":"lowerLimitFn","type":"bytes"}],"name":"setOfferWithContract","outputs":[{"internalType":"bool","name":"","type":"bool"}],"stateMutability":"nonpayable","type":"function"},{"inputs":[{"internalType":"uint256","name":"chainId","type":"uint256"},{"internalType":"address","name":"token","type":"address"},{"internalType":"bytes","name":"upperLimitFn","type":"bytes"},{"internalType":"bytes","name":"lowerLimitFn","type":"bytes"}],"name":"setOfferWithGrindery","outputs":[{"internalType":"bool","name":"","type":"bool"}],"stateMutability":"nonpayable","type":"function"},{"inputs":[{"internalType":"address","name":"newOwner","type":"address"}],"name":"transferOwnership","outputs":[],"stateMutability":"nonpayable","type":"function"}],"devdoc":{"kind":"dev","methods":{"owner()":{"details":"Returns the address of the current owner."},"renounceOwnership()":{"details":"Leaves the contract without owner. It will not be possible to call `onlyOwner` functions anymore. Can only be called by the current owner. NOTE: Renouncing ownership will leave the contract without an owner, thereby removing any functionality that is only available to the owner."},"transferOwnership(address)":{"details":"Transfers ownership of the contract to a new account (`newOwner`). Can only be called by the current owner."}},"version":1},"evm":{"bytecode":{"linkReferences":{},"object":"608060405234801561001057600080fd5b5061137d806100206000396000f3fe608060405234801561001057600080fd5b506004361061011b5760003560e01c80637fc6176c116100b2578063a1c59cef11610081578063bd71a1e211610066578063bd71a1e2146102b4578063e956eb8a146102c7578063f2fde38b146102ea57600080fd5b8063a1c59cef14610289578063bc61494e146102ac57600080fd5b80637fc6176c146102265780638c02d6ff146102525780638da5cb5b146102655780639ef630231461027657600080fd5b80635a3f5fdb116100ee5780635a3f5fdb146101c05780635adbe5de146101d3578063715018a6146101fc57806375012c8b1461020657600080fd5b806302821a7e146101205780630a0ef56d1461014857806316345f18146101695780634516010f1461017c575b600080fd5b61013361012e36600461103f565b6102fd565b60405190151581526020015b60405180910390f35b61015b6101563660046110cb565b610478565b60405190815260200161013f565b61015b610177366004611117565b610691565b6101a861018a366004611134565b6000908152606560205260409020600101546001600160a01b031690565b6040516001600160a01b03909116815260200161013f565b61015b6101ce3660046110cb565b610702565b61015b6101e1366004611117565b6001600160a01b031660009081526066602052604090205490565b610204610893565b005b61015b610214366004611134565b60009081526065602052604090205490565b6101a8610234366004611134565b6000908152606560205260409020600201546001600160a01b031690565b61015b6102603660046110cb565b6108a7565b6033546001600160a01b03166101a8565b61015b6102843660046110cb565b610a2e565b61015b610297366004611134565b60009081526065602052604090206003015490565b610204610b07565b6101336102c236600461114d565b610c27565b61015b6102d5366004611134565b60009081526065602052604090206004015490565b6102046102f8366004611117565b610db9565b33600081815260666020908152604080832054905160609490941b6bffffffffffffffffffffffff191691840191909152603483015246605483015290819060740160408051808303601f190181528282528051602091820120600081815260658352929092208b8155600101805473ffffffffffffffffffffffffffffffffffffffff19166001600160a01b038c161790559092506103a19186918691016111ec565b60408051601f19818403018152828252805160209182012060008581526065835292909220600401919091556103db9188918891016111ec565b60408051601f1981840301815282825280516020918201206000858152606583528390206003810191909155600201548b845291516001600160a01b038b81169493169285927f90d1517eab8d1d52082251d5392431a6bf50b65d94217ad0a4bd02b15072445c92918290030190a43360009081526066602052604081208054916104658361122b565b9091555060019998505050505050505050565b6000838152606560205260408120600201546001600160a01b03166105305760405162461bcd60e51b815260206004820152605060248201527f475254206f66666572733a206e6f7420616c6c6f77656420746f206d6f64696660448201527f7920746865207072696365206c696d69742076696120616e2065787465726e6160648201527f6c20736d61727420636f6e747261637400000000000000000000000000000000608482015260a4015b60405180910390fd5b6000848152606560209081526040918290206003015491516105569186918691016111ec565b60405160208183030381529060405280519060200120146105ed5760405162461bcd60e51b8152602060048201526044602482018190527f475254206f66666572733a207468652066756e6374696f6e20646f6573206e6f908201527f74206d6174636820746865206f6e6520656e746572656420696e20746865206f606482015263333332b960e11b608482015260a401610527565b60008481526065602052604080822060020154905182916001600160a01b03169061061b90879087906111ec565b600060405180830381855afa9150503d8060008114610656576040519150601f19603f3d011682016040523d82523d6000602084013e61065b565b606091505b50915091508115610683578080602001905181019061067a9190611244565b9250505061068a565b6000925050505b9392505050565b600080826001600160a01b031663feaf968c6040518163ffffffff1660e01b815260040160a060405180830381865afa1580156106d2573d6000803e3d6000fd5b505050506040513d601f19601f820116820180604052508101906106f6919061127c565b50919695505050505050565b6000838152606560205260408120600201546001600160a01b0316156107a55760405162461bcd60e51b815260206004820152604c60248201527f475254206f66666572733a20746865207072696365206c696d69742073686f7560448201527f6c6420626520757064617465642076696120616e2065787465726e616c20736d60648201526b185c9d0818dbdb9d1c9858dd60a21b608482015260a401610527565b6000848152606560209081526040918290206003015491516107cb9186918691016111ec565b60405160208183030381529060405280519060200120146108625760405162461bcd60e51b8152602060048201526044602482018190527f475254206f66666572733a207468652066756e6374696f6e20646f6573206e6f908201527f74206d6174636820746865206f6e6520656e746572656420696e20746865206f606482015263333332b960e11b608482015260a401610527565b600080610871848601866112cc565b915091508061087f83610691565b61088991906112f8565b9695505050505050565b61089b610e46565b6108a56000610ea0565b565b6000838152606560205260408120600201546001600160a01b03161561094a5760405162461bcd60e51b815260206004820152604c60248201527f475254206f66666572733a20746865207072696365206c696d69742073686f7560448201527f6c6420626520757064617465642076696120616e2065787465726e616c20736d60648201526b185c9d0818dbdb9d1c9858dd60a21b608482015260a401610527565b6000848152606560209081526040918290206004015491516109709186918691016111ec565b6040516020818303038152906040528051906020012014610a075760405162461bcd60e51b8152602060048201526044602482018190527f475254206f66666572733a207468652066756e6374696f6e20646f6573206e6f908201527f74206d6174636820746865206f6e6520656e746572656420696e20746865206f606482015263333332b960e11b608482015260a401610527565b600080610a16848601866112cc565b9150915080610a2483610691565b6108899190611320565b6000838152606560205260408120600201546001600160a01b0316610ae15760405162461bcd60e51b815260206004820152605060248201527f475254206f66666572733a206e6f7420616c6c6f77656420746f206d6f64696660448201527f7920746865207072696365206c696d69742076696120616e2065787465726e6160648201527f6c20736d61727420636f6e747261637400000000000000000000000000000000608482015260a401610527565b6000848152606560209081526040918290206004015491516105569186918691016111ec565b600054610100900460ff1615808015610b275750600054600160ff909116105b80610b415750303b158015610b41575060005460ff166001145b610bb35760405162461bcd60e51b815260206004820152602e60248201527f496e697469616c697a61626c653a20636f6e747261637420697320616c72656160448201527f647920696e697469616c697a65640000000000000000000000000000000000006064820152608401610527565b6000805460ff191660011790558015610bd6576000805461ff0019166101001790555b610bde610eff565b8015610c24576000805461ff0019169055604051600181527f7f26b83ff96e1f2b6a682f133852f6798a09c465da95921460cefb38474024989060200160405180910390a15b50565b33600081815260666020908152604080832054905160609490941b6bffffffffffffffffffffffff191691840191909152603483015246605483015290819060740160408051601f198184030181528282528051602091820120600081815260658352929092208c81556001810180546001600160a01b03808f1673ffffffffffffffffffffffffffffffffffffffff199283161790925560029092018054918d1691909216179055909250610ce19186918691016111ec565b60408051601f1981840301815282825280516020918201206000858152606583529290922060040191909155610d1b9188918891016111ec565b60408051601f1981840301815282825280516020918201206000858152606583528390206003810191909155600201548c845291516001600160a01b038c81169493169285927f90d1517eab8d1d52082251d5392431a6bf50b65d94217ad0a4bd02b15072445c92918290030190a4336000908152606660205260408120805491610da58361122b565b9091555060019a9950505050505050505050565b610dc1610e46565b6001600160a01b038116610e3d5760405162461bcd60e51b815260206004820152602660248201527f4f776e61626c653a206e6577206f776e657220697320746865207a65726f206160448201527f64647265737300000000000000000000000000000000000000000000000000006064820152608401610527565b610c2481610ea0565b6033546001600160a01b031633146108a55760405162461bcd60e51b815260206004820181905260248201527f4f776e61626c653a2063616c6c6572206973206e6f7420746865206f776e65726044820152606401610527565b603380546001600160a01b0383811673ffffffffffffffffffffffffffffffffffffffff19831681179093556040519116919082907f8be0079c531659141344cd1fd0a4f28419497f9722a3daafe3b4186f6b6457e090600090a35050565b600054610100900460ff16610f6a5760405162461bcd60e51b815260206004820152602b60248201527f496e697469616c697a61626c653a20636f6e7472616374206973206e6f74206960448201526a6e697469616c697a696e6760a81b6064820152608401610527565b6108a5600054610100900460ff16610fd85760405162461bcd60e51b815260206004820152602b60248201527f496e697469616c697a61626c653a20636f6e7472616374206973206e6f74206960448201526a6e697469616c697a696e6760a81b6064820152608401610527565b6108a533610ea0565b6001600160a01b0381168114610c2457600080fd5b60008083601f84011261100857600080fd5b50813567ffffffffffffffff81111561102057600080fd5b60208301915083602082850101111561103857600080fd5b9250929050565b6000806000806000806080878903121561105857600080fd5b86359550602087013561106a81610fe1565b9450604087013567ffffffffffffffff8082111561108757600080fd5b6110938a838b01610ff6565b909650945060608901359150808211156110ac57600080fd5b506110b989828a01610ff6565b979a9699509497509295939492505050565b6000806000604084860312156110e057600080fd5b83359250602084013567ffffffffffffffff8111156110fe57600080fd5b61110a86828701610ff6565b9497909650939450505050565b60006020828403121561112957600080fd5b813561068a81610fe1565b60006020828403121561114657600080fd5b5035919050565b600080600080600080600060a0888a03121561116857600080fd5b87359650602088013561117a81610fe1565b9550604088013561118a81610fe1565b9450606088013567ffffffffffffffff808211156111a757600080fd5b6111b38b838c01610ff6565b909650945060808a01359150808211156111cc57600080fd5b506111d98a828b01610ff6565b989b979a50959850939692959293505050565b8183823760009101908152919050565b7f4e487b7100000000000000000000000000000000000000000000000000000000600052601160045260246000fd5b60006001820161123d5761123d6111fc565b5060010190565b60006020828403121561125657600080fd5b5051919050565b805169ffffffffffffffffffff8116811461127757600080fd5b919050565b600080600080600060a0868803121561129457600080fd5b61129d8661125d565b94506020860151935060408601519250606086015191506112c06080870161125d565b90509295509295909350565b600080604083850312156112df57600080fd5b82356112ea81610fe1565b946020939093013593505050565b8082018281126000831280158216821582161715611318576113186111fc565b505092915050565b8181036000831280158383131683831282161715611340576113406111fc565b509291505056fea2646970667358221220fb45cf31d53b9c7a08dc46d785b1669a77a38be5c754825efe2294a2a5f0ee5064736f6c63430008110033","opcodes":"PUSH1 0x80 PUSH1 0x40 MSTORE CALLVALUE DUP1 ISZERO PUSH2 0x10 JUMPI PUSH1 0x0 DUP1 REVERT JUMPDEST POP PUSH2 0x137D DUP1 PUSH2 0x20 PUSH1 0x0 CODECOPY PUSH1 0x0 RETURN INVALID PUSH1 0x80 PUSH1 0x40 MSTORE CALLVALUE DUP1 ISZERO PUSH2 0x10 JUMPI PUSH1 0x0 DUP1 REVERT JUMPDEST POP PUSH1 0x4 CALLDATASIZE LT PUSH2 0x11B JUMPI PUSH1 0x0 CALLDATALOAD PUSH1 0xE0 SHR DUP1 PUSH4 0x7FC6176C GT PUSH2 0xB2 JUMPI DUP1 PUSH4 0xA1C59CEF GT PUSH2 0x81 JUMPI DUP1 PUSH4 0xBD71A1E2 GT PUSH2 0x66 JUMPI DUP1 PUSH4 0xBD71A1E2 EQ PUSH2 0x2B4 JUMPI DUP1 PUSH4 0xE956EB8A EQ PUSH2 0x2C7 JUMPI DUP1 PUSH4 0xF2FDE38B EQ PUSH2 0x2EA JUMPI PUSH1 0x0 DUP1 REVERT JUMPDEST DUP1 PUSH4 0xA1C59CEF EQ PUSH2 0x289 JUMPI DUP1 PUSH4 0xBC61494E EQ PUSH2 0x2AC JUMPI PUSH1 0x0 DUP1 REVERT JUMPDEST DUP1 PUSH4 0x7FC6176C EQ PUSH2 0x226 JUMPI DUP1 PUSH4 0x8C02D6FF EQ PUSH2 0x252 JUMPI DUP1 PUSH4 0x8DA5CB5B EQ PUSH2 0x265 JUMPI DUP1 PUSH4 0x9EF63023 EQ PUSH2 0x276 JUMPI PUSH1 0x0 DUP1 REVERT JUMPDEST DUP1 PUSH4 0x5A3F5FDB GT PUSH2 0xEE JUMPI DUP1 PUSH4 0x5A3F5FDB EQ PUSH2 0x1C0 JUMPI DUP1 PUSH4 0x5ADBE5DE EQ PUSH2 0x1D3 JUMPI DUP1 PUSH4 0x715018A6 EQ PUSH2 0x1FC JUMPI DUP1 PUSH4 0x75012C8B EQ PUSH2 0x206 JUMPI PUSH1 0x0 DUP1 REVERT JUMPDEST DUP1 PUSH4 0x2821A7E EQ PUSH2 0x120 JUMPI DUP1 PUSH4 0xA0EF56D EQ PUSH2 0x148 JUMPI DUP1 PUSH4 0x16345F18 EQ PUSH2 0x169 JUMPI DUP1 PUSH4 0x4516010F EQ PUSH2 0x17C JUMPI JUMPDEST PUSH1 0x0 DUP1 REVERT JUMPDEST PUSH2 0x133 PUSH2 0x12E CALLDATASIZE PUSH1 0x4 PUSH2 0x103F JUMP JUMPDEST PUSH2 0x2FD JUMP JUMPDEST PUSH1 0x40 MLOAD SWAP1 ISZERO ISZERO DUP2 MSTORE PUSH1 0x20 ADD JUMPDEST PUSH1 0x40 MLOAD DUP1 SWAP2 SUB SWAP1 RETURN JUMPDEST PUSH2 0x15B PUSH2 0x156 CALLDATASIZE PUSH1 0x4 PUSH2 0x10CB JUMP JUMPDEST PUSH2 0x478 JUMP JUMPDEST PUSH1 0x40 MLOAD SWAP1 DUP2 MSTORE PUSH1 0x20 ADD PUSH2 0x13F JUMP JUMPDEST PUSH2 0x15B PUSH2 0x177 CALLDATASIZE PUSH1 0x4 PUSH2 0x1117 JUMP JUMPDEST PUSH2 0x691 JUMP JUMPDEST PUSH2 0x1A8 PUSH2 0x18A CALLDATASIZE PUSH1 0x4 PUSH2 0x1134 JUMP JUMPDEST PUSH1 0x0 SWAP1 DUP2 MSTORE PUSH1 0x65 PUSH1 0x20 MSTORE PUSH1 0x40 SWAP1 KECCAK256 PUSH1 0x1 ADD SLOAD PUSH1 0x1 PUSH1 0x1 PUSH1 0xA0 SHL SUB AND SWAP1 JUMP JUMPDEST PUSH1 0x40 MLOAD PUSH1 0x1 PUSH1 0x1 PUSH1 0xA0 SHL SUB SWAP1 SWAP2 AND DUP2 MSTORE PUSH1 0x20 ADD PUSH2 0x13F JUMP JUMPDEST PUSH2 0x15B PUSH2 0x1CE CALLDATASIZE PUSH1 0x4 PUSH2 0x10CB JUMP JUMPDEST PUSH2 0x702 JUMP JUMPDEST PUSH2 0x15B PUSH2 0x1E1 CALLDATASIZE PUSH1 0x4 PUSH2 0x1117 JUMP JUMPDEST PUSH1 0x1 PUSH1 0x1 PUSH1 0xA0 SHL SUB AND PUSH1 0x0 SWAP1 DUP2 MSTORE PUSH1 0x66 PUSH1 0x20 MSTORE PUSH1 0x40 SWAP1 KECCAK256 SLOAD SWAP1 JUMP JUMPDEST PUSH2 0x204 PUSH2 0x893 JUMP JUMPDEST STOP JUMPDEST PUSH2 0x15B PUSH2 0x214 CALLDATASIZE PUSH1 0x4 PUSH2 0x1134 JUMP JUMPDEST PUSH1 0x0 SWAP1 DUP2 MSTORE PUSH1 0x65 PUSH1 0x20 MSTORE PUSH1 0x40 SWAP1 KECCAK256 SLOAD SWAP1 JUMP JUMPDEST PUSH2 0x1A8 PUSH2 0x234 CALLDATASIZE PUSH1 0x4 PUSH2 0x1134 JUMP JUMPDEST PUSH1 0x0 SWAP1 DUP2 MSTORE PUSH1 0x65 PUSH1 0x20 MSTORE PUSH1 0x40 SWAP1 KECCAK256 PUSH1 0x2 ADD SLOAD PUSH1 0x1 PUSH1 0x1 PUSH1 0xA0 SHL SUB AND SWAP1 JUMP JUMPDEST PUSH2 0x15B PUSH2 0x260 CALLDATASIZE PUSH1 0x4 PUSH2 0x10CB JUMP JUMPDEST PUSH2 0x8A7 JUMP JUMPDEST PUSH1 0x33 SLOAD PUSH1 0x1 PUSH1 0x1 PUSH1 0xA0 SHL SUB AND PUSH2 0x1A8 JUMP JUMPDEST PUSH2 0x15B PUSH2 0x284 CALLDATASIZE PUSH1 0x4 PUSH2 0x10CB JUMP JUMPDEST PUSH2 0xA2E JUMP JUMPDEST PUSH2 0x15B PUSH2 0x297 CALLDATASIZE PUSH1 0x4 PUSH2 0x1134 JUMP JUMPDEST PUSH1 0x0 SWAP1 DUP2 MSTORE PUSH1 0x65 PUSH1 0x20 MSTORE PUSH1 0x40 SWAP1 KECCAK256 PUSH1 0x3 ADD SLOAD SWAP1 JUMP JUMPDEST PUSH2 0x204 PUSH2 0xB07 JUMP JUMPDEST PUSH2 0x133 PUSH2 0x2C2 CALLDATASIZE PUSH1 0x4 PUSH2 0x114D JUMP JUMPDEST PUSH2 0xC27 JUMP JUMPDEST PUSH2 0x15B PUSH2 0x2D5 CALLDATASIZE PUSH1 0x4 PUSH2 0x1134 JUMP JUMPDEST PUSH1 0x0 SWAP1 DUP2 MSTORE PUSH1 0x65 PUSH1 0x20 MSTORE PUSH1 0x40 SWAP1 KECCAK256 PUSH1 0x4 ADD SLOAD SWAP1 JUMP JUMPDEST PUSH2 0x204 PUSH2 0x2F8 CALLDATASIZE PUSH1 0x4 PUSH2 0x1117 JUMP JUMPDEST PUSH2 0xDB9 JUMP JUMPDEST CALLER PUSH1 0x0 DUP2 DUP2 MSTORE PUSH1 0x66 PUSH1 0x20 SWAP1 DUP2 MSTORE PUSH1 0x40 DUP1 DUP4 KECCAK256 SLOAD SWAP1 MLOAD PUSH1 0x60 SWAP5 SWAP1 SWAP5 SHL PUSH12 0xFFFFFFFFFFFFFFFFFFFFFFFF NOT AND SWAP2 DUP5 ADD SWAP2 SWAP1 SWAP2 MSTORE PUSH1 0x34 DUP4 ADD MSTORE CHAINID PUSH1 0x54 DUP4 ADD MSTORE SWAP1 DUP2 SWAP1 PUSH1 0x74 ADD PUSH1 0x40 DUP1 MLOAD DUP1 DUP4 SUB PUSH1 0x1F NOT ADD DUP2 MSTORE DUP3 DUP3 MSTORE DUP1 MLOAD PUSH1 0x20 SWAP2 DUP3 ADD KECCAK256 PUSH1 0x0 DUP2 DUP2 MSTORE PUSH1 0x65 DUP4 MSTORE SWAP3 SWAP1 SWAP3 KECCAK256 DUP12 DUP2 SSTORE PUSH1 0x1 ADD DUP1 SLOAD PUSH20 0xFFFFFFFFFFFFFFFFFFFFFFFFFFFFFFFFFFFFFFFF NOT AND PUSH1 0x1 PUSH1 0x1 PUSH1 0xA0 SHL SUB DUP13 AND OR SWAP1 SSTORE SWAP1 SWAP3 POP PUSH2 0x3A1 SWAP2 DUP7 SWAP2 DUP7 SWAP2 ADD PUSH2 0x11EC JUMP JUMPDEST PUSH1 0x40 DUP1 MLOAD PUSH1 0x1F NOT DUP2 DUP5 SUB ADD DUP2 MSTORE DUP3 DUP3 MSTORE DUP1 MLOAD PUSH1 0x20 SWAP2 DUP3 ADD KECCAK256 PUSH1 0x0 DUP6 DUP2 MSTORE PUSH1 0x65 DUP4 MSTORE SWAP3 SWAP1 SWAP3 KECCAK256 PUSH1 0x4 ADD SWAP2 SWAP1 SWAP2 SSTORE PUSH2 0x3DB SWAP2 DUP9 SWAP2 DUP9 SWAP2 ADD PUSH2 0x11EC JUMP JUMPDEST PUSH1 0x40 DUP1 MLOAD PUSH1 0x1F NOT DUP2 DUP5 SUB ADD DUP2 MSTORE DUP3 DUP3 MSTORE DUP1 MLOAD PUSH1 0x20 SWAP2 DUP3 ADD KECCAK256 PUSH1 0x0 DUP6 DUP2 MSTORE PUSH1 0x65 DUP4 MSTORE DUP4 SWAP1 KECCAK256 PUSH1 0x3 DUP2 ADD SWAP2 SWAP1 SWAP2 SSTORE PUSH1 0x2 ADD SLOAD DUP12 DUP5 MSTORE SWAP2 MLOAD PUSH1 0x1 PUSH1 0x1 PUSH1 0xA0 SHL SUB DUP12 DUP2 AND SWAP5 SWAP4 AND SWAP3 DUP6 SWAP3 PUSH32 0x90D1517EAB8D1D52082251D5392431A6BF50B65D94217AD0A4BD02B15072445C SWAP3 SWAP2 DUP3 SWAP1 SUB ADD SWAP1 LOG4 CALLER PUSH1 0x0 SWAP1 DUP2 MSTORE PUSH1 0x66 PUSH1 0x20 MSTORE PUSH1 0x40 DUP2 KECCAK256 DUP1 SLOAD SWAP2 PUSH2 0x465 DUP4 PUSH2 0x122B JUMP JUMPDEST SWAP1 SWAP2 SSTORE POP PUSH1 0x1 SWAP10 SWAP9 POP POP POP POP POP POP POP POP POP JUMP JUMPDEST PUSH1 0x0 DUP4 DUP2 MSTORE PUSH1 0x65 PUSH1 0x20 MSTORE PUSH1 0x40 DUP2 KECCAK256 PUSH1 0x2 ADD SLOAD PUSH1 0x1 PUSH1 0x1 PUSH1 0xA0 SHL SUB AND PUSH2 0x530 JUMPI PUSH1 0x40 MLOAD PUSH3 0x461BCD PUSH1 0xE5 SHL DUP2 MSTORE PUSH1 0x20 PUSH1 0x4 DUP3 ADD MSTORE PUSH1 0x50 PUSH1 0x24 DUP3 ADD MSTORE PUSH32 0x475254206F66666572733A206E6F7420616C6C6F77656420746F206D6F646966 PUSH1 0x44 DUP3 ADD MSTORE PUSH32 0x7920746865207072696365206C696D69742076696120616E2065787465726E61 PUSH1 0x64 DUP3 ADD MSTORE PUSH32 0x6C20736D61727420636F6E747261637400000000000000000000000000000000 PUSH1 0x84 DUP3 ADD MSTORE PUSH1 0xA4 ADD JUMPDEST PUSH1 0x40 MLOAD DUP1 SWAP2 SUB SWAP1 REVERT JUMPDEST PUSH1 0x0 DUP5 DUP2 MSTORE PUSH1 0x65 PUSH1 0x20 SWAP1 DUP2 MSTORE PUSH1 0x40 SWAP2 DUP3 SWAP1 KECCAK256 PUSH1 0x3 ADD SLOAD SWAP2 MLOAD PUSH2 0x556 SWAP2 DUP7 SWAP2 DUP7 SWAP2 ADD PUSH2 0x11EC JUMP JUMPDEST PUSH1 0x40 MLOAD PUSH1 0x20 DUP2 DUP4 SUB SUB DUP2 MSTORE SWAP1 PUSH1 0x40 MSTORE DUP1 MLOAD SWAP1 PUSH1 0x20 ADD KECCAK256 EQ PUSH2 0x5ED JUMPI PUSH1 0x40 MLOAD PUSH3 0x461BCD PUSH1 0xE5 SHL DUP2 MSTORE PUSH1 0x20 PUSH1 0x4 DUP3 ADD MSTORE PUSH1 0x44 PUSH1 0x24 DUP3 ADD DUP2 SWAP1 MSTORE PUSH32 0x475254206F66666572733A207468652066756E6374696F6E20646F6573206E6F SWAP1 DUP3 ADD MSTORE PUSH32 0x74206D6174636820746865206F6E6520656E746572656420696E20746865206F PUSH1 0x64 DUP3 ADD MSTORE PUSH4 0x333332B9 PUSH1 0xE1 SHL PUSH1 0x84 DUP3 ADD MSTORE PUSH1 0xA4 ADD PUSH2 0x527 JUMP JUMPDEST PUSH1 0x0 DUP5 DUP2 MSTORE PUSH1 0x65 PUSH1 0x20 MSTORE PUSH1 0x40 DUP1 DUP3 KECCAK256 PUSH1 0x2 ADD SLOAD SWAP1 MLOAD DUP3 SWAP2 PUSH1 0x1 PUSH1 0x1 PUSH1 0xA0 SHL SUB AND SWAP1 PUSH2 0x61B SWAP1 DUP8 SWAP1 DUP8 SWAP1 PUSH2 0x11EC JUMP JUMPDEST PUSH1 0x0 PUSH1 0x40 MLOAD DUP1 DUP4 SUB DUP2 DUP6 GAS STATICCALL SWAP2 POP POP RETURNDATASIZE DUP1 PUSH1 0x0 DUP2 EQ PUSH2 0x656 JUMPI PUSH1 0x40 MLOAD SWAP2 POP PUSH1 0x1F NOT PUSH1 0x3F RETURNDATASIZE ADD AND DUP3 ADD PUSH1 0x40 MSTORE RETURNDATASIZE DUP3 MSTORE RETURNDATASIZE PUSH1 0x0 PUSH1 0x20 DUP5 ADD RETURNDATACOPY PUSH2 0x65B JUMP JUMPDEST PUSH1 0x60 SWAP2 POP JUMPDEST POP SWAP2 POP SWAP2 POP DUP2 ISZERO PUSH2 0x683 JUMPI DUP1 DUP1 PUSH1 0x20 ADD SWAP1 MLOAD DUP2 ADD SWAP1 PUSH2 0x67A SWAP2 SWAP1 PUSH2 0x1244 JUMP JUMPDEST SWAP3 POP POP POP PUSH2 0x68A JUMP JUMPDEST PUSH1 0x0 SWAP3 POP POP POP JUMPDEST SWAP4 SWAP3 POP POP POP JUMP JUMPDEST PUSH1 0x0 DUP1 DUP3 PUSH1 0x1 PUSH1 0x1 PUSH1 0xA0 SHL SUB AND PUSH4 0xFEAF968C PUSH1 0x40 MLOAD DUP2 PUSH4 0xFFFFFFFF AND PUSH1 0xE0 SHL DUP2 MSTORE PUSH1 0x4 ADD PUSH1 0xA0 PUSH1 0x40 MLOAD DUP1 DUP4 SUB DUP2 DUP7 GAS STATICCALL ISZERO DUP1 ISZERO PUSH2 0x6D2 JUMPI RETURNDATASIZE PUSH1 0x0 DUP1 RETURNDATACOPY RETURNDATASIZE PUSH1 0x0 REVERT JUMPDEST POP POP POP POP PUSH1 0x40 MLOAD RETURNDATASIZE PUSH1 0x1F NOT PUSH1 0x1F DUP3 ADD AND DUP3 ADD DUP1 PUSH1 0x40 MSTORE POP DUP2 ADD SWAP1 PUSH2 0x6F6 SWAP2 SWAP1 PUSH2 0x127C JUMP JUMPDEST POP SWAP2 SWAP7 SWAP6 POP POP POP POP POP POP JUMP JUMPDEST PUSH1 0x0 DUP4 DUP2 MSTORE PUSH1 0x65 PUSH1 0x20 MSTORE PUSH1 0x40 DUP2 KECCAK256 PUSH1 0x2 ADD SLOAD PUSH1 0x1 PUSH1 0x1 PUSH1 0xA0 SHL SUB AND ISZERO PUSH2 0x7A5 JUMPI PUSH1 0x40 MLOAD PUSH3 0x461BCD PUSH1 0xE5 SHL DUP2 MSTORE PUSH1 0x20 PUSH1 0x4 DUP3 ADD MSTORE PUSH1 0x4C PUSH1 0x24 DUP3 ADD MSTORE PUSH32 0x475254206F66666572733A20746865207072696365206C696D69742073686F75 PUSH1 0x44 DUP3 ADD MSTORE PUSH32 0x6C6420626520757064617465642076696120616E2065787465726E616C20736D PUSH1 0x64 DUP3 ADD MSTORE PUSH12 0x185C9D0818DBDB9D1C9858DD PUSH1 0xA2 SHL PUSH1 0x84 DUP3 ADD MSTORE PUSH1 0xA4 ADD PUSH2 0x527 JUMP JUMPDEST PUSH1 0x0 DUP5 DUP2 MSTORE PUSH1 0x65 PUSH1 0x20 SWAP1 DUP2 MSTORE PUSH1 0x40 SWAP2 DUP3 SWAP1 KECCAK256 PUSH1 0x3 ADD SLOAD SWAP2 MLOAD PUSH2 0x7CB SWAP2 DUP7 SWAP2 DUP7 SWAP2 ADD PUSH2 0x11EC JUMP JUMPDEST PUSH1 0x40 MLOAD PUSH1 0x20 DUP2 DUP4 SUB SUB DUP2 MSTORE SWAP1 PUSH1 0x40 MSTORE DUP1 MLOAD SWAP1 PUSH1 0x20 ADD KECCAK256 EQ PUSH2 0x862 JUMPI PUSH1 0x40 MLOAD PUSH3 0x461BCD PUSH1 0xE5 SHL DUP2 MSTORE PUSH1 0x20 PUSH1 0x4 DUP3 ADD MSTORE PUSH1 0x44 PUSH1 0x24 DUP3 ADD DUP2 SWAP1 MSTORE PUSH32 0x475254206F66666572733A207468652066756E6374696F6E20646F6573206E6F SWAP1 DUP3 ADD MSTORE PUSH32 0x74206D6174636820746865206F6E6520656E746572656420696E20746865206F PUSH1 0x64 DUP3 ADD MSTORE PUSH4 0x333332B9 PUSH1 0xE1 SHL PUSH1 0x84 DUP3 ADD MSTORE PUSH1 0xA4 ADD PUSH2 0x527 JUMP JUMPDEST PUSH1 0x0 DUP1 PUSH2 0x871 DUP5 DUP7 ADD DUP7 PUSH2 0x12CC JUMP JUMPDEST SWAP2 POP SWAP2 POP DUP1 PUSH2 0x87F DUP4 PUSH2 0x691 JUMP JUMPDEST PUSH2 0x889 SWAP2 SWAP1 PUSH2 0x12F8 JUMP JUMPDEST SWAP7 SWAP6 POP POP POP POP POP POP JUMP JUMPDEST PUSH2 0x89B PUSH2 0xE46 JUMP JUMPDEST PUSH2 0x8A5 PUSH1 0x0 PUSH2 0xEA0 JUMP JUMPDEST JUMP JUMPDEST PUSH1 0x0 DUP4 DUP2 MSTORE PUSH1 0x65 PUSH1 0x20 MSTORE PUSH1 0x40 DUP2 KECCAK256 PUSH1 0x2 ADD SLOAD PUSH1 0x1 PUSH1 0x1 PUSH1 0xA0 SHL SUB AND ISZERO PUSH2 0x94A JUMPI PUSH1 0x40 MLOAD PUSH3 0x461BCD PUSH1 0xE5 SHL DUP2 MSTORE PUSH1 0x20 PUSH1 0x4 DUP3 ADD MSTORE PUSH1 0x4C PUSH1 0x24 DUP3 ADD MSTORE PUSH32 0x475254206F66666572733A20746865207072696365206C696D69742073686F75 PUSH1 0x44 DUP3 ADD MSTORE PUSH32 0x6C6420626520757064617465642076696120616E2065787465726E616C20736D PUSH1 0x64 DUP3 ADD MSTORE PUSH12 0x185C9D0818DBDB9D1C9858DD PUSH1 0xA2 SHL PUSH1 0x84 DUP3 ADD MSTORE PUSH1 0xA4 ADD PUSH2 0x527 JUMP JUMPDEST PUSH1 0x0 DUP5 DUP2 MSTORE PUSH1 0x65 PUSH1 0x20 SWAP1 DUP2 MSTORE PUSH1 0x40 SWAP2 DUP3 SWAP1 KECCAK256 PUSH1 0x4 ADD SLOAD SWAP2 MLOAD PUSH2 0x970 SWAP2 DUP7 SWAP2 DUP7 SWAP2 ADD PUSH2 0x11EC JUMP JUMPDEST PUSH1 0x40 MLOAD PUSH1 0x20 DUP2 DUP4 SUB SUB DUP2 MSTORE SWAP1 PUSH1 0x40 MSTORE DUP1 MLOAD SWAP1 PUSH1 0x20 ADD KECCAK256 EQ PUSH2 0xA07 JUMPI PUSH1 0x40 MLOAD PUSH3 0x461BCD PUSH1 0xE5 SHL DUP2 MSTORE PUSH1 0x20 PUSH1 0x4 DUP3 ADD MSTORE PUSH1 0x44 PUSH1 0x24 DUP3 ADD DUP2 SWAP1 MSTORE PUSH32 0x475254206F66666572733A207468652066756E6374696F6E20646F6573206E6F SWAP1 DUP3 ADD MSTORE PUSH32 0x74206D6174636820746865206F6E6520656E746572656420696E20746865206F PUSH1 0x64 DUP3 ADD MSTORE PUSH4 0x333332B9 PUSH1 0xE1 SHL PUSH1 0x84 DUP3 ADD MSTORE PUSH1 0xA4 ADD PUSH2 0x527 JUMP JUMPDEST PUSH1 0x0 DUP1 PUSH2 0xA16 DUP5 DUP7 ADD DUP7 PUSH2 0x12CC JUMP JUMPDEST SWAP2 POP SWAP2 POP DUP1 PUSH2 0xA24 DUP4 PUSH2 0x691 JUMP JUMPDEST PUSH2 0x889 SWAP2 SWAP1 PUSH2 0x1320 JUMP JUMPDEST PUSH1 0x0 DUP4 DUP2 MSTORE PUSH1 0x65 PUSH1 0x20 MSTORE PUSH1 0x40 DUP2 KECCAK256 PUSH1 0x2 ADD SLOAD PUSH1 0x1 PUSH1 0x1 PUSH1 0xA0 SHL SUB AND PUSH2 0xAE1 JUMPI PUSH1 0x40 MLOAD PUSH3 0x461BCD PUSH1 0xE5 SHL DUP2 MSTORE PUSH1 0x20 PUSH1 0x4 DUP3 ADD MSTORE PUSH1 0x50 PUSH1 0x24 DUP3 ADD MSTORE PUSH32 0x475254206F66666572733A206E6F7420616C6C6F77656420746F206D6F646966 PUSH1 0x44 DUP3 ADD MSTORE PUSH32 0x7920746865207072696365206C696D69742076696120616E2065787465726E61 PUSH1 0x64 DUP3 ADD MSTORE PUSH32 0x6C20736D61727420636F6E747261637400000000000000000000000000000000 PUSH1 0x84 DUP3 ADD MSTORE PUSH1 0xA4 ADD PUSH2 0x527 JUMP JUMPDEST PUSH1 0x0 DUP5 DUP2 MSTORE PUSH1 0x65 PUSH1 0x20 SWAP1 DUP2 MSTORE PUSH1 0x40 SWAP2 DUP3 SWAP1 KECCAK256 PUSH1 0x4 ADD SLOAD SWAP2 MLOAD PUSH2 0x556 SWAP2 DUP7 SWAP2 DUP7 SWAP2 ADD PUSH2 0x11EC JUMP JUMPDEST PUSH1 0x0 SLOAD PUSH2 0x100 SWAP1 DIV PUSH1 0xFF AND ISZERO DUP1 DUP1 ISZERO PUSH2 0xB27 JUMPI POP PUSH1 0x0 SLOAD PUSH1 0x1 PUSH1 0xFF SWAP1 SWAP2 AND LT JUMPDEST DUP1 PUSH2 0xB41 JUMPI POP ADDRESS EXTCODESIZE ISZERO DUP1 ISZERO PUSH2 0xB41 JUMPI POP PUSH1 0x0 SLOAD PUSH1 0xFF AND PUSH1 0x1 EQ JUMPDEST PUSH2 0xBB3 JUMPI PUSH1 0x40 MLOAD PUSH3 0x461BCD PUSH1 0xE5 SHL DUP2 MSTORE PUSH1 0x20 PUSH1 0x4 DUP3 ADD MSTORE PUSH1 0x2E PUSH1 0x24 DUP3 ADD MSTORE PUSH32 0x496E697469616C697A61626C653A20636F6E747261637420697320616C726561 PUSH1 0x44 DUP3 ADD MSTORE PUSH32 0x647920696E697469616C697A6564000000000000000000000000000000000000 PUSH1 0x64 DUP3 ADD MSTORE PUSH1 0x84 ADD PUSH2 0x527 JUMP JUMPDEST PUSH1 0x0 DUP1 SLOAD PUSH1 0xFF NOT AND PUSH1 0x1 OR SWAP1 SSTORE DUP1 ISZERO PUSH2 0xBD6 JUMPI PUSH1 0x0 DUP1 SLOAD PUSH2 0xFF00 NOT AND PUSH2 0x100 OR SWAP1 SSTORE JUMPDEST PUSH2 0xBDE PUSH2 0xEFF JUMP JUMPDEST DUP1 ISZERO PUSH2 0xC24 JUMPI PUSH1 0x0 DUP1 SLOAD PUSH2 0xFF00 NOT AND SWAP1 SSTORE PUSH1 0x40 MLOAD PUSH1 0x1 DUP2 MSTORE PUSH32 0x7F26B83FF96E1F2B6A682F133852F6798A09C465DA95921460CEFB3847402498 SWAP1 PUSH1 0x20 ADD PUSH1 0x40 MLOAD DUP1 SWAP2 SUB SWAP1 LOG1 JUMPDEST POP JUMP JUMPDEST CALLER PUSH1 0x0 DUP2 DUP2 MSTORE PUSH1 0x66 PUSH1 0x20 SWAP1 DUP2 MSTORE PUSH1 0x40 DUP1 DUP4 KECCAK256 SLOAD SWAP1 MLOAD PUSH1 0x60 SWAP5 SWAP1 SWAP5 SHL PUSH12 0xFFFFFFFFFFFFFFFFFFFFFFFF NOT AND SWAP2 DUP5 ADD SWAP2 SWAP1 SWAP2 MSTORE PUSH1 0x34 DUP4 ADD MSTORE CHAINID PUSH1 0x54 DUP4 ADD MSTORE SWAP1 DUP2 SWAP1 PUSH1 0x74 ADD PUSH1 0x40 DUP1 MLOAD PUSH1 0x1F NOT DUP2 DUP5 SUB ADD DUP2 MSTORE DUP3 DUP3 MSTORE DUP1 MLOAD PUSH1 0x20 SWAP2 DUP3 ADD KECCAK256 PUSH1 0x0 DUP2 DUP2 MSTORE PUSH1 0x65 DUP4 MSTORE SWAP3 SWAP1 SWAP3 KECCAK256 DUP13 DUP2 SSTORE PUSH1 0x1 DUP2 ADD DUP1 SLOAD PUSH1 0x1 PUSH1 0x1 PUSH1 0xA0 SHL SUB DUP1 DUP16 AND PUSH20 0xFFFFFFFFFFFFFFFFFFFFFFFFFFFFFFFFFFFFFFFF NOT SWAP3 DUP4 AND OR SWAP1 SWAP3 SSTORE PUSH1 0x2 SWAP1 SWAP3 ADD DUP1 SLOAD SWAP2 DUP14 AND SWAP2 SWAP1 SWAP3 AND OR SWAP1 SSTORE SWAP1 SWAP3 POP PUSH2 0xCE1 SWAP2 DUP7 SWAP2 DUP7 SWAP2 ADD PUSH2 0x11EC JUMP JUMPDEST PUSH1 0x40 DUP1 MLOAD PUSH1 0x1F NOT DUP2 DUP5 SUB ADD DUP2 MSTORE DUP3 DUP3 MSTORE DUP1 MLOAD PUSH1 0x20 SWAP2 DUP3 ADD KECCAK256 PUSH1 0x0 DUP6 DUP2 MSTORE PUSH1 0x65 DUP4 MSTORE SWAP3 SWAP1 SWAP3 KECCAK256 PUSH1 0x4 ADD SWAP2 SWAP1 SWAP2 SSTORE PUSH2 0xD1B SWAP2 DUP9 SWAP2 DUP9 SWAP2 ADD PUSH2 0x11EC JUMP JUMPDEST PUSH1 0x40 DUP1 MLOAD PUSH1 0x1F NOT DUP2 DUP5 SUB ADD DUP2 MSTORE DUP3 DUP3 MSTORE DUP1 MLOAD PUSH1 0x20 SWAP2 DUP3 ADD KECCAK256 PUSH1 0x0 DUP6 DUP2 MSTORE PUSH1 0x65 DUP4 MSTORE DUP4 SWAP1 KECCAK256 PUSH1 0x3 DUP2 ADD SWAP2 SWAP1 SWAP2 SSTORE PUSH1 0x2 ADD SLOAD DUP13 DUP5 MSTORE SWAP2 MLOAD PUSH1 0x1 PUSH1 0x1 PUSH1 0xA0 SHL SUB DUP13 DUP2 AND SWAP5 SWAP4 AND SWAP3 DUP6 SWAP3 PUSH32 0x90D1517EAB8D1D52082251D5392431A6BF50B65D94217AD0A4BD02B15072445C SWAP3 SWAP2 DUP3 SWAP1 SUB ADD SWAP1 LOG4 CALLER PUSH1 0x0 SWAP1 DUP2 MSTORE PUSH1 0x66 PUSH1 0x20 MSTORE PUSH1 0x40 DUP2 KECCAK256 DUP1 SLOAD SWAP2 PUSH2 0xDA5 DUP4 PUSH2 0x122B JUMP JUMPDEST SWAP1 SWAP2 SSTORE POP PUSH1 0x1 SWAP11 SWAP10 POP POP POP POP POP POP POP POP POP POP JUMP JUMPDEST PUSH2 0xDC1 PUSH2 0xE46 JUMP JUMPDEST PUSH1 0x1 PUSH1 0x1 PUSH1 0xA0 SHL SUB DUP2 AND PUSH2 0xE3D JUMPI PUSH1 0x40 MLOAD PUSH3 0x461BCD PUSH1 0xE5 SHL DUP2 MSTORE PUSH1 0x20 PUSH1 0x4 DUP3 ADD MSTORE PUSH1 0x26 PUSH1 0x24 DUP3 ADD MSTORE PUSH32 0x4F776E61626C653A206E6577206F776E657220697320746865207A65726F2061 PUSH1 0x44 DUP3 ADD MSTORE PUSH32 0x6464726573730000000000000000000000000000000000000000000000000000 PUSH1 0x64 DUP3 ADD MSTORE PUSH1 0x84 ADD PUSH2 0x527 JUMP JUMPDEST PUSH2 0xC24 DUP2 PUSH2 0xEA0 JUMP JUMPDEST PUSH1 0x33 SLOAD PUSH1 0x1 PUSH1 0x1 PUSH1 0xA0 SHL SUB AND CALLER EQ PUSH2 0x8A5 JUMPI PUSH1 0x40 MLOAD PUSH3 0x461BCD PUSH1 0xE5 SHL DUP2 MSTORE PUSH1 0x20 PUSH1 0x4 DUP3 ADD DUP2 SWAP1 MSTORE PUSH1 0x24 DUP3 ADD MSTORE PUSH32 0x4F776E61626C653A2063616C6C6572206973206E6F7420746865206F776E6572 PUSH1 0x44 DUP3 ADD MSTORE PUSH1 0x64 ADD PUSH2 0x527 JUMP JUMPDEST PUSH1 0x33 DUP1 SLOAD PUSH1 0x1 PUSH1 0x1 PUSH1 0xA0 SHL SUB DUP4 DUP2 AND PUSH20 0xFFFFFFFFFFFFFFFFFFFFFFFFFFFFFFFFFFFFFFFF NOT DUP4 AND DUP2 OR SWAP1 SWAP4 SSTORE PUSH1 0x40 MLOAD SWAP2 AND SWAP2 SWAP1 DUP3 SWAP1 PUSH32 0x8BE0079C531659141344CD1FD0A4F28419497F9722A3DAAFE3B4186F6B6457E0 SWAP1 PUSH1 0x0 SWAP1 LOG3 POP POP JUMP JUMPDEST PUSH1 0x0 SLOAD PUSH2 0x100 SWAP1 DIV PUSH1 0xFF AND PUSH2 0xF6A JUMPI PUSH1 0x40 MLOAD PUSH3 0x461BCD PUSH1 0xE5 SHL DUP2 MSTORE PUSH1 0x20 PUSH1 0x4 DUP3 ADD MSTORE PUSH1 0x2B PUSH1 0x24 DUP3 ADD MSTORE PUSH32 0x496E697469616C697A61626C653A20636F6E7472616374206973206E6F742069 PUSH1 0x44 DUP3 ADD MSTORE PUSH11 0x6E697469616C697A696E67 PUSH1 0xA8 SHL PUSH1 0x64 DUP3 ADD MSTORE PUSH1 0x84 ADD PUSH2 0x527 JUMP JUMPDEST PUSH2 0x8A5 PUSH1 0x0 SLOAD PUSH2 0x100 SWAP1 DIV PUSH1 0xFF AND PUSH2 0xFD8 JUMPI PUSH1 0x40 MLOAD PUSH3 0x461BCD PUSH1 0xE5 SHL DUP2 MSTORE PUSH1 0x20 PUSH1 0x4 DUP3 ADD MSTORE PUSH1 0x2B PUSH1 0x24 DUP3 ADD MSTORE PUSH32 0x496E697469616C697A61626C653A20636F6E7472616374206973206E6F742069 PUSH1 0x44 DUP3 ADD MSTORE PUSH11 0x6E697469616C697A696E67 PUSH1 0xA8 SHL PUSH1 0x64 DUP3 ADD MSTORE PUSH1 0x84 ADD PUSH2 0x527 JUMP JUMPDEST PUSH2 0x8A5 CALLER PUSH2 0xEA0 JUMP JUMPDEST PUSH1 0x1 PUSH1 0x1 PUSH1 0xA0 SHL SUB DUP2 AND DUP2 EQ PUSH2 0xC24 JUMPI PUSH1 0x0 DUP1 REVERT JUMPDEST PUSH1 0x0 DUP1 DUP4 PUSH1 0x1F DUP5 ADD SLT PUSH2 0x1008 JUMPI PUSH1 0x0 DUP1 REVERT JUMPDEST POP DUP2 CALLDATALOAD PUSH8 0xFFFFFFFFFFFFFFFF DUP2 GT ISZERO PUSH2 0x1020 JUMPI PUSH1 0x0 DUP1 REVERT JUMPDEST PUSH1 0x20 DUP4 ADD SWAP2 POP DUP4 PUSH1 0x20 DUP3 DUP6 ADD ADD GT ISZERO PUSH2 0x1038 JUMPI PUSH1 0x0 DUP1 REVERT JUMPDEST SWAP3 POP SWAP3 SWAP1 POP JUMP JUMPDEST PUSH1 0x0 DUP1 PUSH1 0x0 DUP1 PUSH1 0x0 DUP1 PUSH1 0x80 DUP8 DUP10 SUB SLT ISZERO PUSH2 0x1058 JUMPI PUSH1 0x0 DUP1 REVERT JUMPDEST DUP7 CALLDATALOAD SWAP6 POP PUSH1 0x20 DUP8 ADD CALLDATALOAD PUSH2 0x106A DUP2 PUSH2 0xFE1 JUMP JUMPDEST SWAP5 POP PUSH1 0x40 DUP8 ADD CALLDATALOAD PUSH8 0xFFFFFFFFFFFFFFFF DUP1 DUP3 GT ISZERO PUSH2 0x1087 JUMPI PUSH1 0x0 DUP1 REVERT JUMPDEST PUSH2 0x1093 DUP11 DUP4 DUP12 ADD PUSH2 0xFF6 JUMP JUMPDEST SWAP1 SWAP7 POP SWAP5 POP PUSH1 0x60 DUP10 ADD CALLDATALOAD SWAP2 POP DUP1 DUP3 GT ISZERO PUSH2 0x10AC JUMPI PUSH1 0x0 DUP1 REVERT JUMPDEST POP PUSH2 0x10B9 DUP10 DUP3 DUP11 ADD PUSH2 0xFF6 JUMP JUMPDEST SWAP8 SWAP11 SWAP7 SWAP10 POP SWAP5 SWAP8 POP SWAP3 SWAP6 SWAP4 SWAP5 SWAP3 POP POP POP JUMP JUMPDEST PUSH1 0x0 DUP1 PUSH1 0x0 PUSH1 0x40 DUP5 DUP7 SUB SLT ISZERO PUSH2 0x10E0 JUMPI PUSH1 0x0 DUP1 REVERT JUMPDEST DUP4 CALLDATALOAD SWAP3 POP PUSH1 0x20 DUP5 ADD CALLDATALOAD PUSH8 0xFFFFFFFFFFFFFFFF DUP2 GT ISZERO PUSH2 0x10FE JUMPI PUSH1 0x0 DUP1 REVERT JUMPDEST PUSH2 0x110A DUP7 DUP3 DUP8 ADD PUSH2 0xFF6 JUMP JUMPDEST SWAP5 SWAP8 SWAP1 SWAP7 POP SWAP4 SWAP5 POP POP POP POP JUMP JUMPDEST PUSH1 0x0 PUSH1 0x20 DUP3 DUP5 SUB SLT ISZERO PUSH2 0x1129 JUMPI PUSH1 0x0 DUP1 REVERT JUMPDEST DUP2 CALLDATALOAD PUSH2 0x68A DUP2 PUSH2 0xFE1 JUMP JUMPDEST PUSH1 0x0 PUSH1 0x20 DUP3 DUP5 SUB SLT ISZERO PUSH2 0x1146 JUMPI PUSH1 0x0 DUP1 REVERT JUMPDEST POP CALLDATALOAD SWAP2 SWAP1 POP JUMP JUMPDEST PUSH1 0x0 DUP1 PUSH1 0x0 DUP1 PUSH1 0x0 DUP1 PUSH1 0x0 PUSH1 0xA0 DUP9 DUP11 SUB SLT ISZERO PUSH2 0x1168 JUMPI PUSH1 0x0 DUP1 REVERT JUMPDEST DUP8 CALLDATALOAD SWAP7 POP PUSH1 0x20 DUP9 ADD CALLDATALOAD PUSH2 0x117A DUP2 PUSH2 0xFE1 JUMP JUMPDEST SWAP6 POP PUSH1 0x40 DUP9 ADD CALLDATALOAD PUSH2 0x118A DUP2 PUSH2 0xFE1 JUMP JUMPDEST SWAP5 POP PUSH1 0x60 DUP9 ADD CALLDATALOAD PUSH8 0xFFFFFFFFFFFFFFFF DUP1 DUP3 GT ISZERO PUSH2 0x11A7 JUMPI PUSH1 0x0 DUP1 REVERT JUMPDEST PUSH2 0x11B3 DUP12 DUP4 DUP13 ADD PUSH2 0xFF6 JUMP JUMPDEST SWAP1 SWAP7 POP SWAP5 POP PUSH1 0x80 DUP11 ADD CALLDATALOAD SWAP2 POP DUP1 DUP3 GT ISZERO PUSH2 0x11CC JUMPI PUSH1 0x0 DUP1 REVERT JUMPDEST POP PUSH2 0x11D9 DUP11 DUP3 DUP12 ADD PUSH2 0xFF6 JUMP JUMPDEST SWAP9 SWAP12 SWAP8 SWAP11 POP SWAP6 SWAP9 POP SWAP4 SWAP7 SWAP3 SWAP6 SWAP3 SWAP4 POP POP POP JUMP JUMPDEST DUP2 DUP4 DUP3 CALLDATACOPY PUSH1 0x0 SWAP2 ADD SWAP1 DUP2 MSTORE SWAP2 SWAP1 POP JUMP JUMPDEST PUSH32 0x4E487B7100000000000000000000000000000000000000000000000000000000 PUSH1 0x0 MSTORE PUSH1 0x11 PUSH1 0x4 MSTORE PUSH1 0x24 PUSH1 0x0 REVERT JUMPDEST PUSH1 0x0 PUSH1 0x1 DUP3 ADD PUSH2 0x123D JUMPI PUSH2 0x123D PUSH2 0x11FC JUMP JUMPDEST POP PUSH1 0x1 ADD SWAP1 JUMP JUMPDEST PUSH1 0x0 PUSH1 0x20 DUP3 DUP5 SUB SLT ISZERO PUSH2 0x1256 JUMPI PUSH1 0x0 DUP1 REVERT JUMPDEST POP MLOAD SWAP2 SWAP1 POP JUMP JUMPDEST DUP1 MLOAD PUSH10 0xFFFFFFFFFFFFFFFFFFFF DUP2 AND DUP2 EQ PUSH2 0x1277 JUMPI PUSH1 0x0 DUP1 REVERT JUMPDEST SWAP2 SWAP1 POP JUMP JUMPDEST PUSH1 0x0 DUP1 PUSH1 0x0 DUP1 PUSH1 0x0 PUSH1 0xA0 DUP7 DUP9 SUB SLT ISZERO PUSH2 0x1294 JUMPI PUSH1 0x0 DUP1 REVERT JUMPDEST PUSH2 0x129D DUP7 PUSH2 0x125D JUMP JUMPDEST SWAP5 POP PUSH1 0x20 DUP7 ADD MLOAD SWAP4 POP PUSH1 0x40 DUP7 ADD MLOAD SWAP3 POP PUSH1 0x60 DUP7 ADD MLOAD SWAP2 POP PUSH2 0x12C0 PUSH1 0x80 DUP8 ADD PUSH2 0x125D JUMP JUMPDEST SWAP1 POP SWAP3 SWAP6 POP SWAP3 SWAP6 SWAP1 SWAP4 POP JUMP JUMPDEST PUSH1 0x0 DUP1 PUSH1 0x40 DUP4 DUP6 SUB SLT ISZERO PUSH2 0x12DF JUMPI PUSH1 0x0 DUP1 REVERT JUMPDEST DUP3 CALLDATALOAD PUSH2 0x12EA DUP2 PUSH2 0xFE1 JUMP JUMPDEST SWAP5 PUSH1 0x20 SWAP4 SWAP1 SWAP4 ADD CALLDATALOAD SWAP4 POP POP POP JUMP JUMPDEST DUP1 DUP3 ADD DUP3 DUP2 SLT PUSH1 0x0 DUP4 SLT DUP1 ISZERO DUP3 AND DUP3 ISZERO DUP3 AND OR ISZERO PUSH2 0x1318 JUMPI PUSH2 0x1318 PUSH2 0x11FC JUMP JUMPDEST POP POP SWAP3 SWAP2 POP POP JUMP JUMPDEST DUP2 DUP2 SUB PUSH1 0x0 DUP4 SLT DUP1 ISZERO DUP4 DUP4 SGT AND DUP4 DUP4 SLT DUP3 AND OR ISZERO PUSH2 0x1340 JUMPI PUSH2 0x1340 PUSH2 0x11FC JUMP JUMPDEST POP SWAP3 SWAP2 POP POP JUMP INVALID LOG2 PUSH5 0x6970667358 0x22 SLT KECCAK256 0xFB GASLIMIT 0xCF BALANCE 0xD5 EXTCODESIZE SWAP13 PUSH27 0x8DC46D785B1669A77A38BE5C754825EFE2294A2A5F0EE5064736F PUSH13 0x63430008110033000000000000 "},"gasEstimates":{"creation":{"codeDepositCost":"997800","executionCost":"1034","totalCost":"998834"},"external":{"getAddressOffer(bytes32)":"2506","getChainIdOffer(bytes32)":"2527","getLatestPrice(address)":"infinite","getLowerLimitFnHashOffer(bytes32)":"2510","getLowerPriceLimitFromContract(bytes32,bytes)":"infinite","getLowerPriceLimitFromGrindery(bytes32,bytes)":"infinite","getNonceUser(address)":"2576","getTokenOffer(bytes32)":"2573","getUpperLimitFnHashOffer(bytes32)":"2489","getUpperPriceLimitFromContract(bytes32,bytes)":"infinite","getUpperPriceLimitFromGrindery(bytes32,bytes)":"infinite","initializeGrtOffer()":"infinite","owner()":"2398","renounceOwnership()":"infinite","setOfferWithContract(uint256,address,address,bytes,bytes)":"infinite","setOfferWithGrindery(uint256,address,bytes,bytes)":"infinite","transferOwnership(address)":"infinite"},"internal":{"decodeBytes(bytes memory)":"infinite","decodePrice(bytes memory)":"infinite"}},"methodIdentifiers":{"getAddressOffer(bytes32)":"7fc6176c","getChainIdOffer(bytes32)":"75012c8b","getLatestPrice(address)":"16345f18","getLowerLimitFnHashOffer(bytes32)":"e956eb8a","getLowerPriceLimitFromContract(bytes32,bytes)":"9ef63023","getLowerPriceLimitFromGrindery(bytes32,bytes)":"8c02d6ff","getNonceUser(address)":"5adbe5de","getTokenOffer(bytes32)":"4516010f","getUpperLimitFnHashOffer(bytes32)":"a1c59cef","getUpperPriceLimitFromContract(bytes32,bytes)":"0a0ef56d","getUpperPriceLimitFromGrindery(bytes32,bytes)":"5a3f5fdb","initializeGrtOffer()":"bc61494e","owner()":"8da5cb5b","renounceOwnership()":"715018a6","setOfferWithContract(uint256,address,address,bytes,bytes)":"bd71a1e2","setOfferWithGrindery(uint256,address,bytes,bytes)":"02821a7e","transferOwnership(address)":"f2fde38b"}},"storageLayout":{"storage":[{"astId":184,"contract":"contracts/v0.2.0/GrtOffer.sol:GrtOffer","label":"_initialized","offset":0,"slot":"0","type":"t_uint8"},{"astId":187,"contract":"contracts/v0.2.0/GrtOffer.sol:GrtOffer","label":"_initializing","offset":1,"slot":"0","type":"t_bool"},{"astId":671,"contract":"contracts/v0.2.0/GrtOffer.sol:GrtOffer","label":"__gap","offset":0,"slot":"1","type":"t_array(t_uint256)50_storage"},{"astId":56,"contract":"contracts/v0.2.0/GrtOffer.sol:GrtOffer","label":"_owner","offset":0,"slot":"51","type":"t_address"},{"astId":176,"contract":"contracts/v0.2.0/GrtOffer.sol:GrtOffer","label":"__gap","offset":0,"slot":"52","type":"t_array(t_uint256)49_storage"},{"astId":695,"contract":"contracts/v0.2.0/GrtOffer.sol:GrtOffer","label":"_offers","offset":0,"slot":"101","type":"t_mapping(t_bytes32,t_struct(Offer)690_storage)"},{"astId":699,"contract":"contracts/v0.2.0/GrtOffer.sol:GrtOffer","label":"_nonces","offset":0,"slot":"102","type":"t_mapping(t_address,t_uint256)"}],"types":{"t_address":{"encoding":"inplace","label":"address","numberOfBytes":"20"},"t_array(t_uint256)49_storage":{"base":"t_uint256","encoding":"inplace","label":"uint256[49]","numberOfBytes":"1568"},"t_array(t_uint256)50_storage":{"base":"t_uint256","encoding":"inplace","label":"uint256[50]","numberOfBytes":"1600"},"t_bool":{"encoding":"inplace","label":"bool","numberOfBytes":"1"},"t_bytes32":{"encoding":"inplace","label":"bytes32","numberOfBytes":"32"},"t_mapping(t_address,t_uint256)":{"encoding":"mapping","key":"t_address","label":"mapping(address => uint256)","numberOfBytes":"32","value":"t_uint256"},"t_mapping(t_bytes32,t_struct(Offer)690_storage)":{"encoding":"mapping","key":"t_bytes32","label":"mapping(bytes32 => struct GrtOffer.Offer)","numberOfBytes":"32","value":"t_struct(Offer)690_storage"},"t_struct(Offer)690_storage":{"encoding":"inplace","label":"struct GrtOffer.Offer","members":[{"astId":681,"contract":"contracts/v0.2.0/GrtOffer.sol:GrtOffer","label":"chainId","offset":0,"slot":"0","type":"t_uint256"},{"astId":683,"contract":"contracts/v0.2.0/GrtOffer.sol:GrtOffer","label":"token","offset":0,"slot":"1","type":"t_address"},{"astId":685,"contract":"contracts/v0.2.0/GrtOffer.sol:GrtOffer","label":"priceAddress","offset":0,"slot":"2","type":"t_address"},{"astId":687,"contract":"contracts/v0.2.0/GrtOffer.sol:GrtOffer","label":"upperLimitFn","offset":0,"slot":"3","type":"t_bytes32"},{"astId":689,"contract":"contracts/v0.2.0/GrtOffer.sol:GrtOffer","label":"lowerLimitFn","offset":0,"slot":"4","type":"t_bytes32"}],"numberOfBytes":"160"},"t_uint256":{"encoding":"inplace","label":"uint256","numberOfBytes":"32"},"t_uint8":{"encoding":"inplace","label":"uint8","numberOfBytes":"1"}}},"userdoc":{"kind":"user","methods":{},"version":1}}}}