{"contracts/priceUpdate/ChainlinkTest.sol":{"ChainlinkTest":{"abi":[{"inputs":[],"name":"latestRoundData","outputs":[{"internalType":"uint80","name":"roundId","type":"uint80"},{"internalType":"int256","name":"answer","type":"int256"},{"internalType":"uint256","name":"startedAt","type":"uint256"},{"internalType":"uint256","name":"updatedAt","type":"uint256"},{"internalType":"uint80","name":"answeredInRound","type":"uint80"}],"stateMutability":"view","type":"function"}],"devdoc":{"kind":"dev","methods":{},"version":1},"evm":{"bytecode":{"linkReferences":{},"object":"6080604052348015600f57600080fd5b5060928061001e6000396000f3fe6080604052348015600f57600080fd5b506004361060285760003560e01c8063feaf968c14602d575b600080fd5b60408051600a815260146020820152601e81830152600560608201526043608082015290519081900360a00190f3fea2646970667358221220e59246bed04efdeef45db40b98bf0ec0930bbbfb37d794c82001d5bbe0118bca64736f6c63430008110033","opcodes":"PUSH1 0x80 PUSH1 0x40 MSTORE CALLVALUE DUP1 ISZERO PUSH1 0xF JUMPI PUSH1 0x0 DUP1 REVERT JUMPDEST POP PUSH1 0x92 DUP1 PUSH2 0x1E PUSH1 0x0 CODECOPY PUSH1 0x0 RETURN INVALID PUSH1 0x80 PUSH1 0x40 MSTORE CALLVALUE DUP1 ISZERO PUSH1 0xF JUMPI PUSH1 0x0 DUP1 REVERT JUMPDEST POP PUSH1 0x4 CALLDATASIZE LT PUSH1 0x28 JUMPI PUSH1 0x0 CALLDATALOAD PUSH1 0xE0 SHR DUP1 PUSH4 0xFEAF968C EQ PUSH1 0x2D JUMPI JUMPDEST PUSH1 0x0 DUP1 REVERT JUMPDEST PUSH1 0x40 DUP1 MLOAD PUSH1 0xA DUP2 MSTORE PUSH1 0x14 PUSH1 0x20 DUP3 ADD MSTORE PUSH1 0x1E DUP2 DUP4 ADD MSTORE PUSH1 0x5 PUSH1 0x60 DUP3 ADD MSTORE PUSH1 0x43 PUSH1 0x80 DUP3 ADD MSTORE SWAP1 MLOAD SWAP1 DUP2 SWAP1 SUB PUSH1 0xA0 ADD SWAP1 RETURN INVALID LOG2 PUSH5 0x6970667358 0x22 SLT KECCAK256 0xE5 SWAP3 CHAINID 0xBE 0xD0 0x4E REVERT 0xEE DELEGATECALL 0x5D 0xB4 SIGNEXTEND SWAP9 0xBF 0xE 0xC0 SWAP4 SIGNEXTEND 0xBB 0xFB CALLDATACOPY 0xD7 SWAP5 0xC8 KECCAK256 ADD 0xD5 0xBB 0xE0 GT DUP12 0xCA PUSH5 0x736F6C6343 STOP ADDMOD GT STOP CALLER "},"gasEstimates":{"creation":{"codeDepositCost":"29200","executionCost":"81","totalCost":"29281"},"external":{"latestRoundData()":"221"}},"methodIdentifiers":{"latestRoundData()":"feaf968c"}},"storageLayout":{"storage":[],"types":null},"userdoc":{"kind":"user","methods":{},"version":1}}}}