{
  "_format": "hh-sol-artifact-1",
  "contractName": "GrtOffer",
  "sourceName": "contracts/v0.2.0/GrtOffer.sol",
  "abi": [
    {
      "anonymous": false,
      "inputs": [
        {
          "indexed": false,
          "internalType": "uint8",
          "name": "version",
          "type": "uint8"
        }
      ],
      "name": "Initialized",
      "type": "event"
    },
    {
      "anonymous": false,
      "inputs": [
        {
          "indexed": true,
          "internalType": "bytes32",
          "name": "_idOffer",
          "type": "bytes32"
        },
        {
          "indexed": true,
          "internalType": "address",
          "name": "_contractAddress",
          "type": "address"
        },
        {
          "indexed": true,
          "internalType": "address",
          "name": "_token",
          "type": "address"
        },
        {
          "indexed": false,
          "internalType": "uint256",
          "name": "_chainId",
          "type": "uint256"
        }
      ],
      "name": "LogNewOffer",
      "type": "event"
    },
    {
      "anonymous": false,
      "inputs": [
        {
          "indexed": true,
          "internalType": "address",
          "name": "previousOwner",
          "type": "address"
        },
        {
          "indexed": true,
          "internalType": "address",
          "name": "newOwner",
          "type": "address"
        }
      ],
      "name": "OwnershipTransferred",
      "type": "event"
    },
    {
      "inputs": [
        {
          "internalType": "bytes32",
          "name": "idOffer",
          "type": "bytes32"
        }
      ],
      "name": "getAddressOffer",
      "outputs": [
        {
          "internalType": "address",
          "name": "",
          "type": "address"
        }
      ],
      "stateMutability": "view",
      "type": "function"
    },
    {
      "inputs": [
        {
          "internalType": "bytes32",
          "name": "idOffer",
          "type": "bytes32"
        }
      ],
      "name": "getChainIdOffer",
      "outputs": [
        {
          "internalType": "uint256",
          "name": "",
          "type": "uint256"
        }
      ],
      "stateMutability": "view",
      "type": "function"
    },
    {
      "inputs": [
        {
          "internalType": "address",
          "name": "chainlinkContract",
          "type": "address"
        }
      ],
      "name": "getLatestPrice",
      "outputs": [
        {
          "internalType": "int256",
          "name": "",
          "type": "int256"
        }
      ],
      "stateMutability": "view",
      "type": "function"
    },
    {
      "inputs": [
        {
          "internalType": "bytes32",
          "name": "idOffer",
          "type": "bytes32"
        }
      ],
      "name": "getLowerLimitFnHashOffer",
      "outputs": [
        {
          "internalType": "bytes32",
          "name": "",
          "type": "bytes32"
        }
      ],
      "stateMutability": "view",
      "type": "function"
    },
    {
      "inputs": [
        {
          "internalType": "bytes32",
          "name": "idOffer",
          "type": "bytes32"
        },
        {
          "internalType": "bytes",
          "name": "fn",
          "type": "bytes"
        }
      ],
      "name": "getLowerPriceLimitFromContract",
      "outputs": [
        {
          "internalType": "uint256",
          "name": "",
          "type": "uint256"
        }
      ],
      "stateMutability": "view",
      "type": "function"
    },
    {
      "inputs": [
        {
          "internalType": "bytes32",
          "name": "idOffer",
          "type": "bytes32"
        },
        {
          "internalType": "bytes",
          "name": "fn",
          "type": "bytes"
        }
      ],
      "name": "getLowerPriceLimitFromGrindery",
      "outputs": [
        {
          "internalType": "int256",
          "name": "",
          "type": "int256"
        }
      ],
      "stateMutability": "view",
      "type": "function"
    },
    {
      "inputs": [
        {
          "internalType": "address",
          "name": "user",
          "type": "address"
        }
      ],
      "name": "getNonceUser",
      "outputs": [
        {
          "internalType": "uint256",
          "name": "",
          "type": "uint256"
        }
      ],
      "stateMutability": "view",
      "type": "function"
    },
    {
      "inputs": [
        {
          "internalType": "bytes32",
          "name": "idOffer",
          "type": "bytes32"
        }
      ],
      "name": "getTokenOffer",
      "outputs": [
        {
          "internalType": "address",
          "name": "",
          "type": "address"
        }
      ],
      "stateMutability": "view",
      "type": "function"
    },
    {
      "inputs": [
        {
          "internalType": "bytes32",
          "name": "idOffer",
          "type": "bytes32"
        }
      ],
      "name": "getUpperLimitFnHashOffer",
      "outputs": [
        {
          "internalType": "bytes32",
          "name": "",
          "type": "bytes32"
        }
      ],
      "stateMutability": "view",
      "type": "function"
    },
    {
      "inputs": [
        {
          "internalType": "bytes32",
          "name": "idOffer",
          "type": "bytes32"
        },
        {
          "internalType": "bytes",
          "name": "fn",
          "type": "bytes"
        }
      ],
      "name": "getUpperPriceLimitFromContract",
      "outputs": [
        {
          "internalType": "uint256",
          "name": "",
          "type": "uint256"
        }
      ],
      "stateMutability": "view",
      "type": "function"
    },
    {
      "inputs": [
        {
          "internalType": "bytes32",
          "name": "idOffer",
          "type": "bytes32"
        },
        {
          "internalType": "bytes",
          "name": "fn",
          "type": "bytes"
        }
      ],
      "name": "getUpperPriceLimitFromGrindery",
      "outputs": [
        {
          "internalType": "int256",
          "name": "",
          "type": "int256"
        }
      ],
      "stateMutability": "view",
      "type": "function"
    },
    {
      "inputs": [],
      "name": "initializeGrtOffer",
      "outputs": [],
      "stateMutability": "nonpayable",
      "type": "function"
    },
    {
      "inputs": [],
      "name": "owner",
      "outputs": [
        {
          "internalType": "address",
          "name": "",
          "type": "address"
        }
      ],
      "stateMutability": "view",
      "type": "function"
    },
    {
      "inputs": [],
      "name": "renounceOwnership",
      "outputs": [],
      "stateMutability": "nonpayable",
      "type": "function"
    },
    {
      "inputs": [
        {
          "internalType": "uint256",
          "name": "chainId",
          "type": "uint256"
        },
        {
          "internalType": "address",
          "name": "token",
          "type": "address"
        },
        {
          "internalType": "address",
          "name": "priceAddress",
          "type": "address"
        },
        {
          "internalType": "bytes",
          "name": "upperLimitFn",
          "type": "bytes"
        },
        {
          "internalType": "bytes",
          "name": "lowerLimitFn",
          "type": "bytes"
        }
      ],
      "name": "setOfferWithContract",
      "outputs": [
        {
          "internalType": "bool",
          "name": "",
          "type": "bool"
        }
      ],
      "stateMutability": "nonpayable",
      "type": "function"
    },
    {
      "inputs": [
        {
          "internalType": "uint256",
          "name": "chainId",
          "type": "uint256"
        },
        {
          "internalType": "address",
          "name": "token",
          "type": "address"
        },
        {
          "internalType": "bytes",
          "name": "upperLimitFn",
          "type": "bytes"
        },
        {
          "internalType": "bytes",
          "name": "lowerLimitFn",
          "type": "bytes"
        }
      ],
      "name": "setOfferWithGrindery",
      "outputs": [
        {
          "internalType": "bool",
          "name": "",
          "type": "bool"
        }
      ],
      "stateMutability": "nonpayable",
      "type": "function"
    },
    {
      "inputs": [
        {
          "internalType": "address",
          "name": "newOwner",
          "type": "address"
        }
      ],
      "name": "transferOwnership",
      "outputs": [],
      "stateMutability": "nonpayable",
      "type": "function"
    }
  ],
  "bytecode": "0x608060405234801561001057600080fd5b5061137d806100206000396000f3fe608060405234801561001057600080fd5b506004361061011b5760003560e01c80637fc6176c116100b2578063a1c59cef11610081578063bd71a1e211610066578063bd71a1e2146102b4578063e956eb8a146102c7578063f2fde38b146102ea57600080fd5b8063a1c59cef14610289578063bc61494e146102ac57600080fd5b80637fc6176c146102265780638c02d6ff146102525780638da5cb5b146102655780639ef630231461027657600080fd5b80635a3f5fdb116100ee5780635a3f5fdb146101c05780635adbe5de146101d3578063715018a6146101fc57806375012c8b1461020657600080fd5b806302821a7e146101205780630a0ef56d1461014857806316345f18146101695780634516010f1461017c575b600080fd5b61013361012e36600461103f565b6102fd565b60405190151581526020015b60405180910390f35b61015b6101563660046110cb565b610478565b60405190815260200161013f565b61015b610177366004611117565b610691565b6101a861018a366004611134565b6000908152606560205260409020600101546001600160a01b031690565b6040516001600160a01b03909116815260200161013f565b61015b6101ce3660046110cb565b610702565b61015b6101e1366004611117565b6001600160a01b031660009081526066602052604090205490565b610204610893565b005b61015b610214366004611134565b60009081526065602052604090205490565b6101a8610234366004611134565b6000908152606560205260409020600201546001600160a01b031690565b61015b6102603660046110cb565b6108a7565b6033546001600160a01b03166101a8565b61015b6102843660046110cb565b610a2e565b61015b610297366004611134565b60009081526065602052604090206003015490565b610204610b07565b6101336102c236600461114d565b610c27565b61015b6102d5366004611134565b60009081526065602052604090206004015490565b6102046102f8366004611117565b610db9565b33600081815260666020908152604080832054905160609490941b6bffffffffffffffffffffffff191691840191909152603483015246605483015290819060740160408051808303601f190181528282528051602091820120600081815260658352929092208b8155600101805473ffffffffffffffffffffffffffffffffffffffff19166001600160a01b038c161790559092506103a19186918691016111ec565b60408051601f19818403018152828252805160209182012060008581526065835292909220600401919091556103db9188918891016111ec565b60408051601f1981840301815282825280516020918201206000858152606583528390206003810191909155600201548b845291516001600160a01b038b81169493169285927f90d1517eab8d1d52082251d5392431a6bf50b65d94217ad0a4bd02b15072445c92918290030190a43360009081526066602052604081208054916104658361122b565b9091555060019998505050505050505050565b6000838152606560205260408120600201546001600160a01b03166105305760405162461bcd60e51b815260206004820152605060248201527f475254206f66666572733a206e6f7420616c6c6f77656420746f206d6f64696660448201527f7920746865207072696365206c696d69742076696120616e2065787465726e6160648201527f6c20736d61727420636f6e747261637400000000000000000000000000000000608482015260a4015b60405180910390fd5b6000848152606560209081526040918290206003015491516105569186918691016111ec565b60405160208183030381529060405280519060200120146105ed5760405162461bcd60e51b8152602060048201526044602482018190527f475254206f66666572733a207468652066756e6374696f6e20646f6573206e6f908201527f74206d6174636820746865206f6e6520656e746572656420696e20746865206f606482015263333332b960e11b608482015260a401610527565b60008481526065602052604080822060020154905182916001600160a01b03169061061b90879087906111ec565b600060405180830381855afa9150503d8060008114610656576040519150601f19603f3d011682016040523d82523d6000602084013e61065b565b606091505b50915091508115610683578080602001905181019061067a9190611244565b9250505061068a565b6000925050505b9392505050565b600080826001600160a01b031663feaf968c6040518163ffffffff1660e01b815260040160a060405180830381865afa1580156106d2573d6000803e3d6000fd5b505050506040513d601f19601f820116820180604052508101906106f6919061127c565b50919695505050505050565b6000838152606560205260408120600201546001600160a01b0316156107a55760405162461bcd60e51b815260206004820152604c60248201527f475254206f66666572733a20746865207072696365206c696d69742073686f7560448201527f6c6420626520757064617465642076696120616e2065787465726e616c20736d60648201526b185c9d0818dbdb9d1c9858dd60a21b608482015260a401610527565b6000848152606560209081526040918290206003015491516107cb9186918691016111ec565b60405160208183030381529060405280519060200120146108625760405162461bcd60e51b8152602060048201526044602482018190527f475254206f66666572733a207468652066756e6374696f6e20646f6573206e6f908201527f74206d6174636820746865206f6e6520656e746572656420696e20746865206f606482015263333332b960e11b608482015260a401610527565b600080610871848601866112cc565b915091508061087f83610691565b61088991906112f8565b9695505050505050565b61089b610e46565b6108a56000610ea0565b565b6000838152606560205260408120600201546001600160a01b03161561094a5760405162461bcd60e51b815260206004820152604c60248201527f475254206f66666572733a20746865207072696365206c696d69742073686f7560448201527f6c6420626520757064617465642076696120616e2065787465726e616c20736d60648201526b185c9d0818dbdb9d1c9858dd60a21b608482015260a401610527565b6000848152606560209081526040918290206004015491516109709186918691016111ec565b6040516020818303038152906040528051906020012014610a075760405162461bcd60e51b8152602060048201526044602482018190527f475254206f66666572733a207468652066756e6374696f6e20646f6573206e6f908201527f74206d6174636820746865206f6e6520656e746572656420696e20746865206f606482015263333332b960e11b608482015260a401610527565b600080610a16848601866112cc565b9150915080610a2483610691565b6108899190611320565b6000838152606560205260408120600201546001600160a01b0316610ae15760405162461bcd60e51b815260206004820152605060248201527f475254206f66666572733a206e6f7420616c6c6f77656420746f206d6f64696660448201527f7920746865207072696365206c696d69742076696120616e2065787465726e6160648201527f6c20736d61727420636f6e747261637400000000000000000000000000000000608482015260a401610527565b6000848152606560209081526040918290206004015491516105569186918691016111ec565b600054610100900460ff1615808015610b275750600054600160ff909116105b80610b415750303b158015610b41575060005460ff166001145b610bb35760405162461bcd60e51b815260206004820152602e60248201527f496e697469616c697a61626c653a20636f6e747261637420697320616c72656160448201527f647920696e697469616c697a65640000000000000000000000000000000000006064820152608401610527565b6000805460ff191660011790558015610bd6576000805461ff0019166101001790555b610bde610eff565b8015610c24576000805461ff0019169055604051600181527f7f26b83ff96e1f2b6a682f133852f6798a09c465da95921460cefb38474024989060200160405180910390a15b50565b33600081815260666020908152604080832054905160609490941b6bffffffffffffffffffffffff191691840191909152603483015246605483015290819060740160408051601f198184030181528282528051602091820120600081815260658352929092208c81556001810180546001600160a01b03808f1673ffffffffffffffffffffffffffffffffffffffff199283161790925560029092018054918d1691909216179055909250610ce19186918691016111ec565b60408051601f1981840301815282825280516020918201206000858152606583529290922060040191909155610d1b9188918891016111ec565b60408051601f1981840301815282825280516020918201206000858152606583528390206003810191909155600201548c845291516001600160a01b038c81169493169285927f90d1517eab8d1d52082251d5392431a6bf50b65d94217ad0a4bd02b15072445c92918290030190a4336000908152606660205260408120805491610da58361122b565b9091555060019a9950505050505050505050565b610dc1610e46565b6001600160a01b038116610e3d5760405162461bcd60e51b815260206004820152602660248201527f4f776e61626c653a206e6577206f776e657220697320746865207a65726f206160448201527f64647265737300000000000000000000000000000000000000000000000000006064820152608401610527565b610c2481610ea0565b6033546001600160a01b031633146108a55760405162461bcd60e51b815260206004820181905260248201527f4f776e61626c653a2063616c6c6572206973206e6f7420746865206f776e65726044820152606401610527565b603380546001600160a01b0383811673ffffffffffffffffffffffffffffffffffffffff19831681179093556040519116919082907f8be0079c531659141344cd1fd0a4f28419497f9722a3daafe3b4186f6b6457e090600090a35050565b600054610100900460ff16610f6a5760405162461bcd60e51b815260206004820152602b60248201527f496e697469616c697a61626c653a20636f6e7472616374206973206e6f74206960448201526a6e697469616c697a696e6760a81b6064820152608401610527565b6108a5600054610100900460ff16610fd85760405162461bcd60e51b815260206004820152602b60248201527f496e697469616c697a61626c653a20636f6e7472616374206973206e6f74206960448201526a6e697469616c697a696e6760a81b6064820152608401610527565b6108a533610ea0565b6001600160a01b0381168114610c2457600080fd5b60008083601f84011261100857600080fd5b50813567ffffffffffffffff81111561102057600080fd5b60208301915083602082850101111561103857600080fd5b9250929050565b6000806000806000806080878903121561105857600080fd5b86359550602087013561106a81610fe1565b9450604087013567ffffffffffffffff8082111561108757600080fd5b6110938a838b01610ff6565b909650945060608901359150808211156110ac57600080fd5b506110b989828a01610ff6565b979a9699509497509295939492505050565b6000806000604084860312156110e057600080fd5b83359250602084013567ffffffffffffffff8111156110fe57600080fd5b61110a86828701610ff6565b9497909650939450505050565b60006020828403121561112957600080fd5b813561068a81610fe1565b60006020828403121561114657600080fd5b5035919050565b600080600080600080600060a0888a03121561116857600080fd5b87359650602088013561117a81610fe1565b9550604088013561118a81610fe1565b9450606088013567ffffffffffffffff808211156111a757600080fd5b6111b38b838c01610ff6565b909650945060808a01359150808211156111cc57600080fd5b506111d98a828b01610ff6565b989b979a50959850939692959293505050565b8183823760009101908152919050565b7f4e487b7100000000000000000000000000000000000000000000000000000000600052601160045260246000fd5b60006001820161123d5761123d6111fc565b5060010190565b60006020828403121561125657600080fd5b5051919050565b805169ffffffffffffffffffff8116811461127757600080fd5b919050565b600080600080600060a0868803121561129457600080fd5b61129d8661125d565b94506020860151935060408601519250606086015191506112c06080870161125d565b90509295509295909350565b600080604083850312156112df57600080fd5b82356112ea81610fe1565b946020939093013593505050565b8082018281126000831280158216821582161715611318576113186111fc565b505092915050565b8181036000831280158383131683831282161715611340576113406111fc565b509291505056fea2646970667358221220fb45cf31d53b9c7a08dc46d785b1669a77a38be5c754825efe2294a2a5f0ee5064736f6c63430008110033",
  "linkReferences": {},
  "deployedLinkReferences": {}
}