{
  "_format": "hh-sol-artifact-1",
  "contractName": "GrtOffer",
  "sourceName": "contracts/v0.2.0/GrtOffer.sol",
  "abi": [
    {
      "anonymous": false,
      "inputs": [
        {
          "indexed": false,
          "internalType": "uint8",
          "name": "version",
          "type": "uint8"
        }
      ],
      "name": "Initialized",
      "type": "event"
    },
    {
      "anonymous": false,
      "inputs": [
        {
          "indexed": true,
          "internalType": "bytes32",
          "name": "_idOffer",
          "type": "bytes32"
        },
        {
          "indexed": true,
          "internalType": "address",
          "name": "_contractAddress",
          "type": "address"
        },
        {
          "indexed": true,
          "internalType": "address",
          "name": "_token",
          "type": "address"
        },
        {
          "indexed": false,
          "internalType": "uint256",
          "name": "_chainId",
          "type": "uint256"
        }
      ],
      "name": "LogNewOffer",
      "type": "event"
    },
    {
      "anonymous": false,
      "inputs": [
        {
          "indexed": true,
          "internalType": "address",
          "name": "_user",
          "type": "address"
        },
        {
          "indexed": true,
          "internalType": "uint256",
          "name": "_amount",
          "type": "uint256"
        }
      ],
      "name": "LogStake",
      "type": "event"
    },
    {
      "anonymous": false,
      "inputs": [
        {
          "indexed": true,
          "internalType": "address",
          "name": "previousOwner",
          "type": "address"
        },
        {
          "indexed": true,
          "internalType": "address",
          "name": "newOwner",
          "type": "address"
        }
      ],
      "name": "OwnershipTransferred",
      "type": "event"
    },
    {
      "inputs": [
        {
          "internalType": "bytes32",
          "name": "idOffer",
          "type": "bytes32"
        }
      ],
      "name": "getAddressOffer",
      "outputs": [
        {
          "internalType": "address",
          "name": "",
          "type": "address"
        }
      ],
      "stateMutability": "view",
      "type": "function"
    },
    {
      "inputs": [
        {
          "internalType": "bytes32",
          "name": "idOffer",
          "type": "bytes32"
        }
      ],
      "name": "getChainIdOffer",
      "outputs": [
        {
          "internalType": "uint256",
          "name": "",
          "type": "uint256"
        }
      ],
      "stateMutability": "view",
      "type": "function"
    },
    {
      "inputs": [
        {
          "internalType": "address",
          "name": "chainlinkContract",
          "type": "address"
        }
      ],
      "name": "getLatestPrice",
      "outputs": [
        {
          "internalType": "int256",
          "name": "",
          "type": "int256"
        }
      ],
      "stateMutability": "view",
      "type": "function"
    },
    {
      "inputs": [
        {
          "internalType": "bytes32",
          "name": "idOffer",
          "type": "bytes32"
        }
      ],
      "name": "getLowerLimitFnHashOffer",
      "outputs": [
        {
          "internalType": "bytes32",
          "name": "",
          "type": "bytes32"
        }
      ],
      "stateMutability": "view",
      "type": "function"
    },
    {
      "inputs": [
        {
          "internalType": "bytes32",
          "name": "idOffer",
          "type": "bytes32"
        },
        {
          "internalType": "bytes",
          "name": "fn",
          "type": "bytes"
        }
      ],
      "name": "getLowerPriceLimitFromContract",
      "outputs": [
        {
          "internalType": "uint256",
          "name": "",
          "type": "uint256"
        }
      ],
      "stateMutability": "view",
      "type": "function"
    },
    {
      "inputs": [
        {
          "internalType": "bytes32",
          "name": "idOffer",
          "type": "bytes32"
        },
        {
          "internalType": "bytes",
          "name": "fn",
          "type": "bytes"
        }
      ],
      "name": "getLowerPriceLimitFromGrindery",
      "outputs": [
        {
          "internalType": "int256",
          "name": "",
          "type": "int256"
        }
      ],
      "stateMutability": "view",
      "type": "function"
    },
    {
      "inputs": [
        {
          "internalType": "address",
          "name": "user",
          "type": "address"
        }
      ],
      "name": "getNonceUser",
      "outputs": [
        {
          "internalType": "uint256",
          "name": "",
          "type": "uint256"
        }
      ],
      "stateMutability": "view",
      "type": "function"
    },
    {
      "inputs": [
        {
          "internalType": "bytes32",
          "name": "idOffer",
          "type": "bytes32"
        }
      ],
      "name": "getTokenOffer",
      "outputs": [
        {
          "internalType": "address",
          "name": "",
          "type": "address"
        }
      ],
      "stateMutability": "view",
      "type": "function"
    },
    {
      "inputs": [
        {
          "internalType": "bytes32",
          "name": "idOffer",
          "type": "bytes32"
        }
      ],
      "name": "getUpperLimitFnHashOffer",
      "outputs": [
        {
          "internalType": "bytes32",
          "name": "",
          "type": "bytes32"
        }
      ],
      "stateMutability": "view",
      "type": "function"
    },
    {
      "inputs": [
        {
          "internalType": "bytes32",
          "name": "idOffer",
          "type": "bytes32"
        },
        {
          "internalType": "bytes",
          "name": "fn",
          "type": "bytes"
        }
      ],
      "name": "getUpperPriceLimitFromContract",
      "outputs": [
        {
          "internalType": "uint256",
          "name": "",
          "type": "uint256"
        }
      ],
      "stateMutability": "view",
      "type": "function"
    },
    {
      "inputs": [
        {
          "internalType": "bytes32",
          "name": "idOffer",
          "type": "bytes32"
        },
        {
          "internalType": "bytes",
          "name": "fn",
          "type": "bytes"
        }
      ],
      "name": "getUpperPriceLimitFromGrindery",
      "outputs": [
        {
          "internalType": "int256",
          "name": "",
          "type": "int256"
        }
      ],
      "stateMutability": "view",
      "type": "function"
    },
    {
      "inputs": [
        {
          "internalType": "address",
          "name": "addrGRT",
          "type": "address"
        }
      ],
      "name": "initializeGrtOffer",
      "outputs": [],
      "stateMutability": "nonpayable",
      "type": "function"
    },
    {
      "inputs": [],
      "name": "owner",
      "outputs": [
        {
          "internalType": "address",
          "name": "",
          "type": "address"
        }
      ],
      "stateMutability": "view",
      "type": "function"
    },
    {
      "inputs": [],
      "name": "renounceOwnership",
      "outputs": [],
      "stateMutability": "nonpayable",
      "type": "function"
    },
    {
      "inputs": [
        {
          "internalType": "address",
          "name": "token",
          "type": "address"
        },
        {
          "internalType": "address",
          "name": "priceAddress",
          "type": "address"
        },
        {
          "internalType": "bytes",
          "name": "upperLimitFn",
          "type": "bytes"
        },
        {
          "internalType": "bytes",
          "name": "lowerLimitFn",
          "type": "bytes"
        }
      ],
      "name": "setOfferWithContract",
      "outputs": [
        {
          "internalType": "bool",
          "name": "",
          "type": "bool"
        }
      ],
      "stateMutability": "nonpayable",
      "type": "function"
    },
    {
      "inputs": [
        {
          "internalType": "address",
          "name": "token",
          "type": "address"
        },
        {
          "internalType": "bytes",
          "name": "upperLimitFn",
          "type": "bytes"
        },
        {
          "internalType": "bytes",
          "name": "lowerLimitFn",
          "type": "bytes"
        }
      ],
      "name": "setOfferWithGrindery",
      "outputs": [
        {
          "internalType": "bool",
          "name": "",
          "type": "bool"
        }
      ],
      "stateMutability": "nonpayable",
      "type": "function"
    },
    {
      "inputs": [
        {
          "internalType": "uint256",
          "name": "amount",
          "type": "uint256"
        }
      ],
      "name": "stakeGRT",
      "outputs": [
        {
          "internalType": "bool",
          "name": "",
          "type": "bool"
        }
      ],
      "stateMutability": "nonpayable",
      "type": "function"
    },
    {
      "inputs": [
        {
          "internalType": "address",
          "name": "newOwner",
          "type": "address"
        }
      ],
      "name": "transferOwnership",
      "outputs": [],
      "stateMutability": "nonpayable",
      "type": "function"
    }
  ],
  "bytecode": "0x608060405234801561001057600080fd5b5061152a806100206000396000f3fe608060405234801561001057600080fd5b50600436106101365760003560e01c80637fc6176c116100b25780639ef6302311610081578063ace7c37e11610066578063ace7c37e146102f0578063e956eb8a14610303578063f2fde38b1461032657600080fd5b80639ef63023146102ba578063a1c59cef146102cd57600080fd5b80637fc6176c1461025757806386c2763d146102835780638c02d6ff146102965780638da5cb5b146102a957600080fd5b80635adbe5de11610109578063670d7db7116100ee578063670d7db714610209578063715018a61461022c57806375012c8b1461023457600080fd5b80635adbe5de146101cb57806361fb8b24146101f457600080fd5b80630a0ef56d1461013b57806316345f18146101615780634516010f146101745780635a3f5fdb146101b8575b600080fd5b61014e6101493660046111b5565b610339565b6040519081526020015b60405180910390f35b61014e61016f366004611216565b610552565b6101a0610182366004611233565b6000908152606660205260409020600201546001600160a01b031690565b6040516001600160a01b039091168152602001610158565b61014e6101c63660046111b5565b6105c3565b61014e6101d9366004611216565b6001600160a01b031660009081526067602052604090205490565b610207610202366004611216565b610754565b005b61021c61021736600461124c565b61089d565b6040519015158152602001610158565b610207610a27565b61014e610242366004611233565b60009081526066602052604090206001015490565b6101a0610265366004611233565b6000908152606660205260409020600301546001600160a01b031690565b61021c6102913660046112cf565b610a3b565b61014e6102a43660046111b5565b610bdc565b6033546001600160a01b03166101a0565b61014e6102c83660046111b5565b610d63565b61014e6102db366004611233565b60009081526066602052604090206004015490565b61021c6102fe366004611233565b610e3c565b61014e610311366004611233565b60009081526066602052604090206005015490565b610207610334366004611216565b610ea1565b6000838152606660205260408120600301546001600160a01b03166103f15760405162461bcd60e51b815260206004820152605060248201527f475254206f66666572733a206e6f7420616c6c6f77656420746f206d6f64696660448201527f7920746865207072696365206c696d69742076696120616e2065787465726e6160648201527f6c20736d61727420636f6e747261637400000000000000000000000000000000608482015260a4015b60405180910390fd5b600084815260666020908152604091829020600401549151610417918691869101611364565b60405160208183030381529060405280519060200120146104ae5760405162461bcd60e51b8152602060048201526044602482018190527f475254206f66666572733a207468652066756e6374696f6e20646f6573206e6f908201527f74206d6174636820746865206f6e6520656e746572656420696e20746865206f606482015263333332b960e11b608482015260a4016103e8565b60008481526066602052604080822060030154905182916001600160a01b0316906104dc9087908790611364565b600060405180830381855afa9150503d8060008114610517576040519150601f19603f3d011682016040523d82523d6000602084013e61051c565b606091505b50915091508115610544578080602001905181019061053b9190611374565b9250505061054b565b6000925050505b9392505050565b600080826001600160a01b031663feaf968c6040518163ffffffff1660e01b815260040160a060405180830381865afa158015610593573d6000803e3d6000fd5b505050506040513d601f19601f820116820180604052508101906105b791906113ac565b50919695505050505050565b6000838152606660205260408120600301546001600160a01b0316156106665760405162461bcd60e51b815260206004820152604c60248201527f475254206f66666572733a20746865207072696365206c696d69742073686f7560448201527f6c6420626520757064617465642076696120616e2065787465726e616c20736d60648201526b185c9d0818dbdb9d1c9858dd60a21b608482015260a4016103e8565b60008481526066602090815260409182902060040154915161068c918691869101611364565b60405160208183030381529060405280519060200120146107235760405162461bcd60e51b8152602060048201526044602482018190527f475254206f66666572733a207468652066756e6374696f6e20646f6573206e6f908201527f74206d6174636820746865206f6e6520656e746572656420696e20746865206f606482015263333332b960e11b608482015260a4016103e8565b600080610732848601866113fc565b915091508061074083610552565b61074a9190611457565b9695505050505050565b600054610100900460ff16158080156107745750600054600160ff909116105b8061078e5750303b15801561078e575060005460ff166001145b6108005760405162461bcd60e51b815260206004820152602e60248201527f496e697469616c697a61626c653a20636f6e747261637420697320616c72656160448201527f647920696e697469616c697a656400000000000000000000000000000000000060648201526084016103e8565b6000805460ff191660011790558015610823576000805461ff0019166101001790555b61082b610f31565b6065805473ffffffffffffffffffffffffffffffffffffffff19166001600160a01b0384161790558015610899576000805461ff0019169055604051600181527f7f26b83ff96e1f2b6a682f133852f6798a09c465da95921460cefb38474024989060200160405180910390a15b5050565b33600081815260676020908152604080832054905160609490941b6bffffffffffffffffffffffff191691840191909152603483015246605483015290819060740160408051808303601f1901815282825280516020918201206000818152606683529290922080543373ffffffffffffffffffffffffffffffffffffffff19918216178255466001830155600290910180549091166001600160a01b038c16179055909250610951918691869101611364565b60408051601f198184030181528282528051602091820120600085815260668352929092206005019190915561098b918891889101611364565b60408051601f19818403018152828252805160209182012060008581526066835283902060048101919091556003015446845291516001600160a01b038b81169493169285927f90d1517eab8d1d52082251d5392431a6bf50b65d94217ad0a4bd02b15072445c92918290030190a4336000908152606760205260408120805491610a158361147f565b90915550600198975050505050505050565b610a2f610fa4565b610a396000610ffe565b565b33600081815260676020908152604080832054905160609490941b6bffffffffffffffffffffffff191691840191909152603483015246605483015290819060740160408051808303601f1901815282825280516020918201206000818152606683529290922080543373ffffffffffffffffffffffffffffffffffffffff1991821617825546600183015560028201805482166001600160a01b038f81169190911790915560039092018054909116918c16919091179055909250610b05918691869101611364565b60408051601f1981840301815282825280516020918201206000858152606683529290922060050191909155610b3f918891889101611364565b60408051601f19818403018152828252805160209182012060008581526066835283902060048101919091556003015446845291516001600160a01b038c81169493169285927f90d1517eab8d1d52082251d5392431a6bf50b65d94217ad0a4bd02b15072445c92918290030190a4336000908152606760205260408120805491610bc98361147f565b9091555060019998505050505050505050565b6000838152606660205260408120600301546001600160a01b031615610c7f5760405162461bcd60e51b815260206004820152604c60248201527f475254206f66666572733a20746865207072696365206c696d69742073686f7560448201527f6c6420626520757064617465642076696120616e2065787465726e616c20736d60648201526b185c9d0818dbdb9d1c9858dd60a21b608482015260a4016103e8565b600084815260666020908152604091829020600501549151610ca5918691869101611364565b6040516020818303038152906040528051906020012014610d3c5760405162461bcd60e51b8152602060048201526044602482018190527f475254206f66666572733a207468652066756e6374696f6e20646f6573206e6f908201527f74206d6174636820746865206f6e6520656e746572656420696e20746865206f606482015263333332b960e11b608482015260a4016103e8565b600080610d4b848601866113fc565b9150915080610d5983610552565b61074a9190611498565b6000838152606660205260408120600301546001600160a01b0316610e165760405162461bcd60e51b815260206004820152605060248201527f475254206f66666572733a206e6f7420616c6c6f77656420746f206d6f64696660448201527f7920746865207072696365206c696d69742076696120616e2065787465726e6160648201527f6c20736d61727420636f6e747261637400000000000000000000000000000000608482015260a4016103e8565b600084815260666020908152604091829020600501549151610417918691869101611364565b6000610e478261105d565b50604051829033907f3dbdcfd4c1f2e08931aae3d544e149a1e643143f5234d166fe3debb78338849590600090a33360009081526068602052604081208054849290610e949084906114bf565b9091555060019392505050565b610ea9610fa4565b6001600160a01b038116610f255760405162461bcd60e51b815260206004820152602660248201527f4f776e61626c653a206e6577206f776e657220697320746865207a65726f206160448201527f646472657373000000000000000000000000000000000000000000000000000060648201526084016103e8565b610f2e81610ffe565b50565b600054610100900460ff16610f9c5760405162461bcd60e51b815260206004820152602b60248201527f496e697469616c697a61626c653a20636f6e7472616374206973206e6f74206960448201526a6e697469616c697a696e6760a81b60648201526084016103e8565b610a396110f8565b6033546001600160a01b03163314610a395760405162461bcd60e51b815260206004820181905260248201527f4f776e61626c653a2063616c6c6572206973206e6f7420746865206f776e657260448201526064016103e8565b603380546001600160a01b0383811673ffffffffffffffffffffffffffffffffffffffff19831681179093556040519116919082907f8be0079c531659141344cd1fd0a4f28419497f9722a3daafe3b4186f6b6457e090600090a35050565b6065546040517f23b872dd000000000000000000000000000000000000000000000000000000008152336004820152306024820152604481018390526000916001600160a01b0316906323b872dd906064016020604051808303816000875af11580156110ce573d6000803e3d6000fd5b505050506040513d601f19601f820116820180604052508101906110f291906114d2565b92915050565b600054610100900460ff166111635760405162461bcd60e51b815260206004820152602b60248201527f496e697469616c697a61626c653a20636f6e7472616374206973206e6f74206960448201526a6e697469616c697a696e6760a81b60648201526084016103e8565b610a3933610ffe565b60008083601f84011261117e57600080fd5b50813567ffffffffffffffff81111561119657600080fd5b6020830191508360208285010111156111ae57600080fd5b9250929050565b6000806000604084860312156111ca57600080fd5b83359250602084013567ffffffffffffffff8111156111e857600080fd5b6111f48682870161116c565b9497909650939450505050565b6001600160a01b0381168114610f2e57600080fd5b60006020828403121561122857600080fd5b813561054b81611201565b60006020828403121561124557600080fd5b5035919050565b60008060008060006060868803121561126457600080fd5b853561126f81611201565b9450602086013567ffffffffffffffff8082111561128c57600080fd5b61129889838a0161116c565b909650945060408801359150808211156112b157600080fd5b506112be8882890161116c565b969995985093965092949392505050565b600080600080600080608087890312156112e857600080fd5b86356112f381611201565b9550602087013561130381611201565b9450604087013567ffffffffffffffff8082111561132057600080fd5b61132c8a838b0161116c565b9096509450606089013591508082111561134557600080fd5b5061135289828a0161116c565b979a9699509497509295939492505050565b8183823760009101908152919050565b60006020828403121561138657600080fd5b5051919050565b805169ffffffffffffffffffff811681146113a757600080fd5b919050565b600080600080600060a086880312156113c457600080fd5b6113cd8661138d565b94506020860151935060408601519250606086015191506113f06080870161138d565b90509295509295909350565b6000806040838503121561140f57600080fd5b823561141a81611201565b946020939093013593505050565b7f4e487b7100000000000000000000000000000000000000000000000000000000600052601160045260246000fd5b808201828112600083128015821682158216171561147757611477611428565b505092915050565b60006001820161149157611491611428565b5060010190565b81810360008312801583831316838312821617156114b8576114b8611428565b5092915050565b808201808211156110f2576110f2611428565b6000602082840312156114e457600080fd5b8151801515811461054b57600080fdfea26469706673582212202ff688992b0ad1b3ee60cadc2703af8d803ac043fd027fe62c67e86ce971a67a64736f6c63430008110033",
  "linkReferences": {},
  "deployedLinkReferences": {}
}