{
  "_format": "hh-sol-artifact-1",
  "contractName": "GrtSatellite",
  "sourceName": "contracts/GrtSatellite.sol",
  "abi": [
    {
      "anonymous": false,
      "inputs": [
        {
          "indexed": false,
          "internalType": "uint8",
          "name": "version",
          "type": "uint8"
        }
      ],
      "name": "Initialized",
      "type": "event"
    },
    {
      "anonymous": false,
      "inputs": [
        {
          "indexed": true,
          "internalType": "bytes32",
          "name": "_idRequest",
          "type": "bytes32"
        },
        {
          "indexed": true,
          "internalType": "uint256",
          "name": "_idOffer",
          "type": "uint256"
        },
        {
          "indexed": true,
          "internalType": "uint256",
          "name": "_chainId",
          "type": "uint256"
        }
      ],
      "name": "LogOfferPaidSatelliteCrossChain",
      "type": "event"
    },
    {
      "anonymous": false,
      "inputs": [
        {
          "indexed": true,
          "internalType": "address",
          "name": "previousOwner",
          "type": "address"
        },
        {
          "indexed": true,
          "internalType": "address",
          "name": "newOwner",
          "type": "address"
        }
      ],
      "name": "OwnershipTransferred",
      "type": "event"
    },
    {
      "inputs": [
        {
          "internalType": "bytes32",
          "name": "idRequest",
          "type": "bytes32"
        },
        {
          "internalType": "uint256",
          "name": "idOffer",
          "type": "uint256"
        },
        {
          "internalType": "uint256",
          "name": "chainIdDeposit",
          "type": "uint256"
        }
      ],
      "name": "getAmountPayment",
      "outputs": [
        {
          "internalType": "uint256",
          "name": "",
          "type": "uint256"
        }
      ],
      "stateMutability": "view",
      "type": "function"
    },
    {
      "inputs": [
        {
          "internalType": "bytes32",
          "name": "idRequest",
          "type": "bytes32"
        },
        {
          "internalType": "uint256",
          "name": "idOffer",
          "type": "uint256"
        },
        {
          "internalType": "uint256",
          "name": "chainIdDeposit",
          "type": "uint256"
        }
      ],
      "name": "getReceiverPayment",
      "outputs": [
        {
          "internalType": "address",
          "name": "",
          "type": "address"
        }
      ],
      "stateMutability": "view",
      "type": "function"
    },
    {
      "inputs": [
        {
          "internalType": "bytes32",
          "name": "idRequest",
          "type": "bytes32"
        },
        {
          "internalType": "uint256",
          "name": "idOffer",
          "type": "uint256"
        },
        {
          "internalType": "uint256",
          "name": "chainIdDeposit",
          "type": "uint256"
        }
      ],
      "name": "getSenderPayment",
      "outputs": [
        {
          "internalType": "address",
          "name": "",
          "type": "address"
        }
      ],
      "stateMutability": "view",
      "type": "function"
    },
    {
      "inputs": [
        {
          "internalType": "bytes32",
          "name": "idRequest",
          "type": "bytes32"
        },
        {
          "internalType": "uint256",
          "name": "idOffer",
          "type": "uint256"
        },
        {
          "internalType": "uint256",
          "name": "chainIdDeposit",
          "type": "uint256"
        }
      ],
      "name": "getTokenPayment",
      "outputs": [
        {
          "internalType": "address",
          "name": "",
          "type": "address"
        }
      ],
      "stateMutability": "view",
      "type": "function"
    },
    {
      "inputs": [],
      "name": "initializeSatellite",
      "outputs": [],
      "stateMutability": "nonpayable",
      "type": "function"
    },
    {
      "inputs": [],
      "name": "owner",
      "outputs": [
        {
          "internalType": "address",
          "name": "",
          "type": "address"
        }
      ],
      "stateMutability": "view",
      "type": "function"
    },
    {
      "inputs": [
        {
          "internalType": "bytes32",
          "name": "idRequest",
          "type": "bytes32"
        },
        {
          "internalType": "uint256",
          "name": "idOffer",
          "type": "uint256"
        },
        {
          "internalType": "uint256",
          "name": "chainIdDeposit",
          "type": "uint256"
        },
        {
          "internalType": "address",
          "name": "token",
          "type": "address"
        },
        {
          "internalType": "address",
          "name": "to",
          "type": "address"
        },
        {
          "internalType": "uint256",
          "name": "amount",
          "type": "uint256"
        }
      ],
      "name": "payOfferCrossChainERC20",
      "outputs": [
        {
          "internalType": "bool",
          "name": "",
          "type": "bool"
        }
      ],
      "stateMutability": "nonpayable",
      "type": "function"
    },
    {
      "inputs": [
        {
          "internalType": "bytes32",
          "name": "idRequest",
          "type": "bytes32"
        },
        {
          "internalType": "uint256",
          "name": "idOffer",
          "type": "uint256"
        },
        {
          "internalType": "uint256",
          "name": "chainIdDeposit",
          "type": "uint256"
        },
        {
          "internalType": "address",
          "name": "to",
          "type": "address"
        }
      ],
      "name": "payOfferCrossChainNative",
      "outputs": [
        {
          "internalType": "bool",
          "name": "",
          "type": "bool"
        }
      ],
      "stateMutability": "payable",
      "type": "function"
    },
    {
      "inputs": [],
      "name": "renounceOwnership",
      "outputs": [],
      "stateMutability": "nonpayable",
      "type": "function"
    },
    {
      "inputs": [
        {
          "internalType": "address",
          "name": "newOwner",
          "type": "address"
        }
      ],
      "name": "transferOwnership",
      "outputs": [],
      "stateMutability": "nonpayable",
      "type": "function"
    }
  ],
  "bytecode": "0x608060405234801561001057600080fd5b50610b2f806100206000396000f3fe6080604052600436106100b15760003560e01c80638da5cb5b11610069578063d7d19bb51161004e578063d7d19bb514610291578063e8e0579c146102f9578063f2fde38b1461030e57600080fd5b80638da5cb5b14610208578063b70a61821461022657600080fd5b80634b4390ad1161009a5780634b4390ad1461014e5780635f7701e71461016e578063715018a6146101f157600080fd5b806338d40702146100b6578063472d18d2146100de575b600080fd5b6100c96100c43660046109f2565b61032e565b60405190151581526020015b60405180910390f35b3480156100ea57600080fd5b506101406100f9366004610a31565b604080516020808201959095528082019390935260608084019290925280518084039092018252608090920182528051908301206000908152606590925290206003015490565b6040519081526020016100d5565b34801561015a57600080fd5b506100c9610169366004610a5d565b6104b3565b34801561017a57600080fd5b506101d9610189366004610a31565b60408051602080820195909552808201939093526060808401929092528051808403909201825260809092018252805190830120600090815260659092529020600201546001600160a01b031690565b6040516001600160a01b0390911681526020016100d5565b3480156101fd57600080fd5b50610206610675565b005b34801561021457600080fd5b506033546001600160a01b03166101d9565b34801561023257600080fd5b506101d9610241366004610a31565b60408051602080820195909552808201939093526060808401929092528051808403909201825260809092018252805190830120600090815260659092529020600101546001600160a01b031690565b34801561029d57600080fd5b506101d96102ac366004610a31565b60408051602080820195909552808201939093526060808401929092528051808403909201825260809092018252805190830120600090815260659092529020546001600160a01b031690565b34801561030557600080fd5b50610206610689565b34801561031a57600080fd5b50610206610329366004610ab5565b6107ae565b600080826001600160a01b03163460405160006040518083038185875af1925050503d806000811461037c576040519150601f19603f3d011682016040523d82523d6000602084013e610381565b606091505b5050905080156104aa578385877f975b96156ea6420990408ab8c813023df4b4aff9edd0707833b3fa09ffe11cd060405160405180910390a4604051806080016040528060006001600160a01b03168152602001336001600160a01b03168152602001846001600160a01b031681526020013481525060656000888888604051602001610421939291909283526020830191909152604082015260600190565b60408051808303601f1901815291815281516020928301208352828201939093529082016000208351815473ffffffffffffffffffffffffffffffffffffffff199081166001600160a01b039283161783559285015160018301805485169183169190911790559284015160028201805490931693169290921790556060909101516003909101555b95945050505050565b6040517f23b872dd0000000000000000000000000000000000000000000000000000000081523360048201526001600160a01b03838116602483015260448201839052600091908516906323b872dd906064016020604051808303816000875af1158015610525573d6000803e3d6000fd5b505050506040513d601f19601f820116820180604052508101906105499190610ad7565b508486887f975b96156ea6420990408ab8c813023df4b4aff9edd0707833b3fa09ffe11cd060405160405180910390a46040518060800160405280856001600160a01b03168152602001336001600160a01b03168152602001846001600160a01b0316815260200183815250606560008989896040516020016105df939291909283526020830191909152604082015260600190565b60408051808303601f1901815291815281516020928301208352828201939093529082016000208351815473ffffffffffffffffffffffffffffffffffffffff199081166001600160a01b03928316178355928501516001808401805486169284169290921790915593850151600283018054909416911617909155606090920151600390920191909155979650505050505050565b61067d61083b565b6106876000610895565b565b600054610100900460ff16158080156106a95750600054600160ff909116105b806106c35750303b1580156106c3575060005460ff166001145b61073a5760405162461bcd60e51b815260206004820152602e60248201527f496e697469616c697a61626c653a20636f6e747261637420697320616c72656160448201527f647920696e697469616c697a656400000000000000000000000000000000000060648201526084015b60405180910390fd5b6000805460ff19166001179055801561075d576000805461ff0019166101001790555b6107656108f4565b80156107ab576000805461ff0019169055604051600181527f7f26b83ff96e1f2b6a682f133852f6798a09c465da95921460cefb38474024989060200160405180910390a15b50565b6107b661083b565b6001600160a01b0381166108325760405162461bcd60e51b815260206004820152602660248201527f4f776e61626c653a206e6577206f776e657220697320746865207a65726f206160448201527f64647265737300000000000000000000000000000000000000000000000000006064820152608401610731565b6107ab81610895565b6033546001600160a01b031633146106875760405162461bcd60e51b815260206004820181905260248201527f4f776e61626c653a2063616c6c6572206973206e6f7420746865206f776e65726044820152606401610731565b603380546001600160a01b0383811673ffffffffffffffffffffffffffffffffffffffff19831681179093556040519116919082907f8be0079c531659141344cd1fd0a4f28419497f9722a3daafe3b4186f6b6457e090600090a35050565b600054610100900460ff1661095f5760405162461bcd60e51b815260206004820152602b60248201527f496e697469616c697a61626c653a20636f6e7472616374206973206e6f74206960448201526a6e697469616c697a696e6760a81b6064820152608401610731565b610687600054610100900460ff166109cd5760405162461bcd60e51b815260206004820152602b60248201527f496e697469616c697a61626c653a20636f6e7472616374206973206e6f74206960448201526a6e697469616c697a696e6760a81b6064820152608401610731565b61068733610895565b80356001600160a01b03811681146109ed57600080fd5b919050565b60008060008060808587031215610a0857600080fd5b843593506020850135925060408501359150610a26606086016109d6565b905092959194509250565b600080600060608486031215610a4657600080fd5b505081359360208301359350604090920135919050565b60008060008060008060c08789031215610a7657600080fd5b863595506020870135945060408701359350610a94606088016109d6565b9250610aa2608088016109d6565b915060a087013590509295509295509295565b600060208284031215610ac757600080fd5b610ad0826109d6565b9392505050565b600060208284031215610ae957600080fd5b81518015158114610ad057600080fdfea2646970667358221220dd19a1d0fe61641ea53ca129ea50592f9cbd5a0153cf745247916de6e46cb9f464736f6c63430008110033",
  "linkReferences": {},
  "deployedLinkReferences": {}
}