{
  "_format": "hh-sol-artifact-1",
  "contractName": "GrtOffer",
  "sourceName": "contracts/v0.2.0/GrtOffer.sol",
  "abi": [
    {
      "anonymous": false,
      "inputs": [
        {
          "indexed": false,
          "internalType": "uint8",
          "name": "version",
          "type": "uint8"
        }
      ],
      "name": "Initialized",
      "type": "event"
    },
    {
      "anonymous": false,
      "inputs": [
        {
          "indexed": true,
          "internalType": "bytes32",
          "name": "_idOffer",
          "type": "bytes32"
        },
        {
          "indexed": true,
          "internalType": "address",
          "name": "_contractAddress",
          "type": "address"
        },
        {
          "indexed": true,
          "internalType": "address",
          "name": "_token",
          "type": "address"
        },
        {
          "indexed": false,
          "internalType": "uint256",
          "name": "_chainId",
          "type": "uint256"
        }
      ],
      "name": "LogNewOffer",
      "type": "event"
    },
    {
      "anonymous": false,
      "inputs": [
        {
          "indexed": true,
          "internalType": "bytes32",
          "name": "_idOffer",
          "type": "bytes32"
        },
        {
          "indexed": true,
          "internalType": "uint256",
          "name": "_chainId",
          "type": "uint256"
        }
      ],
      "name": "LogSetChainIdOffer",
      "type": "event"
    },
    {
      "anonymous": false,
      "inputs": [
        {
          "indexed": true,
          "internalType": "bytes32",
          "name": "_idOffer",
          "type": "bytes32"
        },
        {
          "indexed": true,
          "internalType": "bytes32",
          "name": "_lowerLimitFn",
          "type": "bytes32"
        }
      ],
      "name": "LogSetLowerLimitOffer",
      "type": "event"
    },
    {
      "anonymous": false,
      "inputs": [
        {
          "indexed": true,
          "internalType": "bytes32",
          "name": "_idOffer",
          "type": "bytes32"
        },
        {
          "indexed": true,
          "internalType": "address",
          "name": "_priceContractAddress",
          "type": "address"
        }
      ],
      "name": "LogSetPriceContractAddressOffer",
      "type": "event"
    },
    {
      "anonymous": false,
      "inputs": [
        {
          "indexed": true,
          "internalType": "bytes32",
          "name": "_idOffer",
          "type": "bytes32"
        },
        {
          "indexed": true,
          "internalType": "bool",
          "name": "_isActive",
          "type": "bool"
        }
      ],
      "name": "LogSetStatusOffer",
      "type": "event"
    },
    {
      "anonymous": false,
      "inputs": [
        {
          "indexed": true,
          "internalType": "bytes32",
          "name": "_idOffer",
          "type": "bytes32"
        },
        {
          "indexed": true,
          "internalType": "address",
          "name": "_token",
          "type": "address"
        }
      ],
      "name": "LogSetTokenOffer",
      "type": "event"
    },
    {
      "anonymous": false,
      "inputs": [
        {
          "indexed": true,
          "internalType": "bytes32",
          "name": "_idOffer",
          "type": "bytes32"
        },
        {
          "indexed": true,
          "internalType": "bytes32",
          "name": "_upperLimitFn",
          "type": "bytes32"
        }
      ],
      "name": "LogSetUpperLimitOffer",
      "type": "event"
    },
    {
      "anonymous": false,
      "inputs": [
        {
          "indexed": true,
          "internalType": "address",
          "name": "_user",
          "type": "address"
        },
        {
          "indexed": true,
          "internalType": "uint256",
          "name": "_chainId",
          "type": "uint256"
        },
        {
          "indexed": true,
          "internalType": "uint256",
          "name": "_amount",
          "type": "uint256"
        }
      ],
      "name": "LogStake",
      "type": "event"
    },
    {
      "anonymous": false,
      "inputs": [
        {
          "indexed": true,
          "internalType": "address",
          "name": "_user",
          "type": "address"
        },
        {
          "indexed": true,
          "internalType": "uint256",
          "name": "_chainId",
          "type": "uint256"
        },
        {
          "indexed": true,
          "internalType": "uint256",
          "name": "_amount",
          "type": "uint256"
        }
      ],
      "name": "LogUnStake",
      "type": "event"
    },
    {
      "anonymous": false,
      "inputs": [
        {
          "indexed": true,
          "internalType": "address",
          "name": "previousOwner",
          "type": "address"
        },
        {
          "indexed": true,
          "internalType": "address",
          "name": "newOwner",
          "type": "address"
        }
      ],
      "name": "OwnershipTransferred",
      "type": "event"
    },
    {
      "inputs": [
        {
          "internalType": "bytes32",
          "name": "idOffer",
          "type": "bytes32"
        },
        {
          "internalType": "address",
          "name": "priceContractAddress",
          "type": "address"
        },
        {
          "internalType": "bytes",
          "name": "args",
          "type": "bytes"
        }
      ],
      "name": "checkParametersLowerLimitOffer",
      "outputs": [
        {
          "internalType": "bool",
          "name": "",
          "type": "bool"
        }
      ],
      "stateMutability": "view",
      "type": "function"
    },
    {
      "inputs": [
        {
          "internalType": "bytes32",
          "name": "idOffer",
          "type": "bytes32"
        },
        {
          "internalType": "address",
          "name": "priceContractAddress",
          "type": "address"
        },
        {
          "internalType": "bytes",
          "name": "args",
          "type": "bytes"
        }
      ],
      "name": "checkParametersUpperLimitOffer",
      "outputs": [
        {
          "internalType": "bool",
          "name": "",
          "type": "bool"
        }
      ],
      "stateMutability": "view",
      "type": "function"
    },
    {
      "inputs": [
        {
          "internalType": "bytes32",
          "name": "idOffer",
          "type": "bytes32"
        }
      ],
      "name": "getAddressPriceContractOffer",
      "outputs": [
        {
          "internalType": "address",
          "name": "",
          "type": "address"
        }
      ],
      "stateMutability": "view",
      "type": "function"
    },
    {
      "inputs": [
        {
          "internalType": "bytes32",
          "name": "idOffer",
          "type": "bytes32"
        }
      ],
      "name": "getChainIdOffer",
      "outputs": [
        {
          "internalType": "uint256",
          "name": "",
          "type": "uint256"
        }
      ],
      "stateMutability": "view",
      "type": "function"
    },
    {
      "inputs": [],
      "name": "getGrtAddress",
      "outputs": [
        {
          "internalType": "address",
          "name": "",
          "type": "address"
        }
      ],
      "stateMutability": "view",
      "type": "function"
    },
    {
      "inputs": [
        {
          "internalType": "bytes32",
          "name": "idOffer",
          "type": "bytes32"
        }
      ],
      "name": "getLowerLimitFnHashOffer",
      "outputs": [
        {
          "internalType": "bytes32",
          "name": "",
          "type": "bytes32"
        }
      ],
      "stateMutability": "view",
      "type": "function"
    },
    {
      "inputs": [
        {
          "internalType": "bytes32",
          "name": "idOffer",
          "type": "bytes32"
        },
        {
          "internalType": "bytes",
          "name": "fn",
          "type": "bytes"
        }
      ],
      "name": "getLowerPriceLimitFromContract",
      "outputs": [
        {
          "internalType": "uint256",
          "name": "",
          "type": "uint256"
        }
      ],
      "stateMutability": "view",
      "type": "function"
    },
    {
      "inputs": [
        {
          "internalType": "address",
          "name": "user",
          "type": "address"
        }
      ],
      "name": "getNonceOffer",
      "outputs": [
        {
          "internalType": "uint256",
          "name": "",
          "type": "uint256"
        }
      ],
      "stateMutability": "view",
      "type": "function"
    },
    {
      "inputs": [
        {
          "internalType": "bytes32",
          "name": "idOffer",
          "type": "bytes32"
        }
      ],
      "name": "getOfferer",
      "outputs": [
        {
          "internalType": "address",
          "name": "",
          "type": "address"
        }
      ],
      "stateMutability": "view",
      "type": "function"
    },
    {
      "inputs": [
        {
          "internalType": "bytes32",
          "name": "idOffer",
          "type": "bytes32"
        }
      ],
      "name": "getStatusOffer",
      "outputs": [
        {
          "internalType": "bool",
          "name": "",
          "type": "bool"
        }
      ],
      "stateMutability": "view",
      "type": "function"
    },
    {
      "inputs": [
        {
          "internalType": "bytes32",
          "name": "idOffer",
          "type": "bytes32"
        }
      ],
      "name": "getTokenOffer",
      "outputs": [
        {
          "internalType": "address",
          "name": "",
          "type": "address"
        }
      ],
      "stateMutability": "view",
      "type": "function"
    },
    {
      "inputs": [
        {
          "internalType": "bytes32",
          "name": "idOffer",
          "type": "bytes32"
        }
      ],
      "name": "getUpperLimitFnHashOffer",
      "outputs": [
        {
          "internalType": "bytes32",
          "name": "",
          "type": "bytes32"
        }
      ],
      "stateMutability": "view",
      "type": "function"
    },
    {
      "inputs": [
        {
          "internalType": "bytes32",
          "name": "idOffer",
          "type": "bytes32"
        },
        {
          "internalType": "bytes",
          "name": "fn",
          "type": "bytes"
        }
      ],
      "name": "getUpperPriceLimitFromContract",
      "outputs": [
        {
          "internalType": "uint256",
          "name": "",
          "type": "uint256"
        }
      ],
      "stateMutability": "view",
      "type": "function"
    },
    {
      "inputs": [],
      "name": "owner",
      "outputs": [
        {
          "internalType": "address",
          "name": "",
          "type": "address"
        }
      ],
      "stateMutability": "view",
      "type": "function"
    },
    {
      "inputs": [],
      "name": "renounceOwnership",
      "outputs": [],
      "stateMutability": "nonpayable",
      "type": "function"
    },
    {
      "inputs": [
        {
          "internalType": "bytes32",
          "name": "idOffer",
          "type": "bytes32"
        },
        {
          "internalType": "uint256",
          "name": "chainId",
          "type": "uint256"
        }
      ],
      "name": "setChainIdOffer",
      "outputs": [],
      "stateMutability": "nonpayable",
      "type": "function"
    },
    {
      "inputs": [
        {
          "internalType": "bytes32",
          "name": "idOffer",
          "type": "bytes32"
        },
        {
          "internalType": "bool",
          "name": "isActive",
          "type": "bool"
        }
      ],
      "name": "setIsActive",
      "outputs": [],
      "stateMutability": "nonpayable",
      "type": "function"
    },
    {
      "inputs": [
        {
          "internalType": "bytes32",
          "name": "idOffer",
          "type": "bytes32"
        },
        {
          "internalType": "bytes",
          "name": "args",
          "type": "bytes"
        }
      ],
      "name": "setLowerLimitOffer",
      "outputs": [],
      "stateMutability": "nonpayable",
      "type": "function"
    },
    {
      "inputs": [
        {
          "internalType": "address",
          "name": "token",
          "type": "address"
        },
        {
          "internalType": "uint256",
          "name": "chainId",
          "type": "uint256"
        },
        {
          "internalType": "address",
          "name": "priceContractAddress",
          "type": "address"
        },
        {
          "internalType": "bytes",
          "name": "upperLimitFn",
          "type": "bytes"
        },
        {
          "internalType": "bytes",
          "name": "lowerLimitFn",
          "type": "bytes"
        }
      ],
      "name": "setOffer",
      "outputs": [
        {
          "internalType": "bytes32",
          "name": "",
          "type": "bytes32"
        }
      ],
      "stateMutability": "nonpayable",
      "type": "function"
    },
    {
      "inputs": [
        {
          "internalType": "bytes32",
          "name": "idOffer",
          "type": "bytes32"
        },
        {
          "internalType": "address",
          "name": "priceContractAddress",
          "type": "address"
        }
      ],
      "name": "setPriceContractAddressOffer",
      "outputs": [],
      "stateMutability": "nonpayable",
      "type": "function"
    },
    {
      "inputs": [
        {
          "internalType": "bytes32",
          "name": "idOffer",
          "type": "bytes32"
        },
        {
          "internalType": "address",
          "name": "token",
          "type": "address"
        }
      ],
      "name": "setTokenOffer",
      "outputs": [],
      "stateMutability": "nonpayable",
      "type": "function"
    },
    {
      "inputs": [
        {
          "internalType": "bytes32",
          "name": "idOffer",
          "type": "bytes32"
        },
        {
          "internalType": "bytes",
          "name": "args",
          "type": "bytes"
        }
      ],
      "name": "setUpperLimitOffer",
      "outputs": [],
      "stateMutability": "nonpayable",
      "type": "function"
    },
    {
      "inputs": [
        {
          "internalType": "uint256",
          "name": "amount",
          "type": "uint256"
        },
        {
          "internalType": "uint256",
          "name": "chainId",
          "type": "uint256"
        }
      ],
      "name": "stakeGRT",
      "outputs": [
        {
          "internalType": "bool",
          "name": "",
          "type": "bool"
        }
      ],
      "stateMutability": "nonpayable",
      "type": "function"
    },
    {
      "inputs": [
        {
          "internalType": "address",
          "name": "account",
          "type": "address"
        },
        {
          "internalType": "uint256",
          "name": "chainId",
          "type": "uint256"
        }
      ],
      "name": "stakeOf",
      "outputs": [
        {
          "internalType": "uint256",
          "name": "",
          "type": "uint256"
        }
      ],
      "stateMutability": "view",
      "type": "function"
    },
    {
      "inputs": [
        {
          "internalType": "address",
          "name": "newOwner",
          "type": "address"
        }
      ],
      "name": "transferOwnership",
      "outputs": [],
      "stateMutability": "nonpayable",
      "type": "function"
    },
    {
      "inputs": [
        {
          "internalType": "uint256",
          "name": "amount",
          "type": "uint256"
        },
        {
          "internalType": "uint256",
          "name": "chainId",
          "type": "uint256"
        }
      ],
      "name": "unstakeGRT",
      "outputs": [
        {
          "internalType": "bool",
          "name": "",
          "type": "bool"
        }
      ],
      "stateMutability": "nonpayable",
      "type": "function"
    }
  ],
  "bytecode": "0x608060405234801561001057600080fd5b5061174d806100206000396000f3fe608060405234801561001057600080fd5b50600436106101ae5760003560e01c80638b2bcd7e116100ee578063b5ad37a611610097578063df267e5311610071578063df267e5314610401578063e956eb8a1461042b578063ed87169c1461044e578063f2fde38b1461048457600080fd5b8063b5ad37a6146103af578063ba83b6a7146103db578063d6aaa7c8146103ee57600080fd5b80639f9f9938116100c85780639f9f993814610350578063a1c59cef14610363578063ab805d581461038657600080fd5b80638b2bcd7e146103195780638da5cb5b1461032c5780639ef630231461033d57600080fd5b80634516010f1161015b57806370d9b55e1161013557806370d9b55e146102ca578063715018a6146102dd578063716752fa146102e557806375012c8b146102f657600080fd5b80634516010f1461026057806346cfbb90146102a457806360d395a4146102b757600080fd5b806312355ee51161018c57806312355ee5146102175780633ed2212c1461022a57806341e73f031461023d57600080fd5b8063039c70d7146101b35780630a0ef56d146101ef5780630b6453d714610202575b600080fd5b6101dc6101c13660046113ef565b6001600160a01b031660009081526068602052604090205490565b6040519081526020015b60405180910390f35b6101dc6101fd366004611453565b610497565b61021561021036600461149f565b6106c9565b005b61021561022536600461149f565b6107a9565b610215610238366004611453565b610889565b61025061024b3660046114cb565b610970565b60405190151581526020016101e6565b61028c61026e3660046114ed565b6000908152606760205260409020600201546001600160a01b031690565b6040516001600160a01b0390911681526020016101e6565b6102506102b2366004611506565b6109e5565b6102156102c53660046114cb565b610a54565b6102156102d836600461156e565b610b0d565b610215610bdc565b6000546001600160a01b031661028c565b6101dc6103043660046114ed565b60009081526067602052604090206001015490565b6101dc61032736600461159e565b610bf0565b6035546001600160a01b031661028c565b6101dc61034b366004611453565b610ebd565b61021561035e366004611453565b610f96565b6101dc6103713660046114ed565b60009081526067602052604090206004015490565b61028c6103943660046114ed565b6000908152606760205260409020546001600160a01b031690565b61028c6103bd3660046114ed565b6000908152606760205260409020600301546001600160a01b031690565b6102506103e9366004611506565b61107d565b6102506103fc3660046114cb565b6110a4565b61025061040f3660046114ed565b600090815260676020526040902054600160a01b900460ff1690565b6101dc6104393660046114ed565b60009081526067602052604090206005015490565b6101dc61045c366004611639565b6001600160a01b03919091166000908152600160209081526040808320938352929052205490565b6102156104923660046113ef565b6111f5565b6000838152606760205260408120600301546001600160a01b031661054f5760405162461bcd60e51b815260206004820152605060248201527f475254206f66666572733a206e6f7420616c6c6f77656420746f206d6f64696660448201527f7920746865207072696365206c696d69742076696120616e2065787465726e6160648201527f6c20736d61727420636f6e747261637400000000000000000000000000000000608482015260a4015b60405180910390fd5b600084815260676020908152604091829020600401549151610575918691869101611663565b60405160208183030381529060405280519060200120146106255760405162461bcd60e51b8152602060048201526044602482018190527f475254206f66666572733a207468652066756e6374696f6e20646f6573206e6f908201527f74206d6174636820746865206f6e6520656e746572656420696e20746865206f60648201527f6666657200000000000000000000000000000000000000000000000000000000608482015260a401610546565b60008481526067602052604080822060030154905182916001600160a01b0316906106539087908790611663565b600060405180830381855afa9150503d806000811461068e576040519150601f19603f3d011682016040523d82523d6000602084013e610693565b606091505b509150915081156106bb57808060200190518101906106b29190611673565b925050506106c2565b6000925050505b9392505050565b6000828152606760205260409020546001600160a01b031633146107405760405162461bcd60e51b815260206004820152602860248201527f796f7520617265206e6f7420616c6c6f77656420746f206d6f6469667920746860448201526734b99037b33332b960c11b6064820152608401610546565b600082815260676020526040808220600301805473ffffffffffffffffffffffffffffffffffffffff19166001600160a01b0385169081179091559051909184917f1b9884e19a384dde26a783c44d6539de8e750ad23feb4cd3a08be38eba464cf09190a35050565b6000828152606760205260409020546001600160a01b031633146108205760405162461bcd60e51b815260206004820152602860248201527f796f7520617265206e6f7420616c6c6f77656420746f206d6f6469667920746860448201526734b99037b33332b960c11b6064820152608401610546565b600082815260676020526040808220600201805473ffffffffffffffffffffffffffffffffffffffff19166001600160a01b0385169081179091559051909184917f863e7b561a66d01bc9cd4a4588a1161b382b020ffb674dc521b9e01c6adb12159190a35050565b6000838152606760205260409020546001600160a01b031633146109005760405162461bcd60e51b815260206004820152602860248201527f796f7520617265206e6f7420616c6c6f77656420746f206d6f6469667920746860448201526734b99037b33332b960c11b6064820152608401610546565b60008282604051602001610915929190611663565b60408051601f19818403018152828252805160209182012060008881526067909252918120600501829055909250829186917f38739e26d1f9c6ea0fc7562e5bc323fab0e7d8f6550d1c715fe19cfe980c755d91a350505050565b600061097b83611285565b506040518390839033907fa0d1fa51224fb08c7c0b48d481448ad6a31c945d1a68cac8758cac3a92d5001c90600090a4336000908152600160209081526040808320858452909152812080548592906109d59084906116bb565b9091555060019150505b92915050565b60008481526067602090815260408083206005015490519091610a0c918691869101611663565b60405160208183030381529060405280519060200120148015610a4b57506000858152606760205260409020600301546001600160a01b038581169116145b95945050505050565b6000828152606760205260409020546001600160a01b03163314610acb5760405162461bcd60e51b815260206004820152602860248201527f796f7520617265206e6f7420616c6c6f77656420746f206d6f6469667920746860448201526734b99037b33332b960c11b6064820152608401610546565b60008281526067602052604080822060010183905551829184917f7bafa37fce79b60ee3ed158b37be29d9cc0e9d20c0998ec8bc0185ffa130c86c9190a35050565b6000828152606760205260409020546001600160a01b03163314610b845760405162461bcd60e51b815260206004820152602860248201527f796f7520617265206e6f7420616c6c6f77656420746f206d6f6469667920746860448201526734b99037b33332b960c11b6064820152608401610546565b600082815260676020526040808220805460ff60a01b1916600160a01b851515908102919091179091559051909184917f07e5ac9cec280f0c854fc08fad45e62683275f1d00f6de72f9798fe680c006d09190a35050565b610be461131a565b610bee6000611374565b565b600033610c655760405162461bcd60e51b815260206004820152602960248201527f7365744f666665722066726f6d207a65726f2061646472657373206973206e6f60448201527f7420616c6c6f77656400000000000000000000000000000000000000000000006064820152608401610546565b3360009081526001602081815260408084208b85529091529091205411610cf45760405162461bcd60e51b815260206004820152602860248201527f4e6f7420656e6f756768207374616b65642047525420746f207365742075702060448201527f616e206f666665720000000000000000000000000000000000000000000000006064820152608401610546565b3360008181526068602090815260408083205490519293610d349390920160609290921b6bffffffffffffffffffffffff19168252601482015260340190565b60408051601f19818403018152828252805160209182012060008181526067835292909220805460ff60a01b1933167fffffffffffffffffffffff00000000000000000000000000000000000000000090911617600160a01b178155600181018c90556002810180546001600160a01b038f811673ffffffffffffffffffffffffffffffffffffffff199283161790925560039092018054918d1691909216179055909250610de7918691869101611663565b60408051601f1981840301815282825280516020918201206000858152606783529290922060050191909155610e21918891889101611663565b60408051601f1981840301815282825280516020918201206000858152606783528390206004810191909155600301548b845291516001600160a01b038d81169493169285927f90d1517eab8d1d52082251d5392431a6bf50b65d94217ad0a4bd02b15072445c92918290030190a4336000908152606860205260408120805491610eab836116ce565b90915550909998505050505050505050565b6000838152606760205260408120600301546001600160a01b0316610f705760405162461bcd60e51b815260206004820152605060248201527f475254206f66666572733a206e6f7420616c6c6f77656420746f206d6f64696660448201527f7920746865207072696365206c696d69742076696120616e2065787465726e6160648201527f6c20736d61727420636f6e747261637400000000000000000000000000000000608482015260a401610546565b600084815260676020908152604091829020600501549151610575918691869101611663565b6000838152606760205260409020546001600160a01b0316331461100d5760405162461bcd60e51b815260206004820152602860248201527f796f7520617265206e6f7420616c6c6f77656420746f206d6f6469667920746860448201526734b99037b33332b960c11b6064820152608401610546565b60008282604051602001611022929190611663565b60408051601f19818403018152828252805160209182012060008881526067909252918120600401829055909250829186917f52d20c49b34922635a66f77e4252841e4d4c04d71c8115ece85d45384eb156d791a350505050565b60008481526067602090815260408083206004015490519091610a0c918691869101611663565b336000908152600160209081526040808320848452909152812054831061110d5760405162461bcd60e51b815260206004820152601560248201527f6e6f7420656e6f756768207374616b65642047525400000000000000000000006044820152606401610546565b6000546040517fa9059cbb000000000000000000000000000000000000000000000000000000008152336004820152602481018590526001600160a01b039091169063a9059cbb906044016020604051808303816000875af1158015611177573d6000803e3d6000fd5b505050506040513d601f19601f8201168201806040525081019061119b91906116e7565b506040518390839033907f4cc6b0a598f3fcb366982c9b05e557bcf6fab3db9f1ff63aee54c3b362524c1890600090a4336000908152600160209081526040808320858452909152812080548592906109d5908490611704565b6111fd61131a565b6001600160a01b0381166112795760405162461bcd60e51b815260206004820152602660248201527f4f776e61626c653a206e6577206f776e657220697320746865207a65726f206160448201527f64647265737300000000000000000000000000000000000000000000000000006064820152608401610546565b61128281611374565b50565b600080546040517f23b872dd000000000000000000000000000000000000000000000000000000008152336004820152306024820152604481018490526001600160a01b03909116906323b872dd906064016020604051808303816000875af11580156112f6573d6000803e3d6000fd5b505050506040513d601f19601f820116820180604052508101906109df91906116e7565b6035546001600160a01b03163314610bee5760405162461bcd60e51b815260206004820181905260248201527f4f776e61626c653a2063616c6c6572206973206e6f7420746865206f776e65726044820152606401610546565b603580546001600160a01b0383811673ffffffffffffffffffffffffffffffffffffffff19831681179093556040519116919082907f8be0079c531659141344cd1fd0a4f28419497f9722a3daafe3b4186f6b6457e090600090a35050565b80356001600160a01b03811681146113ea57600080fd5b919050565b60006020828403121561140157600080fd5b6106c2826113d3565b60008083601f84011261141c57600080fd5b50813567ffffffffffffffff81111561143457600080fd5b60208301915083602082850101111561144c57600080fd5b9250929050565b60008060006040848603121561146857600080fd5b83359250602084013567ffffffffffffffff81111561148657600080fd5b6114928682870161140a565b9497909650939450505050565b600080604083850312156114b257600080fd5b823591506114c2602084016113d3565b90509250929050565b600080604083850312156114de57600080fd5b50508035926020909101359150565b6000602082840312156114ff57600080fd5b5035919050565b6000806000806060858703121561151c57600080fd5b8435935061152c602086016113d3565b9250604085013567ffffffffffffffff81111561154857600080fd5b6115548782880161140a565b95989497509550505050565b801515811461128257600080fd5b6000806040838503121561158157600080fd5b82359150602083013561159381611560565b809150509250929050565b600080600080600080600060a0888a0312156115b957600080fd5b6115c2886113d3565b9650602088013595506115d7604089016113d3565b9450606088013567ffffffffffffffff808211156115f457600080fd5b6116008b838c0161140a565b909650945060808a013591508082111561161957600080fd5b506116268a828b0161140a565b989b979a50959850939692959293505050565b6000806040838503121561164c57600080fd5b611655836113d3565b946020939093013593505050565b8183823760009101908152919050565b60006020828403121561168557600080fd5b5051919050565b7f4e487b7100000000000000000000000000000000000000000000000000000000600052601160045260246000fd5b808201808211156109df576109df61168c565b6000600182016116e0576116e061168c565b5060010190565b6000602082840312156116f957600080fd5b81516106c281611560565b818103818111156109df576109df61168c56fea2646970667358221220e580da837d3b98a544a71dbaaf40b938a1b77e4ea2582361b527068084c3d91c64736f6c63430008110033",
  "linkReferences": {},
  "deployedLinkReferences": {}
}