{
  "_format": "hh-sol-artifact-1",
  "contractName": "GrtPool",
  "sourceName": "contracts/v0.2.0/GrtPool.sol",
  "abi": [
    {
      "anonymous": false,
      "inputs": [
        {
          "indexed": false,
          "internalType": "address",
          "name": "previousAdmin",
          "type": "address"
        },
        {
          "indexed": false,
          "internalType": "address",
          "name": "newAdmin",
          "type": "address"
        }
      ],
      "name": "AdminChanged",
      "type": "event"
    },
    {
      "anonymous": false,
      "inputs": [
        {
          "indexed": true,
          "internalType": "address",
          "name": "beacon",
          "type": "address"
        }
      ],
      "name": "BeaconUpgraded",
      "type": "event"
    },
    {
      "anonymous": false,
      "inputs": [
        {
          "indexed": false,
          "internalType": "uint8",
          "name": "version",
          "type": "uint8"
        }
      ],
      "name": "Initialized",
      "type": "event"
    },
    {
      "anonymous": false,
      "inputs": [
        {
          "indexed": true,
          "internalType": "bytes32",
          "name": "_idOffer",
          "type": "bytes32"
        },
        {
          "indexed": true,
          "internalType": "address",
          "name": "_contractAddress",
          "type": "address"
        },
        {
          "indexed": true,
          "internalType": "address",
          "name": "_token",
          "type": "address"
        },
        {
          "indexed": false,
          "internalType": "uint256",
          "name": "_chainId",
          "type": "uint256"
        }
      ],
      "name": "LogNewOffer",
      "type": "event"
    },
    {
      "anonymous": false,
      "inputs": [
        {
          "indexed": true,
          "internalType": "bytes32",
          "name": "_idOffer",
          "type": "bytes32"
        },
        {
          "indexed": true,
          "internalType": "uint256",
          "name": "_chainId",
          "type": "uint256"
        }
      ],
      "name": "LogSetChainIdOffer",
      "type": "event"
    },
    {
      "anonymous": false,
      "inputs": [
        {
          "indexed": true,
          "internalType": "bytes32",
          "name": "_idOffer",
          "type": "bytes32"
        },
        {
          "indexed": true,
          "internalType": "bytes32",
          "name": "_lowerLimitFn",
          "type": "bytes32"
        }
      ],
      "name": "LogSetLowerLimitOffer",
      "type": "event"
    },
    {
      "anonymous": false,
      "inputs": [
        {
          "indexed": true,
          "internalType": "bytes32",
          "name": "_idOffer",
          "type": "bytes32"
        },
        {
          "indexed": true,
          "internalType": "address",
          "name": "_priceContractAddress",
          "type": "address"
        }
      ],
      "name": "LogSetPriceContractAddressOffer",
      "type": "event"
    },
    {
      "anonymous": false,
      "inputs": [
        {
          "indexed": true,
          "internalType": "bytes32",
          "name": "_idOffer",
          "type": "bytes32"
        },
        {
          "indexed": true,
          "internalType": "bool",
          "name": "_isActive",
          "type": "bool"
        }
      ],
      "name": "LogSetStatusOffer",
      "type": "event"
    },
    {
      "anonymous": false,
      "inputs": [
        {
          "indexed": true,
          "internalType": "bytes32",
          "name": "_idOffer",
          "type": "bytes32"
        },
        {
          "indexed": true,
          "internalType": "address",
          "name": "_token",
          "type": "address"
        }
      ],
      "name": "LogSetTokenOffer",
      "type": "event"
    },
    {
      "anonymous": false,
      "inputs": [
        {
          "indexed": true,
          "internalType": "bytes32",
          "name": "_idOffer",
          "type": "bytes32"
        },
        {
          "indexed": true,
          "internalType": "bytes32",
          "name": "_upperLimitFn",
          "type": "bytes32"
        }
      ],
      "name": "LogSetUpperLimitOffer",
      "type": "event"
    },
    {
      "anonymous": false,
      "inputs": [
        {
          "indexed": true,
          "internalType": "address",
          "name": "_user",
          "type": "address"
        },
        {
          "indexed": true,
          "internalType": "uint256",
          "name": "_chainId",
          "type": "uint256"
        },
        {
          "indexed": true,
          "internalType": "uint256",
          "name": "_amount",
          "type": "uint256"
        }
      ],
      "name": "LogStake",
      "type": "event"
    },
    {
      "anonymous": false,
      "inputs": [
        {
          "indexed": true,
          "internalType": "bytes32",
          "name": "_idTrade",
          "type": "bytes32"
        },
        {
          "indexed": true,
          "internalType": "address",
          "name": "_token",
          "type": "address"
        },
        {
          "indexed": true,
          "internalType": "uint256",
          "name": "_amount",
          "type": "uint256"
        },
        {
          "indexed": false,
          "internalType": "bytes32",
          "name": "_idOffer",
          "type": "bytes32"
        }
      ],
      "name": "LogTrade",
      "type": "event"
    },
    {
      "anonymous": false,
      "inputs": [
        {
          "indexed": true,
          "internalType": "address",
          "name": "_user",
          "type": "address"
        },
        {
          "indexed": true,
          "internalType": "uint256",
          "name": "_chainId",
          "type": "uint256"
        },
        {
          "indexed": true,
          "internalType": "uint256",
          "name": "_amount",
          "type": "uint256"
        }
      ],
      "name": "LogUnStake",
      "type": "event"
    },
    {
      "anonymous": false,
      "inputs": [
        {
          "indexed": true,
          "internalType": "address",
          "name": "previousOwner",
          "type": "address"
        },
        {
          "indexed": true,
          "internalType": "address",
          "name": "newOwner",
          "type": "address"
        }
      ],
      "name": "OwnershipTransferred",
      "type": "event"
    },
    {
      "anonymous": false,
      "inputs": [
        {
          "indexed": true,
          "internalType": "address",
          "name": "implementation",
          "type": "address"
        }
      ],
      "name": "Upgraded",
      "type": "event"
    },
    {
      "inputs": [
        {
          "internalType": "bytes32",
          "name": "idOffer",
          "type": "bytes32"
        },
        {
          "internalType": "address",
          "name": "priceContractAddress",
          "type": "address"
        },
        {
          "internalType": "bytes",
          "name": "args",
          "type": "bytes"
        }
      ],
      "name": "checkParametersLowerLimitOffer",
      "outputs": [
        {
          "internalType": "bool",
          "name": "",
          "type": "bool"
        }
      ],
      "stateMutability": "view",
      "type": "function"
    },
    {
      "inputs": [
        {
          "internalType": "bytes32",
          "name": "idOffer",
          "type": "bytes32"
        },
        {
          "internalType": "address",
          "name": "priceContractAddress",
          "type": "address"
        },
        {
          "internalType": "bytes",
          "name": "args",
          "type": "bytes"
        }
      ],
      "name": "checkParametersUpperLimitOffer",
      "outputs": [
        {
          "internalType": "bool",
          "name": "",
          "type": "bool"
        }
      ],
      "stateMutability": "view",
      "type": "function"
    },
    {
      "inputs": [
        {
          "internalType": "uint256",
          "name": "amntDepGRT",
          "type": "uint256"
        },
        {
          "internalType": "bytes32",
          "name": "idOffer",
          "type": "bytes32"
        },
        {
          "internalType": "address",
          "name": "destAddr",
          "type": "address"
        }
      ],
      "name": "depositGRTWithOffer",
      "outputs": [
        {
          "internalType": "bool",
          "name": "",
          "type": "bool"
        }
      ],
      "stateMutability": "nonpayable",
      "type": "function"
    },
    {
      "inputs": [
        {
          "internalType": "bytes32",
          "name": "idOffer",
          "type": "bytes32"
        }
      ],
      "name": "getAddressPriceContractOffer",
      "outputs": [
        {
          "internalType": "address",
          "name": "",
          "type": "address"
        }
      ],
      "stateMutability": "view",
      "type": "function"
    },
    {
      "inputs": [
        {
          "internalType": "bytes32",
          "name": "idOffer",
          "type": "bytes32"
        }
      ],
      "name": "getChainIdOffer",
      "outputs": [
        {
          "internalType": "uint256",
          "name": "",
          "type": "uint256"
        }
      ],
      "stateMutability": "view",
      "type": "function"
    },
    {
      "inputs": [
        {
          "internalType": "bytes32",
          "name": "idTrade",
          "type": "bytes32"
        }
      ],
      "name": "getDepositAmount",
      "outputs": [
        {
          "internalType": "uint256",
          "name": "",
          "type": "uint256"
        }
      ],
      "stateMutability": "view",
      "type": "function"
    },
    {
      "inputs": [
        {
          "internalType": "bytes32",
          "name": "idTrade",
          "type": "bytes32"
        }
      ],
      "name": "getDepositChainId",
      "outputs": [
        {
          "internalType": "uint256",
          "name": "",
          "type": "uint256"
        }
      ],
      "stateMutability": "view",
      "type": "function"
    },
    {
      "inputs": [
        {
          "internalType": "bytes32",
          "name": "idTrade",
          "type": "bytes32"
        }
      ],
      "name": "getDepositToken",
      "outputs": [
        {
          "internalType": "address",
          "name": "",
          "type": "address"
        }
      ],
      "stateMutability": "view",
      "type": "function"
    },
    {
      "inputs": [],
      "name": "getGrtAddress",
      "outputs": [
        {
          "internalType": "address",
          "name": "",
          "type": "address"
        }
      ],
      "stateMutability": "view",
      "type": "function"
    },
    {
      "inputs": [
        {
          "internalType": "bytes32",
          "name": "idTrade",
          "type": "bytes32"
        }
      ],
      "name": "getIdOffer",
      "outputs": [
        {
          "internalType": "bytes32",
          "name": "",
          "type": "bytes32"
        }
      ],
      "stateMutability": "view",
      "type": "function"
    },
    {
      "inputs": [
        {
          "internalType": "bytes32",
          "name": "idOffer",
          "type": "bytes32"
        }
      ],
      "name": "getLowerLimitFnHashOffer",
      "outputs": [
        {
          "internalType": "bytes32",
          "name": "",
          "type": "bytes32"
        }
      ],
      "stateMutability": "view",
      "type": "function"
    },
    {
      "inputs": [
        {
          "internalType": "bytes32",
          "name": "idOffer",
          "type": "bytes32"
        },
        {
          "internalType": "bytes",
          "name": "fn",
          "type": "bytes"
        }
      ],
      "name": "getLowerPriceLimitFromContract",
      "outputs": [
        {
          "internalType": "uint256",
          "name": "",
          "type": "uint256"
        }
      ],
      "stateMutability": "view",
      "type": "function"
    },
    {
      "inputs": [
        {
          "internalType": "address",
          "name": "user",
          "type": "address"
        }
      ],
      "name": "getNonceDeposit",
      "outputs": [
        {
          "internalType": "uint256",
          "name": "",
          "type": "uint256"
        }
      ],
      "stateMutability": "view",
      "type": "function"
    },
    {
      "inputs": [
        {
          "internalType": "address",
          "name": "user",
          "type": "address"
        }
      ],
      "name": "getNonceOffer",
      "outputs": [
        {
          "internalType": "uint256",
          "name": "",
          "type": "uint256"
        }
      ],
      "stateMutability": "view",
      "type": "function"
    },
    {
      "inputs": [
        {
          "internalType": "bytes32",
          "name": "idOffer",
          "type": "bytes32"
        }
      ],
      "name": "getOfferer",
      "outputs": [
        {
          "internalType": "address",
          "name": "",
          "type": "address"
        }
      ],
      "stateMutability": "view",
      "type": "function"
    },
    {
      "inputs": [
        {
          "internalType": "bytes32",
          "name": "idTrade",
          "type": "bytes32"
        }
      ],
      "name": "getRecipient",
      "outputs": [
        {
          "internalType": "address",
          "name": "",
          "type": "address"
        }
      ],
      "stateMutability": "view",
      "type": "function"
    },
    {
      "inputs": [
        {
          "internalType": "bytes32",
          "name": "idTrade",
          "type": "bytes32"
        }
      ],
      "name": "getRequester",
      "outputs": [
        {
          "internalType": "address",
          "name": "",
          "type": "address"
        }
      ],
      "stateMutability": "view",
      "type": "function"
    },
    {
      "inputs": [
        {
          "internalType": "bytes32",
          "name": "idOffer",
          "type": "bytes32"
        }
      ],
      "name": "getStatusOffer",
      "outputs": [
        {
          "internalType": "bool",
          "name": "",
          "type": "bool"
        }
      ],
      "stateMutability": "view",
      "type": "function"
    },
    {
      "inputs": [
        {
          "internalType": "bytes32",
          "name": "idOffer",
          "type": "bytes32"
        }
      ],
      "name": "getTokenOffer",
      "outputs": [
        {
          "internalType": "address",
          "name": "",
          "type": "address"
        }
      ],
      "stateMutability": "view",
      "type": "function"
    },
    {
      "inputs": [
        {
          "internalType": "bytes32",
          "name": "idOffer",
          "type": "bytes32"
        }
      ],
      "name": "getUpperLimitFnHashOffer",
      "outputs": [
        {
          "internalType": "bytes32",
          "name": "",
          "type": "bytes32"
        }
      ],
      "stateMutability": "view",
      "type": "function"
    },
    {
      "inputs": [
        {
          "internalType": "bytes32",
          "name": "idOffer",
          "type": "bytes32"
        },
        {
          "internalType": "bytes",
          "name": "fn",
          "type": "bytes"
        }
      ],
      "name": "getUpperPriceLimitFromContract",
      "outputs": [
        {
          "internalType": "uint256",
          "name": "",
          "type": "uint256"
        }
      ],
      "stateMutability": "view",
      "type": "function"
    },
    {
      "inputs": [
        {
          "internalType": "address",
          "name": "addrGRT",
          "type": "address"
        }
      ],
      "name": "initializePool",
      "outputs": [],
      "stateMutability": "nonpayable",
      "type": "function"
    },
    {
      "inputs": [],
      "name": "owner",
      "outputs": [
        {
          "internalType": "address",
          "name": "",
          "type": "address"
        }
      ],
      "stateMutability": "view",
      "type": "function"
    },
    {
      "inputs": [],
      "name": "proxiableUUID",
      "outputs": [
        {
          "internalType": "bytes32",
          "name": "",
          "type": "bytes32"
        }
      ],
      "stateMutability": "view",
      "type": "function"
    },
    {
      "inputs": [],
      "name": "renounceOwnership",
      "outputs": [],
      "stateMutability": "nonpayable",
      "type": "function"
    },
    {
      "inputs": [
        {
          "internalType": "bytes32",
          "name": "idOffer",
          "type": "bytes32"
        },
        {
          "internalType": "uint256",
          "name": "chainId",
          "type": "uint256"
        }
      ],
      "name": "setChainIdOffer",
      "outputs": [],
      "stateMutability": "nonpayable",
      "type": "function"
    },
    {
      "inputs": [
        {
          "internalType": "address",
          "name": "grt",
          "type": "address"
        }
      ],
      "name": "setGrtAddress",
      "outputs": [],
      "stateMutability": "nonpayable",
      "type": "function"
    },
    {
      "inputs": [
        {
          "internalType": "bytes32",
          "name": "idOffer",
          "type": "bytes32"
        },
        {
          "internalType": "bool",
          "name": "isActive",
          "type": "bool"
        }
      ],
      "name": "setIsActive",
      "outputs": [],
      "stateMutability": "nonpayable",
      "type": "function"
    },
    {
      "inputs": [
        {
          "internalType": "bytes32",
          "name": "idOffer",
          "type": "bytes32"
        },
        {
          "internalType": "bytes",
          "name": "args",
          "type": "bytes"
        }
      ],
      "name": "setLowerLimitOffer",
      "outputs": [],
      "stateMutability": "nonpayable",
      "type": "function"
    },
    {
      "inputs": [
        {
          "internalType": "address",
          "name": "token",
          "type": "address"
        },
        {
          "internalType": "uint256",
          "name": "chainId",
          "type": "uint256"
        },
        {
          "internalType": "address",
          "name": "priceContractAddress",
          "type": "address"
        },
        {
          "internalType": "bytes",
          "name": "upperLimitFn",
          "type": "bytes"
        },
        {
          "internalType": "bytes",
          "name": "lowerLimitFn",
          "type": "bytes"
        }
      ],
      "name": "setOffer",
      "outputs": [
        {
          "internalType": "bytes32",
          "name": "",
          "type": "bytes32"
        }
      ],
      "stateMutability": "nonpayable",
      "type": "function"
    },
    {
      "inputs": [
        {
          "internalType": "bytes32",
          "name": "idOffer",
          "type": "bytes32"
        },
        {
          "internalType": "address",
          "name": "priceContractAddress",
          "type": "address"
        }
      ],
      "name": "setPriceContractAddressOffer",
      "outputs": [],
      "stateMutability": "nonpayable",
      "type": "function"
    },
    {
      "inputs": [
        {
          "internalType": "bytes32",
          "name": "idOffer",
          "type": "bytes32"
        },
        {
          "internalType": "address",
          "name": "token",
          "type": "address"
        }
      ],
      "name": "setTokenOffer",
      "outputs": [],
      "stateMutability": "nonpayable",
      "type": "function"
    },
    {
      "inputs": [
        {
          "internalType": "bytes32",
          "name": "idOffer",
          "type": "bytes32"
        },
        {
          "internalType": "bytes",
          "name": "args",
          "type": "bytes"
        }
      ],
      "name": "setUpperLimitOffer",
      "outputs": [],
      "stateMutability": "nonpayable",
      "type": "function"
    },
    {
      "inputs": [
        {
          "internalType": "uint256",
          "name": "amount",
          "type": "uint256"
        },
        {
          "internalType": "uint256",
          "name": "chainId",
          "type": "uint256"
        }
      ],
      "name": "stakeGRT",
      "outputs": [
        {
          "internalType": "bool",
          "name": "",
          "type": "bool"
        }
      ],
      "stateMutability": "nonpayable",
      "type": "function"
    },
    {
      "inputs": [
        {
          "internalType": "address",
          "name": "account",
          "type": "address"
        },
        {
          "internalType": "uint256",
          "name": "chainId",
          "type": "uint256"
        }
      ],
      "name": "stakeOf",
      "outputs": [
        {
          "internalType": "uint256",
          "name": "",
          "type": "uint256"
        }
      ],
      "stateMutability": "view",
      "type": "function"
    },
    {
      "inputs": [
        {
          "internalType": "address",
          "name": "newOwner",
          "type": "address"
        }
      ],
      "name": "transferOwnership",
      "outputs": [],
      "stateMutability": "nonpayable",
      "type": "function"
    },
    {
      "inputs": [
        {
          "internalType": "uint256",
          "name": "amount",
          "type": "uint256"
        },
        {
          "internalType": "uint256",
          "name": "chainId",
          "type": "uint256"
        }
      ],
      "name": "unstakeGRT",
      "outputs": [
        {
          "internalType": "bool",
          "name": "",
          "type": "bool"
        }
      ],
      "stateMutability": "nonpayable",
      "type": "function"
    },
    {
      "inputs": [
        {
          "internalType": "address",
          "name": "newImplementation",
          "type": "address"
        }
      ],
      "name": "upgradeTo",
      "outputs": [],
      "stateMutability": "nonpayable",
      "type": "function"
    },
    {
      "inputs": [
        {
          "internalType": "address",
          "name": "newImplementation",
          "type": "address"
        },
        {
          "internalType": "bytes",
          "name": "data",
          "type": "bytes"
        }
      ],
      "name": "upgradeToAndCall",
      "outputs": [],
      "stateMutability": "payable",
      "type": "function"
    }
  ],
  "bytecode": "0x60a06040523060805234801561001457600080fd5b50608051612ae861005a60003960008181610cfd01528181610d820152818161117f01528181611204015281816112ea01528181611e6c0152611ef10152612ae86000f3fe6080604052600436106102a05760003560e01c8063716752fa1161016e578063ba83b6a7116100cb578063e956eb8a1161007f578063f2fde38b11610064578063f2fde38b14610862578063fb3bf1aa14610882578063fbc6da75146108b857600080fd5b8063e956eb8a146107ef578063ed87169c1461081f57600080fd5b8063d4a4429a116100b0578063d4a4429a14610768578063d6aaa7c814610798578063df267e53146107b857600080fd5b8063ba83b6a714610728578063c84bebef1461074857600080fd5b80639f9f993811610122578063ab805d5811610107578063ab805d5814610680578063b4bed2c9146106b6578063b5ad37a6146106ef57600080fd5b80639f9f993814610630578063a1c59cef1461065057600080fd5b80638b2bcd7e116101535780638b2bcd7e146105d25780638da5cb5b146105f25780639ef630231461061057600080fd5b8063716752fa1461058457806375012c8b146105a257600080fd5b8063407431f71161021c57806352d1902d116101d057806360d395a4116101b557806360d395a41461052f57806370d9b55e1461054f578063715018a61461056f57600080fd5b806352d1902d146104e457806358381bbd146104f957600080fd5b80634516010f116102015780634516010f1461046057806346cfbb90146104b15780634f1ef286146104d157600080fd5b8063407431f71461041057806341e73f031461043057600080fd5b806312355ee5116102735780632c3daef6116102585780632c3daef6146103a05780633659cfe6146103d05780633ed2212c146103f057600080fd5b806312355ee51461035057806329f85f211461037057600080fd5b8063039c70d7146102a55780630a0ef56d146102ee5780630b6453d71461030e5780630e746d6b14610330575b600080fd5b3480156102b157600080fd5b506102db6102c03660046125fc565b6001600160a01b031660009081526068602052604090205490565b6040519081526020015b60405180910390f35b3480156102fa57600080fd5b506102db610309366004612660565b6108f1565b34801561031a57600080fd5b5061032e6103293660046126ac565b610b23565b005b34801561033c57600080fd5b5061032e61034b3660046125fc565b610bf6565b34801561035c57600080fd5b5061032e61036b3660046126ac565b610c20565b34801561037c57600080fd5b506102db61038b3660046126d8565b600090815260cd602052604090206005015490565b3480156103ac57600080fd5b506102db6103bb3660046126d8565b600090815260cd602052604090206003015490565b3480156103dc57600080fd5b5061032e6103eb3660046125fc565b610cf3565b3480156103fc57600080fd5b5061032e61040b366004612660565b610e6e565b34801561041c57600080fd5b5061032e61042b3660046125fc565b610f55565b34801561043c57600080fd5b5061045061044b3660046126f1565b611091565b60405190151581526020016102e5565b34801561046c57600080fd5b5061049961047b3660046126d8565b6000908152606760205260409020600201546001600160a01b031690565b6040516001600160a01b0390911681526020016102e5565b3480156104bd57600080fd5b506104506104cc366004612713565b611106565b61032e6104df366004612783565b611175565b3480156104f057600080fd5b506102db6112dd565b34801561050557600080fd5b506104996105143660046126d8565b600090815260cd60205260409020546001600160a01b031690565b34801561053b57600080fd5b5061032e61054a3660046126f1565b6113a2565b34801561055b57600080fd5b5061032e61056a366004612853565b61145b565b34801561057b57600080fd5b5061032e61152a565b34801561059057600080fd5b506000546001600160a01b0316610499565b3480156105ae57600080fd5b506102db6105bd3660046126d8565b60009081526067602052604090206001015490565b3480156105de57600080fd5b506102db6105ed366004612883565b61153e565b3480156105fe57600080fd5b506035546001600160a01b0316610499565b34801561061c57600080fd5b506102db61062b366004612660565b6117fe565b34801561063c57600080fd5b5061032e61064b366004612660565b6118d7565b34801561065c57600080fd5b506102db61066b3660046126d8565b60009081526067602052604090206004015490565b34801561068c57600080fd5b5061049961069b3660046126d8565b6000908152606760205260409020546001600160a01b031690565b3480156106c257600080fd5b506104996106d13660046126d8565b600090815260cd60205260409020600201546001600160a01b031690565b3480156106fb57600080fd5b5061049961070a3660046126d8565b6000908152606760205260409020600301546001600160a01b031690565b34801561073457600080fd5b50610450610743366004612713565b6119be565b34801561075457600080fd5b5061045061076336600461291e565b6119e5565b34801561077457600080fd5b506102db6107833660046126d8565b600090815260cd602052604090206004015490565b3480156107a457600080fd5b506104506107b33660046126f1565b611c22565b3480156107c457600080fd5b506104506107d33660046126d8565b600090815260676020526040902054600160a01b900460ff1690565b3480156107fb57600080fd5b506102db61080a3660046126d8565b60009081526067602052604090206005015490565b34801561082b57600080fd5b506102db61083a366004612953565b6001600160a01b03919091166000908152600160209081526040808320938352929052205490565b34801561086e57600080fd5b5061032e61087d3660046125fc565b611d73565b34801561088e57600080fd5b506102db61089d3660046125fc565b6001600160a01b0316600090815260ce602052604090205490565b3480156108c457600080fd5b506104996108d33660046126d8565b600090815260cd60205260409020600101546001600160a01b031690565b6000838152606760205260408120600301546001600160a01b03166109a95760405162461bcd60e51b815260206004820152605060248201527f475254206f66666572733a206e6f7420616c6c6f77656420746f206d6f64696660448201527f7920746865207072696365206c696d69742076696120616e2065787465726e6160648201527f6c20736d61727420636f6e747261637400000000000000000000000000000000608482015260a4015b60405180910390fd5b6000848152606760209081526040918290206004015491516109cf91869186910161297d565b6040516020818303038152906040528051906020012014610a7f5760405162461bcd60e51b8152602060048201526044602482018190527f475254206f66666572733a207468652066756e6374696f6e20646f6573206e6f908201527f74206d6174636820746865206f6e6520656e746572656420696e20746865206f60648201527f6666657200000000000000000000000000000000000000000000000000000000608482015260a4016109a0565b60008481526067602052604080822060030154905182916001600160a01b031690610aad908790879061297d565b600060405180830381855afa9150503d8060008114610ae8576040519150601f19603f3d011682016040523d82523d6000602084013e610aed565b606091505b50915091508115610b155780806020019051810190610b0c919061298d565b92505050610b1c565b6000925050505b9392505050565b6000828152606760205260409020546001600160a01b03163314610b9a5760405162461bcd60e51b815260206004820152602860248201527f796f7520617265206e6f7420616c6c6f77656420746f206d6f6469667920746860448201526734b99037b33332b960c11b60648201526084016109a0565b60008281526067602052604080822060030180546001600160a01b0319166001600160a01b0385169081179091559051909184917f1b9884e19a384dde26a783c44d6539de8e750ad23feb4cd3a08be38eba464cf09190a35050565b610bfe611e00565b600080546001600160a01b0319166001600160a01b0392909216919091179055565b6000828152606760205260409020546001600160a01b03163314610c975760405162461bcd60e51b815260206004820152602860248201527f796f7520617265206e6f7420616c6c6f77656420746f206d6f6469667920746860448201526734b99037b33332b960c11b60648201526084016109a0565b60008281526067602052604080822060020180546001600160a01b0319166001600160a01b0385169081179091559051909184917f863e7b561a66d01bc9cd4a4588a1161b382b020ffb674dc521b9e01c6adb12159190a35050565b6001600160a01b037f0000000000000000000000000000000000000000000000000000000000000000163003610d805760405162461bcd60e51b815260206004820152602c60248201527f46756e6374696f6e206d7573742062652063616c6c6564207468726f7567682060448201526b19195b1959d85d1958d85b1b60a21b60648201526084016109a0565b7f00000000000000000000000000000000000000000000000000000000000000006001600160a01b0316610ddb7f360894a13ba1a3210667c828492db98dca3e2076cc3735a920a3ca505d382bbc546001600160a01b031690565b6001600160a01b031614610e465760405162461bcd60e51b815260206004820152602c60248201527f46756e6374696f6e206d7573742062652063616c6c6564207468726f7567682060448201526b6163746976652070726f787960a01b60648201526084016109a0565b610e4f81611e5a565b60408051600080825260208201909252610e6b91839190611fb5565b50565b6000838152606760205260409020546001600160a01b03163314610ee55760405162461bcd60e51b815260206004820152602860248201527f796f7520617265206e6f7420616c6c6f77656420746f206d6f6469667920746860448201526734b99037b33332b960c11b60648201526084016109a0565b60008282604051602001610efa92919061297d565b60408051601f19818403018152828252805160209182012060008881526067909252918120600501829055909250829186917f38739e26d1f9c6ea0fc7562e5bc323fab0e7d8f6550d1c715fe19cfe980c755d91a350505050565b600254610100900460ff1615808015610f755750600254600160ff909116105b80610f8f5750303b158015610f8f575060025460ff166001145b6110015760405162461bcd60e51b815260206004820152602e60248201527f496e697469616c697a61626c653a20636f6e747261637420697320616c72656160448201527f647920696e697469616c697a656400000000000000000000000000000000000060648201526084016109a0565b6002805460ff191660011790558015611024576002805461ff0019166101001790555b61102c61215a565b600080546001600160a01b0319166001600160a01b038416179055801561108d576002805461ff0019169055604051600181527f7f26b83ff96e1f2b6a682f133852f6798a09c465da95921460cefb38474024989060200160405180910390a15b5050565b600061109c836121cd565b506040518390839033907fa0d1fa51224fb08c7c0b48d481448ad6a31c945d1a68cac8758cac3a92d5001c90600090a4336000908152600160209081526040808320858452909152812080548592906110f69084906129bc565b9091555060019150505b92915050565b6000848152606760209081526040808320600501549051909161112d91869186910161297d565b6040516020818303038152906040528051906020012014801561116c57506000858152606760205260409020600301546001600160a01b038581169116145b95945050505050565b6001600160a01b037f00000000000000000000000000000000000000000000000000000000000000001630036112025760405162461bcd60e51b815260206004820152602c60248201527f46756e6374696f6e206d7573742062652063616c6c6564207468726f7567682060448201526b19195b1959d85d1958d85b1b60a21b60648201526084016109a0565b7f00000000000000000000000000000000000000000000000000000000000000006001600160a01b031661125d7f360894a13ba1a3210667c828492db98dca3e2076cc3735a920a3ca505d382bbc546001600160a01b031690565b6001600160a01b0316146112c85760405162461bcd60e51b815260206004820152602c60248201527f46756e6374696f6e206d7573742062652063616c6c6564207468726f7567682060448201526b6163746976652070726f787960a01b60648201526084016109a0565b6112d182611e5a565b61108d82826001611fb5565b6000306001600160a01b037f0000000000000000000000000000000000000000000000000000000000000000161461137d5760405162461bcd60e51b815260206004820152603860248201527f555550535570677261646561626c653a206d757374206e6f742062652063616c60448201527f6c6564207468726f7567682064656c656761746563616c6c000000000000000060648201526084016109a0565b507f360894a13ba1a3210667c828492db98dca3e2076cc3735a920a3ca505d382bbc90565b6000828152606760205260409020546001600160a01b031633146114195760405162461bcd60e51b815260206004820152602860248201527f796f7520617265206e6f7420616c6c6f77656420746f206d6f6469667920746860448201526734b99037b33332b960c11b60648201526084016109a0565b60008281526067602052604080822060010183905551829184917f7bafa37fce79b60ee3ed158b37be29d9cc0e9d20c0998ec8bc0185ffa130c86c9190a35050565b6000828152606760205260409020546001600160a01b031633146114d25760405162461bcd60e51b815260206004820152602860248201527f796f7520617265206e6f7420616c6c6f77656420746f206d6f6469667920746860448201526734b99037b33332b960c11b60648201526084016109a0565b600082815260676020526040808220805460ff60a01b1916600160a01b851515908102919091179091559051909184917f07e5ac9cec280f0c854fc08fad45e62683275f1d00f6de72f9798fe680c006d09190a35050565b611532611e00565b61153c6000612262565b565b6000336115b35760405162461bcd60e51b815260206004820152602960248201527f7365744f666665722066726f6d207a65726f2061646472657373206973206e6f60448201527f7420616c6c6f776564000000000000000000000000000000000000000000000060648201526084016109a0565b3360009081526001602081815260408084208b855290915290912054116116425760405162461bcd60e51b815260206004820152602860248201527f4e6f7420656e6f756768207374616b65642047525420746f207365742075702060448201527f616e206f6666657200000000000000000000000000000000000000000000000060648201526084016109a0565b33600081815260686020908152604080832054905192936116829390920160609290921b6bffffffffffffffffffffffff19168252601482015260340190565b60408051601f19818403018152828252805160209182012060008181526067835292909220805460ff60a01b1933167fffffffffffffffffffffff00000000000000000000000000000000000000000090911617600160a01b178155600181018c90556002810180546001600160a01b038f81166001600160a01b03199283161790925560039092018054918d169190921617905590925061172891869186910161297d565b60408051601f198184030181528282528051602091820120600085815260678352929092206005019190915561176291889188910161297d565b60408051601f1981840301815282825280516020918201206000858152606783528390206004810191909155600301548b845291516001600160a01b038d81169493169285927f90d1517eab8d1d52082251d5392431a6bf50b65d94217ad0a4bd02b15072445c92918290030190a43360009081526068602052604081208054916117ec836129cf565b90915550909998505050505050505050565b6000838152606760205260408120600301546001600160a01b03166118b15760405162461bcd60e51b815260206004820152605060248201527f475254206f66666572733a206e6f7420616c6c6f77656420746f206d6f64696660448201527f7920746865207072696365206c696d69742076696120616e2065787465726e6160648201527f6c20736d61727420636f6e747261637400000000000000000000000000000000608482015260a4016109a0565b6000848152606760209081526040918290206005015491516109cf91869186910161297d565b6000838152606760205260409020546001600160a01b0316331461194e5760405162461bcd60e51b815260206004820152602860248201527f796f7520617265206e6f7420616c6c6f77656420746f206d6f6469667920746860448201526734b99037b33332b960c11b60648201526084016109a0565b6000828260405160200161196392919061297d565b60408051601f19818403018152828252805160209182012060008881526067909252918120600401829055909250829186917f52d20c49b34922635a66f77e4252841e4d4c04d71c8115ece85d45384eb156d791a350505050565b6000848152606760209081526040808320600401549051909161112d91869186910161297d565b60006001600160a01b038216611a635760405162461bcd60e51b815260206004820152602360248201527f7a65726f20616464726573732061732064657374696e6174696f6e206164647260448201527f657373000000000000000000000000000000000000000000000000000000000060648201526084016109a0565b600083815260676020526040902054600160a01b900460ff16611ac85760405162461bcd60e51b815260206004820152601560248201527f746865206f6666657220697320696e616374697665000000000000000000000060448201526064016109a0565b611ad1846121cd565b5033600081815260ce602090815260408083205490519293611b129390920160609290921b6bffffffffffffffffffffffff19168252601482015260340190565b60408051601f1981840301815290829052805160209182012060005487845290935087926001600160a01b039091169184917fa8878f47c572f18982a9bfa10b8ba2ff221361c1abf2b4c47c9d6360accb5cea910160405180910390a4600081815260cd6020526040812080546001600160a01b0319908116331782556001820180546001600160a01b038881169190931617905591549091611bb7911687466122b4565b80516002830180546001600160a01b0319166001600160a01b03909216919091179055602080820151600384015560409182015160048401556005830187905533600090815260ce909152908120805491611c11836129cf565b909155506001979650505050505050565b3360009081526001602090815260408083208484529091528120548310611c8b5760405162461bcd60e51b815260206004820152601560248201527f6e6f7420656e6f756768207374616b656420475254000000000000000000000060448201526064016109a0565b6000546040517fa9059cbb000000000000000000000000000000000000000000000000000000008152336004820152602481018590526001600160a01b039091169063a9059cbb906044016020604051808303816000875af1158015611cf5573d6000803e3d6000fd5b505050506040513d601f19601f82011682018060405250810190611d1991906129e8565b506040518390839033907f4cc6b0a598f3fcb366982c9b05e557bcf6fab3db9f1ff63aee54c3b362524c1890600090a4336000908152600160209081526040808320858452909152812080548592906110f6908490612a05565b611d7b611e00565b6001600160a01b038116611df75760405162461bcd60e51b815260206004820152602660248201527f4f776e61626c653a206e6577206f776e657220697320746865207a65726f206160448201527f646472657373000000000000000000000000000000000000000000000000000060648201526084016109a0565b610e6b81612262565b6035546001600160a01b0316331461153c5760405162461bcd60e51b815260206004820181905260248201527f4f776e61626c653a2063616c6c6572206973206e6f7420746865206f776e657260448201526064016109a0565b611e62611e00565b6001600160a01b037f0000000000000000000000000000000000000000000000000000000000000000163003611eef5760405162461bcd60e51b815260206004820152602c60248201527f46756e6374696f6e206d7573742062652063616c6c6564207468726f7567682060448201526b19195b1959d85d1958d85b1b60a21b60648201526084016109a0565b7f00000000000000000000000000000000000000000000000000000000000000006001600160a01b0316611f4a7f360894a13ba1a3210667c828492db98dca3e2076cc3735a920a3ca505d382bbc546001600160a01b031690565b6001600160a01b031614610e6b5760405162461bcd60e51b815260206004820152602c60248201527f46756e6374696f6e206d7573742062652063616c6c6564207468726f7567682060448201526b6163746976652070726f787960a01b60648201526084016109a0565b7f4910fdfa16fed3260ed0e7147f7cc6da11a60208b5b9406d12a635614ffd91435460ff1615611fed57611fe883612308565b505050565b826001600160a01b03166352d1902d6040518163ffffffff1660e01b8152600401602060405180830381865afa925050508015612047575060408051601f3d908101601f191682019092526120449181019061298d565b60015b6120b95760405162461bcd60e51b815260206004820152602e60248201527f45524331393637557067726164653a206e657720696d706c656d656e7461746960448201527f6f6e206973206e6f74205555505300000000000000000000000000000000000060648201526084016109a0565b7f360894a13ba1a3210667c828492db98dca3e2076cc3735a920a3ca505d382bbc811461214e5760405162461bcd60e51b815260206004820152602960248201527f45524331393637557067726164653a20756e737570706f727465642070726f7860448201527f6961626c6555554944000000000000000000000000000000000000000000000060648201526084016109a0565b50611fe88383836123c6565b600254610100900460ff166121c55760405162461bcd60e51b815260206004820152602b60248201527f496e697469616c697a61626c653a20636f6e7472616374206973206e6f74206960448201526a6e697469616c697a696e6760a81b60648201526084016109a0565b61153c6123f1565b600080546040517f23b872dd000000000000000000000000000000000000000000000000000000008152336004820152306024820152604481018490526001600160a01b03909116906323b872dd906064016020604051808303816000875af115801561223e573d6000803e3d6000fd5b505050506040513d601f19601f8201168201806040525081019061110091906129e8565b603580546001600160a01b038381166001600160a01b0319831681179093556040519116919082907f8be0079c531659141344cd1fd0a4f28419497f9722a3daafe3b4186f6b6457e090600090a35050565b6122e1604051806060016040528060006001600160a01b0316815260200160008152602001600081525090565b50604080516060810182526001600160a01b03909416845260208401929092529082015290565b6001600160a01b0381163b6123855760405162461bcd60e51b815260206004820152602d60248201527f455243313936373a206e657720696d706c656d656e746174696f6e206973206e60448201527f6f74206120636f6e74726163740000000000000000000000000000000000000060648201526084016109a0565b7f360894a13ba1a3210667c828492db98dca3e2076cc3735a920a3ca505d382bbc80546001600160a01b0319166001600160a01b0392909216919091179055565b6123cf83612465565b6000825111806123dc5750805b15611fe8576123eb83836124a5565b50505050565b600254610100900460ff1661245c5760405162461bcd60e51b815260206004820152602b60248201527f496e697469616c697a61626c653a20636f6e7472616374206973206e6f74206960448201526a6e697469616c697a696e6760a81b60648201526084016109a0565b61153c33612262565b61246e81612308565b6040516001600160a01b038216907fbc7cd75a20ee27fd9adebab32041f755214dbc6bffa90cc0225b39da2e5c2d3b90600090a250565b60606001600160a01b0383163b6125245760405162461bcd60e51b815260206004820152602660248201527f416464726573733a2064656c65676174652063616c6c20746f206e6f6e2d636f60448201527f6e7472616374000000000000000000000000000000000000000000000000000060648201526084016109a0565b600080846001600160a01b03168460405161253f9190612a3c565b600060405180830381855af49150503d806000811461257a576040519150601f19603f3d011682016040523d82523d6000602084013e61257f565b606091505b509150915061116c8282604051806060016040528060278152602001612a8c60279139606083156125b1575081610b1c565b610b1c83838151156125c65781518083602001fd5b8060405162461bcd60e51b81526004016109a09190612a58565b80356001600160a01b03811681146125f757600080fd5b919050565b60006020828403121561260e57600080fd5b610b1c826125e0565b60008083601f84011261262957600080fd5b50813567ffffffffffffffff81111561264157600080fd5b60208301915083602082850101111561265957600080fd5b9250929050565b60008060006040848603121561267557600080fd5b83359250602084013567ffffffffffffffff81111561269357600080fd5b61269f86828701612617565b9497909650939450505050565b600080604083850312156126bf57600080fd5b823591506126cf602084016125e0565b90509250929050565b6000602082840312156126ea57600080fd5b5035919050565b6000806040838503121561270457600080fd5b50508035926020909101359150565b6000806000806060858703121561272957600080fd5b84359350612739602086016125e0565b9250604085013567ffffffffffffffff81111561275557600080fd5b61276187828801612617565b95989497509550505050565b634e487b7160e01b600052604160045260246000fd5b6000806040838503121561279657600080fd5b61279f836125e0565b9150602083013567ffffffffffffffff808211156127bc57600080fd5b818501915085601f8301126127d057600080fd5b8135818111156127e2576127e261276d565b604051601f8201601f19908116603f0116810190838211818310171561280a5761280a61276d565b8160405282815288602084870101111561282357600080fd5b8260208601602083013760006020848301015280955050505050509250929050565b8015158114610e6b57600080fd5b6000806040838503121561286657600080fd5b82359150602083013561287881612845565b809150509250929050565b600080600080600080600060a0888a03121561289e57600080fd5b6128a7886125e0565b9650602088013595506128bc604089016125e0565b9450606088013567ffffffffffffffff808211156128d957600080fd5b6128e58b838c01612617565b909650945060808a01359150808211156128fe57600080fd5b5061290b8a828b01612617565b989b979a50959850939692959293505050565b60008060006060848603121561293357600080fd5b833592506020840135915061294a604085016125e0565b90509250925092565b6000806040838503121561296657600080fd5b61296f836125e0565b946020939093013593505050565b8183823760009101908152919050565b60006020828403121561299f57600080fd5b5051919050565b634e487b7160e01b600052601160045260246000fd5b80820180821115611100576111006129a6565b6000600182016129e1576129e16129a6565b5060010190565b6000602082840312156129fa57600080fd5b8151610b1c81612845565b81810381811115611100576111006129a6565b60005b83811015612a33578181015183820152602001612a1b565b50506000910152565b60008251612a4e818460208701612a18565b9190910192915050565b6020815260008251806020840152612a77816040850160208701612a18565b601f01601f1916919091016040019291505056fe416464726573733a206c6f772d6c6576656c2064656c65676174652063616c6c206661696c6564a26469706673582212208b7f9d36e2f059b36613b6a33dc796cd3a309e0fef1b22bce47176a8fed18f7a64736f6c63430008110033",
  "linkReferences": {},
  "deployedLinkReferences": {}
}