{
  "_format": "hh-sol-artifact-1",
  "contractName": "GrtDeployAASC",
  "sourceName": "contracts/v0.2.0/GrtDeployAASC.sol",
  "abi": [
    {
      "inputs": [],
      "name": "deployAASC",
      "outputs": [
        {
          "internalType": "bool",
          "name": "",
          "type": "bool"
        }
      ],
      "stateMutability": "nonpayable",
      "type": "function"
    }
  ],
  "bytecode": "0x6080604052348015600f57600080fd5b50607780601d6000396000f3fe6080604052348015600f57600080fd5b506004361060285760003560e01c80631f765f4214602d575b600080fd5b604080516001815290519081900360200190f3fea2646970667358221220cc52ad6faac23cac3c3b944ed8bb5d92d64efe6d8f4cf386b8d64fe77aec0a9664736f6c63430008110033",
  "linkReferences": {},
  "deployedLinkReferences": {}
}