{
  "_format": "hh-sol-artifact-1",
  "contractName": "BalanceHolder",
  "sourceName": "contracts/reality/BalanceHolder.sol",
  "abi": [
    {
      "anonymous": false,
      "inputs": [
        {
          "indexed": true,
          "internalType": "address",
          "name": "user",
          "type": "address"
        },
        {
          "indexed": false,
          "internalType": "uint256",
          "name": "amount",
          "type": "uint256"
        }
      ],
      "name": "LogWithdraw",
      "type": "event"
    },
    {
      "inputs": [
        {
          "internalType": "address",
          "name": "",
          "type": "address"
        }
      ],
      "name": "balanceOf",
      "outputs": [
        {
          "internalType": "uint256",
          "name": "",
          "type": "uint256"
        }
      ],
      "stateMutability": "view",
      "type": "function"
    },
    {
      "inputs": [],
      "name": "withdraw",
      "outputs": [],
      "stateMutability": "nonpayable",
      "type": "function"
    }
  ],
  "bytecode": "0x608060405234801561001057600080fd5b50610164806100206000396000f3fe608060405234801561001057600080fd5b50600436106100365760003560e01c80633ccfd60b1461003b57806370a0823114610045575b600080fd5b610043610077565b005b6100656100533660046100f1565b60006020819052908152604090205481565b60405190815260200160405180910390f35b33600081815260208190526040808220805490839055905190929183156108fc02918491818181858888f193505050501580156100b8573d6000803e3d6000fd5b5060405181815233907f4ce7033d118120e254016dccf195288400b28fc8936425acd5f17ce2df3ab7089060200160405180910390a250565b60006020828403121561010357600080fd5b813573ffffffffffffffffffffffffffffffffffffffff8116811461012757600080fd5b939250505056fea26469706673582212201bad8b86474b3f843f40b092b359c7fc49bc3bc0b1a1d2905246791235e2b98e64736f6c63430008110033",
  "linkReferences": {},
  "deployedLinkReferences": {}
}