{
  "_format": "hh-sol-artifact-1",
  "contractName": "GrtPool",
  "sourceName": "contracts/v0.2.0/GrtPool.sol",
  "abi": [
    {
      "anonymous": false,
      "inputs": [
        {
          "indexed": false,
          "internalType": "uint8",
          "name": "version",
          "type": "uint8"
        }
      ],
      "name": "Initialized",
      "type": "event"
    },
    {
      "anonymous": false,
      "inputs": [
        {
          "indexed": true,
          "internalType": "bytes32",
          "name": "_idRequest",
          "type": "bytes32"
        },
        {
          "indexed": true,
          "internalType": "address",
          "name": "_token",
          "type": "address"
        },
        {
          "indexed": true,
          "internalType": "uint256",
          "name": "_amount",
          "type": "uint256"
        },
        {
          "indexed": false,
          "internalType": "uint256",
          "name": "_chainId",
          "type": "uint256"
        }
      ],
      "name": "LogDeposit",
      "type": "event"
    },
    {
      "anonymous": false,
      "inputs": [
        {
          "indexed": true,
          "internalType": "bytes32",
          "name": "_idRequest",
          "type": "bytes32"
        },
        {
          "indexed": true,
          "internalType": "bytes32",
          "name": "_idOffer",
          "type": "bytes32"
        }
      ],
      "name": "LogOfferPaid",
      "type": "event"
    },
    {
      "anonymous": false,
      "inputs": [
        {
          "indexed": true,
          "internalType": "bytes32",
          "name": "_idRequest",
          "type": "bytes32"
        },
        {
          "indexed": true,
          "internalType": "address",
          "name": "_token",
          "type": "address"
        },
        {
          "indexed": true,
          "internalType": "uint256",
          "name": "_amount",
          "type": "uint256"
        },
        {
          "indexed": false,
          "internalType": "uint256",
          "name": "_chainId",
          "type": "uint256"
        }
      ],
      "name": "LogRequest",
      "type": "event"
    },
    {
      "anonymous": false,
      "inputs": [
        {
          "indexed": true,
          "internalType": "address",
          "name": "_user",
          "type": "address"
        },
        {
          "indexed": true,
          "internalType": "uint256",
          "name": "_amount",
          "type": "uint256"
        }
      ],
      "name": "LogStake",
      "type": "event"
    },
    {
      "anonymous": false,
      "inputs": [
        {
          "indexed": true,
          "internalType": "address",
          "name": "previousOwner",
          "type": "address"
        },
        {
          "indexed": true,
          "internalType": "address",
          "name": "newOwner",
          "type": "address"
        }
      ],
      "name": "OwnershipTransferred",
      "type": "event"
    },
    {
      "inputs": [
        {
          "internalType": "bytes32",
          "name": "idRequest",
          "type": "bytes32"
        },
        {
          "internalType": "bytes32",
          "name": "idOffer",
          "type": "bytes32"
        }
      ],
      "name": "claimGRTWithoutDispute",
      "outputs": [
        {
          "internalType": "bool",
          "name": "",
          "type": "bool"
        }
      ],
      "stateMutability": "nonpayable",
      "type": "function"
    },
    {
      "inputs": [
        {
          "internalType": "uint256",
          "name": "amntDepGRT",
          "type": "uint256"
        },
        {
          "internalType": "address",
          "name": "userOffer",
          "type": "address"
        },
        {
          "internalType": "address",
          "name": "tokenOffer",
          "type": "address"
        },
        {
          "internalType": "uint256",
          "name": "amountOffer",
          "type": "uint256"
        },
        {
          "internalType": "uint256",
          "name": "chainIdOffer",
          "type": "uint256"
        },
        {
          "internalType": "bytes32",
          "name": "idOffer",
          "type": "bytes32"
        },
        {
          "internalType": "address",
          "name": "destAddr",
          "type": "address"
        }
      ],
      "name": "depositGRTRequestERC20",
      "outputs": [
        {
          "internalType": "bool",
          "name": "",
          "type": "bool"
        }
      ],
      "stateMutability": "nonpayable",
      "type": "function"
    },
    {
      "inputs": [
        {
          "internalType": "uint256",
          "name": "amntDepGRT",
          "type": "uint256"
        },
        {
          "internalType": "address",
          "name": "userOffer",
          "type": "address"
        },
        {
          "internalType": "uint256",
          "name": "amountOffer",
          "type": "uint256"
        },
        {
          "internalType": "uint256",
          "name": "chainIdOffer",
          "type": "uint256"
        },
        {
          "internalType": "bytes32",
          "name": "idOffer",
          "type": "bytes32"
        },
        {
          "internalType": "address",
          "name": "destAddr",
          "type": "address"
        }
      ],
      "name": "depositGRTRequestNative",
      "outputs": [
        {
          "internalType": "bool",
          "name": "",
          "type": "bool"
        }
      ],
      "stateMutability": "nonpayable",
      "type": "function"
    },
    {
      "inputs": [
        {
          "internalType": "bytes32",
          "name": "idRequest",
          "type": "bytes32"
        }
      ],
      "name": "getDepositAmount",
      "outputs": [
        {
          "internalType": "uint256",
          "name": "",
          "type": "uint256"
        }
      ],
      "stateMutability": "view",
      "type": "function"
    },
    {
      "inputs": [
        {
          "internalType": "bytes32",
          "name": "idRequest",
          "type": "bytes32"
        }
      ],
      "name": "getDepositChainId",
      "outputs": [
        {
          "internalType": "uint256",
          "name": "",
          "type": "uint256"
        }
      ],
      "stateMutability": "view",
      "type": "function"
    },
    {
      "inputs": [
        {
          "internalType": "bytes32",
          "name": "idRequest",
          "type": "bytes32"
        }
      ],
      "name": "getDepositToken",
      "outputs": [
        {
          "internalType": "address",
          "name": "",
          "type": "address"
        }
      ],
      "stateMutability": "view",
      "type": "function"
    },
    {
      "inputs": [
        {
          "internalType": "address",
          "name": "user",
          "type": "address"
        }
      ],
      "name": "getNonce",
      "outputs": [
        {
          "internalType": "uint256",
          "name": "",
          "type": "uint256"
        }
      ],
      "stateMutability": "view",
      "type": "function"
    },
    {
      "inputs": [
        {
          "internalType": "bytes32",
          "name": "idRequest",
          "type": "bytes32"
        }
      ],
      "name": "getOfferAmount",
      "outputs": [
        {
          "internalType": "uint256",
          "name": "",
          "type": "uint256"
        }
      ],
      "stateMutability": "view",
      "type": "function"
    },
    {
      "inputs": [
        {
          "internalType": "bytes32",
          "name": "idRequest",
          "type": "bytes32"
        }
      ],
      "name": "getOfferChainId",
      "outputs": [
        {
          "internalType": "uint256",
          "name": "",
          "type": "uint256"
        }
      ],
      "stateMutability": "view",
      "type": "function"
    },
    {
      "inputs": [
        {
          "internalType": "bytes32",
          "name": "idRequest",
          "type": "bytes32"
        }
      ],
      "name": "getOfferCreator",
      "outputs": [
        {
          "internalType": "address",
          "name": "",
          "type": "address"
        }
      ],
      "stateMutability": "view",
      "type": "function"
    },
    {
      "inputs": [
        {
          "internalType": "bytes32",
          "name": "idRequest",
          "type": "bytes32"
        }
      ],
      "name": "getOfferId",
      "outputs": [
        {
          "internalType": "bytes32",
          "name": "",
          "type": "bytes32"
        }
      ],
      "stateMutability": "view",
      "type": "function"
    },
    {
      "inputs": [
        {
          "internalType": "bytes32",
          "name": "idRequest",
          "type": "bytes32"
        }
      ],
      "name": "getOfferToken",
      "outputs": [
        {
          "internalType": "address",
          "name": "",
          "type": "address"
        }
      ],
      "stateMutability": "view",
      "type": "function"
    },
    {
      "inputs": [
        {
          "internalType": "bytes32",
          "name": "idRequest",
          "type": "bytes32"
        }
      ],
      "name": "getRecipient",
      "outputs": [
        {
          "internalType": "address",
          "name": "",
          "type": "address"
        }
      ],
      "stateMutability": "view",
      "type": "function"
    },
    {
      "inputs": [
        {
          "internalType": "bytes32",
          "name": "idRequest",
          "type": "bytes32"
        }
      ],
      "name": "getRequester",
      "outputs": [
        {
          "internalType": "address",
          "name": "",
          "type": "address"
        }
      ],
      "stateMutability": "view",
      "type": "function"
    },
    {
      "inputs": [],
      "name": "grtAddress",
      "outputs": [
        {
          "internalType": "address",
          "name": "",
          "type": "address"
        }
      ],
      "stateMutability": "view",
      "type": "function"
    },
    {
      "inputs": [
        {
          "internalType": "address",
          "name": "addrGRT",
          "type": "address"
        }
      ],
      "name": "initializePool",
      "outputs": [],
      "stateMutability": "nonpayable",
      "type": "function"
    },
    {
      "inputs": [
        {
          "internalType": "bytes32",
          "name": "idRequest",
          "type": "bytes32"
        }
      ],
      "name": "isOfferPaid",
      "outputs": [
        {
          "internalType": "bool",
          "name": "",
          "type": "bool"
        }
      ],
      "stateMutability": "view",
      "type": "function"
    },
    {
      "inputs": [],
      "name": "owner",
      "outputs": [
        {
          "internalType": "address",
          "name": "",
          "type": "address"
        }
      ],
      "stateMutability": "view",
      "type": "function"
    },
    {
      "inputs": [],
      "name": "renounceOwnership",
      "outputs": [],
      "stateMutability": "nonpayable",
      "type": "function"
    },
    {
      "inputs": [
        {
          "internalType": "address",
          "name": "token",
          "type": "address"
        }
      ],
      "name": "setGRTAddr",
      "outputs": [],
      "stateMutability": "nonpayable",
      "type": "function"
    },
    {
      "inputs": [
        {
          "internalType": "uint256",
          "name": "amount",
          "type": "uint256"
        }
      ],
      "name": "stakeGRT",
      "outputs": [
        {
          "internalType": "bool",
          "name": "",
          "type": "bool"
        }
      ],
      "stateMutability": "nonpayable",
      "type": "function"
    },
    {
      "inputs": [
        {
          "internalType": "address",
          "name": "account",
          "type": "address"
        }
      ],
      "name": "stakeOf",
      "outputs": [
        {
          "internalType": "uint256",
          "name": "",
          "type": "uint256"
        }
      ],
      "stateMutability": "view",
      "type": "function"
    },
    {
      "inputs": [
        {
          "internalType": "address",
          "name": "newOwner",
          "type": "address"
        }
      ],
      "name": "transferOwnership",
      "outputs": [],
      "stateMutability": "nonpayable",
      "type": "function"
    }
  ],
  "bytecode": "0x608060405234801561001057600080fd5b50611145806100206000396000f3fe608060405234801561001057600080fd5b506004361061018d5760003560e01c80638da5cb5b116100e3578063c9dfdc441161008c578063d74c9c7411610066578063d74c9c7414610423578063f2fde38b14610446578063fbc6da751461045957600080fd5b8063c9dfdc44146103ca578063cbb35436146103ed578063d4a4429a1461040057600080fd5b8063b4bed2c9116100bd578063b4bed2c91461036a578063bfe5135914610396578063c9ad9f4a146103a757600080fd5b80638da5cb5b1461031a578063a26573151461032b578063ace7c37e1461035757600080fd5b8063412ff8931161014557806358381bbd1161011f57806358381bbd146102d65780635e348b39146102ff578063715018a61461031257600080fd5b8063412ff8931461026d57806342623360146102805780634b990a24146102a957600080fd5b80632d0335ab116101765780632d0335ab1461020c5780633c8e311714610235578063407431f71461025857600080fd5b8063296012b9146101925780632c3daef6146101db575b600080fd5b6101be6101a0366004610f57565b6000908152606760205260409020600701546001600160a01b031690565b6040516001600160a01b0390911681526020015b60405180910390f35b6101fe6101e9366004610f57565b60009081526067602052604090206003015490565b6040519081526020016101d2565b6101fe61021a366004610f8c565b6001600160a01b031660009081526069602052604090205490565b610248610243366004610fae565b610485565b60405190151581526020016101d2565b61026b610266366004610f8c565b610555565b005b61026b61027b366004610f8c565b610696565b6101fe61028e366004610f8c565b6001600160a01b031660009081526068602052604090205490565b6102486102b7366004610f57565b600090815260676020526040902060060154600160a01b900460ff1690565b6101be6102e4366004610f57565b6000908152606760205260409020546001600160a01b031690565b61024861030d366004611006565b6106c0565b61026b610790565b6033546001600160a01b03166101be565b6101be610339366004610f57565b6000908152606760205260409020600601546001600160a01b031690565b610248610365366004610f57565b6107a4565b6101be610378366004610f57565b6000908152606760205260409020600201546001600160a01b031690565b6065546001600160a01b03166101be565b6101fe6103b5366004610f57565b60009081526067602052604090206009015490565b6101fe6103d8366004610f57565b60009081526067602052604090206008015490565b6102486103fb366004611070565b610809565b6101fe61040e366004610f57565b60009081526067602052604090206004015490565b6101fe610431366004610f57565b60009081526067602052604090206005015490565b61026b610454366004610f8c565b610ad4565b6101be610467366004610f57565b6000908152606760205260409020600101546001600160a01b031690565b600061049087610b64565b503360008181526069602090815260408083205481519283015260609390931b6bffffffffffffffffffffffff1916928101929092524660548301529060740160408051808303601f190181529082905280516020918201206065544684529093508a926001600160a01b039091169184917fc50426a58c328dde98bf1e6e781031dc1d928393568d3b55d05eaff42762200a910160405180910390a4610538818685610bf9565b61054781858960008a8a610c9e565b506001979650505050505050565b600054610100900460ff16158080156105755750600054600160ff909116105b8061058f5750303b15801561058f575060005460ff166001145b6106065760405162461bcd60e51b815260206004820152602e60248201527f496e697469616c697a61626c653a20636f6e747261637420697320616c72656160448201527f647920696e697469616c697a656400000000000000000000000000000000000060648201526084015b60405180910390fd5b6000805460ff191660011790558015610629576000805461ff0019166101001790555b610631610d70565b606580546001600160a01b0319166001600160a01b0384161790558015610692576000805461ff0019169055604051600181527f7f26b83ff96e1f2b6a682f133852f6798a09c465da95921460cefb38474024989060200160405180910390a15b5050565b61069e610de3565b606580546001600160a01b0319166001600160a01b0392909216919091179055565b60006106cb88610b64565b503360008181526069602090815260408083205481519283015260609390931b6bffffffffffffffffffffffff1916928101929092524660548301529060740160408051808303601f190181529082905280516020918201206065544684529093508b926001600160a01b039091169184917fc50426a58c328dde98bf1e6e781031dc1d928393568d3b55d05eaff42762200a910160405180910390a4610773818a85610bf9565b61078181858a8a8a8a610c9e565b50600198975050505050505050565b610798610de3565b6107a26000610e3d565b565b60006107af82610b64565b50604051829033907f3dbdcfd4c1f2e08931aae3d544e149a1e643143f5234d166fe3debb78338849590600090a333600090815260686020526040812080548492906107fc9084906110c1565b9091555060019392505050565b6000828152606760205260408120600601546001600160a01b03166108965760405162461bcd60e51b815260206004820152602560248201527f47525420706f6f6c3a20746865207265717565737420646f6573206e6f74206560448201527f786973742100000000000000000000000000000000000000000000000000000060648201526084016105fd565b600083815260676020526040902060060154600160a01b900460ff16156109255760405162461bcd60e51b815260206004820152602a60248201527f47525420706f6f6c3a20746865206f666665722068617320616c72656164792060448201527f6265656e2070616964210000000000000000000000000000000000000000000060648201526084016105fd565b6000838152606760205260409020600601546001600160a01b031633146109b45760405162461bcd60e51b815260206004820152603160248201527f47525420706f6f6c3a20796f7520617265206e6f7420616c6c6f77656420746f60448201527f206d616b65207468697320636c61696d2100000000000000000000000000000060648201526084016105fd565b60655460008481526067602052604090819020600681015460039091015491517fa9059cbb0000000000000000000000000000000000000000000000000000000081526001600160a01b03918216600482015260248101929092529091169063a9059cbb906044016020604051808303816000875af1158015610a3b573d6000803e3d6000fd5b505050506040513d601f19601f82011682018060405250810190610a5f91906110d4565b50604051829084907fb0c6ce9efc045cc98ac1429653870e51bd57dd3fbbb542bed90b3f713dc9c0ab90600090a350600082815260676020526040902060060180547fffffffffffffffffffffff00ffffffffffffffffffffffffffffffffffffffff16600160a01b17905560015b92915050565b610adc610de3565b6001600160a01b038116610b585760405162461bcd60e51b815260206004820152602660248201527f4f776e61626c653a206e6577206f776e657220697320746865207a65726f206160448201527f646472657373000000000000000000000000000000000000000000000000000060648201526084016105fd565b610b6181610e3d565b50565b6065546040517f23b872dd000000000000000000000000000000000000000000000000000000008152336004820152306024820152604481018390526000916001600160a01b0316906323b872dd906064016020604051808303816000875af1158015610bd5573d6000803e3d6000fd5b505050506040513d601f19601f82011682018060405250810190610ace91906110d4565b600083815260676020526040902080546001600160a01b0319908116331782556001820180546001600160a01b0385811691909316179055606554610c4091168446610e8f565b80516002830180546001600160a01b0319166001600160a01b03909216919091179055602080820151600384015560409182015160048401553360009081526069909152908120805491610c93836110f6565b919050555050505050565b81836001600160a01b0316877f4fc5208f862c96a2a2595f09440919e8bda929d3e9b14a6e5fcac7c4cb8f5f5984604051610cdb91815260200190565b60405180910390a460008681526067602052604090206005810186905560060180546001600160a01b0319166001600160a01b038616179055610d1f838383610e8f565b60009687526067602090815260409788902082516007820180546001600160a01b0319166001600160a01b039092169190911790559082015160088201559601516009909601959095555050505050565b600054610100900460ff16610ddb5760405162461bcd60e51b815260206004820152602b60248201527f496e697469616c697a61626c653a20636f6e7472616374206973206e6f74206960448201526a6e697469616c697a696e6760a81b60648201526084016105fd565b6107a2610ee3565b6033546001600160a01b031633146107a25760405162461bcd60e51b815260206004820181905260248201527f4f776e61626c653a2063616c6c6572206973206e6f7420746865206f776e657260448201526064016105fd565b603380546001600160a01b038381166001600160a01b0319831681179093556040519116919082907f8be0079c531659141344cd1fd0a4f28419497f9722a3daafe3b4186f6b6457e090600090a35050565b610ebc604051806060016040528060006001600160a01b0316815260200160008152602001600081525090565b50604080516060810182526001600160a01b03909416845260208401929092529082015290565b600054610100900460ff16610f4e5760405162461bcd60e51b815260206004820152602b60248201527f496e697469616c697a61626c653a20636f6e7472616374206973206e6f74206960448201526a6e697469616c697a696e6760a81b60648201526084016105fd565b6107a233610e3d565b600060208284031215610f6957600080fd5b5035919050565b80356001600160a01b0381168114610f8757600080fd5b919050565b600060208284031215610f9e57600080fd5b610fa782610f70565b9392505050565b60008060008060008060c08789031215610fc757600080fd5b86359550610fd760208801610f70565b9450604087013593506060870135925060808701359150610ffa60a08801610f70565b90509295509295509295565b600080600080600080600060e0888a03121561102157600080fd5b8735965061103160208901610f70565b955061103f60408901610f70565b9450606088013593506080880135925060a0880135915061106260c08901610f70565b905092959891949750929550565b6000806040838503121561108357600080fd5b50508035926020909101359150565b7f4e487b7100000000000000000000000000000000000000000000000000000000600052601160045260246000fd5b80820180821115610ace57610ace611092565b6000602082840312156110e657600080fd5b81518015158114610fa757600080fd5b60006001820161110857611108611092565b506001019056fea2646970667358221220468e1517ebe8175753be6131965ea79ce3d6247dabe52f1061f4d02b93f4665464736f6c63430008110033",
  "linkReferences": {},
  "deployedLinkReferences": {}
}