{
  "_format": "hh-sol-artifact-1",
  "contractName": "PriceTest",
  "sourceName": "contracts/priceUpdate/PriceTest.sol",
  "abi": [
    {
      "inputs": [
        {
          "internalType": "uint256",
          "name": "a",
          "type": "uint256"
        },
        {
          "internalType": "uint256",
          "name": "b",
          "type": "uint256"
        }
      ],
      "name": "encodeArgs",
      "outputs": [
        {
          "internalType": "bytes",
          "name": "",
          "type": "bytes"
        }
      ],
      "stateMutability": "pure",
      "type": "function"
    },
    {
      "inputs": [
        {
          "internalType": "uint256",
          "name": "a",
          "type": "uint256"
        },
        {
          "internalType": "uint256",
          "name": "b",
          "type": "uint256"
        }
      ],
      "name": "setPrice",
      "outputs": [
        {
          "internalType": "uint256",
          "name": "",
          "type": "uint256"
        }
      ],
      "stateMutability": "pure",
      "type": "function"
    }
  ],
  "bytecode": "0x608060405234801561001057600080fd5b50610197806100206000396000f3fe608060405234801561001057600080fd5b50600436106100365760003560e01c8063f7d975771461003b578063fc58555e14610061575b600080fd5b61004e6100493660046100b7565b6100a2565b6040519081526020015b60405180910390f35b61009561006f3660046100b7565b604080516020810193909352828101919091528051808303820181526060909201905290565b60405161005891906100d9565b60006100ae8284610127565b90505b92915050565b600080604083850312156100ca57600080fd5b50508035926020909101359150565b600060208083528351808285015260005b81811015610106578581018301518582016040015282016100ea565b506000604082860101526040601f19601f8301168501019250505092915050565b808201808211156100b1577f4e487b7100000000000000000000000000000000000000000000000000000000600052601160045260246000fdfea264697066735822122023f179a120791cd4244fdda6e9ec1db1264508b81fa9a0a46808f13d4d1b8b8864736f6c63430008110033",
  "linkReferences": {},
  "deployedLinkReferences": {}
}