{
  "_format": "hh-sol-artifact-1",
  "contractName": "GrtSatellite",
  "sourceName": "contracts/v0.2.0/GrtSatellite.sol",
  "abi": [
    {
      "anonymous": false,
      "inputs": [
        {
          "indexed": false,
          "internalType": "address",
          "name": "previousAdmin",
          "type": "address"
        },
        {
          "indexed": false,
          "internalType": "address",
          "name": "newAdmin",
          "type": "address"
        }
      ],
      "name": "AdminChanged",
      "type": "event"
    },
    {
      "anonymous": false,
      "inputs": [
        {
          "indexed": true,
          "internalType": "address",
          "name": "beacon",
          "type": "address"
        }
      ],
      "name": "BeaconUpgraded",
      "type": "event"
    },
    {
      "anonymous": false,
      "inputs": [
        {
          "indexed": false,
          "internalType": "uint8",
          "name": "version",
          "type": "uint8"
        }
      ],
      "name": "Initialized",
      "type": "event"
    },
    {
      "anonymous": false,
      "inputs": [
        {
          "indexed": true,
          "internalType": "address",
          "name": "_LiquidityContractAddress",
          "type": "address"
        }
      ],
      "name": "LogNewLiquidityContract",
      "type": "event"
    },
    {
      "anonymous": false,
      "inputs": [
        {
          "indexed": true,
          "internalType": "bytes32",
          "name": "_idOffer",
          "type": "bytes32"
        },
        {
          "indexed": true,
          "internalType": "address",
          "name": "_token",
          "type": "address"
        },
        {
          "indexed": true,
          "internalType": "uint256",
          "name": "_amount",
          "type": "uint256"
        }
      ],
      "name": "LogRewardOffer",
      "type": "event"
    },
    {
      "anonymous": false,
      "inputs": [
        {
          "indexed": true,
          "internalType": "address",
          "name": "previousOwner",
          "type": "address"
        },
        {
          "indexed": true,
          "internalType": "address",
          "name": "newOwner",
          "type": "address"
        }
      ],
      "name": "OwnershipTransferred",
      "type": "event"
    },
    {
      "anonymous": false,
      "inputs": [
        {
          "indexed": true,
          "internalType": "address",
          "name": "implementation",
          "type": "address"
        }
      ],
      "name": "Upgraded",
      "type": "event"
    },
    {
      "inputs": [],
      "name": "deployLiquidityContract",
      "outputs": [
        {
          "internalType": "address",
          "name": "",
          "type": "address"
        }
      ],
      "stateMutability": "nonpayable",
      "type": "function"
    },
    {
      "inputs": [],
      "name": "getGrtAddress",
      "outputs": [
        {
          "internalType": "address",
          "name": "",
          "type": "address"
        }
      ],
      "stateMutability": "view",
      "type": "function"
    },
    {
      "inputs": [
        {
          "internalType": "address",
          "name": "addrGRT",
          "type": "address"
        }
      ],
      "name": "initializeGrtSatellite",
      "outputs": [],
      "stateMutability": "nonpayable",
      "type": "function"
    },
    {
      "inputs": [],
      "name": "owner",
      "outputs": [
        {
          "internalType": "address",
          "name": "",
          "type": "address"
        }
      ],
      "stateMutability": "view",
      "type": "function"
    },
    {
      "inputs": [],
      "name": "proxiableUUID",
      "outputs": [
        {
          "internalType": "bytes32",
          "name": "",
          "type": "bytes32"
        }
      ],
      "stateMutability": "view",
      "type": "function"
    },
    {
      "inputs": [],
      "name": "renounceOwnership",
      "outputs": [],
      "stateMutability": "nonpayable",
      "type": "function"
    },
    {
      "inputs": [
        {
          "internalType": "bytes32",
          "name": "idOffer",
          "type": "bytes32"
        },
        {
          "internalType": "uint256",
          "name": "amount",
          "type": "uint256"
        }
      ],
      "name": "rewardOffer",
      "outputs": [
        {
          "internalType": "bool",
          "name": "",
          "type": "bool"
        }
      ],
      "stateMutability": "nonpayable",
      "type": "function"
    },
    {
      "inputs": [
        {
          "internalType": "address",
          "name": "newOwner",
          "type": "address"
        }
      ],
      "name": "transferOwnership",
      "outputs": [],
      "stateMutability": "nonpayable",
      "type": "function"
    },
    {
      "inputs": [
        {
          "internalType": "address",
          "name": "newImplementation",
          "type": "address"
        }
      ],
      "name": "upgradeTo",
      "outputs": [],
      "stateMutability": "nonpayable",
      "type": "function"
    },
    {
      "inputs": [
        {
          "internalType": "address",
          "name": "newImplementation",
          "type": "address"
        },
        {
          "internalType": "bytes",
          "name": "data",
          "type": "bytes"
        }
      ],
      "name": "upgradeToAndCall",
      "outputs": [],
      "stateMutability": "payable",
      "type": "function"
    }
  ],
  "bytecode": "0x60a06040523060805234801561001457600080fd5b50608051611dde61005a6000396000818161020b015281816102950152818161038b01528181610410015281816104fa0152818161090101526109860152611dde6000f3fe6080604052600436106100b15760003560e01c8063716752fa116100695780638da5cb5b1161004e5780638da5cb5b146101a35780638f5e44f5146101c1578063f2fde38b146101e157600080fd5b8063716752fa146101555780638a1b17291461017357600080fd5b806352d1902d1161009a57806352d1902d146100eb5780636c48343614610113578063715018a61461014057600080fd5b80633659cfe6146100b65780634f1ef286146100d8575b600080fd5b3480156100c257600080fd5b506100d66100d1366004611043565b610201565b005b6100d66100e636600461108d565b610381565b3480156100f757600080fd5b506101006104ed565b6040519081526020015b60405180910390f35b34801561011f57600080fd5b506101286105b2565b6040516001600160a01b03909116815260200161010a565b34801561014c57600080fd5b506100d6610633565b34801561016157600080fd5b5060c9546001600160a01b0316610128565b34801561017f57600080fd5b5061019361018e36600461114f565b610647565b604051901515815260200161010a565b3480156101af57600080fd5b506033546001600160a01b0316610128565b3480156101cd57600080fd5b506100d66101dc366004611043565b61071a565b3480156101ed57600080fd5b506100d66101fc366004611043565b610862565b6001600160a01b037f00000000000000000000000000000000000000000000000000000000000000001630036102935760405162461bcd60e51b815260206004820152602c60248201527f46756e6374696f6e206d7573742062652063616c6c6564207468726f7567682060448201526b19195b1959d85d1958d85b1b60a21b60648201526084015b60405180910390fd5b7f00000000000000000000000000000000000000000000000000000000000000006001600160a01b03166102ee7f360894a13ba1a3210667c828492db98dca3e2076cc3735a920a3ca505d382bbc546001600160a01b031690565b6001600160a01b0316146103595760405162461bcd60e51b815260206004820152602c60248201527f46756e6374696f6e206d7573742062652063616c6c6564207468726f7567682060448201526b6163746976652070726f787960a01b606482015260840161028a565b610362816108ef565b6040805160008082526020820190925261037e91839190610a4a565b50565b6001600160a01b037f000000000000000000000000000000000000000000000000000000000000000016300361040e5760405162461bcd60e51b815260206004820152602c60248201527f46756e6374696f6e206d7573742062652063616c6c6564207468726f7567682060448201526b19195b1959d85d1958d85b1b60a21b606482015260840161028a565b7f00000000000000000000000000000000000000000000000000000000000000006001600160a01b03166104697f360894a13ba1a3210667c828492db98dca3e2076cc3735a920a3ca505d382bbc546001600160a01b031690565b6001600160a01b0316146104d45760405162461bcd60e51b815260206004820152602c60248201527f46756e6374696f6e206d7573742062652063616c6c6564207468726f7567682060448201526b6163746976652070726f787960a01b606482015260840161028a565b6104dd826108ef565b6104e982826001610a4a565b5050565b6000306001600160a01b037f0000000000000000000000000000000000000000000000000000000000000000161461058d5760405162461bcd60e51b815260206004820152603860248201527f555550535570677261646561626c653a206d757374206e6f742062652063616c60448201527f6c6564207468726f7567682064656c656761746563616c6c0000000000000000606482015260840161028a565b507f360894a13ba1a3210667c828492db98dca3e2076cc3735a920a3ca505d382bbc90565b60008030336040516105c39061101a565b6001600160a01b03928316815291166020820152604001604051809103906000f0801580156105f6573d6000803e3d6000fd5b506040519091506001600160a01b038216907ffe99aafb07363d9d8d4188405508c3d152b0ef17d5ed7e33e911386431569ed390600090a2919050565b61063b610bef565b6106456000610c49565b565b60c9546040517fa9059cbb000000000000000000000000000000000000000000000000000000008152336004820152602481018390526000916001600160a01b03169063a9059cbb906044016020604051808303816000875af11580156106b2573d6000803e3d6000fd5b505050506040513d601f19601f820116820180604052508101906106d69190611171565b5060c95460405183916001600160a01b03169085907f419d3b6363f971d3a61075493cdc908629e7ddf8f39c88c9c2f5b3f72155bca590600090a450600192915050565b600054610100900460ff161580801561073a5750600054600160ff909116105b806107545750303b158015610754575060005460ff166001145b6107c65760405162461bcd60e51b815260206004820152602e60248201527f496e697469616c697a61626c653a20636f6e747261637420697320616c72656160448201527f647920696e697469616c697a6564000000000000000000000000000000000000606482015260840161028a565b6000805460ff1916600117905580156107e9576000805461ff0019166101001790555b6107f1610ca8565b60c9805473ffffffffffffffffffffffffffffffffffffffff19166001600160a01b03841617905580156104e9576000805461ff0019169055604051600181527f7f26b83ff96e1f2b6a682f133852f6798a09c465da95921460cefb38474024989060200160405180910390a15050565b61086a610bef565b6001600160a01b0381166108e65760405162461bcd60e51b815260206004820152602660248201527f4f776e61626c653a206e6577206f776e657220697320746865207a65726f206160448201527f6464726573730000000000000000000000000000000000000000000000000000606482015260840161028a565b61037e81610c49565b6108f7610bef565b6001600160a01b037f00000000000000000000000000000000000000000000000000000000000000001630036109845760405162461bcd60e51b815260206004820152602c60248201527f46756e6374696f6e206d7573742062652063616c6c6564207468726f7567682060448201526b19195b1959d85d1958d85b1b60a21b606482015260840161028a565b7f00000000000000000000000000000000000000000000000000000000000000006001600160a01b03166109df7f360894a13ba1a3210667c828492db98dca3e2076cc3735a920a3ca505d382bbc546001600160a01b031690565b6001600160a01b03161461037e5760405162461bcd60e51b815260206004820152602c60248201527f46756e6374696f6e206d7573742062652063616c6c6564207468726f7567682060448201526b6163746976652070726f787960a01b606482015260840161028a565b7f4910fdfa16fed3260ed0e7147f7cc6da11a60208b5b9406d12a635614ffd91435460ff1615610a8257610a7d83610d1b565b505050565b826001600160a01b03166352d1902d6040518163ffffffff1660e01b8152600401602060405180830381865afa925050508015610adc575060408051601f3d908101601f19168201909252610ad991810190611193565b60015b610b4e5760405162461bcd60e51b815260206004820152602e60248201527f45524331393637557067726164653a206e657720696d706c656d656e7461746960448201527f6f6e206973206e6f742055555053000000000000000000000000000000000000606482015260840161028a565b7f360894a13ba1a3210667c828492db98dca3e2076cc3735a920a3ca505d382bbc8114610be35760405162461bcd60e51b815260206004820152602960248201527f45524331393637557067726164653a20756e737570706f727465642070726f7860448201527f6961626c65555549440000000000000000000000000000000000000000000000606482015260840161028a565b50610a7d838383610de6565b6033546001600160a01b031633146106455760405162461bcd60e51b815260206004820181905260248201527f4f776e61626c653a2063616c6c6572206973206e6f7420746865206f776e6572604482015260640161028a565b603380546001600160a01b0383811673ffffffffffffffffffffffffffffffffffffffff19831681179093556040519116919082907f8be0079c531659141344cd1fd0a4f28419497f9722a3daafe3b4186f6b6457e090600090a35050565b600054610100900460ff16610d135760405162461bcd60e51b815260206004820152602b60248201527f496e697469616c697a61626c653a20636f6e7472616374206973206e6f74206960448201526a6e697469616c697a696e6760a81b606482015260840161028a565b610645610e11565b6001600160a01b0381163b610d985760405162461bcd60e51b815260206004820152602d60248201527f455243313936373a206e657720696d706c656d656e746174696f6e206973206e60448201527f6f74206120636f6e747261637400000000000000000000000000000000000000606482015260840161028a565b7f360894a13ba1a3210667c828492db98dca3e2076cc3735a920a3ca505d382bbc805473ffffffffffffffffffffffffffffffffffffffff19166001600160a01b0392909216919091179055565b610def83610e85565b600082511180610dfc5750805b15610a7d57610e0b8383610ec5565b50505050565b600054610100900460ff16610e7c5760405162461bcd60e51b815260206004820152602b60248201527f496e697469616c697a61626c653a20636f6e7472616374206973206e6f74206960448201526a6e697469616c697a696e6760a81b606482015260840161028a565b61064533610c49565b610e8e81610d1b565b6040516001600160a01b038216907fbc7cd75a20ee27fd9adebab32041f755214dbc6bffa90cc0225b39da2e5c2d3b90600090a250565b60606001600160a01b0383163b610f445760405162461bcd60e51b815260206004820152602660248201527f416464726573733a2064656c65676174652063616c6c20746f206e6f6e2d636f60448201527f6e74726163740000000000000000000000000000000000000000000000000000606482015260840161028a565b600080846001600160a01b031684604051610f5f91906111d0565b600060405180830381855af49150503d8060008114610f9a576040519150601f19603f3d011682016040523d82523d6000602084013e610f9f565b606091505b5091509150610fc78282604051806060016040528060278152602001611d8260279139610fd0565b95945050505050565b60608315610fdf575081610fe9565b610fe98383610ff0565b9392505050565b8151156110005781518083602001fd5b8060405162461bcd60e51b815260040161028a91906111ec565b610b628061122083390190565b80356001600160a01b038116811461103e57600080fd5b919050565b60006020828403121561105557600080fd5b610fe982611027565b7f4e487b7100000000000000000000000000000000000000000000000000000000600052604160045260246000fd5b600080604083850312156110a057600080fd5b6110a983611027565b9150602083013567ffffffffffffffff808211156110c657600080fd5b818501915085601f8301126110da57600080fd5b8135818111156110ec576110ec61105e565b604051601f8201601f19908116603f011681019083821181831017156111145761111461105e565b8160405282815288602084870101111561112d57600080fd5b8260208601602083013760006020848301015280955050505050509250929050565b6000806040838503121561116257600080fd5b50508035926020909101359150565b60006020828403121561118357600080fd5b81518015158114610fe957600080fd5b6000602082840312156111a557600080fd5b5051919050565b60005b838110156111c75781810151838201526020016111af565b50506000910152565b600082516111e28184602087016111ac565b9190910192915050565b602081526000825180602084015261120b8160408501602087016111ac565b601f01601f1916919091016040019291505056fe608060405234801561001057600080fd5b50604051610b62380380610b6283398101604081905261002f916100d5565b61003833610069565b600180546001600160a01b039384166001600160a01b03199182161790915560028054929093169116179055610108565b600080546001600160a01b038381166001600160a01b0319831681178455604051919092169283917f8be0079c531659141344cd1fd0a4f28419497f9722a3daafe3b4186f6b6457e09190a35050565b80516001600160a01b03811681146100d057600080fd5b919050565b600080604083850312156100e857600080fd5b6100f1836100b9565b91506100ff602084016100b9565b90509250929050565b610a4b806101176000396000f3fe6080604052600436106100c05760003560e01c806384276d8111610074578063d59370e51161004e578063d59370e5146101ea578063e422ebe9146101ff578063f2fde38b1461021457600080fd5b806384276d81146101785780638da5cb5b14610198578063a1db9782146101ca57600080fd5b80636905b8cd116100a55780636905b8cd146101215780636b5caec414610143578063715018a61461016357600080fd5b806315337865146100cc57806342e7d3d31461010157600080fd5b366100c757005b600080fd5b3480156100d857600080fd5b506100ec6100e736600461091c565b610234565b60405190151581526020015b60405180910390f35b34801561010d57600080fd5b506100ec61011c366004610951565b610426565b34801561012d57600080fd5b5061014161013c366004610995565b610589565b005b34801561014f57600080fd5b5061014161015e366004610995565b6105c0565b34801561016f57600080fd5b506101416105f7565b34801561018457600080fd5b506100ec6101933660046109b0565b61060b565b3480156101a457600080fd5b506000546001600160a01b03165b6040516001600160a01b0390911681526020016100f8565b3480156101d657600080fd5b506100ec6101e53660046109c9565b610708565b3480156101f657600080fd5b506101b261078a565b34801561020b57600080fd5b506101b26107a4565b34801561022057600080fd5b5061014161022f366004610995565b6107be565b600080546001600160a01b031633148061025857506002546001600160a01b031633145b6102a95760405162461bcd60e51b815260206004820152601c60248201527f4e6f7420616c6c6f77656420746f2070617920746865206f666665720000000060448201526064015b60405180910390fd5b814710156102f95760405162461bcd60e51b815260206004820152601460248201527f496e73756666696369656e742062616c616e636500000000000000000000000060448201526064016102a0565b6000836001600160a01b03168360405160006040518083038185875af1925050503d8060008114610346576040519150601f19603f3d011682016040523d82523d6000602084013e61034b565b606091505b505090508061039c5760405162461bcd60e51b815260206004820152601c60248201527f4661696c656420746f2073656e64206e617469766520746f6b656e730000000060448201526064016102a0565b60018054604051638a1b172960e01b81526000926001600160a01b0390921691638a1b1729916103d9918a91600401918252602082015260400190565b6020604051808303816000875af11580156103f8573d6000803e3d6000fd5b505050506040513d601f19601f8201168201806040525081019061041c91906109f3565b9695505050505050565b600080546001600160a01b031633148061044a57506002546001600160a01b031633145b6104965760405162461bcd60e51b815260206004820152601c60248201527f4e6f7420616c6c6f77656420746f2070617920746865206f666665720000000060448201526064016102a0565b60405163a9059cbb60e01b81526001600160a01b0384811660048301526024820184905285169063a9059cbb906044016020604051808303816000875af11580156104e5573d6000803e3d6000fd5b505050506040513d601f19601f8201168201806040525081019061050991906109f3565b5060018054604051638a1b172960e01b81526004810188905260248101929092526001600160a01b031690638a1b1729906044016020604051808303816000875af115801561055c573d6000803e3d6000fd5b505050506040513d601f19601f8201168201806040525081019061058091906109f3565b95945050505050565b61059161084e565b6001805473ffffffffffffffffffffffffffffffffffffffff19166001600160a01b0392909216919091179055565b6105c861084e565b6002805473ffffffffffffffffffffffffffffffffffffffff19166001600160a01b0392909216919091179055565b6105ff61084e565b61060960006108a8565b565b600061061561084e565b814710156106655760405162461bcd60e51b815260206004820152601460248201527f496e73756666696369656e742062616c616e636500000000000000000000000060448201526064016102a0565b604051600090339084908381818185875af1925050503d80600081146106a7576040519150601f19603f3d011682016040523d82523d6000602084013e6106ac565b606091505b50509050806106fd5760405162461bcd60e51b815260206004820152601c60248201527f4661696c656420746f2073656e64206e617469766520746f6b656e730000000060448201526064016102a0565b60019150505b919050565b600061071261084e565b60405163a9059cbb60e01b8152336004820152602481018390526001600160a01b0384169063a9059cbb906044016020604051808303816000875af115801561075f573d6000803e3d6000fd5b505050506040513d601f19601f8201168201806040525081019061078391906109f3565b9392505050565b600061079461084e565b506001546001600160a01b031690565b60006107ae61084e565b506002546001600160a01b031690565b6107c661084e565b6001600160a01b0381166108425760405162461bcd60e51b815260206004820152602660248201527f4f776e61626c653a206e6577206f776e657220697320746865207a65726f206160448201527f646472657373000000000000000000000000000000000000000000000000000060648201526084016102a0565b61084b816108a8565b50565b6000546001600160a01b031633146106095760405162461bcd60e51b815260206004820181905260248201527f4f776e61626c653a2063616c6c6572206973206e6f7420746865206f776e657260448201526064016102a0565b600080546001600160a01b0383811673ffffffffffffffffffffffffffffffffffffffff19831681178455604051919092169283917f8be0079c531659141344cd1fd0a4f28419497f9722a3daafe3b4186f6b6457e09190a35050565b80356001600160a01b038116811461070357600080fd5b60008060006060848603121561093157600080fd5b8335925061094160208501610905565b9150604084013590509250925092565b6000806000806080858703121561096757600080fd5b8435935061097760208601610905565b925061098560408601610905565b9396929550929360600135925050565b6000602082840312156109a757600080fd5b61078382610905565b6000602082840312156109c257600080fd5b5035919050565b600080604083850312156109dc57600080fd5b6109e583610905565b946020939093013593505050565b600060208284031215610a0557600080fd5b8151801515811461078357600080fdfea26469706673582212201b18413e3278d12289c383b23b627b4616faac970f5eb3a3f2d844101f7a0e0a64736f6c63430008110033416464726573733a206c6f772d6c6576656c2064656c65676174652063616c6c206661696c6564a26469706673582212201d22b037e5ebb715cd4053628608eb417d222ed20548cca362a2ddd1c3ac6aad64736f6c63430008110033",
  "linkReferences": {},
  "deployedLinkReferences": {}
}