{
  "_format": "hh-sol-artifact-1",
  "contractName": "GrtTokenUtils",
  "sourceName": "contracts/v0.2.0/utils/GrtTokenUtils.sol",
  "abi": [
    {
      "anonymous": false,
      "inputs": [
        {
          "indexed": true,
          "internalType": "address",
          "name": "_user",
          "type": "address"
        },
        {
          "indexed": true,
          "internalType": "uint256",
          "name": "_chainId",
          "type": "uint256"
        },
        {
          "indexed": true,
          "internalType": "uint256",
          "name": "_amount",
          "type": "uint256"
        }
      ],
      "name": "LogStake",
      "type": "event"
    },
    {
      "anonymous": false,
      "inputs": [
        {
          "indexed": true,
          "internalType": "address",
          "name": "_user",
          "type": "address"
        },
        {
          "indexed": true,
          "internalType": "uint256",
          "name": "_chainId",
          "type": "uint256"
        },
        {
          "indexed": true,
          "internalType": "uint256",
          "name": "_amount",
          "type": "uint256"
        }
      ],
      "name": "LogUnStake",
      "type": "event"
    },
    {
      "inputs": [],
      "name": "getGrtAddress",
      "outputs": [
        {
          "internalType": "address",
          "name": "",
          "type": "address"
        }
      ],
      "stateMutability": "view",
      "type": "function"
    },
    {
      "inputs": [
        {
          "internalType": "uint256",
          "name": "amount",
          "type": "uint256"
        },
        {
          "internalType": "uint256",
          "name": "chainId",
          "type": "uint256"
        }
      ],
      "name": "stakeGRT",
      "outputs": [
        {
          "internalType": "bool",
          "name": "",
          "type": "bool"
        }
      ],
      "stateMutability": "nonpayable",
      "type": "function"
    },
    {
      "inputs": [
        {
          "internalType": "address",
          "name": "account",
          "type": "address"
        },
        {
          "internalType": "uint256",
          "name": "chainId",
          "type": "uint256"
        }
      ],
      "name": "stakeOf",
      "outputs": [
        {
          "internalType": "uint256",
          "name": "",
          "type": "uint256"
        }
      ],
      "stateMutability": "view",
      "type": "function"
    },
    {
      "inputs": [
        {
          "internalType": "uint256",
          "name": "amount",
          "type": "uint256"
        },
        {
          "internalType": "uint256",
          "name": "chainId",
          "type": "uint256"
        }
      ],
      "name": "unstakeGRT",
      "outputs": [
        {
          "internalType": "bool",
          "name": "",
          "type": "bool"
        }
      ],
      "stateMutability": "nonpayable",
      "type": "function"
    }
  ],
  "bytecode": "0x608060405234801561001057600080fd5b50610472806100206000396000f3fe608060405234801561001057600080fd5b506004361061004c5760003560e01c806341e73f0314610051578063716752fa14610079578063d6aaa7c814610094578063ed87169c146100a7575b600080fd5b61006461005f366004610364565b6100eb565b60405190151581526020015b60405180910390f35b6000546040516001600160a01b039091168152602001610070565b6100646100a2366004610364565b610160565b6100dd6100b5366004610386565b6001600160a01b03919091166000908152600160209081526040808320938352929052205490565b604051908152602001610070565b60006100f6836102cf565b506040518390839033907fa0d1fa51224fb08c7c0b48d481448ad6a31c945d1a68cac8758cac3a92d5001c90600090a4336000908152600160209081526040808320858452909152812080548592906101509084906103ed565b9091555060019150505b92915050565b33600090815260016020908152604080832084845290915281205483106101e7576040517f08c379a000000000000000000000000000000000000000000000000000000000815260206004820152601560248201527f6e6f7420656e6f756768207374616b6564204752540000000000000000000000604482015260640160405180910390fd5b6000546040517fa9059cbb000000000000000000000000000000000000000000000000000000008152336004820152602481018590526001600160a01b039091169063a9059cbb906044016020604051808303816000875af1158015610251573d6000803e3d6000fd5b505050506040513d601f19601f820116820180604052508101906102759190610400565b506040518390839033907f4cc6b0a598f3fcb366982c9b05e557bcf6fab3db9f1ff63aee54c3b362524c1890600090a433600090815260016020908152604080832085845290915281208054859290610150908490610429565b600080546040517f23b872dd000000000000000000000000000000000000000000000000000000008152336004820152306024820152604481018490526001600160a01b03909116906323b872dd906064016020604051808303816000875af1158015610340573d6000803e3d6000fd5b505050506040513d601f19601f8201168201806040525081019061015a9190610400565b6000806040838503121561037757600080fd5b50508035926020909101359150565b6000806040838503121561039957600080fd5b82356001600160a01b03811681146103b057600080fd5b946020939093013593505050565b7f4e487b7100000000000000000000000000000000000000000000000000000000600052601160045260246000fd5b8082018082111561015a5761015a6103be565b60006020828403121561041257600080fd5b8151801515811461042257600080fd5b9392505050565b8181038181111561015a5761015a6103be56fea2646970667358221220dd272a76216e6038511f11b65da44619f32241f3d2e882b69288101506fdaa4564736f6c63430008110033",
  "linkReferences": {},
  "deployedLinkReferences": {}
}