{
  "_format": "hh-sol-artifact-1",
  "contractName": "GrtOffer",
  "sourceName": "contracts/GrtOffer.sol",
  "abi": [
    {
      "anonymous": false,
      "inputs": [
        {
          "indexed": false,
          "internalType": "uint8",
          "name": "version",
          "type": "uint8"
        }
      ],
      "name": "Initialized",
      "type": "event"
    },
    {
      "anonymous": false,
      "inputs": [
        {
          "indexed": true,
          "internalType": "bytes32",
          "name": "_idOffer",
          "type": "bytes32"
        },
        {
          "indexed": true,
          "internalType": "address",
          "name": "_contractAddress",
          "type": "address"
        },
        {
          "indexed": true,
          "internalType": "address",
          "name": "_token",
          "type": "address"
        },
        {
          "indexed": false,
          "internalType": "uint256",
          "name": "_chainId",
          "type": "uint256"
        }
      ],
      "name": "LogNewOffer",
      "type": "event"
    },
    {
      "anonymous": false,
      "inputs": [
        {
          "indexed": true,
          "internalType": "address",
          "name": "previousOwner",
          "type": "address"
        },
        {
          "indexed": true,
          "internalType": "address",
          "name": "newOwner",
          "type": "address"
        }
      ],
      "name": "OwnershipTransferred",
      "type": "event"
    },
    {
      "inputs": [
        {
          "internalType": "bytes32",
          "name": "idOffer",
          "type": "bytes32"
        }
      ],
      "name": "getAddressOffer",
      "outputs": [
        {
          "internalType": "address",
          "name": "",
          "type": "address"
        }
      ],
      "stateMutability": "view",
      "type": "function"
    },
    {
      "inputs": [
        {
          "internalType": "bytes32",
          "name": "idOffer",
          "type": "bytes32"
        }
      ],
      "name": "getChainIdOffer",
      "outputs": [
        {
          "internalType": "uint256",
          "name": "",
          "type": "uint256"
        }
      ],
      "stateMutability": "view",
      "type": "function"
    },
    {
      "inputs": [
        {
          "internalType": "bytes32",
          "name": "idOffer",
          "type": "bytes32"
        }
      ],
      "name": "getLowerLimitFnHashOffer",
      "outputs": [
        {
          "internalType": "bytes32",
          "name": "",
          "type": "bytes32"
        }
      ],
      "stateMutability": "view",
      "type": "function"
    },
    {
      "inputs": [
        {
          "internalType": "address",
          "name": "user",
          "type": "address"
        }
      ],
      "name": "getNonceUser",
      "outputs": [
        {
          "internalType": "uint256",
          "name": "",
          "type": "uint256"
        }
      ],
      "stateMutability": "view",
      "type": "function"
    },
    {
      "inputs": [
        {
          "internalType": "bytes32",
          "name": "idOffer",
          "type": "bytes32"
        },
        {
          "internalType": "bytes",
          "name": "fn",
          "type": "bytes"
        }
      ],
      "name": "getPriceLimitFromContract",
      "outputs": [
        {
          "internalType": "uint256",
          "name": "",
          "type": "uint256"
        }
      ],
      "stateMutability": "view",
      "type": "function"
    },
    {
      "inputs": [
        {
          "internalType": "bytes32",
          "name": "idOffer",
          "type": "bytes32"
        }
      ],
      "name": "getTokenOffer",
      "outputs": [
        {
          "internalType": "address",
          "name": "",
          "type": "address"
        }
      ],
      "stateMutability": "view",
      "type": "function"
    },
    {
      "inputs": [
        {
          "internalType": "bytes32",
          "name": "idOffer",
          "type": "bytes32"
        }
      ],
      "name": "getUpperLimitFnHashOffer",
      "outputs": [
        {
          "internalType": "bytes32",
          "name": "",
          "type": "bytes32"
        }
      ],
      "stateMutability": "view",
      "type": "function"
    },
    {
      "inputs": [],
      "name": "initializeGrtOffer",
      "outputs": [],
      "stateMutability": "nonpayable",
      "type": "function"
    },
    {
      "inputs": [],
      "name": "owner",
      "outputs": [
        {
          "internalType": "address",
          "name": "",
          "type": "address"
        }
      ],
      "stateMutability": "view",
      "type": "function"
    },
    {
      "inputs": [],
      "name": "renounceOwnership",
      "outputs": [],
      "stateMutability": "nonpayable",
      "type": "function"
    },
    {
      "inputs": [
        {
          "internalType": "uint256",
          "name": "chainId",
          "type": "uint256"
        },
        {
          "internalType": "address",
          "name": "token",
          "type": "address"
        },
        {
          "internalType": "address",
          "name": "priceAddress",
          "type": "address"
        },
        {
          "internalType": "bytes",
          "name": "upperLimitFn",
          "type": "bytes"
        },
        {
          "internalType": "bytes",
          "name": "lowerLimitFn",
          "type": "bytes"
        }
      ],
      "name": "setOfferWithContract",
      "outputs": [
        {
          "internalType": "bool",
          "name": "",
          "type": "bool"
        }
      ],
      "stateMutability": "nonpayable",
      "type": "function"
    },
    {
      "inputs": [
        {
          "internalType": "address",
          "name": "newOwner",
          "type": "address"
        }
      ],
      "name": "transferOwnership",
      "outputs": [],
      "stateMutability": "nonpayable",
      "type": "function"
    }
  ],
  "bytecode": "0x608060405234801561001057600080fd5b50610aba806100206000396000f3fe608060405234801561001057600080fd5b50600436106100d45760003560e01c80638da5cb5b11610081578063bd71a1e21161005b578063bd71a1e2146101fe578063e956eb8a14610221578063f2fde38b1461024457600080fd5b80638da5cb5b146101c2578063a1c59cef146101d3578063bc61494e146101f657600080fd5b8063715018a6116100b2578063715018a61461016c57806375012c8b146101765780637fc6176c1461019657600080fd5b80632b48b4d4146100d95780634516010f146100ff5780635adbe5de14610143575b600080fd5b6100ec6100e73660046108e4565b610257565b6040519081526020015b60405180910390f35b61012b61010d366004610930565b6000908152606560205260409020600101546001600160a01b031690565b6040516001600160a01b0390911681526020016100f6565b6100ec610151366004610965565b6001600160a01b031660009081526066602052604090205490565b6101746103b3565b005b6100ec610184366004610930565b60009081526065602052604090205490565b61012b6101a4366004610930565b6000908152606560205260409020600201546001600160a01b031690565b6033546001600160a01b031661012b565b6100ec6101e1366004610930565b60009081526065602052604090206003015490565b6101746103c7565b61021161020c366004610980565b6104e7565b60405190151581526020016100f6565b6100ec61022f366004610930565b60009081526065602052604090206004015490565b610174610252366004610965565b610673565b6000838152606560205260408120600201546001600160a01b031661030f5760405162461bcd60e51b815260206004820152605660248201527f475254206f66666572733a206e6f7420616c6c6f77656420746f206d6f64696660448201527f7920746865207570706572207072696365206c696d69742076696120616e206560648201527f787465726e616c20736d61727420636f6e747261637400000000000000000000608482015260a4015b60405180910390fd5b60008481526065602052604080822060020154905182916001600160a01b03169061033d9087908790610a1b565b600060405180830381855afa9150503d8060008114610378576040519150601f19603f3d011682016040523d82523d6000602084013e61037d565b606091505b509150915081156103a5578080602001905181019061039c9190610a2b565b925050506103ac565b6000925050505b9392505050565b6103bb610700565b6103c5600061075a565b565b600054610100900460ff16158080156103e75750600054600160ff909116105b806104015750303b158015610401575060005460ff166001145b6104735760405162461bcd60e51b815260206004820152602e60248201527f496e697469616c697a61626c653a20636f6e747261637420697320616c72656160448201527f647920696e697469616c697a65640000000000000000000000000000000000006064820152608401610306565b6000805460ff191660011790558015610496576000805461ff0019166101001790555b61049e6107b9565b80156104e4576000805461ff0019169055604051600181527f7f26b83ff96e1f2b6a682f133852f6798a09c465da95921460cefb38474024989060200160405180910390a15b50565b3360008181526066602090815260408083205481516bffffffffffffffffffffffff19606096871b8116828601526034820192909252948a901b16605485015280518085036048018152606885018252805190830120808452606590925282208a81556001810180546001600160a01b038c811673ffffffffffffffffffffffffffffffffffffffff199283161790925560029092018054918b1691909216179055909161059b9087908790608801610a1b565b60408051601f19818403018152828252805160209182012060008581526065835292909220600401919091556105d5918691869101610a1b565b60408051601f1981840301815282825280516020918201206000858152606583528390206003810191909155600201548c845291516001600160a01b038c81169493169285927f90d1517eab8d1d52082251d5392431a6bf50b65d94217ad0a4bd02b15072445c92918290030190a433600090815260666020526040812080549161065f83610a44565b9091555060019a9950505050505050505050565b61067b610700565b6001600160a01b0381166106f75760405162461bcd60e51b815260206004820152602660248201527f4f776e61626c653a206e6577206f776e657220697320746865207a65726f206160448201527f64647265737300000000000000000000000000000000000000000000000000006064820152608401610306565b6104e48161075a565b6033546001600160a01b031633146103c55760405162461bcd60e51b815260206004820181905260248201527f4f776e61626c653a2063616c6c6572206973206e6f7420746865206f776e65726044820152606401610306565b603380546001600160a01b0383811673ffffffffffffffffffffffffffffffffffffffff19831681179093556040519116919082907f8be0079c531659141344cd1fd0a4f28419497f9722a3daafe3b4186f6b6457e090600090a35050565b600054610100900460ff166108245760405162461bcd60e51b815260206004820152602b60248201527f496e697469616c697a61626c653a20636f6e7472616374206973206e6f74206960448201526a6e697469616c697a696e6760a81b6064820152608401610306565b6103c5600054610100900460ff166108925760405162461bcd60e51b815260206004820152602b60248201527f496e697469616c697a61626c653a20636f6e7472616374206973206e6f74206960448201526a6e697469616c697a696e6760a81b6064820152608401610306565b6103c53361075a565b60008083601f8401126108ad57600080fd5b50813567ffffffffffffffff8111156108c557600080fd5b6020830191508360208285010111156108dd57600080fd5b9250929050565b6000806000604084860312156108f957600080fd5b83359250602084013567ffffffffffffffff81111561091757600080fd5b6109238682870161089b565b9497909650939450505050565b60006020828403121561094257600080fd5b5035919050565b80356001600160a01b038116811461096057600080fd5b919050565b60006020828403121561097757600080fd5b6103ac82610949565b600080600080600080600060a0888a03121561099b57600080fd5b873596506109ab60208901610949565b95506109b960408901610949565b9450606088013567ffffffffffffffff808211156109d657600080fd5b6109e28b838c0161089b565b909650945060808a01359150808211156109fb57600080fd5b50610a088a828b0161089b565b989b979a50959850939692959293505050565b8183823760009101908152919050565b600060208284031215610a3d57600080fd5b5051919050565b600060018201610a7d577f4e487b7100000000000000000000000000000000000000000000000000000000600052601160045260246000fd5b506001019056fea264697066735822122068aa23682bb81ea906dc76dc743a2314890f0528c8222168a2556a96d3c961df64736f6c63430008110033",
  "linkReferences": {},
  "deployedLinkReferences": {}
}