{
  "_format": "hh-sol-artifact-1",
  "contractName": "GrtLiquidityWallet",
  "sourceName": "contracts/v-testnet-launch/GrtLiquidityWallet.sol",
  "abi": [
    {
      "anonymous": false,
      "inputs": [
        {
          "indexed": false,
          "internalType": "address",
          "name": "previousAdmin",
          "type": "address"
        },
        {
          "indexed": false,
          "internalType": "address",
          "name": "newAdmin",
          "type": "address"
        }
      ],
      "name": "AdminChanged",
      "type": "event"
    },
    {
      "anonymous": false,
      "inputs": [
        {
          "indexed": true,
          "internalType": "address",
          "name": "beacon",
          "type": "address"
        }
      ],
      "name": "BeaconUpgraded",
      "type": "event"
    },
    {
      "anonymous": false,
      "inputs": [
        {
          "indexed": false,
          "internalType": "uint8",
          "name": "version",
          "type": "uint8"
        }
      ],
      "name": "Initialized",
      "type": "event"
    },
    {
      "anonymous": false,
      "inputs": [
        {
          "indexed": true,
          "internalType": "bytes32",
          "name": "_offerId",
          "type": "bytes32"
        },
        {
          "indexed": true,
          "internalType": "address",
          "name": "_token",
          "type": "address"
        },
        {
          "indexed": true,
          "internalType": "address",
          "name": "_to",
          "type": "address"
        },
        {
          "indexed": false,
          "internalType": "uint256",
          "name": "_amount",
          "type": "uint256"
        }
      ],
      "name": "LogOfferPaid",
      "type": "event"
    },
    {
      "anonymous": false,
      "inputs": [
        {
          "indexed": true,
          "internalType": "address",
          "name": "previousOwner",
          "type": "address"
        },
        {
          "indexed": true,
          "internalType": "address",
          "name": "newOwner",
          "type": "address"
        }
      ],
      "name": "OwnershipTransferred",
      "type": "event"
    },
    {
      "anonymous": false,
      "inputs": [
        {
          "indexed": true,
          "internalType": "address",
          "name": "implementation",
          "type": "address"
        }
      ],
      "name": "Upgraded",
      "type": "event"
    },
    {
      "inputs": [],
      "name": "getBot",
      "outputs": [
        {
          "internalType": "address",
          "name": "",
          "type": "address"
        }
      ],
      "stateMutability": "view",
      "type": "function"
    },
    {
      "inputs": [
        {
          "internalType": "address",
          "name": "bot",
          "type": "address"
        }
      ],
      "name": "initialize",
      "outputs": [],
      "stateMutability": "nonpayable",
      "type": "function"
    },
    {
      "inputs": [],
      "name": "owner",
      "outputs": [
        {
          "internalType": "address",
          "name": "",
          "type": "address"
        }
      ],
      "stateMutability": "view",
      "type": "function"
    },
    {
      "inputs": [
        {
          "internalType": "bytes32",
          "name": "offerId",
          "type": "bytes32"
        },
        {
          "internalType": "address",
          "name": "token",
          "type": "address"
        },
        {
          "internalType": "address",
          "name": "to",
          "type": "address"
        },
        {
          "internalType": "uint256",
          "name": "amount",
          "type": "uint256"
        }
      ],
      "name": "payOfferWithERC20Tokens",
      "outputs": [
        {
          "internalType": "bool",
          "name": "",
          "type": "bool"
        }
      ],
      "stateMutability": "nonpayable",
      "type": "function"
    },
    {
      "inputs": [
        {
          "internalType": "bytes32",
          "name": "offerId",
          "type": "bytes32"
        },
        {
          "internalType": "address",
          "name": "to",
          "type": "address"
        },
        {
          "internalType": "uint256",
          "name": "amount",
          "type": "uint256"
        }
      ],
      "name": "payOfferWithNativeTokens",
      "outputs": [
        {
          "internalType": "bool",
          "name": "",
          "type": "bool"
        }
      ],
      "stateMutability": "nonpayable",
      "type": "function"
    },
    {
      "inputs": [],
      "name": "proxiableUUID",
      "outputs": [
        {
          "internalType": "bytes32",
          "name": "",
          "type": "bytes32"
        }
      ],
      "stateMutability": "view",
      "type": "function"
    },
    {
      "inputs": [],
      "name": "renounceOwnership",
      "outputs": [],
      "stateMutability": "nonpayable",
      "type": "function"
    },
    {
      "inputs": [
        {
          "internalType": "address",
          "name": "bot",
          "type": "address"
        }
      ],
      "name": "setBot",
      "outputs": [],
      "stateMutability": "nonpayable",
      "type": "function"
    },
    {
      "inputs": [
        {
          "internalType": "address",
          "name": "newOwner",
          "type": "address"
        }
      ],
      "name": "transferOwnership",
      "outputs": [],
      "stateMutability": "nonpayable",
      "type": "function"
    },
    {
      "inputs": [
        {
          "internalType": "address",
          "name": "newImplementation",
          "type": "address"
        }
      ],
      "name": "upgradeTo",
      "outputs": [],
      "stateMutability": "nonpayable",
      "type": "function"
    },
    {
      "inputs": [
        {
          "internalType": "address",
          "name": "newImplementation",
          "type": "address"
        },
        {
          "internalType": "bytes",
          "name": "data",
          "type": "bytes"
        }
      ],
      "name": "upgradeToAndCall",
      "outputs": [],
      "stateMutability": "payable",
      "type": "function"
    },
    {
      "inputs": [
        {
          "internalType": "address",
          "name": "token",
          "type": "address"
        },
        {
          "internalType": "uint256",
          "name": "amount",
          "type": "uint256"
        }
      ],
      "name": "withdrawERC20",
      "outputs": [],
      "stateMutability": "nonpayable",
      "type": "function"
    },
    {
      "inputs": [
        {
          "internalType": "uint256",
          "name": "amount",
          "type": "uint256"
        }
      ],
      "name": "withdrawNative",
      "outputs": [
        {
          "internalType": "bool",
          "name": "",
          "type": "bool"
        }
      ],
      "stateMutability": "nonpayable",
      "type": "function"
    },
    {
      "stateMutability": "payable",
      "type": "receive"
    }
  ],
  "bytecode": "0x60a06040523060805234801561001457600080fd5b506080516119ed61005a6000396000818161029e015281816103280152818161041e015281816104a30152818161058d01528181610d120152610d9701526119ed6000f3fe6080604052600436106100d65760003560e01c806384276d811161007f578063c4d66de811610059578063c4d66de814610216578063e422ebe914610236578063ec29207f14610254578063f2fde38b1461027457600080fd5b806384276d81146101a45780638da5cb5b146101c4578063a1db9782146101f657600080fd5b8063638a3db4116100b0578063638a3db41461013f5780636b5caec41461016f578063715018a61461018f57600080fd5b80633659cfe6146100e25780634f1ef2861461010457806352d1902d1461011757600080fd5b366100dd57005b600080fd5b3480156100ee57600080fd5b506101026100fd36600461171a565b610294565b005b610102610112366004611764565b610414565b34801561012357600080fd5b5061012c610580565b6040519081526020015b60405180910390f35b34801561014b57600080fd5b5061015f61015a366004611826565b610645565b6040519015158152602001610136565b34801561017b57600080fd5b5061010261018a36600461171a565b610762565b34801561019b57600080fd5b50610102610799565b3480156101b057600080fd5b5061015f6101bf36600461186a565b6107ad565b3480156101d057600080fd5b506033546001600160a01b03165b6040516001600160a01b039091168152602001610136565b34801561020257600080fd5b50610102610211366004611883565b6108dc565b34801561022257600080fd5b5061010261023136600461171a565b6108f8565b34801561024257600080fd5b5060c9546001600160a01b03166101de565b34801561026057600080fd5b5061015f61026f3660046118ad565b610a40565b34801561028057600080fd5b5061010261028f36600461171a565b610c73565b6001600160a01b037f00000000000000000000000000000000000000000000000000000000000000001630036103265760405162461bcd60e51b815260206004820152602c60248201527f46756e6374696f6e206d7573742062652063616c6c6564207468726f7567682060448201526b19195b1959d85d1958d85b1b60a21b60648201526084015b60405180910390fd5b7f00000000000000000000000000000000000000000000000000000000000000006001600160a01b03166103817f360894a13ba1a3210667c828492db98dca3e2076cc3735a920a3ca505d382bbc546001600160a01b031690565b6001600160a01b0316146103ec5760405162461bcd60e51b815260206004820152602c60248201527f46756e6374696f6e206d7573742062652063616c6c6564207468726f7567682060448201526b6163746976652070726f787960a01b606482015260840161031d565b6103f581610d00565b6040805160008082526020820190925261041191839190610e5b565b50565b6001600160a01b037f00000000000000000000000000000000000000000000000000000000000000001630036104a15760405162461bcd60e51b815260206004820152602c60248201527f46756e6374696f6e206d7573742062652063616c6c6564207468726f7567682060448201526b19195b1959d85d1958d85b1b60a21b606482015260840161031d565b7f00000000000000000000000000000000000000000000000000000000000000006001600160a01b03166104fc7f360894a13ba1a3210667c828492db98dca3e2076cc3735a920a3ca505d382bbc546001600160a01b031690565b6001600160a01b0316146105675760405162461bcd60e51b815260206004820152602c60248201527f46756e6374696f6e206d7573742062652063616c6c6564207468726f7567682060448201526b6163746976652070726f787960a01b606482015260840161031d565b61057082610d00565b61057c82826001610e5b565b5050565b6000306001600160a01b037f000000000000000000000000000000000000000000000000000000000000000016146106205760405162461bcd60e51b815260206004820152603860248201527f555550535570677261646561626c653a206d757374206e6f742062652063616c60448201527f6c6564207468726f7567682064656c656761746563616c6c0000000000000000606482015260840161031d565b507f360894a13ba1a3210667c828492db98dca3e2076cc3735a920a3ca505d382bbc90565b60006106596033546001600160a01b031690565b6001600160a01b0316336001600160a01b03161480610682575060c9546001600160a01b031633145b6106f45760405162461bcd60e51b815260206004820152602e60248201527f4772696e646572792077616c6c65743a206e6f7420616c6c6f77656420746f2060448201527f70617920746865206f666665722e000000000000000000000000000000000000606482015260840161031d565b6107086001600160a01b0385168484611000565b826001600160a01b0316846001600160a01b0316867f0d4c15120c3c05a5403d128cff94a37d1da2cc07aebbf80d569bcbf22a9b66118560405161074e91815260200190565b60405180910390a45060015b949350505050565b61076a611080565b60c9805473ffffffffffffffffffffffffffffffffffffffff19166001600160a01b0392909216919091179055565b6107a1611080565b6107ab60006110da565b565b60006107b7611080565b814710156108165760405162461bcd60e51b815260206004820152602660248201527f4772696e646572792077616c6c65743a20696e73756666696369656e742062616044820152653630b731b29760d11b606482015260840161031d565b604051600090339084908381818185875af1925050503d8060008114610858576040519150601f19603f3d011682016040523d82523d6000602084013e61085d565b606091505b50509050806108d45760405162461bcd60e51b815260206004820152602e60248201527f4772696e646572792077616c6c65743a206661696c656420746f2073656e642060448201527f6e617469766520746f6b656e732e000000000000000000000000000000000000606482015260840161031d565b90505b919050565b6108e4611080565b61057c6001600160a01b0383163383611000565b600054610100900460ff16158080156109185750600054600160ff909116105b806109325750303b158015610932575060005460ff166001145b6109a45760405162461bcd60e51b815260206004820152602e60248201527f496e697469616c697a61626c653a20636f6e747261637420697320616c72656160448201527f647920696e697469616c697a6564000000000000000000000000000000000000606482015260840161031d565b6000805460ff1916600117905580156109c7576000805461ff0019166101001790555b6109cf611139565b60c9805473ffffffffffffffffffffffffffffffffffffffff19166001600160a01b038416179055801561057c576000805461ff0019169055604051600181527f7f26b83ff96e1f2b6a682f133852f6798a09c465da95921460cefb38474024989060200160405180910390a15050565b6000610a546033546001600160a01b031690565b6001600160a01b0316336001600160a01b03161480610a7d575060c9546001600160a01b031633145b610aef5760405162461bcd60e51b815260206004820152602e60248201527f4772696e646572792077616c6c65743a206e6f7420616c6c6f77656420746f2060448201527f70617920746865206f666665722e000000000000000000000000000000000000606482015260840161031d565b81471015610b4e5760405162461bcd60e51b815260206004820152602660248201527f4772696e646572792077616c6c65743a20696e73756666696369656e742062616044820152653630b731b29760d11b606482015260840161031d565b6000836001600160a01b03168360405160006040518083038185875af1925050503d8060008114610b9b576040519150601f19603f3d011682016040523d82523d6000602084013e610ba0565b606091505b5050905080610c175760405162461bcd60e51b815260206004820152602e60248201527f4772696e646572792077616c6c65743a206661696c656420746f2073656e642060448201527f6e617469766520746f6b656e732e000000000000000000000000000000000000606482015260840161031d565b836001600160a01b031660006001600160a01b0316867f0d4c15120c3c05a5403d128cff94a37d1da2cc07aebbf80d569bcbf22a9b661186604051610c5e91815260200190565b60405180910390a460019150505b9392505050565b610c7b611080565b6001600160a01b038116610cf75760405162461bcd60e51b815260206004820152602660248201527f4f776e61626c653a206e6577206f776e657220697320746865207a65726f206160448201527f6464726573730000000000000000000000000000000000000000000000000000606482015260840161031d565b610411816110da565b610d08611080565b6001600160a01b037f0000000000000000000000000000000000000000000000000000000000000000163003610d955760405162461bcd60e51b815260206004820152602c60248201527f46756e6374696f6e206d7573742062652063616c6c6564207468726f7567682060448201526b19195b1959d85d1958d85b1b60a21b606482015260840161031d565b7f00000000000000000000000000000000000000000000000000000000000000006001600160a01b0316610df07f360894a13ba1a3210667c828492db98dca3e2076cc3735a920a3ca505d382bbc546001600160a01b031690565b6001600160a01b0316146104115760405162461bcd60e51b815260206004820152602c60248201527f46756e6374696f6e206d7573742062652063616c6c6564207468726f7567682060448201526b6163746976652070726f787960a01b606482015260840161031d565b7f4910fdfa16fed3260ed0e7147f7cc6da11a60208b5b9406d12a635614ffd91435460ff1615610e9357610e8e836111ac565b505050565b826001600160a01b03166352d1902d6040518163ffffffff1660e01b8152600401602060405180830381865afa925050508015610eed575060408051601f3d908101601f19168201909252610eea918101906118e2565b60015b610f5f5760405162461bcd60e51b815260206004820152602e60248201527f45524331393637557067726164653a206e657720696d706c656d656e7461746960448201527f6f6e206973206e6f742055555053000000000000000000000000000000000000606482015260840161031d565b7f360894a13ba1a3210667c828492db98dca3e2076cc3735a920a3ca505d382bbc8114610ff45760405162461bcd60e51b815260206004820152602960248201527f45524331393637557067726164653a20756e737570706f727465642070726f7860448201527f6961626c65555549440000000000000000000000000000000000000000000000606482015260840161031d565b50610e8e838383611277565b604080516001600160a01b038416602482015260448082018490528251808303909101815260649091019091526020810180517bffffffffffffffffffffffffffffffffffffffffffffffffffffffff167fa9059cbb00000000000000000000000000000000000000000000000000000000179052610e8e9084906112a2565b6033546001600160a01b031633146107ab5760405162461bcd60e51b815260206004820181905260248201527f4f776e61626c653a2063616c6c6572206973206e6f7420746865206f776e6572604482015260640161031d565b603380546001600160a01b0383811673ffffffffffffffffffffffffffffffffffffffff19831681179093556040519116919082907f8be0079c531659141344cd1fd0a4f28419497f9722a3daafe3b4186f6b6457e090600090a35050565b600054610100900460ff166111a45760405162461bcd60e51b815260206004820152602b60248201527f496e697469616c697a61626c653a20636f6e7472616374206973206e6f74206960448201526a6e697469616c697a696e6760a81b606482015260840161031d565b6107ab611387565b6001600160a01b0381163b6112295760405162461bcd60e51b815260206004820152602d60248201527f455243313936373a206e657720696d706c656d656e746174696f6e206973206e60448201527f6f74206120636f6e747261637400000000000000000000000000000000000000606482015260840161031d565b7f360894a13ba1a3210667c828492db98dca3e2076cc3735a920a3ca505d382bbc805473ffffffffffffffffffffffffffffffffffffffff19166001600160a01b0392909216919091179055565b611280836113fb565b60008251118061128d5750805b15610e8e5761129c838361143b565b50505050565b60006112f7826040518060400160405280602081526020017f5361666545524332303a206c6f772d6c6576656c2063616c6c206661696c6564815250856001600160a01b03166115469092919063ffffffff16565b805190915015610e8e578080602001905181019061131591906118fb565b610e8e5760405162461bcd60e51b815260206004820152602a60248201527f5361666545524332303a204552433230206f7065726174696f6e20646964206e60448201527f6f74207375636365656400000000000000000000000000000000000000000000606482015260840161031d565b600054610100900460ff166113f25760405162461bcd60e51b815260206004820152602b60248201527f496e697469616c697a61626c653a20636f6e7472616374206973206e6f74206960448201526a6e697469616c697a696e6760a81b606482015260840161031d565b6107ab336110da565b611404816111ac565b6040516001600160a01b038216907fbc7cd75a20ee27fd9adebab32041f755214dbc6bffa90cc0225b39da2e5c2d3b90600090a250565b60606001600160a01b0383163b6114ba5760405162461bcd60e51b815260206004820152602660248201527f416464726573733a2064656c65676174652063616c6c20746f206e6f6e2d636f60448201527f6e74726163740000000000000000000000000000000000000000000000000000606482015260840161031d565b600080846001600160a01b0316846040516114d59190611941565b600060405180830381855af49150503d8060008114611510576040519150601f19603f3d011682016040523d82523d6000602084013e611515565b606091505b509150915061153d828260405180606001604052806027815260200161199160279139611555565b95945050505050565b606061075a848460008561156e565b60608315611564575081610c6c565b610c6c8383611660565b6060824710156115e65760405162461bcd60e51b815260206004820152602660248201527f416464726573733a20696e73756666696369656e742062616c616e636520666f60448201527f722063616c6c0000000000000000000000000000000000000000000000000000606482015260840161031d565b600080866001600160a01b031685876040516116029190611941565b60006040518083038185875af1925050503d806000811461163f576040519150601f19603f3d011682016040523d82523d6000602084013e611644565b606091505b50915091506116558783838761168a565b979650505050505050565b8151156116705781518083602001fd5b8060405162461bcd60e51b815260040161031d919061195d565b606083156116f95782516000036116f2576001600160a01b0385163b6116f25760405162461bcd60e51b815260206004820152601d60248201527f416464726573733a2063616c6c20746f206e6f6e2d636f6e7472616374000000604482015260640161031d565b508161075a565b61075a8383611660565b80356001600160a01b03811681146108d757600080fd5b60006020828403121561172c57600080fd5b610c6c82611703565b7f4e487b7100000000000000000000000000000000000000000000000000000000600052604160045260246000fd5b6000806040838503121561177757600080fd5b61178083611703565b9150602083013567ffffffffffffffff8082111561179d57600080fd5b818501915085601f8301126117b157600080fd5b8135818111156117c3576117c3611735565b604051601f8201601f19908116603f011681019083821181831017156117eb576117eb611735565b8160405282815288602084870101111561180457600080fd5b8260208601602083013760006020848301015280955050505050509250929050565b6000806000806080858703121561183c57600080fd5b8435935061184c60208601611703565b925061185a60408601611703565b9396929550929360600135925050565b60006020828403121561187c57600080fd5b5035919050565b6000806040838503121561189657600080fd5b61189f83611703565b946020939093013593505050565b6000806000606084860312156118c257600080fd5b833592506118d260208501611703565b9150604084013590509250925092565b6000602082840312156118f457600080fd5b5051919050565b60006020828403121561190d57600080fd5b81518015158114610c6c57600080fd5b60005b83811015611938578181015183820152602001611920565b50506000910152565b6000825161195381846020870161191d565b9190910192915050565b602081526000825180602084015261197c81604085016020870161191d565b601f01601f1916919091016040019291505056fe416464726573733a206c6f772d6c6576656c2064656c65676174652063616c6c206661696c6564a264697066735822122007ec1531b59f6b712c8f00fcfc0a028d98b2f718295a5122a3e5e3d9e8a51c0a64736f6c63430008110033",
  "linkReferences": {},
  "deployedLinkReferences": {}
}