{
  "_format": "hh-sol-artifact-1",
  "contractName": "GrtPool",
  "sourceName": "contracts/v-testnet-launch/GrtPool.sol",
  "abi": [
    {
      "anonymous": false,
      "inputs": [
        {
          "indexed": false,
          "internalType": "address",
          "name": "previousAdmin",
          "type": "address"
        },
        {
          "indexed": false,
          "internalType": "address",
          "name": "newAdmin",
          "type": "address"
        }
      ],
      "name": "AdminChanged",
      "type": "event"
    },
    {
      "anonymous": false,
      "inputs": [
        {
          "indexed": true,
          "internalType": "address",
          "name": "beacon",
          "type": "address"
        }
      ],
      "name": "BeaconUpgraded",
      "type": "event"
    },
    {
      "anonymous": false,
      "inputs": [
        {
          "indexed": false,
          "internalType": "uint8",
          "name": "version",
          "type": "uint8"
        }
      ],
      "name": "Initialized",
      "type": "event"
    },
    {
      "anonymous": false,
      "inputs": [
        {
          "indexed": true,
          "internalType": "bytes32",
          "name": "_idOffer",
          "type": "bytes32"
        },
        {
          "indexed": true,
          "internalType": "address",
          "name": "_token",
          "type": "address"
        },
        {
          "indexed": false,
          "internalType": "uint256",
          "name": "_chainId",
          "type": "uint256"
        }
      ],
      "name": "LogNewOffer",
      "type": "event"
    },
    {
      "anonymous": false,
      "inputs": [
        {
          "indexed": true,
          "internalType": "bytes32",
          "name": "_idOffer",
          "type": "bytes32"
        },
        {
          "indexed": true,
          "internalType": "uint256",
          "name": "_chainId",
          "type": "uint256"
        }
      ],
      "name": "LogSetChainIdOffer",
      "type": "event"
    },
    {
      "anonymous": false,
      "inputs": [
        {
          "indexed": true,
          "internalType": "bytes32",
          "name": "_idOffer",
          "type": "bytes32"
        },
        {
          "indexed": true,
          "internalType": "bytes32",
          "name": "_upperLimitFn",
          "type": "bytes32"
        }
      ],
      "name": "LogSetMaxPriceLimit",
      "type": "event"
    },
    {
      "anonymous": false,
      "inputs": [
        {
          "indexed": true,
          "internalType": "bytes32",
          "name": "_idOffer",
          "type": "bytes32"
        },
        {
          "indexed": true,
          "internalType": "bytes32",
          "name": "_lowerLimitFn",
          "type": "bytes32"
        }
      ],
      "name": "LogSetMinPriceLimit",
      "type": "event"
    },
    {
      "anonymous": false,
      "inputs": [
        {
          "indexed": true,
          "internalType": "bytes32",
          "name": "_idOffer",
          "type": "bytes32"
        },
        {
          "indexed": true,
          "internalType": "bool",
          "name": "_isActive",
          "type": "bool"
        }
      ],
      "name": "LogSetStatusOffer",
      "type": "event"
    },
    {
      "anonymous": false,
      "inputs": [
        {
          "indexed": true,
          "internalType": "bytes32",
          "name": "_idOffer",
          "type": "bytes32"
        },
        {
          "indexed": true,
          "internalType": "address",
          "name": "_token",
          "type": "address"
        }
      ],
      "name": "LogSetTokenOffer",
      "type": "event"
    },
    {
      "anonymous": false,
      "inputs": [
        {
          "indexed": true,
          "internalType": "bytes32",
          "name": "_idTrade",
          "type": "bytes32"
        },
        {
          "indexed": true,
          "internalType": "address",
          "name": "_token",
          "type": "address"
        },
        {
          "indexed": true,
          "internalType": "uint256",
          "name": "_amount",
          "type": "uint256"
        },
        {
          "indexed": false,
          "internalType": "bytes32",
          "name": "_idOffer",
          "type": "bytes32"
        }
      ],
      "name": "LogTrade",
      "type": "event"
    },
    {
      "anonymous": false,
      "inputs": [
        {
          "indexed": true,
          "internalType": "address",
          "name": "previousOwner",
          "type": "address"
        },
        {
          "indexed": true,
          "internalType": "address",
          "name": "newOwner",
          "type": "address"
        }
      ],
      "name": "OwnershipTransferred",
      "type": "event"
    },
    {
      "anonymous": false,
      "inputs": [
        {
          "indexed": true,
          "internalType": "address",
          "name": "implementation",
          "type": "address"
        }
      ],
      "name": "Upgraded",
      "type": "event"
    },
    {
      "inputs": [
        {
          "internalType": "bytes32",
          "name": "offerId",
          "type": "bytes32"
        },
        {
          "internalType": "bytes",
          "name": "maxPriceLimit",
          "type": "bytes"
        }
      ],
      "name": "checkMaxPriceLimitOffer",
      "outputs": [
        {
          "internalType": "bool",
          "name": "",
          "type": "bool"
        }
      ],
      "stateMutability": "view",
      "type": "function"
    },
    {
      "inputs": [
        {
          "internalType": "bytes32",
          "name": "offerId",
          "type": "bytes32"
        },
        {
          "internalType": "bytes",
          "name": "minPriceLimit",
          "type": "bytes"
        }
      ],
      "name": "checkMinPriceLimitOffer",
      "outputs": [
        {
          "internalType": "bool",
          "name": "",
          "type": "bool"
        }
      ],
      "stateMutability": "view",
      "type": "function"
    },
    {
      "inputs": [
        {
          "internalType": "bytes32",
          "name": "offerId",
          "type": "bytes32"
        },
        {
          "internalType": "address",
          "name": "destAddr",
          "type": "address"
        }
      ],
      "name": "depositETHAndAcceptOffer",
      "outputs": [
        {
          "internalType": "bytes32",
          "name": "",
          "type": "bytes32"
        }
      ],
      "stateMutability": "payable",
      "type": "function"
    },
    {
      "inputs": [
        {
          "internalType": "bytes32",
          "name": "offerId",
          "type": "bytes32"
        }
      ],
      "name": "getChainIdOffer",
      "outputs": [
        {
          "internalType": "uint256",
          "name": "",
          "type": "uint256"
        }
      ],
      "stateMutability": "view",
      "type": "function"
    },
    {
      "inputs": [
        {
          "internalType": "bytes32",
          "name": "tradeId",
          "type": "bytes32"
        }
      ],
      "name": "getDepositAmount",
      "outputs": [
        {
          "internalType": "uint256",
          "name": "",
          "type": "uint256"
        }
      ],
      "stateMutability": "view",
      "type": "function"
    },
    {
      "inputs": [
        {
          "internalType": "bytes32",
          "name": "tradeId",
          "type": "bytes32"
        }
      ],
      "name": "getDepositChainId",
      "outputs": [
        {
          "internalType": "uint256",
          "name": "",
          "type": "uint256"
        }
      ],
      "stateMutability": "view",
      "type": "function"
    },
    {
      "inputs": [
        {
          "internalType": "bytes32",
          "name": "tradeId",
          "type": "bytes32"
        }
      ],
      "name": "getDepositToken",
      "outputs": [
        {
          "internalType": "address",
          "name": "",
          "type": "address"
        }
      ],
      "stateMutability": "view",
      "type": "function"
    },
    {
      "inputs": [
        {
          "internalType": "bytes32",
          "name": "tradeId",
          "type": "bytes32"
        }
      ],
      "name": "getIdOffer",
      "outputs": [
        {
          "internalType": "bytes32",
          "name": "",
          "type": "bytes32"
        }
      ],
      "stateMutability": "view",
      "type": "function"
    },
    {
      "inputs": [
        {
          "internalType": "bytes32",
          "name": "offerId",
          "type": "bytes32"
        }
      ],
      "name": "getMaxPriceLimitHashOffer",
      "outputs": [
        {
          "internalType": "bytes32",
          "name": "",
          "type": "bytes32"
        }
      ],
      "stateMutability": "view",
      "type": "function"
    },
    {
      "inputs": [
        {
          "internalType": "bytes32",
          "name": "offerId",
          "type": "bytes32"
        }
      ],
      "name": "getMinPriceLimitHashOffer",
      "outputs": [
        {
          "internalType": "bytes32",
          "name": "",
          "type": "bytes32"
        }
      ],
      "stateMutability": "view",
      "type": "function"
    },
    {
      "inputs": [
        {
          "internalType": "address",
          "name": "user",
          "type": "address"
        }
      ],
      "name": "getNonceDeposit",
      "outputs": [
        {
          "internalType": "uint256",
          "name": "",
          "type": "uint256"
        }
      ],
      "stateMutability": "view",
      "type": "function"
    },
    {
      "inputs": [
        {
          "internalType": "address",
          "name": "user",
          "type": "address"
        }
      ],
      "name": "getNonceOffer",
      "outputs": [
        {
          "internalType": "uint256",
          "name": "",
          "type": "uint256"
        }
      ],
      "stateMutability": "view",
      "type": "function"
    },
    {
      "inputs": [
        {
          "internalType": "bytes32",
          "name": "offerId",
          "type": "bytes32"
        }
      ],
      "name": "getOfferer",
      "outputs": [
        {
          "internalType": "address",
          "name": "",
          "type": "address"
        }
      ],
      "stateMutability": "view",
      "type": "function"
    },
    {
      "inputs": [
        {
          "internalType": "bytes32",
          "name": "tradeId",
          "type": "bytes32"
        }
      ],
      "name": "getRecipient",
      "outputs": [
        {
          "internalType": "address",
          "name": "",
          "type": "address"
        }
      ],
      "stateMutability": "view",
      "type": "function"
    },
    {
      "inputs": [
        {
          "internalType": "bytes32",
          "name": "tradeId",
          "type": "bytes32"
        }
      ],
      "name": "getRequester",
      "outputs": [
        {
          "internalType": "address",
          "name": "",
          "type": "address"
        }
      ],
      "stateMutability": "view",
      "type": "function"
    },
    {
      "inputs": [
        {
          "internalType": "bytes32",
          "name": "offerId",
          "type": "bytes32"
        }
      ],
      "name": "getStatusOffer",
      "outputs": [
        {
          "internalType": "bool",
          "name": "",
          "type": "bool"
        }
      ],
      "stateMutability": "view",
      "type": "function"
    },
    {
      "inputs": [
        {
          "internalType": "bytes32",
          "name": "offerId",
          "type": "bytes32"
        }
      ],
      "name": "getTokenOffer",
      "outputs": [
        {
          "internalType": "address",
          "name": "",
          "type": "address"
        }
      ],
      "stateMutability": "view",
      "type": "function"
    },
    {
      "inputs": [],
      "name": "initialize",
      "outputs": [],
      "stateMutability": "nonpayable",
      "type": "function"
    },
    {
      "inputs": [],
      "name": "owner",
      "outputs": [
        {
          "internalType": "address",
          "name": "",
          "type": "address"
        }
      ],
      "stateMutability": "view",
      "type": "function"
    },
    {
      "inputs": [],
      "name": "proxiableUUID",
      "outputs": [
        {
          "internalType": "bytes32",
          "name": "",
          "type": "bytes32"
        }
      ],
      "stateMutability": "view",
      "type": "function"
    },
    {
      "inputs": [],
      "name": "renounceOwnership",
      "outputs": [],
      "stateMutability": "nonpayable",
      "type": "function"
    },
    {
      "inputs": [
        {
          "internalType": "bytes32",
          "name": "offerId",
          "type": "bytes32"
        },
        {
          "internalType": "uint256",
          "name": "chainId",
          "type": "uint256"
        }
      ],
      "name": "setChainIdOffer",
      "outputs": [],
      "stateMutability": "nonpayable",
      "type": "function"
    },
    {
      "inputs": [
        {
          "internalType": "bytes32",
          "name": "offerId",
          "type": "bytes32"
        },
        {
          "internalType": "bool",
          "name": "isActive",
          "type": "bool"
        }
      ],
      "name": "setIsActive",
      "outputs": [],
      "stateMutability": "nonpayable",
      "type": "function"
    },
    {
      "inputs": [
        {
          "internalType": "bytes32",
          "name": "offerId",
          "type": "bytes32"
        },
        {
          "internalType": "bytes",
          "name": "maxPriceLimit",
          "type": "bytes"
        }
      ],
      "name": "setMaxPriceLimit",
      "outputs": [],
      "stateMutability": "nonpayable",
      "type": "function"
    },
    {
      "inputs": [
        {
          "internalType": "bytes32",
          "name": "offerId",
          "type": "bytes32"
        },
        {
          "internalType": "bytes",
          "name": "minPriceLimit",
          "type": "bytes"
        }
      ],
      "name": "setMinPriceLimit",
      "outputs": [],
      "stateMutability": "nonpayable",
      "type": "function"
    },
    {
      "inputs": [
        {
          "internalType": "address",
          "name": "token",
          "type": "address"
        },
        {
          "internalType": "uint256",
          "name": "chainId",
          "type": "uint256"
        },
        {
          "internalType": "bytes",
          "name": "minPriceLimit",
          "type": "bytes"
        },
        {
          "internalType": "bytes",
          "name": "maxPriceLimit",
          "type": "bytes"
        }
      ],
      "name": "setOffer",
      "outputs": [
        {
          "internalType": "bytes32",
          "name": "",
          "type": "bytes32"
        }
      ],
      "stateMutability": "nonpayable",
      "type": "function"
    },
    {
      "inputs": [
        {
          "internalType": "bytes32",
          "name": "offerId",
          "type": "bytes32"
        },
        {
          "internalType": "address",
          "name": "token",
          "type": "address"
        }
      ],
      "name": "setTokenOffer",
      "outputs": [],
      "stateMutability": "nonpayable",
      "type": "function"
    },
    {
      "inputs": [
        {
          "internalType": "address",
          "name": "newOwner",
          "type": "address"
        }
      ],
      "name": "transferOwnership",
      "outputs": [],
      "stateMutability": "nonpayable",
      "type": "function"
    },
    {
      "inputs": [
        {
          "internalType": "address",
          "name": "newImplementation",
          "type": "address"
        }
      ],
      "name": "upgradeTo",
      "outputs": [],
      "stateMutability": "nonpayable",
      "type": "function"
    },
    {
      "inputs": [
        {
          "internalType": "address",
          "name": "newImplementation",
          "type": "address"
        },
        {
          "internalType": "bytes",
          "name": "data",
          "type": "bytes"
        }
      ],
      "name": "upgradeToAndCall",
      "outputs": [],
      "stateMutability": "payable",
      "type": "function"
    },
    {
      "stateMutability": "payable",
      "type": "receive"
    }
  ],
  "bytecode": "0x60a06040523060805234801561001457600080fd5b5060805161223061005a60003960008181610bbe01528181610c43015281816110e50152818161116a01528181611254015281816116ff015261178401526122306000f3fe6080604052600436106101d15760003560e01c806370d9b55e116100f75780638da5cb5b11610095578063df267e5311610064578063df267e53146105f1578063f2fde38b14610628578063fb3bf1aa14610648578063fbc6da751461067e57600080fd5b80638da5cb5b14610534578063ab805d5814610552578063b4bed2c914610588578063d4a4429a146105c157600080fd5b8063764aa4f0116100d1578063764aa4f01461049f5780637e0a0a38146104cf5780638129fc1c146104ef578063886ee12b1461050457600080fd5b806370d9b55e1461043a578063715018a61461045a57806375012c8b1461046f57600080fd5b80633659cfe61161016f5780634f1ef2861161013e5780634f1ef286146103bc57806352d1902d146103cf57806358381bbd146103e457806360d395a41461041a57600080fd5b80633659cfe6146103085780634516010f146103285780634616c6221461037957806348714c8c1461038c57600080fd5b806329f85f21116101ab57806329f85f21146102685780632c3daef6146102985780632e46e97d146102c857806332adae92146102e857600080fd5b806302e3d25d146101dd578063039c70d7146101ff57806312355ee51461024857600080fd5b366101d857005b600080fd5b3480156101e957600080fd5b506101fd6101f8366004611e8f565b6106b7565b005b34801561020b57600080fd5b5061023561021a366004611ef7565b6001600160a01b031660009081526066602052604090205490565b6040519081526020015b60405180910390f35b34801561025457600080fd5b506101fd610263366004611f12565b6107b8565b34801561027457600080fd5b50610235610283366004611f3e565b600090815260cb602052604090206005015490565b3480156102a457600080fd5b506102356102b3366004611f3e565b600090815260cb602052604090206003015490565b3480156102d457600080fd5b506102356102e3366004611f57565b6108a0565b3480156102f457600080fd5b506101fd610303366004611e8f565b610ab8565b34801561031457600080fd5b506101fd610323366004611ef7565b610bb4565b34801561033457600080fd5b50610361610343366004611f3e565b6000908152606560205260409020600201546001600160a01b031690565b6040516001600160a01b03909116815260200161023f565b610235610387366004611f12565b610d2f565b34801561039857600080fd5b506102356103a7366004611f3e565b60009081526065602052604090206003015490565b6101fd6103ca366004611ff7565b6110db565b3480156103db57600080fd5b50610235611247565b3480156103f057600080fd5b506103616103ff366004611f3e565b600090815260cb60205260409020546001600160a01b031690565b34801561042657600080fd5b506101fd6104353660046120b9565b61130c565b34801561044657600080fd5b506101fd6104553660046120db565b6113da565b34801561046657600080fd5b506101fd6114be565b34801561047b57600080fd5b5061023561048a366004611f3e565b60009081526065602052604090206001015490565b3480156104ab57600080fd5b506104bf6104ba366004611e8f565b6114d2565b604051901515815260200161023f565b3480156104db57600080fd5b506104bf6104ea366004611e8f565b61151a565b3480156104fb57600080fd5b506101fd611541565b34801561051057600080fd5b5061023561051f366004611f3e565b60009081526065602052604090206004015490565b34801561054057600080fd5b506033546001600160a01b0316610361565b34801561055e57600080fd5b5061036161056d366004611f3e565b6000908152606560205260409020546001600160a01b031690565b34801561059457600080fd5b506103616105a3366004611f3e565b600090815260cb60205260409020600201546001600160a01b031690565b3480156105cd57600080fd5b506102356105dc366004611f3e565b600090815260cb602052604090206004015490565b3480156105fd57600080fd5b506104bf61060c366004611f3e565b600090815260656020526040902054600160a01b900460ff1690565b34801561063457600080fd5b506101fd610643366004611ef7565b611660565b34801561065457600080fd5b50610235610663366004611ef7565b6001600160a01b0316600090815260cc602052604090205490565b34801561068a57600080fd5b50610361610699366004611f3e565b600090815260cb60205260409020600101546001600160a01b031690565b6000838152606560205260409020546001600160a01b031633146107485760405162461bcd60e51b815260206004820152603960248201527f4772696e64657279206f666665723a20796f7520617265206e6f7420616c6c6f60448201527f77656420746f206d6f646966792074686973206f666665722e0000000000000060648201526084015b60405180910390fd5b6000828260405160200161075d929190612110565b60408051601f19818403018152828252805160209182012060008881526065909252918120600301829055909250829186917f07374a3fba03120432d42ea4c4633abf8779947d74aba9be446d1097121a2f1991a350505050565b6000828152606560205260409020546001600160a01b031633146108445760405162461bcd60e51b815260206004820152603960248201527f4772696e64657279206f666665723a20796f7520617265206e6f7420616c6c6f60448201527f77656420746f206d6f646966792074686973206f666665722e00000000000000606482015260840161073f565b60008281526065602052604080822060020180546001600160a01b0319166001600160a01b0385169081179091559051909184917f863e7b561a66d01bc9cd4a4588a1161b382b020ffb674dc521b9e01c6adb12159190a35050565b6000336109155760405162461bcd60e51b815260206004820152603960248201527f4772696e64657279206f666665723a207365744f666665722066726f6d207a6560448201527f726f2061646472657373206973206e6f7420616c6c6f77656400000000000000606482015260840161073f565b33600081815260666020908152604080832054905192936109559390920160609290921b6bffffffffffffffffffffffff19168252601482015260340190565b60408051808303601f190181528282528051602091820120600081815260658352929092208054600160a01b7fffffffffffffffffffffff0000000000000000000000000000000000000000009091163360ff60a01b191617178155600181018b905560020180546001600160a01b0319166001600160a01b038d161790559092506109e5918891889101612110565b60408051601f1981840301815282825280516020918201206000858152606583529290922060040191909155610a1f918691869101612110565b60408051601f19818403018152828252805160209182012060008581526065909252919020600301556001600160a01b0389169082907ff73c056028b61c2cc5fea2db5181ab675c0655db32b5fdb913b4da81595e29c690610a84908b815260200190565b60405180910390a3336000908152606660205260408120805491610aa783612120565b909155509098975050505050505050565b6000838152606560205260409020546001600160a01b03163314610b445760405162461bcd60e51b815260206004820152603960248201527f4772696e64657279206f666665723a20796f7520617265206e6f7420616c6c6f60448201527f77656420746f206d6f646966792074686973206f666665722e00000000000000606482015260840161073f565b60008282604051602001610b59929190612110565b60408051601f19818403018152828252805160209182012060008881526065909252918120600401829055909250829186917fb9a7119e06b72f2b1bc63ef093e17701cf0771665166c03758ee1eafbccc109b91a350505050565b6001600160a01b037f0000000000000000000000000000000000000000000000000000000000000000163003610c415760405162461bcd60e51b815260206004820152602c60248201527f46756e6374696f6e206d7573742062652063616c6c6564207468726f7567682060448201526b19195b1959d85d1958d85b1b60a21b606482015260840161073f565b7f00000000000000000000000000000000000000000000000000000000000000006001600160a01b0316610c9c7f360894a13ba1a3210667c828492db98dca3e2076cc3735a920a3ca505d382bbc546001600160a01b031690565b6001600160a01b031614610d075760405162461bcd60e51b815260206004820152602c60248201527f46756e6374696f6e206d7573742062652063616c6c6564207468726f7567682060448201526b6163746976652070726f787960a01b606482015260840161073f565b610d10816116ed565b60408051600080825260208201909252610d2c91839190611848565b50565b6000803411610da65760405162461bcd60e51b815260206004820152603260248201527f4772696e6465727920506f6f6c3a207472616e73666572656420616d6f756e7460448201527f206d75737420626520706f7369746976652e0000000000000000000000000000606482015260840161073f565b6001600160a01b038216610e485760405162461bcd60e51b815260206004820152604260248201527f4772696e6465727920506f6f6c3a207a65726f2061646472657373206173206460448201527f657374696e6174696f6e2061646472657373206973206e6f7420616c6c6f776560648201527f642e000000000000000000000000000000000000000000000000000000000000608482015260a40161073f565b600083815260656020526040902054600160a01b900460ff16610ed35760405162461bcd60e51b815260206004820152602560248201527f4772696e6465727920506f6f6c3a20746865206f6666657220697320696e616360448201527f746976652e000000000000000000000000000000000000000000000000000000606482015260840161073f565b604051600090309034908381818185875af1925050503d8060008114610f15576040519150601f19603f3d011682016040523d82523d6000602084013e610f1a565b606091505b5050905080610f915760405162461bcd60e51b815260206004820152602c60248201527f4772696e6465727920506f6f6c3a206661696c656420746f2073656e64206e6160448201527f7469766520746f6b656e732e0000000000000000000000000000000000000000606482015260840161073f565b33600081815260cc602090815260408083205490519293610fd19390920160609290921b6bffffffffffffffffffffffff19168252601482015260340190565b60408051808303601f190181529181528151602092830120600081815260cb9093529082208054336001600160a01b03199182161782556001820180549091166001600160a01b0389161790559092509061102d9034466119ed565b80516002830180546001600160a01b0319166001600160a01b03909216919091179055602080820151600384015560409182015160048401556005830188905533600090815260cc90915290812080549161108783612120565b91905055503460006001600160a01b0316837fa8878f47c572f18982a9bfa10b8ba2ff221361c1abf2b4c47c9d6360accb5cea896040516110ca91815260200190565b60405180910390a450949350505050565b6001600160a01b037f00000000000000000000000000000000000000000000000000000000000000001630036111685760405162461bcd60e51b815260206004820152602c60248201527f46756e6374696f6e206d7573742062652063616c6c6564207468726f7567682060448201526b19195b1959d85d1958d85b1b60a21b606482015260840161073f565b7f00000000000000000000000000000000000000000000000000000000000000006001600160a01b03166111c37f360894a13ba1a3210667c828492db98dca3e2076cc3735a920a3ca505d382bbc546001600160a01b031690565b6001600160a01b03161461122e5760405162461bcd60e51b815260206004820152602c60248201527f46756e6374696f6e206d7573742062652063616c6c6564207468726f7567682060448201526b6163746976652070726f787960a01b606482015260840161073f565b611237826116ed565b61124382826001611848565b5050565b6000306001600160a01b037f000000000000000000000000000000000000000000000000000000000000000016146112e75760405162461bcd60e51b815260206004820152603860248201527f555550535570677261646561626c653a206d757374206e6f742062652063616c60448201527f6c6564207468726f7567682064656c656761746563616c6c0000000000000000606482015260840161073f565b507f360894a13ba1a3210667c828492db98dca3e2076cc3735a920a3ca505d382bbc90565b6000828152606560205260409020546001600160a01b031633146113985760405162461bcd60e51b815260206004820152603960248201527f4772696e64657279206f666665723a20796f7520617265206e6f7420616c6c6f60448201527f77656420746f206d6f646966792074686973206f666665722e00000000000000606482015260840161073f565b60008281526065602052604080822060010183905551829184917f7bafa37fce79b60ee3ed158b37be29d9cc0e9d20c0998ec8bc0185ffa130c86c9190a35050565b6000828152606560205260409020546001600160a01b031633146114665760405162461bcd60e51b815260206004820152603960248201527f4772696e64657279206f666665723a20796f7520617265206e6f7420616c6c6f60448201527f77656420746f206d6f646966792074686973206f666665722e00000000000000606482015260840161073f565b600082815260656020526040808220805460ff60a01b1916600160a01b851515908102919091179091559051909184917f07e5ac9cec280f0c854fc08fad45e62683275f1d00f6de72f9798fe680c006d09190a35050565b6114c6611a41565b6114d06000611a9b565b565b600083815260656020908152604080832060040154905190916114f9918691869101612110565b604051602081830303815290604052805190602001201490505b9392505050565b600083815260656020908152604080832060030154905190916114f9918691869101612110565b600054610100900460ff16158080156115615750600054600160ff909116105b8061157b5750303b15801561157b575060005460ff166001145b6115ed5760405162461bcd60e51b815260206004820152602e60248201527f496e697469616c697a61626c653a20636f6e747261637420697320616c72656160448201527f647920696e697469616c697a6564000000000000000000000000000000000000606482015260840161073f565b6000805460ff191660011790558015611610576000805461ff0019166101001790555b611618611aed565b8015610d2c576000805461ff0019169055604051600181527f7f26b83ff96e1f2b6a682f133852f6798a09c465da95921460cefb38474024989060200160405180910390a150565b611668611a41565b6001600160a01b0381166116e45760405162461bcd60e51b815260206004820152602660248201527f4f776e61626c653a206e6577206f776e657220697320746865207a65726f206160448201527f6464726573730000000000000000000000000000000000000000000000000000606482015260840161073f565b610d2c81611a9b565b6116f5611a41565b6001600160a01b037f00000000000000000000000000000000000000000000000000000000000000001630036117825760405162461bcd60e51b815260206004820152602c60248201527f46756e6374696f6e206d7573742062652063616c6c6564207468726f7567682060448201526b19195b1959d85d1958d85b1b60a21b606482015260840161073f565b7f00000000000000000000000000000000000000000000000000000000000000006001600160a01b03166117dd7f360894a13ba1a3210667c828492db98dca3e2076cc3735a920a3ca505d382bbc546001600160a01b031690565b6001600160a01b031614610d2c5760405162461bcd60e51b815260206004820152602c60248201527f46756e6374696f6e206d7573742062652063616c6c6564207468726f7567682060448201526b6163746976652070726f787960a01b606482015260840161073f565b7f4910fdfa16fed3260ed0e7147f7cc6da11a60208b5b9406d12a635614ffd91435460ff16156118805761187b83611b60565b505050565b826001600160a01b03166352d1902d6040518163ffffffff1660e01b8152600401602060405180830381865afa9250505080156118da575060408051601f3d908101601f191682019092526118d791810190612147565b60015b61194c5760405162461bcd60e51b815260206004820152602e60248201527f45524331393637557067726164653a206e657720696d706c656d656e7461746960448201527f6f6e206973206e6f742055555053000000000000000000000000000000000000606482015260840161073f565b7f360894a13ba1a3210667c828492db98dca3e2076cc3735a920a3ca505d382bbc81146119e15760405162461bcd60e51b815260206004820152602960248201527f45524331393637557067726164653a20756e737570706f727465642070726f7860448201527f6961626c65555549440000000000000000000000000000000000000000000000606482015260840161073f565b5061187b838383611c1e565b611a1a604051806060016040528060006001600160a01b0316815260200160008152602001600081525090565b50604080516060810182526001600160a01b03909416845260208401929092529082015290565b6033546001600160a01b031633146114d05760405162461bcd60e51b815260206004820181905260248201527f4f776e61626c653a2063616c6c6572206973206e6f7420746865206f776e6572604482015260640161073f565b603380546001600160a01b038381166001600160a01b0319831681179093556040519116919082907f8be0079c531659141344cd1fd0a4f28419497f9722a3daafe3b4186f6b6457e090600090a35050565b600054610100900460ff16611b585760405162461bcd60e51b815260206004820152602b60248201527f496e697469616c697a61626c653a20636f6e7472616374206973206e6f74206960448201526a6e697469616c697a696e6760a81b606482015260840161073f565b6114d0611c49565b6001600160a01b0381163b611bdd5760405162461bcd60e51b815260206004820152602d60248201527f455243313936373a206e657720696d706c656d656e746174696f6e206973206e60448201527f6f74206120636f6e747261637400000000000000000000000000000000000000606482015260840161073f565b7f360894a13ba1a3210667c828492db98dca3e2076cc3735a920a3ca505d382bbc80546001600160a01b0319166001600160a01b0392909216919091179055565b611c2783611cbd565b600082511180611c345750805b1561187b57611c438383611cfd565b50505050565b600054610100900460ff16611cb45760405162461bcd60e51b815260206004820152602b60248201527f496e697469616c697a61626c653a20636f6e7472616374206973206e6f74206960448201526a6e697469616c697a696e6760a81b606482015260840161073f565b6114d033611a9b565b611cc681611b60565b6040516001600160a01b038216907fbc7cd75a20ee27fd9adebab32041f755214dbc6bffa90cc0225b39da2e5c2d3b90600090a250565b60606001600160a01b0383163b611d7c5760405162461bcd60e51b815260206004820152602660248201527f416464726573733a2064656c65676174652063616c6c20746f206e6f6e2d636f60448201527f6e74726163740000000000000000000000000000000000000000000000000000606482015260840161073f565b600080846001600160a01b031684604051611d979190612184565b600060405180830381855af49150503d8060008114611dd2576040519150601f19603f3d011682016040523d82523d6000602084013e611dd7565b606091505b5091509150611dff82826040518060600160405280602781526020016121d460279139611e08565b95945050505050565b60608315611e17575081611513565b6115138383815115611e2c5781518083602001fd5b8060405162461bcd60e51b815260040161073f91906121a0565b60008083601f840112611e5857600080fd5b50813567ffffffffffffffff811115611e7057600080fd5b602083019150836020828501011115611e8857600080fd5b9250929050565b600080600060408486031215611ea457600080fd5b83359250602084013567ffffffffffffffff811115611ec257600080fd5b611ece86828701611e46565b9497909650939450505050565b80356001600160a01b0381168114611ef257600080fd5b919050565b600060208284031215611f0957600080fd5b61151382611edb565b60008060408385031215611f2557600080fd5b82359150611f3560208401611edb565b90509250929050565b600060208284031215611f5057600080fd5b5035919050565b60008060008060008060808789031215611f7057600080fd5b611f7987611edb565b955060208701359450604087013567ffffffffffffffff80821115611f9d57600080fd5b611fa98a838b01611e46565b90965094506060890135915080821115611fc257600080fd5b50611fcf89828a01611e46565b979a9699509497509295939492505050565b634e487b7160e01b600052604160045260246000fd5b6000806040838503121561200a57600080fd5b61201383611edb565b9150602083013567ffffffffffffffff8082111561203057600080fd5b818501915085601f83011261204457600080fd5b81358181111561205657612056611fe1565b604051601f8201601f19908116603f0116810190838211818310171561207e5761207e611fe1565b8160405282815288602084870101111561209757600080fd5b8260208601602083013760006020848301015280955050505050509250929050565b600080604083850312156120cc57600080fd5b50508035926020909101359150565b600080604083850312156120ee57600080fd5b823591506020830135801515811461210557600080fd5b809150509250929050565b8183823760009101908152919050565b60006001820161214057634e487b7160e01b600052601160045260246000fd5b5060010190565b60006020828403121561215957600080fd5b5051919050565b60005b8381101561217b578181015183820152602001612163565b50506000910152565b60008251612196818460208701612160565b9190910192915050565b60208152600082518060208401526121bf816040850160208701612160565b601f01601f1916919091016040019291505056fe416464726573733a206c6f772d6c6576656c2064656c65676174652063616c6c206661696c6564a2646970667358221220cfeed5cac4a08b092a6ecd9dbc5612c0a4c87a05d8442d06312f6fbf32ecadfa64736f6c63430008110033",
  "linkReferences": {},
  "deployedLinkReferences": {}
}