{
  "_format": "hh-sol-artifact-1",
  "contractName": "GrtOfferUtils",
  "sourceName": "contracts/v0.2.0/utils/GrtOfferUtils.sol",
  "abi": [
    {
      "anonymous": false,
      "inputs": [
        {
          "indexed": false,
          "internalType": "uint8",
          "name": "version",
          "type": "uint8"
        }
      ],
      "name": "Initialized",
      "type": "event"
    },
    {
      "anonymous": false,
      "inputs": [
        {
          "indexed": true,
          "internalType": "address",
          "name": "previousOwner",
          "type": "address"
        },
        {
          "indexed": true,
          "internalType": "address",
          "name": "newOwner",
          "type": "address"
        }
      ],
      "name": "OwnershipTransferred",
      "type": "event"
    },
    {
      "inputs": [
        {
          "internalType": "bytes32",
          "name": "idOffer",
          "type": "bytes32"
        }
      ],
      "name": "getAddressPriceContractOffer",
      "outputs": [
        {
          "internalType": "address",
          "name": "",
          "type": "address"
        }
      ],
      "stateMutability": "view",
      "type": "function"
    },
    {
      "inputs": [
        {
          "internalType": "bytes32",
          "name": "idOffer",
          "type": "bytes32"
        }
      ],
      "name": "getChainIdOffer",
      "outputs": [
        {
          "internalType": "uint256",
          "name": "",
          "type": "uint256"
        }
      ],
      "stateMutability": "view",
      "type": "function"
    },
    {
      "inputs": [
        {
          "internalType": "bytes32",
          "name": "idOffer",
          "type": "bytes32"
        }
      ],
      "name": "getLowerLimitFnHashOffer",
      "outputs": [
        {
          "internalType": "bytes32",
          "name": "",
          "type": "bytes32"
        }
      ],
      "stateMutability": "view",
      "type": "function"
    },
    {
      "inputs": [
        {
          "internalType": "address",
          "name": "user",
          "type": "address"
        }
      ],
      "name": "getNonceOffer",
      "outputs": [
        {
          "internalType": "uint256",
          "name": "",
          "type": "uint256"
        }
      ],
      "stateMutability": "view",
      "type": "function"
    },
    {
      "inputs": [
        {
          "internalType": "bytes32",
          "name": "idOffer",
          "type": "bytes32"
        }
      ],
      "name": "getOfferer",
      "outputs": [
        {
          "internalType": "address",
          "name": "",
          "type": "address"
        }
      ],
      "stateMutability": "view",
      "type": "function"
    },
    {
      "inputs": [
        {
          "internalType": "bytes32",
          "name": "idOffer",
          "type": "bytes32"
        }
      ],
      "name": "getStatusOffer",
      "outputs": [
        {
          "internalType": "bool",
          "name": "",
          "type": "bool"
        }
      ],
      "stateMutability": "view",
      "type": "function"
    },
    {
      "inputs": [
        {
          "internalType": "bytes32",
          "name": "idOffer",
          "type": "bytes32"
        }
      ],
      "name": "getTokenOffer",
      "outputs": [
        {
          "internalType": "address",
          "name": "",
          "type": "address"
        }
      ],
      "stateMutability": "view",
      "type": "function"
    },
    {
      "inputs": [
        {
          "internalType": "bytes32",
          "name": "idOffer",
          "type": "bytes32"
        }
      ],
      "name": "getUpperLimitFnHashOffer",
      "outputs": [
        {
          "internalType": "bytes32",
          "name": "",
          "type": "bytes32"
        }
      ],
      "stateMutability": "view",
      "type": "function"
    },
    {
      "inputs": [],
      "name": "owner",
      "outputs": [
        {
          "internalType": "address",
          "name": "",
          "type": "address"
        }
      ],
      "stateMutability": "view",
      "type": "function"
    },
    {
      "inputs": [],
      "name": "renounceOwnership",
      "outputs": [],
      "stateMutability": "nonpayable",
      "type": "function"
    },
    {
      "inputs": [
        {
          "internalType": "address",
          "name": "newOwner",
          "type": "address"
        }
      ],
      "name": "transferOwnership",
      "outputs": [],
      "stateMutability": "nonpayable",
      "type": "function"
    }
  ],
  "bytecode": "0x608060405234801561001057600080fd5b50610471806100206000396000f3fe608060405234801561001057600080fd5b50600436106100c95760003560e01c8063a1c59cef11610081578063df267e531161005b578063df267e5314610204578063e956eb8a1461024f578063f2fde38b1461027257600080fd5b8063a1c59cef1461018c578063ab805d58146101af578063b5ad37a6146101d857600080fd5b8063715018a6116100b2578063715018a61461014e57806375012c8b146101585780638da5cb5b1461017b57600080fd5b8063039c70d7146100ce5780634516010f1461010a575b600080fd5b6100f76100dc3660046103f2565b6001600160a01b031660009081526066602052604090205490565b6040519081526020015b60405180910390f35b610136610118366004610422565b6000908152606560205260409020600201546001600160a01b031690565b6040516001600160a01b039091168152602001610101565b610156610285565b005b6100f7610166366004610422565b60009081526065602052604090206001015490565b6033546001600160a01b0316610136565b6100f761019a366004610422565b60009081526065602052604090206004015490565b6101366101bd366004610422565b6000908152606560205260409020546001600160a01b031690565b6101366101e6366004610422565b6000908152606560205260409020600301546001600160a01b031690565b61023f610212366004610422565b60009081526065602052604090205474010000000000000000000000000000000000000000900460ff1690565b6040519015158152602001610101565b6100f761025d366004610422565b60009081526065602052604090206005015490565b6101566102803660046103f2565b610299565b61028d61032e565b6102976000610388565b565b6102a161032e565b6001600160a01b0381166103225760405162461bcd60e51b815260206004820152602660248201527f4f776e61626c653a206e6577206f776e657220697320746865207a65726f206160448201527f646472657373000000000000000000000000000000000000000000000000000060648201526084015b60405180910390fd5b61032b81610388565b50565b6033546001600160a01b031633146102975760405162461bcd60e51b815260206004820181905260248201527f4f776e61626c653a2063616c6c6572206973206e6f7420746865206f776e65726044820152606401610319565b603380546001600160a01b038381167fffffffffffffffffffffffff0000000000000000000000000000000000000000831681179093556040519116919082907f8be0079c531659141344cd1fd0a4f28419497f9722a3daafe3b4186f6b6457e090600090a35050565b60006020828403121561040457600080fd5b81356001600160a01b038116811461041b57600080fd5b9392505050565b60006020828403121561043457600080fd5b503591905056fea2646970667358221220ab80e3df38a2c7cde356af43c5b32e91305a165a776819180ab0aced55e78fff64736f6c63430008110033",
  "linkReferences": {},
  "deployedLinkReferences": {}
}