{
  "_format": "hh-sol-artifact-1",
  "contractName": "GrtLiquidityWallet",
  "sourceName": "contracts/v0.2.0/GrtLiquidityWallet.sol",
  "abi": [
    {
      "inputs": [
        {
          "internalType": "address",
          "name": "satellite",
          "type": "address"
        },
        {
          "internalType": "address",
          "name": "bot",
          "type": "address"
        }
      ],
      "stateMutability": "nonpayable",
      "type": "constructor"
    },
    {
      "anonymous": false,
      "inputs": [
        {
          "indexed": true,
          "internalType": "address",
          "name": "previousOwner",
          "type": "address"
        },
        {
          "indexed": true,
          "internalType": "address",
          "name": "newOwner",
          "type": "address"
        }
      ],
      "name": "OwnershipTransferred",
      "type": "event"
    },
    {
      "inputs": [],
      "name": "getBot",
      "outputs": [
        {
          "internalType": "address",
          "name": "",
          "type": "address"
        }
      ],
      "stateMutability": "view",
      "type": "function"
    },
    {
      "inputs": [],
      "name": "getSatellite",
      "outputs": [
        {
          "internalType": "address",
          "name": "",
          "type": "address"
        }
      ],
      "stateMutability": "view",
      "type": "function"
    },
    {
      "inputs": [],
      "name": "owner",
      "outputs": [
        {
          "internalType": "address",
          "name": "",
          "type": "address"
        }
      ],
      "stateMutability": "view",
      "type": "function"
    },
    {
      "inputs": [
        {
          "internalType": "bytes32",
          "name": "idOffer",
          "type": "bytes32"
        },
        {
          "internalType": "address",
          "name": "token",
          "type": "address"
        },
        {
          "internalType": "address",
          "name": "to",
          "type": "address"
        },
        {
          "internalType": "uint256",
          "name": "amount",
          "type": "uint256"
        }
      ],
      "name": "payOfferERC20",
      "outputs": [
        {
          "internalType": "bool",
          "name": "",
          "type": "bool"
        }
      ],
      "stateMutability": "nonpayable",
      "type": "function"
    },
    {
      "inputs": [
        {
          "internalType": "bytes32",
          "name": "idOffer",
          "type": "bytes32"
        },
        {
          "internalType": "address",
          "name": "to",
          "type": "address"
        },
        {
          "internalType": "uint256",
          "name": "amount",
          "type": "uint256"
        }
      ],
      "name": "payOfferNative",
      "outputs": [
        {
          "internalType": "bool",
          "name": "",
          "type": "bool"
        }
      ],
      "stateMutability": "nonpayable",
      "type": "function"
    },
    {
      "inputs": [],
      "name": "renounceOwnership",
      "outputs": [],
      "stateMutability": "nonpayable",
      "type": "function"
    },
    {
      "inputs": [
        {
          "internalType": "address",
          "name": "bot",
          "type": "address"
        }
      ],
      "name": "setBot",
      "outputs": [],
      "stateMutability": "nonpayable",
      "type": "function"
    },
    {
      "inputs": [
        {
          "internalType": "address",
          "name": "satellite",
          "type": "address"
        }
      ],
      "name": "setSatellite",
      "outputs": [],
      "stateMutability": "nonpayable",
      "type": "function"
    },
    {
      "inputs": [
        {
          "internalType": "address",
          "name": "newOwner",
          "type": "address"
        }
      ],
      "name": "transferOwnership",
      "outputs": [],
      "stateMutability": "nonpayable",
      "type": "function"
    },
    {
      "inputs": [
        {
          "internalType": "address",
          "name": "_addrGrtToken",
          "type": "address"
        },
        {
          "internalType": "uint256",
          "name": "amount",
          "type": "uint256"
        }
      ],
      "name": "withdrawERC20",
      "outputs": [
        {
          "internalType": "bool",
          "name": "",
          "type": "bool"
        }
      ],
      "stateMutability": "nonpayable",
      "type": "function"
    },
    {
      "inputs": [
        {
          "internalType": "uint256",
          "name": "amount",
          "type": "uint256"
        }
      ],
      "name": "withdrawNative",
      "outputs": [
        {
          "internalType": "bool",
          "name": "",
          "type": "bool"
        }
      ],
      "stateMutability": "nonpayable",
      "type": "function"
    },
    {
      "stateMutability": "payable",
      "type": "receive"
    }
  ],
  "bytecode": "0x608060405234801561001057600080fd5b50604051610b62380380610b6283398101604081905261002f916100d5565b61003833610069565b600180546001600160a01b039384166001600160a01b03199182161790915560028054929093169116179055610108565b600080546001600160a01b038381166001600160a01b0319831681178455604051919092169283917f8be0079c531659141344cd1fd0a4f28419497f9722a3daafe3b4186f6b6457e09190a35050565b80516001600160a01b03811681146100d057600080fd5b919050565b600080604083850312156100e857600080fd5b6100f1836100b9565b91506100ff602084016100b9565b90509250929050565b610a4b806101176000396000f3fe6080604052600436106100c05760003560e01c806384276d8111610074578063d59370e51161004e578063d59370e5146101ea578063e422ebe9146101ff578063f2fde38b1461021457600080fd5b806384276d81146101785780638da5cb5b14610198578063a1db9782146101ca57600080fd5b80636905b8cd116100a55780636905b8cd146101215780636b5caec414610143578063715018a61461016357600080fd5b806315337865146100cc57806342e7d3d31461010157600080fd5b366100c757005b600080fd5b3480156100d857600080fd5b506100ec6100e736600461091c565b610234565b60405190151581526020015b60405180910390f35b34801561010d57600080fd5b506100ec61011c366004610951565b610426565b34801561012d57600080fd5b5061014161013c366004610995565b610589565b005b34801561014f57600080fd5b5061014161015e366004610995565b6105c0565b34801561016f57600080fd5b506101416105f7565b34801561018457600080fd5b506100ec6101933660046109b0565b61060b565b3480156101a457600080fd5b506000546001600160a01b03165b6040516001600160a01b0390911681526020016100f8565b3480156101d657600080fd5b506100ec6101e53660046109c9565b610708565b3480156101f657600080fd5b506101b261078a565b34801561020b57600080fd5b506101b26107a4565b34801561022057600080fd5b5061014161022f366004610995565b6107be565b600080546001600160a01b031633148061025857506002546001600160a01b031633145b6102a95760405162461bcd60e51b815260206004820152601c60248201527f4e6f7420616c6c6f77656420746f2070617920746865206f666665720000000060448201526064015b60405180910390fd5b814710156102f95760405162461bcd60e51b815260206004820152601460248201527f496e73756666696369656e742062616c616e636500000000000000000000000060448201526064016102a0565b6000836001600160a01b03168360405160006040518083038185875af1925050503d8060008114610346576040519150601f19603f3d011682016040523d82523d6000602084013e61034b565b606091505b505090508061039c5760405162461bcd60e51b815260206004820152601c60248201527f4661696c656420746f2073656e64206e617469766520746f6b656e730000000060448201526064016102a0565b60018054604051638a1b172960e01b81526000926001600160a01b0390921691638a1b1729916103d9918a91600401918252602082015260400190565b6020604051808303816000875af11580156103f8573d6000803e3d6000fd5b505050506040513d601f19601f8201168201806040525081019061041c91906109f3565b9695505050505050565b600080546001600160a01b031633148061044a57506002546001600160a01b031633145b6104965760405162461bcd60e51b815260206004820152601c60248201527f4e6f7420616c6c6f77656420746f2070617920746865206f666665720000000060448201526064016102a0565b60405163a9059cbb60e01b81526001600160a01b0384811660048301526024820184905285169063a9059cbb906044016020604051808303816000875af11580156104e5573d6000803e3d6000fd5b505050506040513d601f19601f8201168201806040525081019061050991906109f3565b5060018054604051638a1b172960e01b81526004810188905260248101929092526001600160a01b031690638a1b1729906044016020604051808303816000875af115801561055c573d6000803e3d6000fd5b505050506040513d601f19601f8201168201806040525081019061058091906109f3565b95945050505050565b61059161084e565b6001805473ffffffffffffffffffffffffffffffffffffffff19166001600160a01b0392909216919091179055565b6105c861084e565b6002805473ffffffffffffffffffffffffffffffffffffffff19166001600160a01b0392909216919091179055565b6105ff61084e565b61060960006108a8565b565b600061061561084e565b814710156106655760405162461bcd60e51b815260206004820152601460248201527f496e73756666696369656e742062616c616e636500000000000000000000000060448201526064016102a0565b604051600090339084908381818185875af1925050503d80600081146106a7576040519150601f19603f3d011682016040523d82523d6000602084013e6106ac565b606091505b50509050806106fd5760405162461bcd60e51b815260206004820152601c60248201527f4661696c656420746f2073656e64206e617469766520746f6b656e730000000060448201526064016102a0565b60019150505b919050565b600061071261084e565b60405163a9059cbb60e01b8152336004820152602481018390526001600160a01b0384169063a9059cbb906044016020604051808303816000875af115801561075f573d6000803e3d6000fd5b505050506040513d601f19601f8201168201806040525081019061078391906109f3565b9392505050565b600061079461084e565b506001546001600160a01b031690565b60006107ae61084e565b506002546001600160a01b031690565b6107c661084e565b6001600160a01b0381166108425760405162461bcd60e51b815260206004820152602660248201527f4f776e61626c653a206e6577206f776e657220697320746865207a65726f206160448201527f646472657373000000000000000000000000000000000000000000000000000060648201526084016102a0565b61084b816108a8565b50565b6000546001600160a01b031633146106095760405162461bcd60e51b815260206004820181905260248201527f4f776e61626c653a2063616c6c6572206973206e6f7420746865206f776e657260448201526064016102a0565b600080546001600160a01b0383811673ffffffffffffffffffffffffffffffffffffffff19831681178455604051919092169283917f8be0079c531659141344cd1fd0a4f28419497f9722a3daafe3b4186f6b6457e09190a35050565b80356001600160a01b038116811461070357600080fd5b60008060006060848603121561093157600080fd5b8335925061094160208501610905565b9150604084013590509250925092565b6000806000806080858703121561096757600080fd5b8435935061097760208601610905565b925061098560408601610905565b9396929550929360600135925050565b6000602082840312156109a757600080fd5b61078382610905565b6000602082840312156109c257600080fd5b5035919050565b600080604083850312156109dc57600080fd5b6109e583610905565b946020939093013593505050565b600060208284031215610a0557600080fd5b8151801515811461078357600080fdfea26469706673582212201b18413e3278d12289c383b23b627b4616faac970f5eb3a3f2d844101f7a0e0a64736f6c63430008110033",
  "linkReferences": {},
  "deployedLinkReferences": {}
}